:100000000C94FA020C9417030C9417030C94170326
:100010000C9417030C9417030C9417030C941703F8
:100020000C9417030C9417030C9417030C941703E8
:100030000C94360A0C9417030C9417030C941703B2
:100040000C9417030C9417030C945B190C948719E8
:100050000C9417030C94170A0C9417030C941703B1
:100060000C9417030C9417030C9417030C941703A8
:100070000C9417030C9417030C94F4190C94221A83
:100080000C9417030C9417030C941703C309D0099D
:10009000D009D009D009D009D009D009C509D009A3
:1000A000D009D009C709D009D009D009D009D00991
:1000B000C909D009CB09BF09D009D009D009CD0998
:1000C000CF09C109D009D009D009D009C309D00985
:1000D000D009D009D009D009D009D009C509D00963
:1000E000D009D009C709D009D009D009D009D00951
:1000F000C909D009CB09BF09D009D009D009CD0958
:10010000CF09C109436F756C64206E6F7420636FF3
:100110006E6E65637420746F2073656E736F72000A
:1001200002040E010F110F0002040E111F100E0029
:100130000204000C04040E0002040E1111110E0042
:10014000050A0E1111110E000204001111130D0009
:10015000050A001111130D00206462004453313868
:100160004232303A2000204453313842323020733A
:10017000656E736F72730A00466F756E6420004976
:100180006E7465727275707420656E61626C656400
:100190000A00424D4532383020696E64ED74E173D7
:1001A0000049324320696E64ED74E17300416C6173
:1001B00070E16C6C61706F74626120E16C6CE17372
:1001C0000046FB74E9732076657AE9726CE9732066
:1001D00076302E3800427573206572726F720A0095
:1001E0004E6F2073656E736F7220666F756E640A52
:1001F00000427573207363616E6E696E67202E2EE8
:100200002E0A0047415320616E64204649525354E0
:100210005F464C4F4F525F56414C56452C2053453C
:10022000434F4E445F464C4F4F525F56414C5645EC
:100230002072656C617920646561637469766174AC
:1002400065640A005345434F4E4420464C4F4F527D
:100250002064656163746976617465640A0053455E
:10026000434F4E4420464C4F4F5220616374697691
:10027000617465640A00464952535420464C4F4FFE
:10028000522064656163746976617465640A00462E
:100290004952535420464C4F4F5220616374697643
:1002A000617465640A004741532C20444857206418
:1002B000656163746976617465643B2042554646A6
:1002C00045522072656C617920646561637469765A
:1002D000617465640A004741532061637469766103
:1002E0007465643B204255464645522C204448578D
:1002F0002072656C617920646561637469766174EC
:1003000065640A004448572072656C617920646511
:100310006163746976617465640A004448572072A9
:10032000656C6179206163746976617465642077B6
:10033000697468206275666665720A0044485720D1
:1003400072656C617920616374697661746564209B
:1003500077697468206761730A0046F66C642F45FC
:100360006D656C200050756666657220737A2F701B
:10037000200047E17A2072656CE920003A00484D80
:100380005620737A656C657020002043004BFC6C2E
:1003900073F520002043002E0047E97068E17A20C1
:1003A000002043002E0050756666657220003A00FA
:1003B0002043002E00484D5620000A002E00252024
:1003C0000A00424D453238302048756D69646974C1
:1003D000793A200043200A00424D453238302054FB
:1003E000656D70657261747572653A200002040E65
:1003F000010F110F0002040E111F100E0002040065
:100400000C04040E0002040E1111110E00050A0E58
:100410001111110E000204001111130D00050A0044
:100420001111130D007065726300F3726100537A4D
:10043000697661747479FA207574E16E667574E199
:1004400073004C43442068E17474E972004D656E9A
:10045000FC206964F57AED74F520286D702900544C
:1004600065737A74FC7A656D004B690042650047DC
:10047000E17A20E16C6C61706F74004B6900426539
:100480000050756666657220737A69766174747956
:10049000FA0047E17A00507566666572005075662D
:1004A000666572202F2067E17A20737A656C65702B
:1004B000004B6900426500456D656C657469207389
:1004C0007A656C6570004B690042650046F66C64A5
:1004D000737A696E746920737A656C6570004B6914
:1004E00000426500484D5620737A656C657020E1C6
:1004F0006C6C61706F740047E97068E17A20737A00
:10050000656E7A6F722049440047E97068E17A208D
:100510006BED76E16E742068F56D0047E97068E177
:100520007A206D696E2068F56D002043002E00472B
:10053000E97068E17A20616B742068F56D00507590
:100540006666657220737A656E7A6F722049440020
:10055000456CF572656D656EF52068F56D0020439C
:10056000002E0050756666657220616B742068F518
:100570006D004D61782050657263004D617820F305
:100580007261004D696E2050657263004D696E2086
:10059000F3726100484D5620737A656E7A6F72204F
:1005A000494400484D56206D696E2068F56D00483D
:1005B0004D56206BED76E16E742068F56D0020439A
:1005C000002E00484D5620616B742068F56D004B7D
:1005D000FC6C73F5206D696E2068F56D00424D4529
:1005E0003238302070E1726100424D45323830209F
:1005F00068F56D0011241FBECFEFD0E1DEBFCDBF87
:1006000014E0A0E0B1E0E8E4FBE302C005900D9245
:10061000A438B107D9F725E0A4E8B4E001C01D92E1
:10062000AB3AB207E1F70E94830E0C94A21D0C9422
:100630000000CF93DF93C82F8CEE0E943608811103
:1006400011C08C2F0E945B080E9483088DEE0E94CF
:10065000360881110AC00E947808C82FD0E00E9495
:10066000830805C0C0E0D0E002C0C0E0D0E0CE0109
:10067000DF91CF910895CF93DF93C82F8CEE0E9426
:100680003608811118C08C2F0E945B080E948308D5
:100690008DEE0E943608811111C00E946D08C82F8E
:1006A000D0E0DC2FCC270E947808C82B0E9483085A
:1006B0008C2F9D2F05C080E090E002C080E090E08C
:1006C000DF91CF9108950E943B03982789279827AF
:1006D0000895CF92DF92EF92FF92F82E8CEE0E9457
:1006E000360881112EC08F2D0E945B080E9483085E
:1006F0008DEE0E94360881111BC00E946D08C82E25
:10070000D12CE12CF12CFE2CED2CDC2CCC240E94E5
:100710006D08C82AFE2CED2CDC2CCC240E94780815
:10072000C82A0E9483086C2D7D2D8E2D9F2D0DC013
:1007300084E091E00E94E21960E070E080E090E0E7
:1007400004C060E070E080E090E0FF90EF90DF9008
:10075000CF9008950F931F93CF93DF9388E80E9463
:100760006303C9E1D5E0998388838AE80E94630323
:100770009B838A838CE80E9463039D838C838EE82D
:100780000E9463039F838E8380E90E94630399879D
:10079000888782E90E9463039B878A8784E90E9495
:1007A00063039D878C8786E90E9463039F878E87FA
:1007B00088E90E946303998B888B8AE90E9463030E
:1007C0009B8B8A8B8CE90E9463039D8B8C8B8EE9BB
:1007D0000E9463039F8B8E8B81EA0E941903888F8E
:1007E00081EE0E9463039A8F898F83EE0E94190322
:1007F0008B8F84EE0E9419038C0185EE0E941903F1
:1008000002951295107F1027007F10278F7099276F
:10081000802B912B9D8F8C8F86EE0E9419038C016B
:1008200085EE0E94190302951295107F1027007F14
:100830001027929582958F7089279F708927802B2A
:10084000912B9F8F8E8F87EE0E94190388A3DF91D3
:10085000CF911F910F9108958CEE0E94360881115F
:100860001EC082EF0E945B0885E00E945B0884EF57
:100870000E945B0887EB0E945B0880ED0E945B088A
:100880000E94AA030E9483088DEE0E9436088111FF
:1008900006C00E9478080E94C2190E948308089529
:1008A0008F929F92AF92BF92CF92DF92EF92FF9280
:1008B0000F931F938AEF0E946903E9E1F5E000813D
:1008C000118120E030E0C72ED82EE92EFF24E7FC6E
:1008D000FA94C01AD10AE20AF30ADC01CB01689447
:1008E00016F8B595A795979587951694D1F7000FAB
:1008F000111F221F331F4C015D01801A910AA20AA9
:10090000B30AA5019401A281B3810E94211D4B016C
:100910005C01072E7BE0B594A794979487947A9511
:10092000D1F7702DA7019601C701B6010E94001DE5
:100930009B01AC01012E1CE05595479537952795F5
:100940001A95D1F7102DA481B5810E94211DDC01DB
:10095000CB01072E7EE0B595A795979587957A955B
:10096000D1F7702D880D991DAA1DBB1D80933A05E6
:1009700090933B05A0933C05B0933D058C019D01F0
:10098000000F111F221F331F000F111F221F331FC3
:10099000800F911FA21FB31F80589F4FAF4FBF4FB3
:1009A000692F7A2F8B2F99270E94051C20E030E0B9
:1009B00048EC52E40E945D1B1F910F91FF90EF9055
:1009C000DF90CF90BF90AF909F908F9008954F92FF
:1009D0005F926F927F928F929F92AF92BF92CF92CF
:1009E000DF92EF92FF920E9450048DEF0E943B0332
:1009F00080903A0590903B05A0903C05B0903D0555
:100A00002CE2921A21E0A20AB1086C01E12CF12C2F
:100A10000B2EBEE0CC0CDD1CEE1CFF1CBA95D1F7F2
:100A2000B02DE9E1F5E0848D958D092E000CAA0B1F
:100A3000BB0B072E74E1880F991FAA1FBB1F7A9565
:100A4000D1F7702DC81AD90AEA0AFB0AA68DB78D0C
:100A5000A50194010E94211DC61AD70AE80AF90AC5
:100A600030E4D30EE11CF11C0B2EBFE0F594E794AB
:100A7000D794C794BA95D1F7B02DA38DB0E0A50156
:100A800094010E94161D2B013C01032E3BE075943E
:100A90006794579447943A95D1F7302D40E8540E17
:100AA000611C711CA0A10A2E000CBB0BA5019401B6
:100AB0000E94211D052E5AE095958795779567959B
:100AC0005A95D1F7502DA30192010E94001DDC011F
:100AD000CB01072E7AE0B595A795979587957A95DE
:100AE000D1F7702D9C01AD01405E5F4FA18DB28D9D
:100AF0000E94211DDC01CB01905EAF4FBF4FBC01B6
:100B0000CD01052E5EE095958795779567955A9569
:100B1000D1F7502DA70196010E94001D6B017C01A9
:100B2000052E5FE095958795779567955A95D1F74E
:100B3000502D9B01AC010E94001D9B01AC016894EB
:100B400016F855954795379527951694D1F7A08DAA
:100B5000B0E00E94161DDC01CB01689413F8B59536
:100B6000A795979587951694D1F7A7019601281B0D
:100B7000390B4A0B5B0BDA01C9011AF480E090E0F3
:100B8000DC0181309105A10539E1B30724F080E053
:100B900090E0A0E0B9E1BC01CD01052E5CE09595A7
:100BA0008795779567955A95D1F7502D0E94071C28
:100BB00020E030E040E85AE30E94931CFF90EF9061
:100BC000DF90CF90BF90AF909F908F907F906F906D
:100BD0005F904F90089561157105A9F0FC01680FB1
:100BE000791F80E048E1219198E0382F322730FFCB
:100BF0000CC084278695806826959150B1F7E6173A
:100C0000F70789F7089580E008958695F5CF0F934B
:100C10001F93CF93DF93DB01EC9111969C91119779
:100C2000F0E0F92B803181F4EE7FEE0FFF1FEE0F25
:100C3000FF1FEE0FFF1F16969C9116976CE070E059
:100C4000691B7109E60FF71FFF233CF491E0EA01ED
:100C50009883F195E195F10902C0EA011882883282
:100C600079F414968C91982F9076903649F086FFFF
:100C700002C0EE7F05C085FF02C0EC7F01C0E87FA7
:100C8000CF01929582958F7089279F708927D9010E
:100C90008C93EF70E801E88380E0DF91CF911F91A2
:100CA0000F9108950F931F93CF93DF93EC018B0166
:100CB000B80188810E94B407888381508D3F30F449
:100CC000F8018081883211F0803191F7DF91CF9166
:100CD0001F910F9108950F931F93CF93C82F8B01EE
:100CE0000E9400070E94E406882351F0B80184E4C2
:100CF0000E940E08C13031F00E94ED0680E003C072
:100D000082E001C080E0CF911F910F9108956F9212
:100D10007F928F929F92AF92BF92CF92DF92EF928B
:100D2000FF920F931F93CF93DF93CDB7DEB7299731
:100D30000FB6F894DEBF0FBECDBF6C015B013A0168
:100D400049010E940007B6018EEB0E940E088E0139
:100D50000F5F1F4F7E018AE0E80EF11C0E94B00772
:100D6000F80181938F01EE15FF05C1F769E070E08E
:100D7000CE0101960E94EB05F82E81110BC0840173
:100D80009301A501BE016F5F7F4FF60180810E9434
:100D9000070604C00F2EF3E0FF2EF02D8F2D2996AD
:100DA0000FB6F894DEBF0FBECDBFDF91CF911F917C
:100DB0000F91FF90EF90DF90CF90BF90AF909F90FA
:100DC0008F907F906F900895E0914105F0914205DA
:100DD00090818091400589230895E0913E05F0912E
:100DE0003F05908180914005892B8083E0914305E8
:100DF000F0914405908180914005892B808308956E
:100E0000E0913E05F0913F059081809140058095ED
:100E100089238083E0914305F0914405908180917E
:100E20004005892B80838FE897E08115910511F0AB
:100E30000197F1F72FB7F894E0914305F09144053D
:100E400090818091400580958923808389E091E09D
:100E50008115910511F00197F1F7E0914105F091AD
:100E600042053081809140052FBFE5E8F6E0E115AD
:100E7000F10511F03197F1F7E0914105F09142054C
:100E8000208190914005922311F08323089581E001
:100E90000895509344054093430570933F05609334
:100EA0003E05909342058093410581E001C0880F83
:100EB0002A95EAF7809340050E94000708953FB7FE
:100EC000F894E0914305F09144052081909140050C
:100ED000922B9083E3E0F0E0E115F10511F03197FA
:100EE000F1F7882351F0E0914305F091440520810A
:100EF00090914005909592239083E8E3F0E0E1150E
:100F0000F10511F03197F1F7E0914105F0914205BB
:100F1000208190914005292309F480E0E5EBF0E081
:100F2000E115F10511F03197F1F7E0914305F091EA
:100F3000440520819095922390833FBF0895CF93DD
:100F4000DF93C82FD8E08C2F81700E945F07C69571
:100F50008111C068D150B9F78C2FDF91CF910895DE
:100F60008FEF0E949F070895DF92EF92FF920F93F9
:100F70001F93CF93DF93D82E8B010E94000781111E
:100F80002BC080EF0E949F07E12CC0E40F2EF8EFEA
:100F9000FF2EF02DFC0E81E00E945F07D82F81E02C
:100FA0000E945F07882319F0DD23D1F017C0D1110B
:100FB00024C0CD15E8F0F801808180FF11C0CD116B
:100FC0001AC00EC0C150FC12E6CF0F5F1F4FCF2DCD
:100FD000F110DCCF8E2D1AC08FEF18C08EEF16C027
:100FE00080E00E945F07F801908196959083EACF98
:100FF000EC2ED1E002C0EC2ED1E08D2F0E945F07D5
:10100000F8019081969590689083DCCFDF91CF9125
:101010001F910F91FF90EF90DF900895FF920F9333
:101020001F93CF93DF93F82EEB010E9400072097C8
:1010300069F085E50E949F078E01085F1F4F899127
:101040000E949F07C017D107D1F703C08CEC0E9404
:101050009F078F2D0E949F07DF91CF911F910F91C6
:10106000FF9008958EE2809370000895E4E7F0E029
:10107000108294EA908390819923ECF7909171000B
:10108000987F9830A1F48093730084E88093740073
:10109000E4E7F0E080818823ECF790917100987F7D
:1010A000983139F081E0903429F480E0089581E0AE
:1010B000089580E008958093730084E8809374001D
:1010C000E4E7F0E080818823ECF790917100987F4D
:1010D00081E0983209F480E0089584EC80937400F4
:1010E000E4E7F0E080818823ECF7809173000895B5
:1010F00084E880937400E4E7F0E080818823ECF7D3
:1011000080917300089584E9809374000895AD9AE6
:1011100000C000C0AD980895CF93C82F662311F08A
:10112000AF9A01C0AF98AE98A49AA39AA29AA19A36
:10113000A998AA98AB98AC98CC230CF4A99AC6FDB0
:10114000AA9AC5FDAB9AC4FDAC9A0E948708A998DB
:10115000AA98AB98AC98C3FDA99AC2FDAA9AC1FD02
:10116000AB9AC0FDAC9A0E948708AC9AAB9AAA9A37
:10117000A99ACF910895882311F0AF9A01C0AF9832
:10118000AE9AA498A398A298A198AD9A00C000C066
:101190009C9B02C080E101C080E09B9980629A998B
:1011A000806499998068AD9800C000C0AD9A00C075
:1011B00000C09C9981609B9982609A9984609999FA
:1011C0008860AD98089580E00E94BB088823DCF316
:1011D00088E090E00197F1F780E00E94BB08089555
:1011E000CF93C82F0E94E30860E08C2F0E948C08E8
:1011F000CF910895CF93C82F0E94E30861E08C2F10
:101200000E948C08CF910895611104C080580E94FB
:10121000F0080895613021F480540E94F008089588
:10122000623021F48C560E94F00808958C520E947E
:10123000F008089581E00E94F0080895CF93C82F28
:101240000E94E308CA30A1F4843148F090EC980F72
:10125000943138F084518C3230F080E005C080E465
:1012600003C084E101C084E580580E94F00804C0F6
:1012700061E08C2F0E948C08CF910895CF93DF936B
:10128000EC012196FC018491882339F00E941E090B
:10129000FE01849121968111F9CFDF91CF910895BC
:1012A0001F93CF93DF93182FA79AA69AA59AA49A73
:1012B000A39AA29AA19A80E09AEF0197F1F7AB9ACC
:1012C000AC9A0E94870880E09EE40197F1F70E94A3
:1012D0008708C0E0D1E0CE010197F1F70E948708AE
:1012E000CE010197F1F7AC980E9487082197F1F79A
:1012F00088E20E94F00888E00E94F0080E941A0923
:1013000086E00E94F008812F0E94F008DF91CF91C3
:101310001F9108950F931F93CF93DF9380E40E9452
:10132000F008C0E2D1E009E511E0FE0184910E94DD
:10133000FA082196C017D107C1F7DF91CF911F910D
:101340000F9108959FEF960F662319F0869591509F
:10135000E8F780FF04C081E30E941E09089580E33E
:101360000E941E090895482F50E0FA01E15CF1093E
:10137000EC33F105A8F4EA5BFF4F0C94101D8FEEDF
:101380000FC085EF0DC080E00BC081E009C082E096
:1013900007C083E005C084E003C085E001C086E0AB
:1013A0000E941E090895CF93DF93EC012196FC0162
:1013B0008081882329F00E94B30989918111FBCF94
:1013C000DF91CF9108950F931F93CF93DF9300D0B8
:1013D00000D0CDB7DEB78C014AE0BE016F5F7F4F12
:1013E0000E94381D0A30110518F480E30E941E097E
:1013F000CE0101960E94D3090F900F900F900F908D
:10140000DF91CF911F910F910895CF93DF93EC015E
:101410002196FC018491882339F00E94B309FE01D2
:10142000849121968111F9CFDF91CF9108951F9278
:101430000F920FB60F9211248F939F9384B195B1A1
:101440000A9738F48AE090E09093830080938200BA
:1014500006C084B195B190938300809382009F91E0
:101460008F910F900FBE0F901F9018951F920F92A3
:101470000FB60F9211248F9380918E0480918E0469
:101480008F5F80938E048F910F900FBE0F901F90EF
:1014900018951F93CF93DF9300D01F92CDB7DEB77F
:1014A000809186048F5F809386048C33C1F4109200
:1014B0008604809187048F5F8093870480918704DE
:1014C0008C3369F410928704809188048F5F809335
:1014D000880480918804883111F4109288048091E6
:1014E0008D04813009F44AC038F0823009F474C0A8
:1014F000833009F497C022C10E94500460934605CE
:10150000709347058093480590934905409146059F
:1015100050914705609148057091490522E030E0FF
:1015200081E695E00E94671A609146057091470533
:10153000809148059091490520E030E048EC52E464
:101540000E94931C0E94D61B7093A5056093A4056E
:1015500080918C04882361F088ED93E00E94E21969
:1015600081E695E00E94D31984ED93E00E94E21990
:1015700080918D048F5F80938D04E2C00E94E70408
:1015800060934A0570934B0580934C0590934D05ED
:1015900040914A0550914B0560914C0570914D0565
:1015A00022E030E08EE695E00E94671A80918C047C
:1015B000882361F082EC93E00E94E2198EE695E0C8
:1015C0000E94D3198EEB93E00E94E21980918D0462
:1015D0008F5F80938D04B4C020E047E350E068E360
:1015E00070E086E390E00E944907809154058823CB
:1015F00099F010E0612F70E0660F771F660F771F7C
:10160000660F771F6C587A4F81E00E946B061F5F50
:1016100080915405181770F380918D048F5F80932B
:101620008D048EC020E047E350E068E370E086E37D
:1016300090E00E94490780915405882309F478C0FE
:1016400010E0812F90E0880F991F880F991F880F55
:10165000991F9E012D5F3F4FAE014E5F5F4FBE0150
:101660006F5F7F4F8C589A4F0E948706811118C078
:1016700080918C048823A1F0898190E00E944C1A0B
:101680008A8190E00E944C1A8CEB93E00E94E21950
:101690008B8190E00E944C1A8AEB93E00E94E21941
:1016A00080918904811312C08A8180935C058091A6
:1016B0005C054AE066E575E090E00E94381D8B818C
:1016C0004AE06BE675E090E00E94381D80910201CF
:1016D000811312C08A818093A7058091A7054AE0F3
:1016E0006DE575E090E00E94381D8B814AE068E668
:1016F00075E090E00E94381D80910101811312C0B5
:101700008A8180935A0580915A054AE068EA75E01B
:1017100090E00E94381D8B814AE061E575E090E021
:101720000E94381D1F5F80915405181708F489CF57
:1017300080918D048F5F80938D0402C010928D0480
:10174000809106018111C5C00E941A098091000193
:10175000863008F467C085EB93E00E943E0986E579
:1017600095E00E94D30983EB93E00E943E098BE64B
:1017700095E00E94D30980EB93E00E943E0960E06F
:101780008FE00E9404098091880490E00E94E309A0
:101790008EEA93E00E943E098091870490E00E94C7
:1017A000E30961E080E00E94040986EA93E00E9478
:1017B0003E098DE595E00E94D30984EA93E00E94FA
:1017C0003E0988E695E00E94D30981EA93E00E94F1
:1017D0003E0962E080E00E94040989E993E00E94EA
:1017E000050A88EA95E00E94D30987E993E00E9400
:1017F0003E0981E595E00E94D30984E993E00E94C7
:101800003E0963E080E00E9404098DE893E00E94B5
:10181000050A81E695E00E94D3098AE893E00E94D8
:101820003E094CC08EE793E00E943E0980918A04F5
:1018300064E00E94A20960E08FE00E9404098091A8
:10184000880490E00E94E3098CE793E00E943E093F
:101850008091870490E00E94E30961E080E00E94AB
:10186000040982E793E00E94050A80918A0467E0F8
:101870000E94A20962E080E00E94040985E693E0EC
:101880000E943E0980918A0465E00E94A20980912D
:101890008A0466E00E94A20963E080E00E940409D5
:1018A0008AE593E00E94050A80918A0462E00E9422
:1018B000A20980918A0463E00E94A209809100013C
:1018C000815019F08093000109C08AE080930001E3
:1018D00005C08091060181508093060180918B04A0
:1018E000811101C0369A0F900F900F90DF91CF9128
:1018F0001F910895DF92EF92FF920F931F93CF9362
:10190000DF93CDB7DEB729970FB6F894DEBF0FBED1
:10191000CDBF80918C04882309F43FC081EF91E012
:101920000E94E2198FEF89870F2EF4E7EF2EF5E082
:10193000FF2EF02DD12C8E01075F1F4FBE016F5F70
:101940007F4FC8010E94520699859F3F49F48091BC
:101950008C04882329F180EE91E00E94E21920C0D6
:101960009E3F49F480918C048823D1F085ED91E06D
:101970000E94E21915C0FE013196D70181918D9325
:10198000E017F107D9F7D394992351F088E0E80ED6
:10199000F11C86E0D812D2CF03C08FEF8987C4CF65
:1019A0008D2D29960FB6F894DEBF0FBECDBFDF9107
:1019B000CF911F910F91FF90EF90DF9008950E94BB
:1019C000311960918A0481E00E9445190E944019F2
:1019D000089590915C0580915905981708F055C0BD
:1019E0009091A60580918804981708F44EC09091B4
:1019F000670580918804891708F447C090915505C0
:101A000080915C05981708F44DC09091A7058091CE
:101A100059059817D8F4809104019091050190938D
:101A200085048093840480918A04806980938A0469
:101A300080918A048F7980938A0480918C04882312
:101A400089F18CE393E00E94E2192CC08091840418
:101A500090918504009731F480918A048067809387
:101A60008A0405C001979093850480938404809133
:101A70008A048F7780938A0480918C04882391F064
:101A80008BE193E00E94E2190DC080918A048F706F
:101A900080938A0480918C04882321F084E093E071
:101AA0000E94E21980918A0484FDBBC00E9B09C08C
:101AB0000F9B07C090915A0580914505981708F033
:101AC00092C02091A4053091A50580914F05909179
:101AD00050058217930708F486C090915A058091AB
:101AE0005B05981720F00E9B02C00F993FC09091A4
:101AF000A705809103019817D8F480910401909173
:101B00000501909385048093840480918A04806801
:101B100080938A0480918A048F7880938A048091CC
:101B20008C04882319F186ED92E00E94E2191EC010
:101B30008091840490918504009759F480918A04DF
:101B40008F7680938A0480918A04806680938A04C9
:101B500005C00197909385048093840480918C0440
:101B6000882321F086EA92E00E94E2190E990DC0C6
:101B700080918A04846080938A0480918C048823F5
:101B800021F08FE892E00E94E2190E9B0DC0809137
:101B90008A048B7F80938A0480918C04882321F0AF
:101BA00086E792E00E94E2190F990DC080918A04A5
:101BB000886080938A0480918C04882321F08EE5CC
:101BC00092E00E94E2190F9B2CC080918A04877FCB
:101BD00080938A0480918C04882319F184E492E034
:101BE0000E94E2191EC080918404909185040097A0
:101BF00031F480918A04837F80938A0405C0019721
:101C0000909385048093840480918A048F718093DB
:101C10008A0480918C04882321F083E092E00E9462
:101C2000E21980918C04823010F40E94DF0C089538
:101C300082E090E00E946D1D809389048DE090E029
:101C40000E946D1D809359058CE090E00E946D1DEF
:101C5000809355058BE090E00E946D1D8093670591
:101C60008AE090E00E946D1D80934E0589E090E02F
:101C70000E946D1D8093A60588E090E00E946D1D76
:101C80008093600581E090E00E946D1D80930201C9
:101C900087E090E00E946D1D8093030180E090E05A
:101CA0000E946D1D8093010186E090E00E946D1DF1
:101CB0008093450585E090E00E946D1D80935B0553
:101CC00083E090E00E94751D9093500580934F052E
:101CD00082E190E00E946D1D80938C0481E190E090
:101CE0000E946D1D8093060180E190E00E946D1DB1
:101CF00080938B048EE090E00E94751D9093050107
:101D00008093040108950E94180E8CE00E945009EF
:101D10008DEE93E00E948A09EBE8F0E08081896013
:101D20008083EAE8F0E080818B60808380E890E047
:101D30009093830080938200159A1D9A0E941A093D
:101D400081EC91E00E94050A87E690E00E94AC19C0
:101D5000E1E6F0E080818E7F8083E2E6F0E0808142
:101D60008E7F8083A09A82B18F7382B910928A0489
:101D70000E94DF0C61E080E00E9404098DEA91E09E
:101D80000E94050A62E080E00E940409CAE088E738
:101D90000E941E092FEF83ED90E321508040904078
:101DA000E1F700C00000C15091F70E941A0981EAD2
:101DB00091E00E94050A0E94320861E080E00E94E2
:101DC000040982E991E00E94050A0E942C0478949B
:101DD0008FE791E00E94E219A89581B5886181BDE5
:101DE00081B5876081BD20E047E350E068E370E0A3
:101DF00086E390E00E9449070E947A0C8093540584
:101E000080918C04882369F088E791E00E94E219B0
:101E10008091540590E00E944C1A86E691E00E9461
:101E2000E21962E080E00E9404098CE591E00E94E2
:101E30003E098091540590E00E94E30988E591E015
:101E40000E943E0963E080E00E9404098EB5846030
:101E50008EBD1DBC1CBC84E294EF9BBD8ABD87B7C0
:101E6000806187BF86B18F6C86B90E94C80F809150
:101E70008E04813081F480918E048F5F80938E0474
:101E80000E94490A80918C04823010F40E94E90C6F
:101E9000A89510928E040E94CD0FE9CFEF92FF9289
:101EA0000F931F93CF93DF930E941A090E94251965
:101EB000EC010E942819E0911B01F0911C01968110
:101EC0009923A1F0A081B1811696AC9187E0A89FDB
:101ED000D0011124A35EBE4F12960D90BC91A02D8F
:101EE0001796CD91DC91189716968C912481958147
:101EF000291BE82EF12C1E141F04A4F530E08901E3
:101F0000000F111F000F111F000F111F200F311F95
:101F10008E01020F131FC0E0D0E06C2F80E00E9402
:101F20000409E0911B01F0911C01858190E08C1760
:101F30009D0721F48EE30E941E0903C080E20E94E7
:101F40001E0980E20E941E09F801808191810E9491
:101F5000D3092196CE15DF0529F0075F1F4FC43046
:101F6000D105D9F6DF91CF911F910F91FF90EF909E
:101F70000895EDE1F1E0F0931C01E0931B01118263
:101F8000108213821282148215820E944E0F0895CD
:101F90000E942A190E94B90F08955F926F927F9252
:101FA0008F929F92AF92BF92CF92DF92EF92FF9269
:101FB0000F931F93CF93DF93C7E0D1E00F2EFBE188
:101FC000EF2EF1E0FF2EF02D88248394912C612CCC
:101FD000712C552453940F2EF9E3AF2EF1E0BF2E50
:101FE000F02D0F2EFDE1CF2EF1E0DF2EF02D8E0132
:101FF00080B390E0098002C0959587950A94E2F736
:10200000282D392D80FF02C0262D372DF801828121
:102010009381880F991F906E822B932B93838283D9
:102020008115904F09F011C1F801548281E190E0CF
:102030000E946D1D80930601A89AA0911B01B0918A
:102040001C0116969C911697943009F4DAC0F80199
:1020500080818130F9F038F0823009F449C0833052
:1020600009F4A7C0B5C014968C911497882309F47D
:10207000B8C015969C911597911104C08150149683
:102080008C93AFC0915015969C93159781501496E0
:102090008C93A7C00E942819E0911B01F0911C01AC
:1020A0009681992309F4DAC04481242F30E0A0817D
:1020B000B1811696AC9187E0A89FD0011124A35E50
:1020C000BE4F12960D90BC91A02D16968C9190E06B
:1020D0000197281739070CF07BC08581833019F4EC
:1020E0004F5F448375C08F5F85834F5F448370C0AB
:1020F0000E942519A0911B01B0911C0116964C91CC
:102100001697442379F0ED91FC911197E68127E031
:10211000E29FF0011124E35EFE4F0280F381E02D87
:102120008781908514965C911497252F30E0F901F2
:10213000EE0FFF1FEE0FFF1FEE0FFF1F2E0F3F1FB3
:10214000280F391FF90182819381892B81F0139621
:102150003C932E931297B0921C01A0921B01F601A2
:10216000B58FA48F378F268F50A311A231C0F901EC
:1021700087819085892B61F113963C932E9312975A
:10218000842F90E00196FC01EE0FFF1FEE0FFF1F62
:10219000EE0FFF1FE81BF90BE35EFE4FF0931C01EF
:1021A000E0931B01B183A0831382128214821582F3
:1021B0000FC09923B1F0ED91FC918681F7E08F9FDC
:1021C000C0011124835E9E4F90931C0180931B01DC
:1021D000A0911B01B0911C0116968C91169784302A
:1021E00019F00E944E0F34C0ED91FC9111970280BE
:1021F000F381E02D0280F381E02D14968C910995F6
:1022000027C0ED91FC9111970280F381E02D0480AD
:10221000F581E02D14966C91C80109958823C1F0D1
:10222000E0911B01F0911C010190F081E02D86816D
:1022300027E0829FC0011124835E9E4F90931C0172
:1022400080931B010E944E0F03C0F8011482A898CE
:102250002596CE15DF0509F0CACE0AC04481242F89
:1022600030E090E00197281739070CF436CFB9CF4A
:10227000DF91CF911F910F91FF90EF90DF90CF9062
:10228000BF90AF909F908F907F906F905F900895D8
:102290000E941A0989EE95E00E94050A61E080E03B
:1022A0000E94040981E695E00E94D3090895FC018B
:1022B0008081833029F0862F0E94481180E00895A4
:1022C00081E008950E941A098DED95E00E94050AAB
:1022D00061E080E00E9404098EE695E00E94D30947
:1022E0000895FC018081833029F0862F0E946211BD
:1022F00080E0089581E00895CF93DF9300D000D06F
:10230000CDB7DEB780914F05909150054AE0BE01F0
:102310006F5F7F4F0E94381D0E941A098FEC95E075
:102320000E94050A61E080E00E940409CE01019646
:102330000E94D3090F900F900F900F90DF91CF91D3
:102340000895CF93DF9300D000D0CDB7DEB7809152
:1023500059054AE0BE016F5F7F4F90E00E94381D33
:102360000E941A098FEA95E00E94050A61E080E068
:102370000E940409CE0101960E94D3090F900F908C
:102380000F900F90DF91CF910895CF93DF9300D0FE
:1023900000D0CDB7DEB7809155054AE0BE016F5F32
:1023A0007F4F90E00E94381D0E941A0983EA95E051
:1023B0000E94050A61E080E00E940409CE010196B6
:1023C0000E94D3090F900F900F900F90DF91CF9143
:1023D0000895CF93DF9300D000D0CDB7DEB70E9431
:1023E0001A0984E995E00E94050A61E080E00E94F4
:1023F0000409809189044AE0BE016F5F7F4F90E03D
:102400000E94381DCE0101960E94D3090F900F90B3
:102410000F900F90DF91CF910895CF93DF9300D06D
:102420001F92CDB7DEB70E941A098CE895E00E9492
:10243000050A61E080E00E940409809167054AE096
:10244000BE016F5F7F4F90E00E94381DCE01019664
:102450000E94D3090F900F900F90DF91CF910895B4
:10246000CF93DF9300D01F92CDB7DEB70E941A0939
:1024700083E895E00E94050A61E080E00E9404097B
:1024800080914E054AE0BE016F5F7F4F90E00E9451
:10249000381DCE0101960E94D3090F900F900F9026
:1024A000DF91CF910895CF93DF9300D01F92CDB7E6
:1024B000DEB70E941A098BE795E00E94050A61E0E9
:1024C00080E00E9404098091A6054AE0BE016F5F8A
:1024D0007F4F90E00E94381DCE0101960E94D309E3
:1024E0000F900F900F90DF91CF910895CF93DF93CE
:1024F00000D000D0CDB7DEB70E941A0982E795E080
:102500000E94050A61E080E00E9404098091600554
:102510004AE0BE016F5F7F4F90E00E94381DCE0100
:1025200001960E94D3090F900F900F900F90DF91AA
:10253000CF910895CF93DF9300D000D0CDB7DEB711
:10254000809103014AE0BE016F5F7F4F90E00E94DF
:10255000381D0E941A0980E595E00E94050A61E095
:1025600080E00E940409CE0101960E94D3090F90D9
:102570000F900F900F90DF91CF910895CF93DF933D
:1025800000D000D0CDB7DEB70E941A098EE395E0E7
:102590000E94050A61E080E00E9404098091020126
:1025A0004AE0BE016F5F7F4F90E00E94381DCE0170
:1025B00001960E94D3090F900F900F900F90DF911A
:1025C000CF910895CF93DF9300D000D0CDB7DEB781
:1025D00080915B054AE0BE016F5F7F4F90E00E94F3
:1025E000381D0E941A098BE195E00E94050A61E0FE
:1025F00080E00E940409CE0101960E94D3090F9049
:102600000F900F900F90DF91CF910895CF93DF93AC
:10261000CDB7DEB727970FB6F894DEBF0FBECDBF9C
:10262000809145054AE0BE016F5F7F4F90E00E94B8
:10263000381D0E941A0989E095E00E94050A61E0B0
:1026400080E00E940409CE0101960E94D3092796DA
:102650000FB6F894DEBF0FBECDBFDF91CF910895C6
:10266000CF93DF9300D000D0CDB7DEB70E941A0918
:1026700087EF94E00E94050A61E080E00E9404096F
:10268000809101014AE0BE016F5F7F4F90E00E94A0
:10269000381DCE0101960E94D3090F900F900F9024
:1026A0000F90DF91CF910895CF93DF9300D000D0AA
:1026B000CDB7DEB70E941A098FE594E00E94050AA3
:1026C00061E080E00E94040980918C044AE0BE0130
:1026D0006F5F7F4F90E00E94381DCE0101960E94EF
:1026E000D3090F900F900F900F90DF91CF91089525
:1026F000CF93DF9300D000D0CDB7DEB70E941A0988
:102700008DE494E00E94050A809106014AE0BE0132
:102710006F5F7F4F90E00E94381DCE0101960E94AE
:10272000D3090F900F900F900F90DF91CF910895E4
:10273000CF93DF9300D000D0CDB7DEB70E941A0947
:1027400082E494E00E94050A61E080E00E940409AE
:1027500080918B044AE0BE016F5F7F4F90E00E9442
:10276000381DCE0101960E94D3090F900F900F9053
:102770000F90DF91CF910895CF93DF9300D000D0D9
:10278000CDB7DEB70E941A098EE294E00E94050AD6
:1027900061E080E00E9404098091040190910501AC
:1027A0004AE0BE016F5F7F4F0E94381DCE01019647
:1027B0000E94D3090F900F900F900F90DF91CF914F
:1027C0000895CF93DF9300D01F92CDB7DEB70E945C
:1027D0001A098AE294E00E94050A61E080E00E9402
:1027E0000409809188044AE0BE016F5F7F4F90E04A
:1027F0000E94381DCE0101960E94D3090F900F90C0
:102800000F90DF91CF910895FC018081813071F0AC
:1028100018F08430A8F419C0809188048F5F8093E9
:102820008804883169F4109288040AC08091880471
:102830008150809388048F3F19F487E18093880446
:10284000862F0E94E11380E0089581E00895FC0145
:102850009081913081F028F09230B9F0933021F1DD
:102860001EC080914F05909150050A969093500597
:1028700080934F0514C080914F05909150050A97A1
:102880009093500580934F050AC060914F05709159
:10289000500583E090E00E948C1D81E00895862F12
:1028A0000E947C1180E0089581E00895FC019081F0
:1028B000913081F028F09230B9F0933021F11EC0B0
:1028C00080910401909105010196909305018093F8
:1028D000040114C080910401909105010197909327
:1028E0000501809304010AC0609104017091050103
:1028F0008EE090E00E948C1D81E00895862F0E945A
:10290000BC1380E0089581E008950E941A0983ECC9
:1029100095E00E94050A61E080E00E94040986E5D6
:1029200095E00E94D30981EC95E00E943E098BE678
:1029300095E00E94D3098EEB95E00E943E09089530
:10294000FC018081833029F0862F0E94851480E06D
:10295000089581E008950E941A0983E695E00E9497
:10296000050A61E080E00E9404098DE595E00E947F
:10297000D30981E695E00E943E0988E695E00E9431
:10298000D3098EE595E00E943E090895FC018081FF
:10299000833029F0862F0E94AB1480E0089581E0F7
:1029A00008950E941A098FE295E00E94050A61E0ED
:1029B00080E00E94040988EA95E00E94D3098DE234
:1029C00095E00E943E0981E595E00E94D3098AE2E4
:1029D00095E00E943E090895FC018081833029F032
:1029E000862F0E94D11480E0089581E008950E940E
:1029F0001A0984EE94E00E94050A61E080E00E94DA
:102A0000040980918A0484FF05C081EE94E00E944D
:102A10003E0908958EED94E00E943E0908950E94BB
:102A20001A098CEC94E00E94050A61E080E00E94A3
:102A3000040980918A0482FF05C089EC94E00E9419
:102A40003E09089586EC94E00E943E0908950E9494
:102A50001A0987EB94E00E943E0961E080E00E9441
:102A6000040980918A0483FF05C084EB94E00E94EE
:102A70003E09089581EB94E00E943E0908950E946A
:102A80001A098DE994E00E94050A61E080E00E9445
:102A9000040980918A0485FF05C086E994E00E94BC
:102AA0003E09089582E994E00E94050A08950E9473
:102AB0001A0981E894E00E94050A61E080E00E9422
:102AC000040980918A0486FF05C08EE794E00E9485
:102AD0003E0908958BE794E00E943E0908950E9404
:102AE0001A098FE694E00E94050A61E080E00E94E6
:102AF000040980918A0488232CF48CE694E00E94D7
:102B00003E09089589E694E00E943E090895CF9316
:102B1000DF9300D01F92CDB7DEB70E941A0985E27D
:102B200094E00E943E0961E080E00E9404098091E7
:102B300087044AE0BE016F5F7F4F90E00E94381D1E
:102B4000CE0101960E94D3090F900F900F90DF9154
:102B5000CF910895FC018081813071F018F08430AC
:102B6000A8F419C0809187048F5F809387048C3309
:102B700069F4109287040AC0809187048150809381
:102B800087048F3F19F48BE380938704862F0E947C
:102B9000871580E0089581E00895FC0190819130CF
:102BA00081F028F09230C9F0933021F11EC080915D
:102BB00059058A35D1F0809159058F5F8093590569
:102BC00014C09091590580915505891770F4809132
:102BD000590581508093590508C0609159058DE0D1
:102BE00090E00E947B1D81E00895862F0E94A11134
:102BF00080E0089581E00895FC019081913091F08A
:102C000028F09230C9F0933021F11EC09091550503
:102C1000809159059817C0F4809155058F5F809376
:102C2000550512C080915505863070F0809155058C
:102C300081508093550508C0609155058CE090E067
:102C40000E947B1D81E00895862F0E94C51180E0BF
:102C5000089581E00895FC0190819130A1F028F061
:102C6000923001F1933059F125C0809189048F5F32
:102C700080938904909189048091540598131AC017
:102C80001092890417C0809189048150809389042F
:102C9000809189048F3F71F4809154058150809315
:102CA000890408C06091890482E090E00E947B1D45
:102CB00081E00895862F0E94E91180E0089581E067
:102CC0000895FC019081913081F028F09230A9F0B4
:102CD000933001F11AC0809167058F5F809367057B
:102CE000883199F41092670510C0809167058F3F75
:102CF00061F487E18093670508C0609167058BE008
:102D000090E00E947B1D81E00895862F0E940D12A5
:102D100080E0089581E00895FC019081913081F078
:102D200028F09230C1F0933019F11DC080914E050A
:102D30008F5F80934E058C33B1F410924E0513C013
:102D400080914E05815080934E058F3F61F48BE357
:102D500080934E0508C060914E058AE090E00E9485
:102D60007B1D81E00895862F0E94301280E0089537
:102D700081E00895FC019081913081F028F092303B
:102D8000C1F0933019F11DC08091A6058F5F80932B
:102D9000A6058831B1F41092A60513C08091A6054E
:102DA00081508093A6058F3F61F487E18093A6054B
:102DB00008C06091A60589E090E00E947B1D81E03B
:102DC0000895862F0E94531280E0089581E00895AF
:102DD000FC019081913081F028F09230C1F0933065
:102DE00019F11DC0809160058F5F809360058C3361
:102DF000B1F41092600513C08091600581508093FA
:102E000060058F3F61F48BE38093600508C060919B
:102E1000600588E090E00E947B1D81E00895862F88
:102E20000E94761280E0089581E00895FC0190816F
:102E3000913081F028F09230B9F0933011F11CC03C
:102E4000809103018A35C1F0809103018F5F8093E7
:102E5000030112C080910301853170F0809103015C
:102E600081508093030108C06091030187E090E0E6
:102E70000E947B1D81E00895862F0E949A1280E0B7
:102E8000089581E00895FC0190819130A1F028F02F
:102E9000923001F1933059F125C0809102018F5F8A
:102EA00080930201909102018091540598131AC0F9
:102EB0001092020117C0809102018150809302019B
:102EC000809102018F3F71F480915405815080936D
:102ED000020108C06091020181E090E00E947B1D28
:102EE00081E00895862F0E94BE1280E0089581E05F
:102EF0000895FC019081913091F028F09230C9F052
:102F0000933021F11EC090915B0580914505981783
:102F1000C0F480915B058F5F80935B0512C0809148
:102F20005B05863070F080915B05815080935B0576
:102F300008C060915B0585E090E00E947B1D81E008
:102F40000895862F0E94E21280E0089581E008959E
:102F5000FC019081913081F028F09230C9F09330DB
:102F600021F11EC0809145058332D0F48091450542
:102F70008F5F8093450514C09091450580915B0556
:102F8000891770F48091450581508093450508C0EC
:102F90006091450586E090E00E947B1D81E00895E8
:102FA000862F0E94061380E0089581E00895FC01B9
:102FB00090819130A1F028F0923001F1933059F1D5
:102FC00025C0809101018F5F8093010190910101E3
:102FD0008091540598131AC01092010117C0809176
:102FE0000101815080930101809101018F3F71F4B3
:102FF0008091540581508093010108C060910101C6
:1030000080E090E00E947B1D81E00895862F0E9461
:10301000301380E0089581E00895FC0190819130A3
:1030200061F028F0923079F09330D1F014C08091A3
:103030008C048F5F80938C040EC080918C0481502F
:1030400080938C0408C060918C0482E190E00E941F
:103050007B1D81E00895862F0E94541380E008951F
:1030600081E00895FC019081913061F028F0923068
:1030700079F09330D1F014C0809106018F5F809376
:1030800006010EC08091060181508093060108C0A0
:103090006091060181E190E00E947B1D81E008952E
:1030A000862F0E94781380E0089581E00895FC0146
:1030B0009081913061F028F0923079F0933029F1CD
:1030C00014C080918B048F5F80938B040EC080911D
:1030D0008B04815080938B0408C060918B0480E145
:1030E00090E00E947B1D81E0089580918B048823ED
:1030F00039F080918B0490E090938300809382005C
:10310000862F0E94981380E0089581E00895CF9360
:10311000C62FFC018081823018F0843090F416C0F4
:1031200080918A0482FF06C080918A048F7E8093FA
:103130008A0405C080918A04806180938A040E9479
:10314000DF0C8C2F0E94F71480E001C081E0CF914A
:103150000895CF93C62FFC018081823018F084300F
:1031600048F40DC090918A0484E0892780938A04F2
:103170000E94DF0C8C2F0E940F1580E001C081E0BF
:10318000CF910895CF93C62FFC018081823018F033
:10319000843048F40DC090918A0488E08927809398
:1031A0008A040E94DF0C8C2F0E94271580E001C04A
:1031B00081E0CF910895CF93C62FFC0180818230AA
:1031C00018F0843048F40DC090918A0480E2892779
:1031D00080938A040E94DF0C8C2F0E943F1580E0B0
:1031E00001C081E0CF910895CF93C62FFC0180816B
:1031F000823018F0843048F40DC090918A0480E445
:10320000892780938A040E94DF0C8C2F0E94571517
:1032100080E001C081E0CF910895CF93C62FFC01DB
:103220008081823018F0843040F40CC080918A0490
:10323000805880938A040E94DF0C8C2F0E946F15A7
:1032400080E001C081E0CF91089580E491E008958D
:1032500086E0089581B38F7081BB82B3806F82BB9B
:10326000089587B3876087BB88B3896088BB8BB3B9
:103270008FEF8BBB9AB38ABB8DB183658DB90895EF
:103280006E9887B3897F87BB08954BB321E030E008
:10329000F90102C0EE0FFF1F8A95E2F7CF012E2F32
:1032A000209542234BBB6FB9779BFECF9BB3892BF5
:1032B0008BBB8FB108951F920F920FB60F921124FE
:1032C0002F938F939F93EF93FF938BB12CB18C71BE
:1032D000E091D604EF5FEF719091D504E91739F0D2
:1032E000E093D604F0E0E752FB4F208301C082E078
:1032F0009091D404892B8093D404FF91EF919F91F6
:103300008F912F910F900FBE0F901F9018951F92C5
:103310000F920FB60F9211248F939F93EF93FF9309
:103320009091D8048091D704981761F0E091D70468
:10333000EF5FEF71E093D704F0E0E750FB4F80813F
:103340008CB901C05598FF91EF919F918F910F908B
:103350000FBE0F901F9018951092D8041092D704AA
:103360001092D6041092D504992314F422E02BB9BC
:1033700090789093900089B988E98AB986E0809323
:10338000950008952091D8042F5F2F719091D70454
:103390002917E1F3E22FF0E0E750FB4F8083209301
:1033A000D804559A0895CF93DF93EC018881882340
:1033B00031F021960E94C21989918111FBCFDF91D2
:1033C000CF910895CF93DF93EC012196FC01849176
:1033D000882339F00E94C219FE018491219681113F
:1033E000F9CFDF91CF9108951F920F920FB60F92F0
:1033F00011242F938F939F93EF93FF9380919B00C2
:1034000020919C008C71E0919104EF5FEF7190919D
:103410009004E91739F0E0939104F0E0EC56FB4F8B
:10342000208301C082E090918F04892B80938F04C8
:10343000FF91EF919F918F912F910F900FBE0F9061
:103440001F9018951F920F920FB60F9211248F9311
:103450009F93EF93FF939091930480919204981718
:1034600069F0E0919204EF5FEF71E0939204F0E075
:10347000EC54FB4F808180939C0005C0EAE9F0E0AA
:1034800080818F7D8083FF91EF919F918F910F902D
:103490000FBE0F901F901895CF93DF93CDB7DEB777
:1034A00061970FB6F894DEBF0FBECDBF4AE0BE01F4
:1034B0006F5F7F4F0E94381D0E94D31961960FB62F
:1034C000F894DEBF0FBECDBFDF91CF9108952F924C
:1034D0003F924F925F926F927F928F929F92AF92A4
:1034E000BF92CF92DF92EF92FF920F931F93CF93F1
:1034F000DF93CDB7DEB7A4970FB6F894DEBF0FBE4B
:10350000CDBF8C016A017B01390184E2E6E9F2E07A
:10351000DE01119601900D928A95E1F7CB01BA0177
:103520000E94CF1B4B015C014AE0B801C4010E941C
:10353000381DF8018081882341F0C8010196FC0103
:10354000019620812111FBCF01C0F8018EE2819309
:103550001F01660C771C660C771CFE01E60DF71D3B
:1035600061817281838194810E94071C2B013C013F
:10357000C501B4010E94071C9B01AC01C701B60143
:103580000E94F01A9B01AC01C301B2010E94931C7E
:103590000E94CF1B9B01772324F422273327261B6D
:1035A000370B4AE0B101C9010E94381DC801A49639
:1035B0000FB6F894DEBF0FBECDBFDF91CF911F9144
:1035C0000F91FF90EF90DF90CF90BF90AF909F90C2
:1035D0008F907F906F905F904F903F902F900895C5
:1035E0005058BB27AA270E94081B0C94591C0E9404
:1035F0004B1C38F00E94521C20F039F49F3F19F404
:1036000026F40C94481C0EF4E095E7FB0C94421C45
:10361000E92F0E946A1C58F3BA17620773078407E0
:10362000950720F079F4A6F50C948C1C0EF4E09527
:103630000B2EBA2FA02D0B01B90190010C01CA016C
:10364000A0011124FF27591B99F0593F50F4503E17
:1036500068F11A16F040A22F232F342F4427585F09
:10366000F3CF469537952795A795F0405395C9F721
:103670007EF41F16BA0B620B730B840BBAF09150D9
:10368000A1F0FF0FBB1F661F771F881FC2F70EC078
:10369000BA0F621F731F841F48F48795779567954B
:1036A000B795F7959E3F08F0B0CF9395880F08F037
:1036B0009927EE0F9795879508950E94711B0C949A
:1036C000591C0E94521C58F00E944B1C40F029F4D7
:1036D0005F3F29F00C94421C51110C948D1C0C94EA
:1036E000481C0E946A1C68F39923B1F3552391F397
:1036F000951B550BBB27AA2762177307840738F061
:103700009F5F5F4F220F331F441FAA1FA9F335D0BD
:103710000E2E3AF0E0E832D091505040E695001C71
:10372000CAF72BD0FE2F29D0660F771F881FBB1F2B
:10373000261737074807AB07B0E809F0BB0B802D09
:10374000BF01FF2793585F4F3AF09E3F510578F035
:103750000C94421C0C948D1C5F3FE4F3983ED4F310
:10376000869577956795B795F7959F5FC9F7880F09
:10377000911D9695879597F90895E1E0660F771F5B
:10378000881FBB1F621773078407BA0720F0621BEC
:10379000730B840BBA0BEE1F88F7E09508950E9417
:1037A000D61B6894B1110C948D1C08950E94721C54
:1037B00088F09F5798F0B92F9927B751B0F0E1F0F2
:1037C000660F771F881F991F1AF0BA95C9F714C0A2
:1037D000B13091F00E948C1CB1E008950C948C1CC7
:1037E000672F782F8827B85F39F0B93FCCF38695DB
:1037F00077956795B395D9F73EF490958095709538
:1038000061957F4F8F4F9F4F0895E89409C097FBB4
:103810003EF490958095709561957F4F8F4F9F4FA7
:103820009923A9F0F92F96E9BB279395F6958795EB
:1038300077956795B795F111F8CFFAF4BB0F11F4AE
:1038400060FF1BC06F5F7F4F8F4F9F4F16C0882355
:1038500011F096E911C0772321F09EE8872F762F8B
:1038600005C0662371F096E8862F70E060E02AF0CC
:103870009A95660F771F881FDAF7880F96958795B8
:1038800097F9089597F99F6780E870E060E00895E0
:103890009FEF80EC089500240A9416161706180668
:1038A0000906089500240A94121613061406050644
:1038B0000895092E0394000C11F4882352F0BB0FD5
:1038C00040F4BF2B11F460FF04C06F5F7F4F8F4F38
:1038D0009F4F089557FD9058440F551F59F05F3F73
:1038E00071F04795880F97FB991F61F09F3F79F022
:1038F00087950895121613061406551FF2CF4695A4
:10390000F1DF08C0161617061806991FF1CF869525
:103910007105610508940895E894BB276627772709
:10392000CB0197F908950E94A61C0C94591C0E9483
:103930004B1C38F00E94521C20F0952311F00C947F
:10394000421C0C94481C11240C948D1C0E946A1C6F
:1039500070F3959FC1F3950F50E0551F629FF001E2
:10396000729FBB27F00DB11D639FAA27F00DB11DFB
:10397000AA1F649F6627B00DA11D661F829F222784
:10398000B00DA11D621F739FB00DA11D621F839F0B
:10399000A00D611D221F749F3327A00D611D231FE1
:1039A000849F600D211D822F762F6A2F11249F572F
:1039B00050409AF0F1F088234AF0EE0FFF1FBB1F32
:1039C000661F771F881F91505040A9F79E3F5105F1
:1039D00080F00C94421C0C948D1C5F3FE4F3983EE5
:1039E000D4F3869577956795B795F795E7959F5F9B
:1039F000C1F7FE2B880F911D9695879597F908952D
:103A0000DB018F939F930E94161DBF91AF91A29FE0
:103A1000800D911DA39F900DB29F900D11240895CC
:103A2000EE0FFF1F0590F491E02D09940E94291DCF
:103A3000A59F900DB49F900DA49F800D911D112402
:103A40000895B7FF0C94161D0E94161D821B930B40
:103A50000895A29FB001B39FC001A39F700D811D67
:103A60001124911DB29F700D811D1124911D089587
:103A7000BB274A3031F4992322F4BDE29095819519
:103A80009F4F0C94441DBB27FB015527AA27880F85
:103A9000991FAA1FA41710F0A41B83955051B9F7C2
:103AA000A05DAA3308F0A95DA193009779F7B11141
:103AB000B1931192CB010C945D1DDC01FC01672FC9
:103AC00071917723E1F7329704C07C916D937083F5
:103AD0006291AE17BF07C8F30895E199FECF9FBB6F
:103AE0008EBBE09A99278DB30895A8E1B0E042E03B
:103AF00050E00C94941D262FE199FECF9FBB8EBB06
:103B0000E09A01970DB2021631F02DBB0FB6F89472
:103B1000E29AE19A0FBE08950196272F0E947C1D1C
:103B20000C947B1DDC01CB01FC01E199FECF06C0AA
:103B3000FFBBEEBBE09A31960DB20D924150504062
:083B4000B8F70895F894FFCFD7
:103B48000A02011905000A0007000000010600002A
:103B580000020400000003050000001D0100000031
:103B6800000000000000000000000100000000004C
:103B78000002000000000000030000000000000434
:103B8800BA0200000000052A02C802000000000373
:103B98000F02D9020000000004EB01EB0200000054
:103BA80000037B02FA020000000006B501000300D2
:103BB8000000000576011203BC13561400000040F3
:103BC800040000000002A301210354130D18000093
:103BD800002B037813321800000038039813571885
:103BE8000000004004E11304140000004804871595
:103BF800AA150000004303F71487180000005003BB
:103C08000F15A9180000005F032715C2180000004F
:103C18006B033F15DB180000007B035715F41800F1
:103C280000008C036F150D190000009503D114ECEA
:103C380014000000A403E2127917000000B3030681
:103C480013A817000000C5033013D717000000D4CD
:103C580003AB14C614000000E3039A121617000001
:103C680000F103BE12431700000000048514A014DD
:103C78000000000C04A111CD150000001B04C511A3
:103C8800FC1500000027040000000004570230045F
:103C9800E9112B160000003C040D1261160000000B
:103CA800440430128C160000004D045312BA16005A
:103CB800000055047612E8160000005E044811570B
:103CC8001100000068046211711100000073047C87
:103CD800112714000000000000000A000000640022
:103CE8000000E803000010270000A0860100404201
:103CF8000F008096980000E1F505484D5620626552
:103D0800E16C6CED74E17300507566666572206253
:103D180065E16C6CED74E173004B617AE16E68E10A
:103D28007A207465726D6F737A74004BFC6C73F54E
:103D380020E9727AE96B656CF50052656CE96B00F5
:103D480056657AE9726CF5206265E16C6CED74E198
:103D58007300537A697661747479FA207574E16E28
:103D6800005465737A74FC7A656D004D656EFC20AD
:103D78006964F57AED74F5004C43442068E1747485
:103D8800E97200484D562033206AE1726174FA00E6
:103D98005AF36E612066F66C64737A696E74005A21
:103DA800F36E6120656D656C6574005075666665B7
:103DB800722033206AE1726174FA00507566666594
:103DC8007220737A697661747479FA0047E17A200F
:103DD80072656CE90047E97068E17A20616B7420CC
:103DE80068F56D0047E97068E17A206D696E2068B2
:103DF800F56D0047E97068E17A206BED76E16E7445
:103E08002068F56D0047E97068E17A20737A656E7D
:103E18007A6F720042756666657220616B742068FD
:103E2800F56D00456CF572656D656EF52068F56D8C
:103E38000050756666657220737A656E7A6F7200D7
:103E4800484D5620616B742068F56D00484D56202A
:103E58006BED76E16E742068F56D00484D56206D67
:103E6800696E2068F56D00484D5620F372E16B00CD
:103E7800484D5620737A656E7A6F72004D696E20D0
:103E8800F37261004D696E2070657263004D617850
:103E980020F37261004D61782070657263004BFCFD
:103EA8006C73F52068F56D004BFC6C73F52070E1C0
:103EB8007261004BFC6C73F52068F56D2074696CB9
:043EC80074E173002E
:00000001FF
