:100000000C94BC030C94D9030C94D9030C94D9031D
:100010000C94D9030C94D9030C94D9030C94D903F0
:100020000C94D9030C94D9030C94D9030C94D903E0
:100030000C94F80A0C94D9030C94D9030C94D903AA
:100040000C94D9030C94D9030C94F3200C941F2125
:100050000C94D9030C94D90A0C94D9030C94D903A9
:100060000C94D9030C94D9030C94D9030C94D903A0
:100070000C94D9030C94D9030C948C210C94BA21C0
:100080000C94D9030C94D9030C94D903850A920AD1
:10009000920A920A920A920A920A920A870A920A8B
:1000A000920A920A890A920A920A920A920A920A79
:1000B0008B0A920A8D0A810A920A920A920A8F0A80
:1000C000910A830A920A920A920A920A850A920A6D
:1000D000920A920A920A920A920A920A870A920A4B
:1000E000920A920A890A920A920A920A920A920A39
:1000F0008B0A920A8D0A810A920A920A920A8F0A40
:10010000910A830AE60DEB0DF00DF50DFA0DFF0DCA
:10011000040EFA112B12FA11FC11FA11FC11FA114A
:10012000FA11FC11FA11FC11FA11831488148D14C0
:10013000921497149C14A114436F756C64206E6F15
:100140007420636F6E6E65637420746F2073656EC8
:10015000736F720002040E010F110F0002040E11E2
:100160001F100E000204000C04040E0002040E1105
:1001700011110E00050A0E1111110E0002040011DA
:1001800011130D00050A001111130D002064620007
:10019000445331384232303A2000204453313842FF
:1001A00032302073656E736F72730A00466F756E1E
:1001B000642000496E7465727275707420656E619A
:1001C000626C65640A00424D4532383020696E64C5
:1001D000ED74E1730049324320696E64ED74E1739C
:1001E00000416C6170E16C6C61706F74626120E160
:1001F0006C6CE1730046FB74E9732076657AE972F2
:100200006CE9732076302E39004275732065727266
:100210006F720A004E6F2073656E736F7220666F87
:10022000756E640A00427573207363616E6E696E49
:1002300067202E2E2E0A0047415320616E6420460F
:10024000495253545F464C4F4F525F56414C5645AE
:100250002C205345434F4E445F464C4F4F525F5600
:10026000414C56452072656C617920646561637408
:100270006976617465640A005345434F4E442046D5
:100280004C4F4F5220646561637469766174656494
:100290000A005345434F4E4420464C4F4F52206175
:1002A00063746976617465640A0046495253542048
:1002B000464C4F4F52206465616374697661746582
:1002C000640A00464952535420464C4F4F52206115
:1002D00063746976617465640A004741532C204455
:1002E00048572064656163746976617465643B2076
:1002F0004255464645522072656C617920646561BD
:1003000063746976617465640A00474153206163D0
:10031000746976617465643B204255464645522CAB
:10032000204448572072656C61792064656163746C
:100330006976617465640A004448572072656C618F
:10034000792064656163746976617465640A004448
:1003500048572072656C61792061637469766174B5
:1003600065642077697468206275666665720A0044
:100370004448572072656C617920616374697661C5
:100380007465642077697468206761730A0046F6B3
:100390006C642F456D656C20005075666665722033
:1003A000737A2F70200047E17A2072656CE9200093
:1003B0003A00484D5620737A656C6570200076616E
:1003C00073E1726E617000737A6F6D6261740070B8
:1003D000E96E74656B006373FC7400737A65726414
:1003E00061006B6564640068E97466F5002E002E98
:1003F000002043002E005061646CF3200020430075
:100400002E004E617070616C6920002043002E0048
:10041000476172E17A7320002043004BFC6C73F556
:1004200020002043002E0047E97068E17A20002078
:1004300043002E0050756666657220003A00204326
:10044000002E00484D5620000A002E0025200A00EC
:10045000424D453238302048756D69646974793A87
:10046000200043200A00424D453238302054656D4B
:1004700070657261747572653A200002040E010F96
:10048000110F0002040E111F100E000204000C04D4
:10049000040E0002040E1111110E00050A0E1111B6
:1004A000110E000204001111130D00050A001111B4
:1004B000130D004B6F6D666F727420656CF572657D
:1004C0006D656EF5004B6F6D666F72742068F56D2B
:1004D000004B6F6D666F7274206DF364007661730C
:1004E000E1726E617000737A6F6D6261740070E921
:1004F0006E74656B006373FC74F67274F66B007354
:100500007A65726461006B6564640068E97466F51D
:10051000006E6170206EE976006E61700068F36EA7
:10052000617000E976007065726300F372610053D8
:100530007A697661747479FA207574E16E667574FF
:10054000E173004C43442068E17474E972004D6526
:100550006EFC206964F57AED74F520286D70290031
:100560005465737A74FC7A656D005061646CF32095
:10057000737A656E7A6F72204944002043002F0021
:100580002043002E005061646CF320616B7420687E
:10059000F56D004E617070616C6920737A656E7ADA
:1005A0006F72204944002043002F002043002E009A
:1005B0004E617070616C6920616B742068F56D002C
:1005C000476172E17A7320737A656E7A6F7220499F
:1005D00044002043002F002043002E00476172E1B9
:1005E0007A7320616B742068F56D004B6900426579
:1005F0000047E17A20E16C6C61706F74004B690018
:1006000042650050756666657220737A697661741A
:100610007479FA0047E17A00507566666572005099
:100620007566666572202F2067E17A20737A656CA3
:100630006570004B6900426500456D656C657469C5
:1006400020737A656C6570004B690042650046F660
:100650006C64737A696E746920737A656C65700076
:100660004B6900426500484D5620737A656C657091
:1006700020E16C6C61706F740047E97068E17A206A
:10068000737A656E7A6F722049440047E97068E1B9
:100690007A206BED76E16E742068F56D0047E970A5
:1006A00068E17A206D696E2068F56D002043002FA7
:1006B000002043002E0047E97068E17A20616B74E6
:1006C0002068F56D0050756666657220737A656EF8
:1006D0007A6F7220494400456CF572656D656EF560
:1006E0002068F56D002043002F002043002E0050AD
:1006F000756666657220616B742068F56D004D61EA
:1007000078206964F5004D696E206964F500484DF4
:100710005620737A656E7A6F7220494400484D56B0
:10072000206D696E2068F56D00484D56206BED76A2
:10073000E16E742068F56D002043002F0020430017
:100740002E00484D5620616B742068F56D004BFCFF
:100750006C73F5206D696E2068F56D00424D453271
:1007600038302070E17261002043002F00424D4577
:100770003238302068F56D0011241FBECFEFD0E174
:10078000DEBFCDBF15E0A0E0B1E0E4EDFAE402C0C9
:1007900005900D92A63AB107D9F726E0A6EAB5E092
:1007A00001C01D92A83FB207E1F70E9404110C940A
:1007B00068250C940000CF93DF93C82F8CEE0E9425
:1007C000F808811111C08C2F0E941D090E94450953
:1007D0008DEE0E94F80881110AC00E943A09C82FC4
:1007E000D0E00E94450905C0C0E0D0E002C0C0E0F2
:1007F000D0E0CE01DF91CF910895CF93DF93C82F42
:100800008CEE0E94F808811118C08C2F0E941D09DF
:100810000E9445098DEE0E94F808811111C00E94C6
:100820002F09C82FD0E0DC2FCC270E943A09C82B13
:100830000E9445098C2F9D2F05C080E090E002C0EA
:1008400080E090E0DF91CF9108950E94FD0398270A
:10085000892798270895CF92DF92EF92FF92F82E82
:100860008CEE0E94F80881112EC08F2D0E941D0968
:100870000E9445098DEE0E94F80881111BC00E945C
:100880002F09C82ED12CE12CF12CFE2CED2CDC2CC8
:10089000CC240E942F09C82AFE2CED2CDC2CCC2461
:1008A0000E943A09C82A0E9445096C2D7D2D8E2D83
:1008B0009F2D0DC088E391E00E947A2160E070E0F6
:1008C00080E090E004C060E070E080E090E0FF90A5
:1008D000EF90DF90CF9008950F931F93CF93DF9306
:1008E00088E80E942504CEE3D6E0998388838AE8CD
:1008F0000E9425049B838A838CE80E9425049D83A3
:100900008C838EE80E9425049F838E8380E90E9459
:1009100025049987888782E90E9425049B878A8716
:1009200084E90E9425049D878C8786E90E9425041E
:100930009F878E8788E90E942504998B888B8AE996
:100940000E9425049B8B8A8B8CE90E9425049D8B39
:100950008C8B8EE90E9425049F8B8E8B81EA0E94EE
:10096000DB03888F81EE0E9425049A8F898F83EEA6
:100970000E94DB038B8F84EE0E94DB038C0185EEEB
:100980000E94DB0302951295107F1027007F10272D
:100990008F709927802B912B9D8F8C8F86EE0E94D4
:1009A000DB038C0185EE0E94DB0302951295107F1C
:1009B0001027007F1027929582958F7089279F704E
:1009C0008927802B912B9F8F8E8F87EE0E94DB03D0
:1009D00088A3DF91CF911F910F9108958CEE0E9413
:1009E000F80881111EC082EF0E941D0985E00E9457
:1009F0001D0984EF0E941D0987EB0E941D0980EDEF
:100A00000E941D090E946C040E9445098DEE0E94FF
:100A1000F808811106C00E943A090E945A210E94DA
:100A2000450908958F929F92AF92BF92CF92DF9225
:100A3000EF92FF920F931F938AEF0E942B04EEE335
:100A4000F6E00081118120E030E0C72ED82EE92E9B
:100A5000FF24E7FCFA94C01AD10AE20AF30ADC0187
:100A6000CB01689416F8B595A79597958795169438
:100A7000D1F7000F111F221F331F4C015D01801A97
:100A8000910AA20AB30AA5019401A281B3810E942E
:100A9000E7244B015C01072E7BE0B594A794979463
:100AA00087947A95D1F7702DA7019601C701B601F9
:100AB0000E94C6249B01AC01012E1CE05595479570
:100AC000379527951A95D1F7102DA481B5810E94ED
:100AD000E724DC01CB01072E7EE0B595A79597951D
:100AE00087957A95D1F7702D880D991DAA1DBB1D8C
:100AF00080935F0690936006A0936106B0936206B0
:100B00008C019D01000F111F221F331F000F111FA9
:100B1000221F331F800F911FA21FB31F80589F4FAA
:100B2000AF4FBF4F692F7A2F8B2F99270E94A22397
:100B300020E030E048EC52E40E94FA221F910F912D
:100B4000FF90EF90DF90CF90BF90AF909F908F90ED
:100B500008954F925F926F927F928F929F92AF9281
:100B6000BF92CF92DF92EF92FF920E9412058DEF1B
:100B70000E94FD0380905F0690906006A090610641
:100B8000B09062062CE2921A21E0A20AB1086C0130
:100B9000E12CF12C0B2EBEE0CC0CDD1CEE1CFF1C5E
:100BA000BA95D1F7B02DEEE3F6E0848D958D092E40
:100BB000000CAA0BBB0B072E74E1880F991FAA1F0C
:100BC000BB1F7A95D1F7702DC81AD90AEA0AFB0A19
:100BD000A68DB78DA50194010E94E724C61AD70AF5
:100BE000E80AF90A30E4D30EE11CF11C0B2EBFE039
:100BF000F594E794D794C794BA95D1F7B02DA38D07
:100C0000B0E0A50194010E94DC242B013C01032EDD
:100C10003BE075946794579447943A95D1F7302DFB
:100C200040E8540E611C711CA0A10A2E000CBB0BE5
:100C3000A50194010E94E724052E5AE09595879519
:100C4000779567955A95D1F7502DA30192010E948F
:100C5000C624DC01CB01072E7AE0B595A7959795C0
:100C600087957A95D1F7702D9C01AD01405E5F4F5D
:100C7000A18DB28D0E94E724DC01CB01905EAF4FC5
:100C8000BF4FBC01CD01052E5EE095958795779508
:100C900067955A95D1F7502DA70196010E94C62459
:100CA0006B017C01052E5FE095958795779567959B
:100CB0005A95D1F7502D9B01AC010E94C6249B018F
:100CC000AC01689416F85595479537952795169475
:100CD000D1F7A08DB0E00E94DC24DC01CB01689448
:100CE00013F8B595A795979587951694D1F7A70111
:100CF0009601281B390B4A0B5B0BDA01C9011AF468
:100D000080E090E0DC0181309105A10539E1B30775
:100D100024F080E090E0A0E0B9E1BC01CD01052E17
:100D20005CE095958795779567955A95D1F7502D05
:100D30000E94A42320E030E040E85AE30E945924B6
:100D4000FF90EF90DF90CF90BF90AF909F908F90EB
:100D50007F906F905F904F90089561157105A9F095
:100D6000FC01680F791F80E048E1219198E0382F5D
:100D7000322730FF0CC084278695806826959150D5
:100D8000B1F7E617F70789F7089580E0089586958B
:100D9000F5CF0F931F93CF93DF93DB01EC91119667
:100DA0009C911197F0E0F92B803181F4EE7FEE0FEA
:100DB000FF1FEE0FFF1FEE0FFF1F16969C91169759
:100DC0006CE070E0691B7109E60FF71FFF233CF42C
:100DD00091E0EA019883F195E195F10902C0EA01F9
:100DE0001882883279F414968C91982F90769036E8
:100DF00049F086FF02C0EE7F05C085FF02C0EC7F90
:100E000001C0E87FCF01929582958F7089279F70EE
:100E10008927D9018C93EF70E801E88380E0DF91A6
:100E2000CF911F910F9108950F931F93CF93DF934D
:100E3000EC018B01B80188810E947608888381507B
:100E40008D3F30F4F8018081883211F0803191F7C4
:100E5000DF91CF911F910F9108950F931F93CF931F
:100E6000C82F8B010E94C2070E94A607882351F059
:100E7000B80184E40E94D008C13031F00E94AF076D
:100E800080E003C082E001C080E0CF911F910F910C
:100E900008956F927F928F929F92AF92BF92CF925E
:100EA000DF92EF92FF920F931F93CF93DF93CDB713
:100EB000DEB729970FB6F894DEBF0FBECDBF6C0129
:100EC0005B013A0149010E94C207B6018EEB0E9404
:100ED000D0088E010F5F1F4F7E018AE0E80EF11CE3
:100EE0000E947208F80181938F01EE15FF05C1F78A
:100EF00069E070E0CE0101960E94AD06F82E8111E6
:100F00000BC084019301A501BE016F5F7F4FF60105
:100F100080810E94C90604C00F2EF3E0FF2EF02D41
:100F20008F2D29960FB6F894DEBF0FBECDBFDF918F
:100F3000CF911F910F91FF90EF90DF90CF90BF90D6
:100F4000AF909F908F907F906F900895E09166068C
:100F5000F091670690818091650689230895E0915C
:100F60006306F0916406908180916506892B8083E9
:100F7000E0916806F0916906908180916506892B61
:100F800080830895E0916306F091640690818091DA
:100F90006506809589238083E0916806F091690653
:100FA000908180916506892B80838FE897E0811579
:100FB000910511F00197F1F72FB7F894E0916806C9
:100FC000F0916906908180916506809589238083E0
:100FD00089E091E08115910511F00197F1F7E09119
:100FE0006606F09167063081809165062FBFE5E8BF
:100FF000F6E0E115F10511F03197F1F7E0916606A1
:10100000F0916706208190916506922311F0832369
:10101000089581E00895509369064093680670939F
:10102000640660936306909367068093660681E08A
:1010300001C0880F2A95EAF7809365060E94C207CF
:1010400008953FB7F894E0916806F0916906208111
:1010500090916506922B9083E3E0F0E0E115F105B5
:1010600011F03197F1F7882351F0E0916806F09183
:101070006906208190916506909592239083E8E31C
:10108000F0E0E115F10511F03197F1F7E091660616
:10109000F0916706208190916506292309F480E08C
:1010A000E5EBF0E0E115F10511F03197F1F7E09192
:1010B0006806F091690620819095922390833FBF46
:1010C0000895CF93DF93C82FD8E08C2F81700E94B2
:1010D0002108C6958111C068D150B9F78C2FDF91D6
:1010E000CF9108958FEF0E9461080895DF92EF92EB
:1010F000FF920F931F93CF93DF93D82E8B010E9403
:10110000C20781112BC080EF0E946108E12CC0E46E
:101110000F2EF8EFFF2EF02DFC0E81E00E9421082B
:10112000D82F81E00E942108882319F0DD23D1F017
:1011300017C0D11124C0CD15E8F0F801808180FFDF
:1011400011C0CD111AC00EC0C150FC12E6CF0F5F06
:101150001F4FCF2DF110DCCF8E2D1AC08FEF18C08E
:101160008EEF16C080E00E942108F80190819695CC
:101170009083EACFEC2ED1E002C0EC2ED1E08D2F8F
:101180000E942108F8019081969590689083DCCFA9
:10119000DF91CF911F910F91FF90EF90DF90089515
:1011A000FF920F931F93CF93DF93F82EEB010E94D2
:1011B000C207209769F085E50E9461088E01085FEB
:1011C0001F4F89910E946108C017D107D1F703C052
:1011D0008CEC0E9461088F2D0E946108DF91CF91F5
:1011E0001F910F91FF9008958EE2809370000895F3
:1011F000E4E7F0E0108294EA908390819923ECF781
:1012000090917100987F9830A1F48093730084E8E6
:1012100080937400E4E7F0E080818823ECF79091FC
:101220007100987F983139F081E0903429F480E0A2
:10123000089581E0089580E008958093730084E824
:1012400080937400E4E7F0E080818823ECF79091CC
:101250007100987F81E0983209F480E0089584EC71
:1012600080937400E4E7F0E080818823ECF78091BC
:101270007300089584E880937400E4E7F0E08081CF
:101280008823ECF780917300089584E980937400BB
:101290000895AD9A00C000C0AD980895CF93C82FAF
:1012A000662311F0AF9A01C0AF98AE98A49AA39AA2
:1012B000A29AA19AA998AA98AB98AC98CC230CF4BE
:1012C000A99AC6FDAA9AC5FDAB9AC4FDAC9A0E9424
:1012D0004909A998AA98AB98AC98C3FDA99AC2FDF0
:1012E000AA9AC1FDAB9AC0FDAC9A0E944909AC9A7A
:1012F000AB9AAA9AA99ACF910895882311F0AF9A30
:1013000001C0AF98AE9AA498A398A298A198AD9A5C
:1013100000C000C09C9B02C080E101C080E09B999E
:1013200080629A99806499998068AD9800C000C0E5
:10133000AD9A00C000C09C9981609B9982609A9987
:10134000846099998860AD98089580E00E947D0935
:101350008823DCF388E090E00197F1F780E00E94B9
:101360007D090895CF93C82F0E94A50960E08C2FB6
:101370000E944E09CF910895CF93C82F0E94A509CE
:1013800061E08C2F0E944E09CF910895611104C035
:1013900080580E94B2090895613021F480540E945F
:1013A000B2090895623021F48C560E94B209089562
:1013B0008C520E94B209089581E00E94B2090895FA
:1013C000CF93C82F0E94A509CA30A1F4843148F0F8
:1013D00090EC980F943138F084518C3230F080E0EA
:1013E00005C080E403C084E101C084E580580E9408
:1013F000B20904C061E08C2F0E944E09CF9108957C
:10140000CF93DF93EC012196FC018491882339F07E
:101410000E94E009FE01849121968111F9CFDF91AC
:10142000CF9108951F93CF93DF93182FA79AA69A71
:10143000A59AA49AA39AA29AA19A80E09AEF0197FA
:10144000F1F7AB9AAC9A0E94490980E09EE40197BB
:10145000F1F70E944909C0E0D1E0CE010197F1F710
:101460000E944909CE010197F1F7AC980E94490901
:101470002197F1F788E20E94B20988E00E94B20940
:101480000E94DC0986E00E94B209812F0E94B20905
:10149000DF91CF911F9108950F931F93CF93DF9307
:1014A00080E40E94B209C4E5D1E00DE811E0FE013C
:1014B00084910E94BC092196C017D107C1F7DF9122
:1014C000CF911F910F9108959FEF960F662319F00A
:1014D00086959150E8F780FF04C081E30E94E009FF
:1014E000089580E30E94E0090895482F50E0FA0132
:1014F000E15CF109EC33F105A8F4EA5BFF4F0C94D1
:10150000D6248FEE0FC085EF0DC080E00BC081E0C8
:1015100009C082E007C083E005C084E003C085E025
:1015200001C086E00E94E0090895CF93DF93EC01AB
:101530002196FC018081882329F00E94750A8991F7
:101540008111FBCFDF91CF9108950F931F93CF931C
:10155000DF9300D000D0CDB7DEB78C014AE0BE01EA
:101560006F5F7F4F0E94FE240A30110518F480E35C
:101570000E94E009CE0101960E94950A0F900F90FB
:101580000F900F90DF91CF911F910F910895CF93FE
:10159000DF93EC012196FC018491882339F00E94AD
:1015A000750AFE01849121968111F9CFDF91CF91C7
:1015B00008951F920F920FB60F9211248F939F934D
:1015C00084B195B10A9738F48AE090E09093830053
:1015D0008093820006C084B195B19093830080937C
:1015E00082009F918F910F900FBE0F901F901895C2
:1015F0001F920F920FB60F9211248F938091B30513
:101600008091B3058F5F8093B3058F910F900FBECC
:101610000F901F901895CF92DF92EF92FF921F9339
:10162000CF93DF9300D01F92CDB7DEB78091A8058E
:10163000813009F479C038F0823009F49DC08330DC
:1016400009F4AEC0D8C10E941205AB01BC014093A1
:10165000700650937106609372067093730622E0D1
:1016600030E084EA96E00E94FF2120E030E048EC80
:1016700052E46091700670917106809172069091AB
:1016800073060E9459240E946C2370939B066093FA
:101690009A068091B205882361F086E694E00E9464
:1016A0007A2184EA96E00E946B2182E694E00E940F
:1016B0007A218091A8058F5F8093A805C09070065D
:1016C000D0907106E0907206F09073062091840627
:1016D000309185064091860650918706C701B60174
:1016E0000E945424181644F4C0928406D0928506B1
:1016F000E0928606F092870620918806309189064E
:1017000040918A0650918B06C701B6010E94F522CE
:1017100088230CF072C1C0928806D0928906E092AC
:101720008A06F0928B0669C10E94A905AB01BC0133
:10173000409374065093750660937606709377060F
:1017400022E030E08BEB96E00E94FF218091B20511
:10175000882361F080E594E00E947A218BEB96E08B
:101760000E946B218CE494E00E947A218091A8056C
:101770008F5F8093A80541C120E047E350E068E314
:1017800070E086E390E00E940B0860E070E081E08A
:101790000E942D078091A8058F5F8093A8052DC119
:1017A00020E047E350E068E370E086E390E00E94C9
:1017B0000B0880918006882309F417C110E0812F5F
:1017C00090E0880F991F880F991F880F991F9E011D
:1017D0002D5F3F4FAE014E5F5F4FBE016F5F7F4F8A
:1017E0008E53994F0E944907811118C08091B2050C
:1017F0008823A1F0898190E00E94E4218A8190E011
:101800000E94E4218AE494E00E947A218B8190E096
:101810000E94E42188E494E00E947A218091AE0540
:10182000811322C08A81809396064AE06CE876E0B4
:1018300090E00E94FE248B814AE068EB76E090E025
:101840000E94FE248091820690919606891710F4DA
:10185000809396068091810690919606981708F0DD
:10186000BEC080939606BBC080910901811322C03F
:101870008A818093F7064AE067E976E090E00E946B
:10188000FE248B814AE06CEA76E090E00E94FE2420
:1018900080916B069091F706891710F48093F706F4
:1018A0008091AB069091F706981708F098C0809346
:1018B000F70695C080910701811322C08A81809329
:1018C00083064AE06DE776E090E00E94FE248B817B
:1018D0004AE06FE876E090E00E94FE248091AF0637
:1018E00090918306891710F4809383068091B60641
:1018F00090918306981708F072C0809383066FC09A
:1019000080910801811322C08A81809394064AE065
:1019100064EF76E090E00E94FE248B814AE06FE95C
:1019200076E090E00E94FE248091C106909194069A
:10193000891710F4809394068091950690919406EF
:10194000981708F04CC08093940649C08091060116
:10195000811321C08A8180936A064AE06DE676E0B1
:1019600090E00E94FE248B814AE062EB76E090E0FA
:101970000E94FE248091F20690916A06891710F465
:1019800080936A068091B50690916A06981738F59B
:1019900080936A0624C080910501811320C08A814A
:1019A0008093B7064AE068E776E090E00E94FE2464
:1019B0008B814AE06CE976E090E00E94FE24809101
:1019C000F3069091B706891710F48093B7068091BB
:1019D00093069091B706981710F48093B7061F5F8F
:1019E00080918006181708F4EACE8091A8058F5FD1
:1019F0008093A80502C01092A80580910F01811163
:101A000062C10E94DC09809100018B3008F467C03C
:101A100083E494E00E94000A8CE896E00E94950A14
:101A200081E494E00E94000A88EB96E00E94950A07
:101A30008EE394E00E94000A60E08FE00E94C609F5
:101A40008091AD0590E00E94A50A8CE394E00E948D
:101A5000000A8091AC0590E00E94A50A61E080E058
:101A60000E94C60984E394E00E94000A87E996E098
:101A70000E94950A82E394E00E94000A8CEA96E0B4
:101A80000E94950A8FE294E00E94000A62E080E0E2
:101A90000E94C60987E294E00E94C70A8DE796E09B
:101AA0000E94950A85E294E00E94000A8FE896E081
:101AB0000E94950A82E294E00E94000A63E080E0BE
:101AC0000E94C6098BE194E00E94C70A84EA96E06E
:101AD0000E94950A88E194E00E94000AE9C09AEF0A
:101AE000980F953008F095C080E194E00E94C70AF5
:101AF00084EF96E00E94950A8EE094E00E94000A2E
:101B00008FE996E00E94950A8BE094E00E94000A1B
:101B100061E080E00E94C60982E094E00E94000A31
:101B20008DE696E00E94950A80E094E00E94000A0B
:101B300082EB96E00E94950A8DEF93E00E94000AE6
:101B400062E080E00E94C60986EF93E00E94C70A27
:101B500088E796E00E94950A84EF93E00E94000ACD
:101B60008CE996E00E94950A81EF93E00E94000ABA
:101B700063E080E00E94C609809103019091040116
:101B80000E94A50A8FEE93E00E94000A8091020154
:101B900090E00E94A50A8DEE93E00E94000A8091D9
:101BA000010190E00E94A50A63E08CE00E94C60952
:101BB000E091A9058E2F90E0FC013197E730F10507
:101BC00008F076C0EE57FF4F0C94D62487EE93E0D2
:101BD0000E94C70A6DC082EE93E00E94C70A68C0E7
:101BE0008BED93E00E94C70A63C086ED93E00E94EC
:101BF000C70A5EC08FEC93E00E94C70A59C087EC09
:101C000093E00E94C70A54C08EEB93E00E94C70A7B
:101C10004FC0863008F04CC082EB93E00E94000A6F
:101C200064E08091AF050E94640A60E08FE00E944A
:101C3000C6098091AD0590E00E94A50A80EB93E073
:101C40000E94000A8091AC0590E00E94A50A61E024
:101C500080E00E94C60986EA93E00E94C70A67E016
:101C60008091AF050E94640A62E080E00E94C6098C
:101C700089E993E00E94000A65E08091AF050E9427
:101C8000640A66E08091AF050E94640A63E080E028
:101C90000E94C6098EE893E00E94C70A62E0809124
:101CA000AF050E94640A63E08091AF050E94640A58
:101CB00080910001815019F08093000107C08FE0EE
:101CC0008093000103C0815080930F018091B10582
:101CD000811101C0369A0F900F900F90DF91CF9134
:101CE0001F91FF90EF90DF90CF900895DF92EF92D9
:101CF000FF920F931F93CF93DF93CDB7DEB7299752
:101D00000FB6F894DEBF0FBECDBF8091B205882319
:101D100009F43FC085E292E00E947A218FEF898723
:101D20000F2EF2ECEF2EF6E0FF2EF02DD12C8E01CF
:101D3000075F1F4FBE016F5F7F4FC8010E941407EE
:101D400099859F3F49F48091B205882329F184E168
:101D500092E00E947A2120C09E3F49F48091B20512
:101D60008823D1F089E092E00E947A2115C0FE011B
:101D70003196D70181918D93E017F107D9F7D3946C
:101D8000992351F088E0E80EF11C86E0D812D2CFFA
:101D900003C08FEF8987C4CF8D2D29960FB6F89495
:101DA000DEBF0FBECDBFDF91CF911F910F91FF908E
:101DB000EF90DF9008950E94C9206091AF0581E007
:101DC0000E94DD200E94D8200895CF93C091AF05D6
:101DD0008091AA05882329F1909196068091920618
:101DE0009817D8F48091AD052091AC0530E094E6C9
:101DF000899F200D311D11248091B0069091B1066C
:101E00008217930760F081E04091A2065091A306EB
:101E10002417350770F480E00CC080E00AC080E031
:101E200008C081E02091960690919206291708F04B
:101E300080E08823E9F190918106809196069817B9
:101E400008F443C09091F706809192069817B8F471
:101E500080910D0190910E019093A7058093A605A6
:101E60008C2F8F7980698093AF058091B20588238C
:101E700009F43DC180E793E00E947A2126C0809159
:101E8000A6059091A705009729F001979093A705C3
:101E90008093A6058C2F8F778093AF058091B20534
:101EA000882309F424C18FE493E00E947A210DC0B5
:101EB0008C2F8F768093AF058091B205882309F42B
:101EC00016C188E393E00E947A218091AF0584FDDA
:101ED00003C10E9B1BC00F9B19C0209183069091DC
:101EE0006C06291798F09091B005992309F4D6C093
:101EF00020916A0690910C01291708F0CFC020911B
:101F0000F70690910B01921708F0C8C040919A060D
:101F100050919B0620917B0630917C062417350753
:101F200008F4BCC0209183069091B606291720F0D2
:101F30000E9B02C00F9937C02091F70690910A01BD
:101F40002917B0F420910D0130910E013093A705AF
:101F50002093A6058F7880688093AF058091B205A5
:101F6000882309F442C08AE093E00E947A213DC0B0
:101F70002091A6053091A7052115310529F48F760A
:101F800080668093AF0506C0215031093093A705C4
:101F90002093A6058091B205882339F18AED92E05D
:101FA0000E947A2122C020916A0690910C01291783
:101FB000E0F42091F70690910B019217B0F40E9B7C
:101FC00014C00F9B12C02091A6053091A7052115C2
:101FD000310529F48F7680668093AF0506C02150C5
:101FE00031093093A7052093A6050E990DC0809165
:101FF000AF0584608093AF058091B205882321F0FE
:1020000083EC92E00E947A210E9B0DC08091AF0577
:102010008B7F8093AF058091B205882321F08AEAF7
:1020200092E00E947A210F990DC08091AF058860DF
:102030008093AF058091B205882321F082E992E078
:102040000E947A210F9B0EC08091AF05877F8093FD
:10205000AF058091B205882309F44EC088E792E06D
:102060000E947A218091B0058823B1F190916A068F
:1020700080910C01981760F49091F70680910B0104
:10208000891730F48091AF0584608093AF0524C038
:102090008091AF058B7F8093AF051EC02091A60570
:1020A0003091A7052115310521F4837F8093AF0579
:1020B00006C0215031093093A7052093A6058091D1
:1020C000AF058F718093AF058091B205882341F0F1
:1020D00087E392E00E947A218091B205823088F4F1
:1020E0008091AF05C81769F00E94DB0E0AC080918D
:1020F000AF0584FFEECEF4CF8091B0058111B6CF4D
:10210000EFCFCF91089585E090E00E943325809332
:10211000AE0580E190E00E943325809392068FE027
:1021200090E00E943325809381068DE090E00E942C
:102130003B259093A3068093A2068BE090E00E943B
:102140003B259093B1068093B00684E090E00E9416
:102150003325809309018AE090E00E943325809323
:102160000A0182E090E00E9433258093070189E014
:1021700090E00E94332580936C0688E090E00E94F6
:1021800033258093B60683E090E00E943325809348
:10219000080181E090E00E9433258093060186E0EB
:1021A00090E00E943B2590937C0680937B0688E11B
:1021B00090E00E9433258093B20587E190E00E9471
:1021C000332580930F0186E190E00E9433258093B0
:1021D000B10584E190E00E943B2590930E0180932D
:1021E0000D0183E190E00E9433258093B00582E1E8
:1021F00090E00E94332580930C0181E190E00E94E1
:10220000332580930B0108950E9483108CE00E9477
:10221000120A8BE794E00E944C0AEBE8F0E0808120
:1022200089608083EAE8F0E080818B60808380E8C9
:1022300090E09093830080938200159A1D9A0E94EB
:10224000DC0985EF91E00E94C70A87E690E00E94D2
:102250004421E1E6F0E080818E7F8083E2E6F0E0D9
:1022600080818E7F8083A09A82B18F7382B9109211
:10227000AF050E94DB0E61E080E00E94C60981EE9E
:1022800091E00E94C70A62E080E00E94C609DAE09D
:1022900088E70E94E0092FEF83ED90E32150804012
:1022A0009040E1F700C00000D15091F70E94DC0996
:1022B00085ED91E00E94C70A0E94F40861E080E089
:1022C0000E94C60986EC91E00E94C70A0E94EE04B3
:1022D000789483EB91E00E947A2120E047E350E07C
:1022E00068E370E086E390E00E940B080E94760E9F
:1022F000809380068091B205882369F08CEA91E092
:102300000E947A218091800690E00E94E4218AE96F
:1023100091E00E947A2162E080E00E94C60980E993
:1023200091E00E94000A8091800690E00E94A50A38
:102330008CE891E00E94000A2FEF8BE792E9215090
:1023400080409040E1F700C000008EB58C608EBDEB
:102350001DBC1CBC84E294EF9BBD8ABD87B7806125
:1023600087BF86B18F6C86B9A89581B5886181BD1C
:1023700081B5876081BD0E94AC12D1E01DE10FE103
:102380008091B305813009F05EC08091AB058F5F0D
:102390008C3319F08093AB054BC01092AB05809144
:1023A000AC058F5F8C3319F08093AC0541C010925F
:1023B000AC058091AD058F5F883119F08093AD0534
:1023C00037C01092AD058091A9058F5F883019F054
:1023D0008093A90502C0D093A90520910201822F04
:1023E00090E0FC013197EC30F10538F4E757FF4FEE
:1023F0000C94D624C0E201C0C02F809101018F5FF0
:10240000C81719F08093010113C0D09301012F5F09
:102410002D3019F0209302010BC0D093020180915E
:1024200003019091040101969093040180930301AC
:102430000E940B0B8091B205823010F40E94E50ED1
:10244000A8951092B3050E94B1129ACFD0930101C2
:102450002F5FC12FDFCF809101018F5F8D31B1F3ED
:10246000C12FD0CFEF92FF920F931F93CF93DF93A3
:102470000E94DC090E94BD20EC010E94C020E09176
:102480002401F091250196819923A1F0A081B181C9
:102490001696AC9187E0A89FD0011124AA5DBE4F8B
:1024A00012960D90BC91A02D1796CD91DC911897A6
:1024B00016968C9124819581291BE82EF12C1E14EF
:1024C0001F04A4F530E08901000F111F000F111F38
:1024D000000F111F200F311F8E01020F131FC0E0CC
:1024E000D0E06C2F80E00E94C609E0912401F091B9
:1024F0002501858190E08C179D0721F48EE30E94D1
:10250000E00903C080E20E94E00980E20E94E00945
:10251000F801808191810E94950A2196CE15DF05F0
:1025200029F0075F1F4FC430D105D9F6DF91CF9155
:102530001F910F91FF90EF900895E6E2F1E0F09384
:102540002501E093240111821082138212821482E9
:1025500015820E94321208950E94C2200E949D128C
:1025600008955F926F927F928F929F92AF92BF92E7
:10257000CF92DF92EF92FF920F931F93CF93DF934F
:10258000C0E1D1E00F2EF4E2EF2EF1E0FF2EF02DAE
:1025900088248394912C612C712C552453940F2EF4
:1025A000F2E4AF2EF1E0BF2EF02D0F2EF6E2CF2E8B
:1025B000F1E0DF2EF02D8E0180B390E0098002C0A3
:1025C000959587950A94E2F7282D392D80FF02C052
:1025D000262D372DF80182819381880F991F906EE7
:1025E000822B932B938382838115904F09F011C125
:1025F000F801548287E190E00E94332580930F0117
:10260000A89AA0912401B091250116969C91169745
:10261000943009F4DAC0F80180818130F9F038F0A3
:10262000823009F449C0833009F4A7C0B5C01496BC
:102630008C911497882309F4B8C015969C9115972E
:10264000911104C0815014968C93AFC0915015968F
:102650009C931597815014968C93A7C00E94C0201C
:10266000E0912401F09125019681992309F4DAC0C3
:102670004481242F30E0A081B1811696AC9187E08F
:10268000A89FD0011124AA5DBE4F12960D90BC9157
:10269000A02D16968C9190E00197281739070CF021
:1026A0007BC08581833019F44F5F448375C08F5F91
:1026B00085834F5F448370C00E94BD20A091240198
:1026C000B091250116964C911697442379F0ED911F
:1026D000FC911197E68127E0E29FF0011124EA5D69
:1026E000FE4F0280F381E02D8781908514965C91E6
:1026F0001497252F30E0F901EE0FFF1FEE0FFF1F9B
:10270000EE0FFF1F2E0F3F1F280F391FF901828187
:102710009381892B81F013963C932E931297B0925C
:102720002501A0922401F601B58FA48F378F268F43
:1027300050A311A231C0F90187819085892B61F1E5
:1027400013963C932E931297842F90E00196FC01F0
:10275000EE0FFF1FEE0FFF1FEE0FFF1FE81BF90B21
:10276000EA5DFE4FF0932501E0932401B183A0833D
:1027700013821282148215820FC09923B1F0ED9159
:10278000FC918681F7E08F9FC00111248A5D9E4FE6
:102790009093250180932401A0912401B0912501FB
:1027A00016968C911697843019F00E94321234C01C
:1027B000ED91FC9111970280F381E02D0280F3816D
:1027C000E02D14968C91099527C0ED91FC911197FD
:1027D0000280F381E02D0480F581E02D14966C9148
:1027E000C80109958823C1F0E0912401F0912501E9
:1027F0000190F081E02D868127E0829FC0011124A5
:102800008A5D9E4F90932501809324010E9432128D
:1028100003C0F8011482A8982596CE15DF0509F0AB
:10282000CACE0AC04481242F30E090E001972817D7
:1028300039070CF436CFB9CFDF91CF911F910F91AB
:10284000FF90EF90DF90CF90BF90AF909F908F90D0
:102850007F906F905F900895FC018081843010F02C
:1028600080E0089581E00895FC018081843010F0BB
:1028700080E0089581E00895FC018081843010F0AB
:1028800080E0089581E00895FC018081843010F09B
:1028900080E0089581E00895FC018081843010F08B
:1028A00080E0089581E00895FC018081843010F07B
:1028B00080E0089581E00895FC018081843010F06B
:1028C00080E0089581E00895FC018081843010F05B
:1028D00080E0089581E008950E94DC0981E195E09F
:1028E0000E94C70A61E080E00E94C609E091A90544
:1028F0008E2F90E0FC013197E730F10530F5EB5673
:10290000FF4F0C94D6248BE095E00E94C70A0895EF
:1029100086E095E00E94C70A08958FEF94E00E9438
:10292000C70A089585EF94E00E94C70A08958EEEC5
:1029300094E00E94C70A089586EE94E00E94C70AB8
:1029400008958DED94E00E94C70A0895FC018081EE
:10295000813081F018F08430B8F41BC08091A90553
:102960008F5F883019F08093A9050EC081E08093B5
:10297000A9050AC08091A905815019F08093A90585
:1029800003C087E08093A905862F0E946C1480E025
:10299000089581E008950E94DC098CE597E00E948B
:1029A000C70A61E080E00E94C6098BEB96E00E94B6
:1029B000950A0895CF93DF93CDB7DEB727970FB66B
:1029C000F894DEBF0FBECDBF0E94DC098DE697E014
:1029D0000E94C70A61E080E00E94C60984EA96E08E
:1029E0000E94950A62E080E00E94C6094091880634
:1029F0005091890660918A0670918B0622E030E042
:102A0000CE0101960E94FF21CE0101960E94950AF7
:102A10008BE697E00E94000A40918406509185065B
:102A2000609186067091870622E030E0CE01019623
:102A30000E94FF21CE0101960E94950A88E697E048
:102A40000E94000A27960FB6F894DEBF0FBECDBFD6
:102A5000DF91CF9108950E94DC0986E696E00E94FE
:102A6000C70A61E080E00E94C6098091AF0584FF3B
:102A700005C083E696E00E94000A089580E696E08D
:102A80000E94000A08950E94DC098EE496E00E94EC
:102A9000C70A61E080E00E94C6098091AF0582FF0D
:102AA00005C08BE496E00E94000A089588E496E051
:102AB0000E94000A08950E94DC0989E396E00E94C2
:102AC000000A61E080E00E94C6098091AF0583FFA3
:102AD00005C086E396E00E94000A089583E396E02D
:102AE0000E94000A08950E94DC098FE196E00E948E
:102AF000C70A61E080E00E94C6098091AF0585FFAA
:102B000005C088E196E00E94000A089584E196E0FD
:102B10000E94C70A08950E94DC0983E096E00E94A3
:102B2000C70A61E080E00E94C6098091AF0586FF78
:102B300005C080E096E00E94000A08958DEF95E0C0
:102B40000E94000A08950E94DC0981EF95E00E942E
:102B5000C70A61E080E00E94C6098091AF05882322
:102B60002CF48EEE95E00E94000A08958BEE95E01D
:102B70000E94000A0895CF93DF9300D000D01F92E7
:102B8000CDB7DEB70E94DC098EE497E00E94C70A49
:102B900061E080E00E94C6094AE0BE016F5F7F4F9E
:102BA00080917B0690917C060E94FE24CE010196C6
:102BB0000E94950A0F900F900F900F900F90DF9149
:102BC000CF910895CF93DF9300D000D0CDB7DEB77B
:102BD000809192064AE0BE016F5F7F4F90E00E94B5
:102BE000FE240E94DC0989E297E00E94C70A61E0A6
:102BF00080E00E94C609CE0101960E94950A0F90BE
:102C00000F900F900F90DF91CF910895CF93DF93A6
:102C100000D000D0CDB7DEB7809181064AE0BE017A
:102C20006F5F7F4F90E00E94FE240E94DC098DE1DF
:102C300097E00E94C70A61E080E00E94C609CE01C9
:102C400001960E94950A0F900F900F900F90DF91C0
:102C5000CF910895CF93DF9300D000D0CDB7DEB7EA
:102C60000E94DC098EE097E00E94C70A61E080E0E4
:102C70000E94C6098091AE054AE0BE016F5F7F4F9A
:102C800090E00E94FE24CE0101960E94950A0F90CA
:102C90000F900F900F90DF91CF910895CF93DF9316
:102CA00000D000D01F92CDB7DEB70E94DC0986E0CD
:102CB00097E00E94C70A61E080E00E94C6094AE0EE
:102CC000BE016F5F7F4F8091A2069091A3060E9484
:102CD000FE24CE0101960E94950A0F900F900F904E
:102CE0000F900F90DF91CF910895CF93DF9300D095
:102CF00000D01F92CDB7DEB70E94DC098EEF96E0C0
:102D00000E94C70A61E080E00E94C6094AE0BE0155
:102D10006F5F7F4F8091B0069091B1060E94FE24B4
:102D2000CE0101960E94950A0F900F900F900F9080
:102D30000F90DF91CF910895CF93DF9300D000D013
:102D4000CDB7DEB780910A014AE0BE016F5F7F4FC9
:102D500090E00E94FE240E94DC0987ED96E00E942C
:102D6000C70A61E080E00E94C609CE0101960E9478
:102D7000950A0F900F900F900F90DF91CF910895CB
:102D8000CF93DF9300D000D0CDB7DEB70E94DC092F
:102D900085EC96E00E94C70A61E080E00E94C609C7
:102DA000809109014AE0BE016F5F7F4F90E00E9471
:102DB000FE24CE0101960E94950A0F900F900F906D
:102DC0000F90DF91CF910895CF93DF9300D000D083
:102DD000CDB7DEB78091B6064AE0BE016F5F7F4F88
:102DE00090E00E94FE240E94DC098DE996E00E949A
:102DF000C70A61E080E00E94C609CE0101960E94E8
:102E0000950A0F900F900F900F90DF91CF9108953A
:102E1000CF93DF93CDB7DEB727970FB6F894DEBF19
:102E20000FBECDBF80916C064AE0BE016F5F7F4F41
:102E300090E00E94FE240E94DC098BE896E00E944C
:102E4000C70A61E080E00E94C609CE0101960E9497
:102E5000950A27960FB6F894DEBF0FBECDBFDF915F
:102E6000CF910895CF93DF9300D000D0CDB7DEB7D8
:102E70000E94DC0989E796E00E94C70A61E080E0D1
:102E80000E94C609809107014AE0BE016F5F7F4F33
:102E900090E00E94FE24CE0101960E94950A0F90B8
:102EA0000F900F900F90DF91CF910895CF93DF9304
:102EB00000D000D0CDB7DEB70E94DC0980EC95E0F1
:102EC0000E94C70A61E080E00E94C6098091080163
:102ED0004AE0BE016F5F7F4F90E00E94FE24CE016A
:102EE00001960E94950A0F900F900F900F90DF911E
:102EF000CF910895CF93DF9300D000D0CDB7DEB748
:102F00000E94DC0983E995E00E94C70A61E080E045
:102F10000E94C609809106014AE0BE016F5F7F4FA3
:102F200090E00E94FE24CE0101960E94950A0F9027
:102F30000F900F900F90DF91CF910895CF93DF9373
:102F400000D000D0CDB7DEB70E94DC098AE695E05C
:102F50000E94C70A61E080E00E94C60980910501D5
:102F60004AE0BE016F5F7F4F90E00E94FE24CE01D9
:102F700001960E94950A0F900F900F900F90DF918D
:102F8000CF910895CF93DF9300D000D0CDB7DEB7B7
:102F90000E94DC0980E695E00E94C70A61E080E0BB
:102FA0000E94C6098091B2054AE0BE016F5F7F4F63
:102FB00090E00E94FE24CE0101960E94950A0F9097
:102FC0000F900F900F90DF91CF910895CF93DF93E3
:102FD00000D000D0CDB7DEB70E94DC098EE495E0CA
:102FE0000E94C70A80910F014AE0BE016F5F7F4FC8
:102FF00090E00E94FE24CE0101960E94950A0F9057
:103000000F900F900F90DF91CF910895CF93DF93A2
:1030100000D000D0CDB7DEB70E94DC0983E495E094
:103020000E94C70A61E080E00E94C6098091B10554
:103030004AE0BE016F5F7F4F90E00E94FE24CE0108
:1030400001960E94950A0F900F900F900F90DF91BC
:10305000CF910895CF93DF9300D000D0CDB7DEB7E6
:103060000E94DC098FE295E00E94C70A61E080E0DF
:103070000E94C6094AE0BE016F5F7F4F80910D013B
:1030800090910E010E94FE24CE0101960E94950AA5
:103090000F900F900F900F90DF91CF910895CF93E5
:1030A000DF9300D01F92CDB7DEB70E94DC098BE220
:1030B00095E00E94C70A61E080E00E94C609809105
:1030C000AD054AE0BE016F5F7F4F90E00E94FE2495
:1030D000CE0101960E94950A0F900F900F90DF91FC
:1030E000CF910895FC019081913089F028F09230C1
:1030F000C9F0933001F11AC08091AD058F5F88311E
:1031000019F08093AD0512C01092AD050FC08091EB
:10311000AD05815018F08093AD0508C087E180931C
:10312000AD0504C081E08093AA050895862F0E9412
:103130004F1880E0089581E00895CF93DF9300D089
:1031400000D01F92CDB7DEB70E94DC0983E295E084
:103150000E94C70A61E080E00E94C6094AE0BE0101
:103160006F5F7F4F80910301909104010E94FE24C4
:10317000CE0101960E94950A0F900F900F900F902C
:103180000F90DF91CF910895FC018081813071F023
:1031900018F08430A0F418C08091030190910401CC
:1031A0000196909304018093030109C0809103016B
:1031B0009091040101979093040180930301862F5D
:1031C0000E949D1880E0089581E00895CF93DF93D9
:1031D00000D01F92CDB7DEB70E94DC098DE195E0EB
:1031E0000E94C70A61E080E00E94C6098091020146
:1031F0004AE0BE016F5F7F4F90E00E94FE24CE0147
:1032000001960E94950A0F900F900F90DF91CF9139
:103210000895FC018081813081F018F08430B8F489
:103220001BC0809102018F5F8D3019F080930201E5
:103230000EC081E0809302010AC08091020181509A
:1032400019F08093020103C08CE080930201862F65
:103250000E94E61880E0089581E00895CF93DF93FF
:1032600000D01F92CDB7DEB70E94DC0989E195E05E
:103270000E94C70A61E080E00E94C60980910101B6
:103280004AE0BE016F5F7F4F90E00E94FE24CE01B6
:1032900001960E94950A0F900F900F90DF91CF91A9
:1032A0000895FC018081813081F018F08430B8F4F9
:1032B0001BC0809101018F5F803219F08093010162
:1032C0000EC081E0809301010AC08091010181500C
:1032D00080930101811103C08FE18093AC05862F9B
:1032E0000E942E1980E0089581E00895CF93DF9326
:1032F00000D0CDB7DEB70E94DC0981ED94E00E94DA
:10330000C70A61E080E00E94C6098091B0054AE0EA
:10331000BE016F5F7F4F90E00E94FE24CE010196B8
:103320000E94950A0F900F90DF91CF910895CF934F
:10333000DF9300D000D0CDB7DEB70E94DC0985EC6A
:1033400094E00E94C70A61E080E00E94C609809173
:103350000C014AE0BE016F5F7F4F90E00E94FE24A7
:10336000CE0101960E94950A0F900F900F900F903A
:10337000DF91CF910895CF93DF9300D000D0CDB7E8
:10338000DEB70E94DC0983EB94E00E94C70A61E08B
:1033900080E00E94C60980910C014AE0BE016F5F87
:1033A0007F4F90E00E94FE24CE0101960E94950A74
:1033B0000F900F900F900F90DF91CF910895CF93C2
:1033C000DF93CDB7DEB727970FB6F894DEBF0FBEF9
:1033D000CDBF0E94DC0982E497E00E94C70A61E049
:1033E00080E00E94C6098CE896E00E94950A80E47D
:1033F00097E00E94000A88EB96E00E94950A8DE310
:1034000097E00E94000A62E080E00E94C609809175
:1034100081064AE0BE016F5F7F4F90E00E94FE246C
:10342000CE0101960E94950A8BE397E00E94000A64
:10343000809182064AE0BE016F5F7F4F90E00E945C
:10344000FE24CE0101960E94950A88E397E00E942F
:10345000000A27960FB6F894DEBF0FBECDBFDF91EE
:10346000CF910895CF93DF93CDB7DEB727970FB6EF
:10347000F894DEBF0FBECDBF0E94DC098FEE96E050
:103480000E94C70A61E080E00E94C60987E996E0D1
:103490000E94950A8DEE96E00E94000A8CEA96E062
:1034A0000E94950A8AEE96E00E94000A62E080E09F
:1034B0000E94C6098091AB064AE0BE016F5F7F4F54
:1034C00090E00E94FE24CE0101960E94950A88EEAB
:1034D00096E00E94000A80916B064AE0BE016F5F91
:1034E0007F4F90E00E94FE24CE0101960E94950A33
:1034F00085EE96E00E94000A27960FB6F894DEBF8C
:103500000FBECDBFDF91CF910895CF93DF93CDB79D
:10351000DEB727970FB6F894DEBF0FBECDBF0E946F
:10352000DC0986EB96E00E94C70A61E080E00E9419
:10353000C6098DE796E00E94950A84EB96E00E940A
:10354000000A8FE896E00E94950A81EB96E00E94BF
:10355000000A62E080E00E94C6098091B6064AE057
:10356000BE016F5F7F4F90E00E94FE24CE01019666
:103570000E94950A8FEA96E00E94000A8091AF06A9
:103580004AE0BE016F5F7F4F90E00E94FE24CE01B3
:1035900001960E94950A8CEA96E00E94000A2796FE
:1035A0000FB6F894DEBF0FBECDBFDF91CF91089567
:1035B000CF93DF93CDB7DEB727970FB6F894DEBF72
:1035C0000FBECDBF0E94DC098CED95E00E94C70ABA
:1035D00061E080E00E94C60984EF96E00E94950AAF
:1035E0008AED95E00E94000A8FE996E00E94950A14
:1035F00087ED95E00E94000A62E080E00E94C60923
:10360000809195064AE0BE016F5F7F4F90E00E9477
:10361000FE24CE0101960E94950A85ED95E00E9458
:10362000000A8091C1064AE0BE016F5F7F4F90E0C3
:103630000E94FE24CE0101960E94950A82ED95E03B
:103640000E94000A27960FB6F894DEBF0FBECDBFCA
:10365000DF91CF910895CF93DF93CDB7DEB7279752
:103660000FB6F894DEBF0FBECDBF0E94DC0980EB21
:1036700095E00E94C70A61E080E00E94C6098DE6DD
:1036800096E00E94950A8EEA95E00E94000A82EB7D
:1036900096E00E94950A8BEA95E00E94000A62E09B
:1036A00080E00E94C6098091B5064AE0BE016F5FC6
:1036B0007F4F90E00E94FE24CE0101960E94950A61
:1036C00089EA95E00E94000A8091F2064AE0BE0174
:1036D0006F5F7F4F90E00E94FE24CE0101960E9412
:1036E000950A86EA95E00E94000A27960FB6F8949C
:1036F000DEBF0FBECDBFDF91CF910895CF93DF9393
:10370000CDB7DEB727970FB6F894DEBF0FBECDBF9B
:103710000E94DC0985E895E00E94C70A61E080E02C
:103720000E94C60988E796E00E94950A83E895E022
:103730000E94000A8CE996E00E94950A80E895E0D4
:103740000E94000A62E080E00E94C6098091930610
:103750004AE0BE016F5F7F4F90E00E94FE24CE01E1
:1037600001960E94950A8EE795E00E94000A8091DA
:10377000F3064AE0BE016F5F7F4F90E00E94FE2497
:10378000CE0101960E94950A8BE795E00E94000AFF
:1037900027960FB6F894DEBF0FBECDBFDF91CF9155
:1037A0000895CF93DF9300D01F92CDB7DEB70E946C
:1037B000DC0986E295E00E94000A61E080E00E9458
:1037C000C6098091AC054AE0BE016F5F7F4F90E073
:1037D0000E94FE24CE0101960E94950A0F900F9040
:1037E0000F90DF91CF910895FC019081913089F085
:1037F00028F09230C9F0933001F11AC08091AC05E5
:103800008F5F8C3319F08093AC0512C01092AC0519
:103810000FC08091AC05815018F08093AC0508C0B2
:103820008BE38093AC0504C081E08093AA050895E2
:10383000862F0E94D11B80E0089581E00895FC014D
:1038400090819130D9F028F0923069F19330D1F124
:1038500034C080917B0690917C06833AFDE09F07FF
:1038600038F086E391E090937C0680937B0625C038
:103870000A9690937C0680937B061FC080917B06FE
:1038800090917C06873321E0920730F00A9790935D
:103890007C0680937B0611C08CEA9DE090937C06A9
:1038A00080937B060AC060917B0670917C0686E05F
:1038B00090E00E94522581E00895862F0E94BB155A
:1038C00080E0089581E00895FC0190819130C9F075
:1038D00028F0923059F19330C1F132C08091A206A4
:1038E0009091A3068432F9E09F0730F40A969093F2
:1038F000A3068093A20624C01092A3061092A206EB
:103900001FC08091A2069091A306863F2FEF9207D9
:1039100038F08EE299E09093A3068093A20610C03F
:103920000A979093A3068093A2060AC06091A2060C
:103930007091A3068DE090E00E94522581E00895E9
:10394000862F0E944E1680E0089581E00895FC01C4
:1039500090819130C9F028F0923059F19330C1F143
:1039600032C08091B0069091B1068432F9E09F0791
:1039700030F40A969093B1068093B00624C010925A
:10398000B1061092B0061FC08091B0069091B106AA
:10399000863F2FEF920738F08EE299E09093B106C0
:1039A0008093B00610C00A979093B1068093B0063A
:1039B0000AC06091B0067091B1068BE090E00E9461
:1039C000522581E00895862F0E94751680E00895A3
:1039D00081E00895FC019081913081F028F09230CF
:1039E000B9F0933021F11EC080910D0190910E012C
:1039F000019690930E0180930D0114C080910D01EA
:103A000090910E01019790930E0180930D010AC0D1
:103A100060910D0170910E0184E190E00E945225A9
:103A200081E00895862F0E942A1880E0089581E0A1
:103A30000895FC019081913071F028F09230A9F046
:103A4000933001F11AC0809192068A35B1F08F5FF0
:103A50008093920612C080919206909181069817E9
:103A600060F481508093920608C06091920680E1D4
:103A700090E00E94412581E00895862F0E94E21582
:103A800080E0089581E00895FC019081913081F0FB
:103A900028F09230A9F0933001F11AC0809181068C
:103AA000909192068917A0F48F5F8093810610C0D1
:103AB00080918106863060F081508093810608C035
:103AC000609181068FE090E00E94412581E0089599
:103AD000862F0E94061680E0089581E00895FC017B
:103AE0009081913091F028F09230E1F0933039F1EB
:103AF00021C08091AE058F5F8093AE0590918006C6
:103B0000891318C01092AE0515C08091AE05815082
:103B10008093AE058F3F71F4809180068150809331
:103B2000AE0508C06091AE0585E090E00E94412599
:103B300081E00895862F0E942A1680E0089581E092
:103B40000895FC019081913071F028F0923099F045
:103B50009330F1F018C080910A018A35A1F08F5F8F
:103B600080930A0110C080910A01853160F0815074
:103B700080930A0108C060910A018AE090E00E94E7
:103B8000412581E00895862F0E949C1680E00895CB
:103B900081E00895FC019081913091F028F09230FD
:103BA000E1F0933039F121C0809109018F5F80935A
:103BB000090190918006891318C01092090115C05F
:103BC000809109018150809309018F3F71F48091A8
:103BD000800681508093090108C06091090184E04A
:103BE00090E00E94412581E00895862F0E94C01632
:103BF00080E0089581E00895FC019081913081F08A
:103C000028F09230A9F0933001F11AC08091B606E5
:103C100090916C068917A0F48F5F8093B60610C050
:103C20008091B606863060F081508093B60608C059
:103C30006091B60688E090E00E94412581E00895F9
:103C4000862F0E94E41680E0089581E00895FC012B
:103C50009081913071F028F09230A9F0933001F109
:103C60001AC080916C068332B0F48F5F80936C062B
:103C700012C080916C069091B606981760F481503E
:103C800080936C0608C060916C0689E090E00E9409
:103C9000412581E00895862F0E94081780E008954D
:103CA00081E00895FC019081913091F028F09230EC
:103CB000E1F0933039F121C0809107018F5F80934B
:103CC000070190918006891318C01092070115C052
:103CD000809107018150809307018F3F71F480919B
:103CE000800681508093070108C06091070182E03F
:103CF00090E00E94412581E00895862F0E943217AE
:103D000080E0089581E00895FC019081913091F068
:103D100028F09230E1F0933039F121C08091080110
:103D20008F5F8093080190918006891318C01092CC
:103D3000080115C0809108018150809308018F3FD0
:103D400071F48091800681508093080108C06091D1
:103D5000080183E090E00E94412581E00895862FCC
:103D60000E94561780E0089581E00895FC0190813B
:103D7000913091F028F09230E1F0933039F121C088
:103D8000809106018F5F80930601909180068913D0
:103D900018C01092060115C08091060181508093D1
:103DA00006018F3F71F48091800681508093060157
:103DB00008C06091060181E090E00E94412581E009
:103DC0000895862F0E947A1780E0089581E0089573
:103DD000FC019081913091F028F09230E1F0933025
:103DE00039F121C0809105018F5F80930501909189
:103DF0008006891318C01092050115C08091050135
:103E00008150809305018F3F71F48091800681502D
:103E10008093050108C06091050180E090E00E9458
:103E2000412581E00895862F0E949E1780E0089525
:103E300081E00895FC019081913061F028F092308A
:103E400079F09330D1F014C08091B2058F5F8093E8
:103E5000B2050EC08091B20581508093B20508C0B2
:103E60006091B20588E190E00E94412581E00895CB
:103E7000862F0E94C21780E0089581E00895FC011A
:103E80009081913061F028F0923079F09330D1F048
:103E900014C080910F018F5F80930F010EC080913D
:103EA0000F01815080930F0108C060910F0187E1DD
:103EB00090E00E94412581E00895862F0E94E61738
:103EC00080E0089581E00895FC019081913061F0D7
:103ED00028F0923079F0933019F114C08091B10537
:103EE0008F5F8093B1050EC08091B10581508093A2
:103EF000B10508C06091B10586E190E00E944125BE
:103F000081E008952091B105222329F030E030931B
:103F1000830020938200862F0E94061880E0089577
:103F200081E00895FC019081913089F028F0923071
:103F3000C9F0933021F11EC08091B0058F5F8230AF
:103F400019F08093B00516C01092B00513C080918F
:103F5000B005815018F08093B0050CC081E08093CB
:103F6000B00508C06091B00583E190E00E94412552
:103F700081E00895862F0E94761980E0089581E0FF
:103F80000895FC019081913091F028F09230D1F0A9
:103F9000933029F11FC080910C018F5F833219F09B
:103FA00080930C0117C08FE080930C0113C08091A7
:103FB0000C01815018F080930C010CC083E28093B7
:103FC0000C0108C060910C0182E190E00E94412543
:103FD00081E00895862F0E94971980E0089581E07E
:103FE0000895FC019081913099F028F09230E1F031
:103FF000933039F121C090910B0181E0890F8093BA
:104000000B0120910A01821317C090930B0114C079
:1040100080910B01815080930B018F3F69F4809157
:104020000A0180930B0108C060910B0181E190E0CF
:104030000E94412581E00895862F0E94BB1980E0EF
:10404000089581E00895CF93C62FFC0180818230CE
:1040500018F0843070F412C08091AF0582FF04C064
:104060008F7E8093AF0503C080618093AF050E946F
:10407000DB0E8C2F0E942B1580E001C081E0CF91D8
:104080000895CF93C62FFC018081823018F08430D0
:1040900048F40DC09091AF0584E089278093AF0567
:1040A0000E94DB0E8C2F0E94431580E001C081E04E
:1040B000CF910895CF93C62FFC018081823018F0F4
:1040C000843048F40DC09091AF0588E08927809333
:1040D000AF050E94DB0E8C2F0E945B1580E001C0B3
:1040E00081E0CF910895CF93C62FFC01808182306B
:1040F00018F0843048F40DC09091AF0580E2892714
:104100008093AF050E94DB0E8C2F0E94731580E018
:1041100001C081E0CF910895CF93C62FFC0180812B
:10412000823018F0843048F40DC09091AF0580E4DF
:1041300089278093AF050E94DB0E8C2F0E948B1580
:1041400080E001C081E0CF910895CF93C62FFC019C
:104150008081823018F0843040F40CC08091AF052B
:1041600080588093AF050E94DB0E8C2F0E94A31510
:1041700080E001C081E0CF91089589E491E0089545
:1041800087E0089581B38F7081BB82B3806F82BB5B
:10419000089587B3876087BB88B3896088BB8BB37A
:1041A0008FEF8BBB9AB38ABB8DB183658DB90895B0
:1041B0006E9887B3897F87BB08954BB321E030E0C9
:1041C000F90102C0EE0FFF1F8A95E2F7CF012E2FF3
:1041D000209542234BBB6FB9779BFECF9BB3892BB6
:1041E0008BBB8FB108951F920F920FB60F921124BF
:1041F0002F938F939F93EF93FF938BB12CB18C717F
:10420000E091FB05EF5FEF719091FA05E91739F046
:10421000E093FB05F0E0E250FA4F208301C082E01A
:104220009091F905892B8093F905FF91EF919F916A
:104230008F912F910F900FBE0F901F9018951F9286
:104240000F920FB60F9211248F939F93EF93FF93CA
:104250009091FD058091FC05981761F0E091FC05B7
:10426000EF5FEF71E093FC05F0E0E25EF94F8081D3
:104270008CB901C05598FF91EF919F918F910F904C
:104280000FBE0F901F9018951092FD051092FC051F
:104290001092FB051092FA05992314F422E02BB931
:1042A00090789093900089B988E98AB986E08093E4
:1042B000950008952091FD052F5F2F719091FC05C9
:1042C0002917E1F3E22FF0E0E25EF94F80832093BB
:1042D000FD05559A0895CF93DF93EC0188818823DB
:1042E00031F021960E945A2189918111FBCFDF91F3
:1042F000CF910895CF93DF93EC012196FC01849137
:10430000882339F00E945A21FE018491219681115F
:10431000F9CFDF91CF9108951F920F920FB60F92B0
:1043200011242F938F939F93EF93FF9380919B0082
:1043300020919C008C71E091B605EF5FEF71909138
:10434000B505E91739F0E093B605F0E0E754FA4F08
:10435000208301C082E09091B405892B8093B4053D
:10436000FF91EF919F918F912F910F900FBE0F9022
:104370001F9018951F920F920FB60F9211248F93D2
:104380009F93EF93FF939091B8058091B70598178D
:1043900069F0E091B705EF5FEF71E093B705F0E0EA
:1043A000E752FA4F808180939C0005C0EAE9F0E073
:1043B00080818F7D8083FF91EF919F918F910F90EE
:1043C0000FBE0F901F901895CF93DF93CDB7DEB738
:1043D00061970FB6F894DEBF0FBECDBF4AE0BE01B5
:1043E0006F5F7F4F0E94FE240E946B2161960FB683
:1043F000F894DEBF0FBECDBFDF91CF9108952F920D
:104400003F924F925F926F927F928F929F92AF9264
:10441000BF92CF92DF92EF92FF920F931F93CF93B1
:10442000DF93CDB7DEB7A4970FB6F894DEBF0FBE0B
:10443000CDBF8C016A017B01390184E2E4E1F3E044
:10444000DE01119601900D928A95E1F7CB01BA0138
:104450000E946C234B015C014AE0B801C4010E9438
:10446000FE24F8018081882341F0C8010196FC01F7
:10447000019620812111FBCF01C0F8018EE28193CA
:104480001F01660C771C660C771CFE01E60DF71DFC
:1044900061817281838194810E94A4232B013C015C
:1044A000C501B4010E94A4239B01AC01C701B60160
:1044B0000E9488229B01AC01C301B2010E945924D1
:1044C0000E946C239B01772324F422273327261B89
:1044D000370B4AE0B101C9010E94FE24C801A4962D
:1044E0000FB6F894DEBF0FBECDBFDF91CF911F9105
:1044F0000F91FF90EF90DF90CF90BF90AF909F9083
:104500008F907F906F905F904F903F902F90089585
:104510005058BB27AA270E94A0220C941A240E945C
:104520000C2438F00E94132420F039F49F3F19F432
:1045300026F40C9409240EF4E095E7FB0C94032474
:10454000E92F0E942B2458F3BA17620773078407D8
:10455000950720F079F4A6F50C944D240EF4E0951F
:104560000B2EBA2FA02D0B01B90190010C01CA012D
:10457000A0011124FF27591B99F0593F50F4503ED8
:1045800068F11A16F040A22F232F342F4427585FCA
:10459000F3CF469537952795A795F0405395C9F7E2
:1045A0007EF41F16BA0B620B730B840BBAF091509A
:1045B000A1F0FF0FBB1F661F771F881FC2F70EC039
:1045C000BA0F621F731F841F48F48795779567950C
:1045D000B795F7959E3F08F0B0CF9395880F08F0F8
:1045E0009927EE0F9795879508950E94DF2308F489
:1045F00081E008950E940E230C941A240E94132433
:1046000058F00E940C2440F029F45F3F29F00C94EC
:10461000032451110C944E240C9409240E942B2441
:1046200068F39923B1F3552391F3951B550BBB27E1
:10463000AA2762177307840738F09F5F5F4F220F26
:10464000331F441FAA1FA9F335D00E2E3AF0E0E81D
:1046500032D091505040E695001CCAF72BD0FE2F67
:1046600029D0660F771F881FBB1F261737074807FB
:10467000AB07B0E809F0BB0B802DBF01FF279358B3
:104680005F4F3AF09E3F510578F00C9403240C9450
:104690004E245F3FE4F3983ED4F386957795679573
:1046A000B795F7959F5FC9F7880F911D96958795E8
:1046B00097F90895E1E0660F771F881FBB1F621707
:1046C00073078407BA0720F0621B730B840BBA0BC5
:1046D000EE1F88F7E09508950E9473236894B11146
:1046E0000C944E2408950E94332488F09F5798F02C
:1046F000B92F9927B751B0F0E1F0660F771F881FE7
:10470000991F1AF0BA95C9F714C0B13091F00E9400
:104710004D24B1E008950C944D24672F782F8827FD
:10472000B85F39F0B93FCCF3869577956795B39527
:10473000D9F73EF490958095709561957F4F8F4F96
:104740009F4F0895E89409C097FB3EF4909580959B
:10475000709561957F4F8F4F9F4F9923A9F0F92F47
:1047600096E9BB279395F695879577956795B795C5
:10477000F111F8CFFAF4BB0F11F460FF1BC06F5FAB
:104780007F4F8F4F9F4F16C0882311F096E911C0BD
:10479000772321F09EE8872F762F05C0662371F0DE
:1047A00096E8862F70E060E02AF09A95660F771FF2
:1047B000881FDAF7880F9695879597F90895990FCE
:1047C0000008550FAA0BE0E8FEEF16161706E807DB
:1047D000F907C0F012161306E407F50798F0621BFC
:1047E000730B840B950B39F40A2661F0232B242BD1
:1047F000252B21F408950A2609F4A140A6958FEFF0
:10480000811D811D089597F99F6780E870E060E041
:1048100008959FEF80EC089500240A941616170659
:1048200018060906089500240A94121613061406A1
:1048300005060895092E0394000C11F4882352F004
:10484000BB0F40F4BF2B11F460FF04C06F5F7F4FBC
:104850008F4F9F4F089557FD9058440F551F59F0A3
:104860005F3F71F04795880F97FB991F61F09F3F5D
:1048700079F087950895121613061406551FF2CF86
:104880004695F1DF08C0161617061806991FF1CFD6
:1048900086957105610508940895E894BB276627FD
:1048A0007727CB0197F908950E94DF2308F48FEF53
:1048B00008950E946C240C941A240E940C2438F051
:1048C0000E94132420F0952311F00C9403240C94DF
:1048D000092411240C944E240E942B2470F3959FDC
:1048E000C1F3950F50E0551F629FF001729FBB27E7
:1048F000F00DB11D639FAA27F00DB11DAA1F649F83
:104900006627B00DA11D661F829F2227B00DA11D35
:10491000621F739FB00DA11D621F839FA00D611DBB
:10492000221F749F3327A00D611D231F849F600DDC
:10493000211D822F762F6A2F11249F5750409AF005
:10494000F1F088234AF0EE0FFF1FBB1F661F771F91
:10495000881F91505040A9F79E3F510580F00C945C
:1049600003240C944E245F3FE4F3983ED4F38695E1
:1049700077956795B795F795E7959F5FC1F7FE2BFC
:10498000880F911D9695879597F90895DB018F9370
:104990009F930E94DC24BF91AF91A29F800D911D37
:1049A000A39F900DB29F900D11240895EE0FFF1F4D
:1049B0000590F491E02D09940E94EF24A59F900D9D
:1049C000B49F900DA49F800D911D11240895B7FFF1
:1049D0000C94DC240E94DC24821B930B0895A29F7C
:1049E000B001B39FC001A39F700D811D1124911DC3
:1049F000B29F700D811D1124911D0895BB274A306F
:104A000031F4992322F4BDE2909581959F4F0C9447
:104A10000A25BB27FB015527AA27880F991FAA1F24
:104A2000A41710F0A41B83955051B9F7A05DAA33C9
:104A300008F0A95DA193009779F7B111B193119294
:104A4000CB010C942325DC01FC01672F71917723A6
:104A5000E1F7329704C07C916D9370836291AE1739
:104A6000BF07C8F30895E199FECF9FBB8EBBE09AC4
:104A700099278DB30895A8E1B0E042E050E00C948E
:104A80005A25262FE199FECF9FBB8EBBE09A019756
:104A90000DB2021631F02DBB0FB6F894E29AE19AEE
:104AA0000FBE08950196272F0E9442250C944125A0
:104AB000DC01CB01FC01E199FECF06C0FFBBEEBBE0
:104AC000E09A31960DB20D9241505040B8F70895DA
:044AD000F894FFCF88
:104AD4000F0101E20705040302012D1E1402000A5E
:104AE40000070000000106000000020400000003AB
:104AF4000500000026010000000000000000000086
:104B0400000000010000000000000200000000009E
:104B1400000300000000000004380300000000054A
:104B2400BA02460300000000039F0257030000007E
:104B340000047B0269030000000003F9027803000B
:104B44000000000645027E0300000000060F028DEF
:104B540003000000000688019F032A18EA1C0000D5
:104B640000AE030000000003BE01BA030000000011
:104B740006D901C503C2171A1F000000CF03E617A8
:104B84003F1F000000DC030618641F000000AE0392
:104B94007619921F000000E7039719C11F00000057
:104BA400F303BB19F11F00000005044F187218002D
:104BB40000000904D11BF41B0000000E049D18C45E
:104BC400180000001104E618091900000013042E4F
:104BD40019511900000017046C14A61400000020D9
:104BE40004D81A54140000002B045617841E000025
:104BF400003D042B1B5C1400000049047A17B61E08
:104C04000000005C047E1B641400000066049E1710
:104C1400E81E00000077042B152320000000840404
:104C24004315412000000093045B155A2000000046
:104C34009F0473157320000000AF048B158C2000B3
:104C44000000C004A315A520000000C904851A4C67
:104C540014000000D804E416FC1D000000E704085A
:104C640017271E000000F9043217521E0000000826
:104C740005321A441400000017059C16A11D0000FB
:104C8400002505C016CA1D0000003405DF193C14B8
:104C94000000004005E215191D0000004F0506162E
:104CA400441D0000005B050000000002E7026405EB
:104CB4002A166F1D00000070054E16641C000000CB
:104CC40078057516A71C0000008005DA142C140062
:104CD40000008A05CB1434140000009505BB151F91
:104CE4001C000000000000000A0000006400000036
:104CF400E803000010270000A086010040420F00D6
:104D04008096980000E1F505484D56206265E16CF7
:104D14006CED74E17300507566666572206265E13E
:104D24006C6CED74E173004B617AE16E68E17A209A
:104D34007465726D6F737A74004BFC6C73F520E9C3
:104D4400727AE96B656CF50052656CE96B00456736
:104D540079E96220E9727AE96B656CF50056657A47
:104D6400E9726CF5206265E16C6CED74E1730053DB
:104D74007A697661747479FA207574E16E004B6F08
:104D84006D666F7274206DF36400F372612C20649D
:104D9400E174756D005465737A74FC7A656D004D29
:104DA400656EFC206964F57AED74F5004C4344208B
:104DB40068E17474E972004B6F6D666F72742068F9
:104DC400F56D004B6F6D666F727420656CF57265DE
:104DD4006D656EF500F37261007065726300E976CB
:104DE4000068F36E6170006E6170206E6576650018
:104DF400476172E17A732068F56D00476172E17A68
:104E04007320737A656E7A6F72204944004E617024
:104E140070616C692068F56D004E617070616C6939
:104E240020737A656E7A6F72204944005061646C15
:104E3400F32068F56D005061646CF320737A656E3D
:104E44007A6F7220494400484D562033206AE1723B
:104E54006174FA005AF36E612066F66C64737A69C1
:104E64006E74005AF36E6120656D656C6574005054
:104E740075666665722033206AE1726174FA0050C7
:104E8400756666657220737A697661747479FA005E
:104E940047E17A2072656CE90047E97068E17A209D
:104EA400616B742068F56D0047E97068E17A206DE4
:104EB400696E2068F56D0047E97068E17A206BED52
:104EC40076E16E742068F56D0047E97068E17A2038
:104ED400737A656E7A6F72004275666665722061D8
:104EE4006B742068F56D00456CF572656D656EF543
:104EF4002068F56D0050756666657220737A656E7C
:104F04007A6F7200484D5620616B742068F56D000D
:104F1400484D56206BED76E16E742068F56D0048BF
:104F24004D56206D696E2068F56D00484D5620F38E
:104F340072E16B00484D5620737A656E7A6F720089
:104F44004D696E206964F5004D6178206964F5004F
:104F54004BFC6C73F52068F56D004BFC6C73F5200D
:104F640070E17261004BFC6C73F52068F56D207480
:064F7400696C74E173009A
:00000001FF
