:100000000C94BF030C94DC030C94DC030C94DC0311
:100010000C94DC030C94DC030C94DC030C94DC03E4
:100020000C94DC030C94DC030C94DC030C94DC03D4
:100030000C94FB0A0C94DC030C94DC030C94DC039E
:100040000C94DC030C94DC030C9483210C94AF21FE
:100050000C94DC030C94DC0A0C94DC030C94DC039D
:100060000C94DC030C94DC030C94DC030C94DC0394
:100070000C94DC030C94DC030C941C220C944A2298
:100080000C94DC030C94DC030C94DC03880A950AC2
:10009000950A950A950A950A950A950A8A0A950A73
:1000A000950A950A8C0A950A950A950A950A950A61
:1000B0008E0A950A900A840A950A950A950A920A68
:1000C000940A860A950A950A950A950A880A950A55
:1000D000950A950A950A950A950A950A8A0A950A33
:1000E000950A950A8C0A950A950A950A950A950A21
:1000F0008E0A950A900A840A950A950A950A920A28
:10010000940A860AFA112B12FA11FC11FA11FC1149
:10011000FA11FA11FC11FA11FC11FA117314781486
:100120007D14821487148C149114436F756C6420B1
:100130006E6F7420636F6E6E65637420746F2073CE
:10014000656E736F720002040E010F110F0002043E
:100150000E111F100E000204000C04040E00020415
:100160000E1111110E00050A0E1111110E000204DC
:10017000001111130D00050A001111130D00206468
:100180006200445331384232303A20002044533127
:10019000384232302073656E736F72730A00466F97
:1001A000756E642000496E74657272757074206596
:1001B0006E61626C65640A00424D453238302069D8
:1001C0006E64ED74E1730049324320696E64ED742E
:1001D000E17300416C6170E16C6C61706F7462611D
:1001E00020E16C6CE1730046FB74E9732076657A5C
:1001F000E9726CE9732076302E3900427573206500
:1002000072726F720A004E6F2073656E736F722088
:10021000666F756E640A00427573207363616E6E5B
:10022000696E67202E2E2E0A0047415320616E64AE
:100230002046495253545F464C4F4F525F56414CF3
:1002400056452C205345434F4E445F464C4F4F522A
:100250005F56414C56452072656C6179206465613A
:1002600063746976617465640A005345434F4E4474
:1002700020464C4F4F522064656163746976617407
:1002800065640A005345434F4E4420464C4F4F523D
:10029000206163746976617465640A00464952534B
:1002A0005420464C4F4F52206465616374697661F7
:1002B0007465640A00464952535420464C4F4F52CD
:1002C000206163746976617465640A004741532C48
:1002D000204448572064656163746976617465647D
:1002E0003B204255464645522072656C6179206438
:1002F000656163746976617465640A0047415320DF
:100300006163746976617465643B20425546464575
:10031000522C204448572072656C617920646561D5
:1003200063746976617465640A0044485720726595
:100330006C61792064656163746976617465640ACF
:10034000004448572072656C617920616374697656
:100350006174656420776974682062756666657289
:100360000A004448572072656C61792061637469A2
:1003700076617465642077697468206761730A0028
:1003800046F66C642F456D656C2000507566666599
:100390007220737A2F70200047E17A2072656CE931
:1003A00020003A00484D5620737A656C6570200035
:1003B0002043002E005061646CF320002043002E87
:1003C000004E617070616C6920002043002E004770
:1003D0006172E17A7320002043004BFC6C73F520BE
:1003E000002043002E0047E97068E17A2000204396
:1003F000002E0050756666657220002043002E00B6
:10040000484D5620000A002E0025200A00424D4586
:100410003238302048756D69646974793A20004338
:10042000200A00424D453238302054656D706572A7
:1004300061747572653A200002040E010F110F00FD
:1004400002040E111F100E000204000C04040E0022
:1004500002040E1111110E00050A0E1111110E00E9
:100460000204001111130D00050A001111130D00F3
:100470004B6F6D666F727420656CF572656D656E9D
:10048000F5004B6F6D666F72742068F56D004B6FF1
:100490006D666F7274206DF36400766173E1726E45
:1004A000617000737A6F6D6261740070E96E7465DB
:1004B0006B006373FC74F67274F66B00737A65728A
:1004C0006461006B6564640068E97466F5006E61E0
:1004D00070206EE976006E61700068F36E617000E6
:1004E000E976007065726300F3726100537A697691
:1004F00061747479FA207574E16E667574E1730045
:100500004C43442068E17474E972004D656EFC2030
:100510006964F57AED74F520286D702900546573CF
:100520007A74FC7A656D00566973737A6120737A08
:10053000656E7A6F72204944002043002E00566990
:1005400073737A6174E972F520616B742068F56DDC
:1005500000456CF5726520737A656E7A6F7220497A
:1005600044002043002E00456CF5726520616B74D9
:100570002068F56D005061646CF320737A656E7AC3
:100580006F72204944002043002F002043002E00BA
:100590005061646CF320616B742068F56D004E61EE
:1005A0007070616C6920737A656E7A6F722049444D
:1005B000002043002F002043002E004E6170706128
:1005C0006C6920616B742068F56D00476172E17A97
:1005D0007320737A656E7A6F72204944002043005D
:1005E0002F002043002E00476172E17A7320616B77
:1005F000742068F56D004B690042650047E17A2080
:10060000E16C6C61706F74004B690042650050755D
:100610006666657220737A697661747479FA004748
:10062000E17A00507566666572005075666665729F
:10063000202F2067E17A20737A656C6570004B6922
:1006400000426500456D656C65746920737A656C60
:100650006570004B690042650046F66C64737A6908
:100660006E746920737A656C6570004B6900426531
:1006700000484D5620737A656C657020E16C6C61A2
:10068000706F740047E97068E17A20737A656E7A5A
:100690006F722049440047E97068E17A206BED767B
:1006A000E16E742068F56D0047E97068E17A206DAD
:1006B000696E2068F56D002043002F002043002E56
:1006C0000047E97068E17A20616B742068F56D007D
:1006D00050756666657220737A656E7A6F7220490E
:1006E0004400456CF572656D656EF52068F56D002A
:1006F0002043002F002043002E005075666665726F
:1007000020616B742068F56D004D6178206964F597
:10071000004D696E206964F500484D5620737A6576
:100720006E7A6F7220494400484D56206D696E20E4
:1007300068F56D00484D56206BED76E16E742068CB
:10074000F56D002043002F002043002E00484D5639
:1007500020616B742068F56D004BFC6C73F5206DA7
:10076000696E2068F56D00424D453238302070E1E9
:10077000726100424D453238302068F56D00112419
:100780001FBECFEFD0E1DEBFCDBF15E0A0E0B1E0EE
:10079000E4EFFBE402C005900D92AE3FB107D9F73C
:1007A00027E0AEEFB5E001C01D92A937B207E1F72F
:1007B0000E94FC100C94F8250C940000CF93DF935A
:1007C000C82F8CEE0E94FB08811111C08C2F0E9453
:1007D00020090E9448098DEE0E94FB0881110AC081
:1007E0000E943D09C82FD0E00E94480905C0C0E022
:1007F000D0E002C0C0E0D0E0CE01DF91CF910895FB
:10080000CF93DF93C82F8CEE0E94FB08811118C094
:100810008C2F0E9420090E9448098DEE0E94FB083F
:10082000811111C00E943209C82FD0E0DC2FCC27E3
:100830000E943D09C82B0E9448098C2F9D2F05C09E
:1008400080E090E002C080E090E0DF91CF910895D9
:100850000E9400049827892798270895CF92DF9255
:10086000EF92FF92F82E8CEE0E94FB0881112EC0B1
:100870008F2D0E9420090E9448098DEE0E94FB08DE
:1008800081111BC00E943209C82ED12CE12CF12C01
:10089000FE2CED2CDC2CCC240E943209C82AFE2C24
:1008A000ED2CDC2CCC240E943D09C82A0E9448096A
:1008B0006C2D7D2D8E2D9F2D0DC08AE291E00E9422
:1008C0000A2260E070E080E090E004C060E070E048
:1008D00080E090E0FF90EF90DF90CF9008950F932D
:1008E0001F93CF93DF9388E80E942804C6E9D6E0DF
:1008F000998388838AE80E9428049B838A838CE8F2
:100900000E9428049D838C838EE80E9428049F8384
:100910008E8380E90E9428049987888782E90E9453
:1009200028049B878A8784E90E9428049D878C87F6
:1009300086E90E9428049F878E8788E90E94280400
:10094000998B888B8AE90E9428049B8B8A8B8CE97F
:100950000E9428049D8B8C8B8EE90E9428049F8B1B
:100960008E8B81EA0E94DE03888F81EE0E9428042C
:100970009A8F898F83EE0E94DE038B8F84EE0E9414
:10098000DE038C0185EE0E94DE0302951295107F36
:100990001027007F10278F709927802B912B9D8F18
:1009A0008C8F86EE0E94DE038C0185EE0E94DE03B2
:1009B00002951295107F1027007F1027929582953F
:1009C0008F7089279F708927802B912B9F8F8E8F07
:1009D00087EE0E94DE0388A3DF91CF911F910F91D4
:1009E00008958CEE0E94FB0881111EC082EF0E94C8
:1009F000200985E00E94200984EF0E94200987EBEE
:100A00000E94200980ED0E9420090E946F040E942C
:100A100048098DEE0E94FB08811106C00E943D0925
:100A20000E94EA210E94480908958F929F92AF92F6
:100A3000BF92CF92DF92EF92FF920F931F938AEFB4
:100A40000E942E04E6E9F6E00081118120E030E00A
:100A5000C72ED82EE92EFF24E7FCFA94C01AD10A3B
:100A6000E20AF30ADC01CB01689416F8B595A79564
:100A7000979587951694D1F7000F111F221F331FEA
:100A80004C015D01801A910AA20AB30AA5019401E2
:100A9000A281B3810E9477254B015C01072E7BE088
:100AA000B594A794979487947A95D1F7702DA70160
:100AB0009601C701B6010E9456259B01AC01012E8B
:100AC0001CE055954795379527951A95D1F7102D28
:100AD000A481B5810E947725DC01CB01072E7EE041
:100AE000B595A795979587957A95D1F7702D880D2F
:100AF000991DAA1DBB1D8093B7069093B806A093BD
:100B0000B906B093BA068C019D01000F111F221F78
:100B1000331F000F111F221F331F800F911FA21FB1
:100B2000B31F80589F4FAF4FBF4F692F7A2F8B2F26
:100B300099270E94322420E030E048EC52E40E94E1
:100B40008A231F910F91FF90EF90DF90CF90BF907D
:100B5000AF909F908F9008954F925F926F927F9287
:100B60008F929F92AF92BF92CF92DF92EF92FF92BD
:100B70000E9415058DEF0E9400048090B7069090AA
:100B8000B806A090B906B090BA062CE2921A21E0FD
:100B9000A20AB1086C01E12CF12C0B2EBEE0CC0CAA
:100BA000DD1CEE1CFF1CBA95D1F7B02DE6E9F6E08E
:100BB000848D958D092E000CAA0BBB0B072E74E1BA
:100BC000880F991FAA1FBB1F7A95D1F7702DC81ADD
:100BD000D90AEA0AFB0AA68DB78DA50194010E94E5
:100BE0007725C61AD70AE80AF90A30E4D30EE11CC1
:100BF000F11C0B2EBFE0F594E794D794C794BA95F7
:100C0000D1F7B02DA38DB0E0A50194010E946C2511
:100C10002B013C01032E3BE0759467945794479455
:100C20003A95D1F7302D40E8540E611C711CA0A1FB
:100C30000A2E000CBB0BA50194010E947725052EFE
:100C40005AE095958795779567955A95D1F7502DE8
:100C5000A30192010E945625DC01CB01072E7AE008
:100C6000B595A795979587957A95D1F7702D9C01A5
:100C7000AD01405E5F4FA18DB28D0E947725DC01F2
:100C8000CB01905EAF4FBF4FBC01CD01052E5EE0A2
:100C900095958795779567955A95D1F7502DA7012A
:100CA00096010E9456256B017C01052E5FE095950B
:100CB0008795779567955A95D1F7502D9B01AC0193
:100CC0000E9456259B01AC01689416F855954795EE
:100CD000379527951694D1F7A08DB0E00E946C252A
:100CE000DC01CB01689413F8B595A7959795879586
:100CF0001694D1F7A7019601281B390B4A0B5B0B01
:100D0000DA01C9011AF480E090E0DC01813091053C
:100D1000A10539E1B30724F080E090E0A0E0B9E15B
:100D2000BC01CD01052E5CE095958795779567957B
:100D30005A95D1F7502D0E94342420E030E040E84D
:100D40005AE30E94E924FF90EF90DF90CF90BF908C
:100D5000AF909F908F907F906F905F904F9008958D
:100D600061157105A9F0FC01680F791F80E048E169
:100D7000219198E0382F322730FF0CC084278695C8
:100D8000806826959150B1F7E617F70789F708951F
:100D900080E008958695F5CF0F931F93CF93DF934F
:100DA000DB01EC9111969C911197F0E0F92B8031C9
:100DB00081F4EE7FEE0FFF1FEE0FFF1FEE0FFF1F00
:100DC00016969C9116976CE070E0691B7109E60F0E
:100DD000F71FFF233CF491E0EA019883F195E19538
:100DE000F10902C0EA011882883279F414968C91D4
:100DF000982F9076903649F086FF02C0EE7F05C0AE
:100E000085FF02C0EC7F01C0E87FCF0192958295FB
:100E10008F7089279F708927D9018C93EF70E80123
:100E2000E88380E0DF91CF911F910F9108950F9398
:100E30001F93CF93DF93EC018B01B80188810E944F
:100E40007908888381508D3F30F4F80180818832A1
:100E500011F0803191F7DF91CF911F910F9108959B
:100E60000F931F93CF93C82F8B010E94C5070E9439
:100E7000A907882351F0B80184E40E94D308C13047
:100E800031F00E94B20780E003C082E001C080E040
:100E9000CF911F910F9108956F927F928F929F92A1
:100EA000AF92BF92CF92DF92EF92FF920F931F9378
:100EB000CF93DF93CDB7DEB729970FB6F894DEBF97
:100EC0000FBECDBF6C015B013A0149010E94C5070D
:100ED000B6018EEB0E94D3088E010F5F1F4F7E017B
:100EE0008AE0E80EF11C0E947508F80181938F01D9
:100EF000EE15FF05C1F769E070E0CE0101960E9492
:100F0000B006F82E81110BC084019301A501BE012A
:100F10006F5F7F4FF60180810E94CC0604C00F2EC8
:100F2000F3E0FF2EF02D8F2D29960FB6F894DEBF3B
:100F30000FBECDBFDF91CF911F910F91FF90EF902A
:100F4000DF90CF90BF90AF909F908F907F906F90E9
:100F50000895E091BE06F091BF0690818091BD0694
:100F600089230895E091BB06F091BC0690818091A1
:100F7000BD06892B8083E091C006F091C106908167
:100F80008091BD06892B80830895E091BB06F09186
:100F9000BC0690818091BD06809589238083E09175
:100FA000C006F091C10690818091BD06892B808397
:100FB0008FE897E08115910511F00197F1F72FB7B0
:100FC000F894E091C006F091C10690818091BD0631
:100FD00080958923808389E091E08115910511F046
:100FE0000197F1F7E091BE06F091BF063081809144
:100FF000BD062FBFE5E8F6E0E115F10511F03197E8
:10100000F1F7E091BE06F091BF0620819091BD06F8
:10101000922311F08323089581E008955093C1062F
:101020004093C0067093BC066093BB069093BF06C6
:101030008093BE0681E001C0880F2A95EAF780936D
:10104000BD060E94C50708953FB7F894E091C00619
:10105000F091C10620819091BD06922B9083E3E030
:10106000F0E0E115F10511F03197F1F7882351F027
:10107000E091C006F091C10620819091BD06909547
:1010800092239083E8E3F0E0E115F10511F0319748
:10109000F1F7E091BE06F091BF0620819091BD0668
:1010A000292309F480E0E5EBF0E0E115F10511F00A
:1010B0003197F1F7E091C006F091C106208190953B
:1010C000922390833FBF0895CF93DF93C82FD8E03A
:1010D0008C2F81700E942408C6958111C068D15060
:1010E000B9F78C2FDF91CF9108958FEF0E9464089C
:1010F0000895DF92EF92FF920F931F93CF93DF93A8
:10110000D82E8B010E94C50781112BC080EF0E9451
:101110006408E12CC0E40F2EF8EFFF2EF02DFC0E3A
:1011200081E00E942408D82F81E00E9424088823AF
:1011300019F0DD23D1F017C0D11124C0CD15E8F08E
:10114000F801808180FF11C0CD111AC00EC0C150BE
:10115000FC12E6CF0F5F1F4FCF2DF110DCCF8E2D8D
:101160001AC08FEF18C08EEF16C080E00E942408CE
:10117000F801908196959083EACFEC2ED1E002C0E1
:10118000EC2ED1E08D2F0E942408F80190819695D5
:1011900090689083DCCFDF91CF911F910F91FF90EA
:1011A000EF90DF900895FF920F931F93CF93DF93FB
:1011B000F82EEB010E94C507209769F085E50E9493
:1011C00064088E01085F1F4F89910E946408C01750
:1011D000D107D1F703C08CEC0E9464088F2D0E94C8
:1011E0006408DF91CF911F910F91FF9008958EE2D7
:1011F000809370000895E4E7F0E0108294EA908311
:1012000090819923ECF790917100987F9830A1F428
:101210008093730084E880937400E4E7F0E08081B9
:101220008823ECF790917100987F983139F081E034
:10123000903429F480E0089581E0089580E00895D5
:101240008093730084E880937400E4E7F0E0808189
:101250008823ECF790917100987F81E0983209F42F
:1012600080E0089584EC80937400E4E7F0E08081EE
:101270008823ECF780917300089584E880937400CC
:10128000E4E7F0E080818823ECF780917300089513
:1012900084E9809374000895AD9A00C000C0AD98B1
:1012A0000895CF93C82F662311F0AF9A01C0AF986D
:1012B000AE98A49AA39AA29AA19AA998AA98AB9830
:1012C000AC98CC230CF4A99AC6FDAA9AC5FDAB9A9A
:1012D000C4FDAC9A0E944C09A998AA98AB98AC9806
:1012E000C3FDA99AC2FDAA9AC1FDAB9AC0FDAC9AF2
:1012F0000E944C09AC9AAB9AAA9AA99ACF910895E8
:10130000882311F0AF9A01C0AF98AE9AA498A39821
:10131000A298A198AD9A00C000C09C9B02C080E139
:1013200001C080E09B9980629A9980649999806855
:10133000AD9800C000C0AD9A00C000C09C9981600B
:101340009B9982609A99846099998860AD98089574
:1013500080E00E9480098823DCF388E090E0019718
:10136000F1F780E00E9480090895CF93C82F0E9472
:10137000A80960E08C2F0E945109CF910895CF9366
:10138000C82F0E94A80961E08C2F0E945109CF91BB
:101390000895611104C080580E94B5090895613014
:1013A00021F480540E94B5090895623021F48C56CE
:1013B0000E94B50908958C520E94B509089581E0F4
:1013C0000E94B5090895CF93C82F0E94A809CA307A
:1013D000A1F4843148F090EC980F943138F08451A6
:1013E0008C3230F080E005C080E403C084E101C0AD
:1013F00084E580580E94B50904C061E08C2F0E94EA
:101400005109CF910895CF93DF93EC012196FC0110
:101410008491882339F00E94E309FE01849121968A
:101420008111F9CFDF91CF9108951F93CF93DF936F
:10143000182FA79AA69AA59AA49AA39AA29AA19AB3
:1014400080E09AEF0197F1F7AB9AAC9A0E944C09B1
:1014500080E09EE40197F1F70E944C09C0E0D1E0E2
:10146000CE010197F1F70E944C09CE010197F1F7E7
:10147000AC980E944C092197F1F788E20E94B509C7
:1014800088E00E94B5090E94DF0986E00E94B50944
:10149000812F0E94B509DF91CF911F9108950F937D
:1014A0001F93CF93DF9380E40E94B509C6E4D1E097
:1014B0000FE711E0FE0184910E94BF092196C01739
:1014C000D107C1F7DF91CF911F910F9108959FEF41
:1014D000960F662319F086959150E8F780FF04C0B7
:1014E00081E30E94E309089580E30E94E3090895DF
:1014F000482F50E0FA01E15CF109EC33F105A8F462
:10150000EA5BFF4F0C9466258FEE0FC085EF0DC090
:1015100080E00BC081E009C082E007C083E005C025
:1015200084E003C085E001C086E00E94E3090895DD
:10153000CF93DF93EC012196FC018081882329F071
:101540000E94780A89918111FBCFDF91CF91089594
:101550000F931F93CF93DF9300D000D0CDB7DEB7AA
:101560008C014AE0BE016F5F7F4F0E948E250A30DA
:10157000110518F480E30E94E309CE0101960E9450
:10158000980A0F900F900F900F90DF91CF911F91BD
:101590000F910895CF93DF93EC012196FC01849184
:1015A000882339F00E94780AFE01849121968111E6
:1015B000F9CFDF91CF9108951F920F920FB60F923E
:1015C00011248F939F9384B195B10A9738F48AE0E0
:1015D00090E0909383008093820006C084B195B11F
:1015E00090938300809382009F918F910F900FBE04
:1015F0000F901F9018951F920F920FB60F92112403
:101600008F9380910B0680910B068F5F80930B0662
:101610008F910F900FBE0F901F901895CF92DF9271
:10162000EF92FF921F93CF93DF9300D01F92CDB71D
:10163000DEB780910006813009F479C038F082303D
:1016400009F49DC0833009F4AEC03DC20E94150567
:10165000AB01BC014093CB065093CC066093CD0602
:101660007093CE0622E030E08FE097E00E948F2258
:1016700020E030E048EC52E46091CB067091CC065B
:101680008091CD069091CE060E94E9240E94FC2311
:10169000709306076093050780910A06882361F01E
:1016A00083E294E00E940A228FE097E00E94FB21EF
:1016B0008FE194E00E940A22809100068F5F809360
:1016C0000006C090CB06D090CC06E090CD06F090FE
:1016D000CE062091E8063091E9064091EA06509145
:1016E000EB06C701B6010E94E424181644F4C09228
:1016F000E806D092E906E092EA06F092EB06209125
:10170000EC063091ED064091EE065091EF06C701D0
:10171000B6010E94852388230CF0D7C1C092EC0645
:10172000D092ED06E092EE06F092EF06CEC10E9456
:10173000AC05AB01BC014093CF065093D00660933B
:10174000D1067093D20622E030E08BE297E00E944F
:101750008F2280910A06882361F08DE094E00E9438
:101760000A228BE297E00E94FB2189E094E00E942C
:101770000A22809100068F5F80930006A6C120E0B8
:1017800047E350E068E370E086E390E00E940E08D3
:1017900060E070E081E00E943007809100068F5F7A
:1017A0008093000692C120E047E350E068E370E0D8
:1017B00086E390E00E940E088091E406882309F4F5
:1017C0007CC110E00F2EF1E2CF2EDC2CF02D0F2E7D
:1017D000F1E2EF2EF12CF02D812F90E0880F991F70
:1017E000880F991F880F991F9E012D5F3F4FAE01F3
:1017F0004E5F5F4FBE016F5F7F4F8E5C984F0E94C0
:101800004C07811118C080910A068823A1F08981B4
:1018100090E00E9474228A8190E00E94742287E006
:1018200094E00E940A228B8190E00E94742285E05D
:1018300094E00E940A228091060681132AC08A81C0
:10184000809300074AE060EF76E090E00E949925DF
:101850008B814AE068E277E090E00E9499258091D0
:1018600000079091E606981710F48093E606909191
:101870001E07891710F480931E078A81883848F064
:10188000E0EFF6E0D182C0821282F0922907E09266
:10189000280780910B0181132AC08A8180937807E1
:1018A0004AE061E077E090E00E9499258B814AE070
:1018B0006BE177E090E00E94992580917807909104
:1018C000C406981710F48093C40690911A078917DC
:1018D00010F480931A078A81883848F0E1E0F7E035
:1018E000D182C0821282F0921C07E0921B07809185
:1018F000090181132AC08A818093E7064AE069EDD5
:1019000076E090E00E9499258B814AE068EF76E0CE
:1019100090E00E9499258091E70690911F07981703
:1019200010F480931F079091C206891710F48093DA
:10193000C2068A81883848F0E9EDF6E0D182C0829B
:101940001282F092F906E092F80680910A01811362
:101950002AC08A818093FE064AE064E777E090E03F
:101960000E9499258B814AE06AE077E090E00E942E
:1019700099258091FE0690913107981710F4809375
:1019800031079091FF06891710F48093FF068A8132
:10199000883848F0E4E7F7E0D182C0821282F09202
:1019A0000B07E0920A078091080181132AC08A81FF
:1019B0008093C3064AE067EC76E090E00E949925A8
:1019C0008B814AE062E277E090E00E949925809165
:1019D000C30690917207981710F480937207909144
:1019E0002507891710F4809325078A81883848F0E5
:1019F000E7ECF6E0D182C0821282F0922307E092F7
:101A000022078091070181132AC08A8180932707CA
:101A10004AE063ED76E090E00E9499258B814AE0F0
:101A200067E077E090E00E949925809127079091E8
:101A30007307981710F4809373079091FD06891728
:101A400010F48093FD068A81883848F0E3EDF6E0D3
:101A5000D182C0821282F0920807E092070780913B
:101A60000601811310C08A818093C5064AE064EFA5
:101A700076E090E00E9499258B814AE067E177E06B
:101A800090E00E94992580910501811310C08A8100
:101A90008093FC064AE06DED76E090E00E94992587
:101AA0008B814AE061EE76E090E00E9499251F5F0D
:101AB0008091E406181708F48FCE809100068F5F9E
:101AC0008093000602C010920006809111018111DE
:101AD00000C10E94DF0980910001803108F455C0E7
:101AE00080E094E00E94030A80EF96E00E94980A4A
:101AF0008EEF93E00E94030A88E297E00E94980A22
:101B00008BEF93E00E94030A61E080E00E94C90924
:101B100083EF93E00E94030A81E097E00E94980A15
:101B200081EF93E00E94030A8BE197E00E94980AFC
:101B30008EEE93E00E94030A62E080E00E94C909F1
:101B400086EE93E00E94CA0A89ED96E00E94980A08
:101B500084EE93E00E94030A88EF96E00E94980AC0
:101B600081EE93E00E94030A63E080E00E94C909CD
:101B70008AED93E00E94CA0A8FE097E00E94980ADB
:101B800087ED93E00E94030A99C095EF980F953076
:101B900008F045C08FEC93E00E94CA0A84E797E002
:101BA0000E94980A8DEC93E00E94030A8AE097E075
:101BB0000E94980A8AEC93E00E94030A61E080E0A8
:101BC0000E94C90981EC93E00E94030A87EC96E029
:101BD0000E94980A8FEB93E00E94030A82E297E04A
:101BE0000E94980A8CEB93E00E94030A62E080E076
:101BF0000E94C90985EB93E00E94CA0A83ED96E032
:101C00000E94980A83EB93E00E94030A87E097E022
:101C10000E94980A80EB93E00E94030A4FC086302E
:101C200008F04CC084EA93E00E94030A64E08091CB
:101C300007060E94670A60E08FE00E94C909809150
:101C4000050690E00E94A80A82EA93E00E94030A37
:101C50008091040690E00E94A80A61E080E00E9462
:101C6000C90988E993E00E94CA0A67E080910706E3
:101C70000E94670A62E080E00E94C9098BE893E055
:101C80000E94030A65E0809107060E94670A66E0E9
:101C9000809107060E94670A63E080E00E94C909FC
:101CA00080E893E00E94CA0A62E0809107060E94E1
:101CB000670A63E0809107060E94670A809100012D
:101CC000815019F08093000107C084E180930001E6
:101CD00003C081508093110180910906811101C0D8
:101CE000369A0F900F900F90DF91CF911F91FF9038
:101CF000EF90DF90CF900895DF92EF92FF920F93D5
:101D00001F93CF93DF93CDB7DEB729970FB6F89423
:101D1000DEBF0FBECDBF80910A06882309F43FC005
:101D200087E192E00E940A228FEF89870F2EF2E36B
:101D3000EF2EF7E0FF2EF02DD12C8E01075F1F4F05
:101D4000BE016F5F7F4FC8010E94170799859F3FB3
:101D500049F480910A06882329F186E092E00E94E6
:101D60000A2220C09E3F49F480910A068823D1F0C0
:101D70008BEF91E00E940A2215C0FE013196D70137
:101D800081918D93E017F107D9F7D394992351F0FE
:101D900088E0E80EF11C88E0D812D2CF03C08FEFA4
:101DA0008987C4CF8D2D29960FB6F894DEBF0FBE5C
:101DB000CDBFDF91CF911F910F91FF90EF90DF90FA
:101DC00008950E9459216091070681E00E946D21CB
:101DD0000E946821089580910206882329F190913C
:101DE00000078091FB069817D8F480910506209192
:101DF000040630E094E6899F200D311D1124809166
:101E00002007909121078217930760F081E04091AD
:101E10000D0750910E072417350770F480E00CC0B1
:101E200080E00AC080E008C081E020910007909126
:101E3000FB06291708F080E08823E9F19091E50678
:101E400080910007981708F443C09091780780911B
:101E5000FB069817B8F480910F01909110019093B0
:101E6000FF058093FE05809107068F798069809336
:101E7000070680910A06882359F182E693E00E94C2
:101E80000A2226C08091FE059091FF05009729F057
:101E900001979093FF058093FE05809107068F7749
:101EA0008093070680910A06882391F081E493E0ED
:101EB0000E940A220DC0809107068F768093070644
:101EC00080910A06882321F08AE293E00E940A2288
:101ED0008091070684FD06C10E9B1BC00F9B19C095
:101EE0002091E7069091C606291798F09091080670
:101EF000992309F4D9C02091C30690910E012917A6
:101F000008F0D2C02091780790910D01921708F047
:101F1000CBC040910507509106072091D70630911C
:101F2000D8062417350708F4BFC02091E706909122
:101F30002607291720F00E9B02C00F9937C0209169
:101F4000780790910C012917B0F420910F0130917E
:101F500010013093FF052093FE058F7880688093F1
:101F6000070680910A06882309F446C08CEF92E0A8
:101F70000E940A2241C02091FE053091FF052115E3
:101F8000310529F48F7680668093070606C02150BC
:101F900031093093FF052093FE0580910A068823BE
:101FA00059F18CEC92E00E940A2226C02091C306CF
:101FB00090910E01291700F59091780720910D015D
:101FC0002917D0F40E9B18C00F9B16C02091C50690
:101FD000291790F42091FE053091FF052115310558
:101FE00029F48F7680668093070606C02150310958
:101FF0003093FF052093FE050E990DC080910706D2
:1020000084608093070680910A06882321F085EB7F
:1020100092E00E940A220E9B0DC0809107068B7FE2
:102020008093070680910A06882321F08CE992E0CC
:102030000E940A220F990DC0809107068860809344
:10204000070680910A06882321F084E892E00E9426
:102050000A220F9B0DC080910706877F8093070699
:1020600080910A06882321F08AE692E00E940A22E3
:10207000809108068823B1F19091C30680910E01EA
:10208000981760F49091780780910D01891730F4CA
:102090008091070684608093070624C0809107061C
:1020A0008B7F809307061EC02091FE053091FF05AF
:1020B0002115310521F4837F8093070606C0215046
:1020C00031093093FF052093FE05809107068F713B
:1020D0008093070680910A06882321F089E292E026
:1020E0000E940A220E94E10E089587E090E00E947B
:1020F000C3258093060682E190E00E94C325809369
:10210000FB0681E190E00E94C3258093E5068FE005
:1021100090E00E94CB2590930E0780930D078DE0F1
:1021200090E00E94CB25909321078093200786E0C2
:1021300090E00E94C32580930B018CE090E00E9408
:10214000C32580930C0184E090E00E94C325809316
:1021500009018BE090E00E94C3258093C6068AE0C7
:1021600090E00E94C3258093260785E090E00E94BE
:10217000C32580930A0183E090E00E94C3258093E9
:10218000080182E090E00E94C3258093070188E067
:1021900090E00E94CB259093D8068093D7068AE1E1
:1021A00090E00E94C32580930A0689E190E00E9496
:1021B000C3258093110188E190E00E94C32580939C
:1021C000090686E190E00E94CB2590931001809350
:1021D0000F0185E190E00E94C3258093080684E109
:1021E00090E00E94C32580930E0183E190E00E945D
:1021F000C32580930D0108950E9475100E945921F6
:1022000060E083E00E946D210E9468218CE00E94C2
:10221000150A88E394E00E944F0AEBE8F0E0808121
:1022200089608083EAE8F0E080818B60808380E8C9
:1022300090E09093830080938200159A1D9A0E94EB
:10224000DF0987EE91E00E94CA0A87E690E00E94CB
:10225000D421E1E6F0E080818E7F8083E2E6F0E049
:1022600080818E7F8083A09A82B18F7382B9109211
:1022700007060E94E10E61E080E00E94C90983ED3B
:1022800091E00E94CA0A62E080E00E94C909DAE097
:1022900088E70E94E3092FEF83ED90E3215080400F
:1022A0009040E1F700C00000D15091F70E94DF0993
:1022B00087EC91E00E94CA0A0E94F70861E080E082
:1022C0000E94C90988EB91E00E94CA0A0E94F104A9
:1022D000789485EA91E00E940A2220E047E350E0EA
:1022E00068E370E086E390E00E940E080E947C0E96
:1022F0008093E40680910A06882369F08EE991E0D4
:102300000E940A228091E40690E00E9474228CE8E8
:1023100091E00E940A2262E080E00E94C90982E8FE
:1023200091E00E94030A8091E40690E00E94A80ACE
:102330008EE791E00E94030A2FEF8BE792E921508C
:1023400080409040E1F700C000008EB58C608EBDEB
:102350001DBC1CBC84E294EF9BBD8ABD87B7806125
:1023600087BF86B18F6C86B9A89581B5886181BD1C
:1023700081B5876081BD0E94AC12D1E01DE10FE103
:1023800080910B06813009F05EC0809103068F5F5B
:102390008C3319F0809303064BC010920306809192
:1023A00004068F5F8C3319F08093040641C01092AD
:1023B0000406809105068F5F883119F08093050629
:1023C00037C010920506809101068F5F883019F0A2
:1023D0008093010602C0D093010620910201822F52
:1023E00090E0FC013197EC30F10538F4EE57FF4FE7
:1023F0000C946625C0E201C0C02F809101018F5F5F
:10240000C81719F08093010113C0D09301012F5F09
:102410002D3019F0209302010BC0D093020180915E
:1024200003019091040101969093040180930301AC
:102430000E940E0B80910A06823010F40E94EB0E6F
:10244000A89510920B060E94B1129ACFD093010169
:102450002F5FC12FDFCF809101018F5F8D31B1F3ED
:10246000C12FD0CFEF92FF920F931F93CF93DF93A3
:102470000E94DF090E944D21EC010E945021E09151
:102480002601F091270196819923A1F0A081B181C5
:102490001696AC9187E0A89FD0011124A85DBE4F8D
:1024A00012960D90BC91A02D1796CD91DC911897A6
:1024B00016968C9124819581291BE82EF12C1E14EF
:1024C0001F04A4F530E08901000F111F000F111F38
:1024D000000F111F200F311F8E01020F131FC0E0CC
:1024E000D0E06C2F80E00E94C909E0912601F091B4
:1024F0002701858190E08C179D0721F48EE30E94CF
:10250000E30903C080E20E94E30980E20E94E3093C
:10251000F801808191810E94980A2196CE15DF05ED
:1025200029F0075F1F4FC430D105D9F6DF91CF9155
:102530001F910F91FF90EF900895E8E2F1E0F09382
:102540002701E093260111821082138212821482E5
:1025500015820E94321208950E9452210E949D12FB
:1025600008955F926F927F928F929F92AF92BF92E7
:10257000CF92DF92EF92FF920F931F93CF93DF934F
:10258000C2E1D1E00F2EF6E2EF2EF1E0FF2EF02DAA
:1025900088248394912C612C712C552453940F2EF4
:1025A000F4E4AF2EF1E0BF2EF02D0F2EF8E2CF2E87
:1025B000F1E0DF2EF02D8E0180B390E0098002C0A3
:1025C000959587950A94E2F7282D392D80FF02C052
:1025D000262D372DF80182819381880F991F906EE7
:1025E000822B932B938382838115904F09F011C125
:1025F000F801548289E190E00E94C3258093110183
:10260000A89AA0912601B091270116969C91169741
:10261000943009F4DAC0F80180818130F9F038F0A3
:10262000823009F449C0833009F4A7C0B5C01496BC
:102630008C911497882309F4B8C015969C9115972E
:10264000911104C0815014968C93AFC0915015968F
:102650009C931597815014968C93A7C00E9450218B
:10266000E0912601F09127019681992309F4DAC0BF
:102670004481242F30E0A081B1811696AC9187E08F
:10268000A89FD0011124A85DBE4F12960D90BC9159
:10269000A02D16968C9190E00197281739070CF021
:1026A0007BC08581833019F44F5F448375C08F5F91
:1026B00085834F5F448370C00E944D21A091260105
:1026C000B091270116964C911697442379F0ED911D
:1026D000FC911197E68127E0E29FF0011124E85D6B
:1026E000FE4F0280F381E02D8781908514965C91E6
:1026F0001497252F30E0F901EE0FFF1FEE0FFF1F9B
:10270000EE0FFF1F2E0F3F1F280F391FF901828187
:102710009381892B81F013963C932E931297B0925C
:102720002701A0922601F601B58FA48F378F268F3F
:1027300050A311A231C0F90187819085892B61F1E5
:1027400013963C932E931297842F90E00196FC01F0
:10275000EE0FFF1FEE0FFF1FEE0FFF1FE81BF90B21
:10276000E85DFE4FF0932701E0932601B183A0833B
:1027700013821282148215820FC09923B1F0ED9159
:10278000FC918681F7E08F9FC0011124885D9E4FE8
:102790009093270180932601A0912601B0912701F3
:1027A00016968C911697843019F00E94321234C01C
:1027B000ED91FC9111970280F381E02D0280F3816D
:1027C000E02D14968C91099527C0ED91FC911197FD
:1027D0000280F381E02D0480F581E02D14966C9148
:1027E000C80109958823C1F0E0912601F0912701E5
:1027F0000190F081E02D868127E0829FC0011124A5
:10280000885D9E4F90932701809326010E9432128B
:1028100003C0F8011482A8982596CE15DF0509F0AB
:10282000CACE0AC04481242F30E090E001972817D7
:1028300039070CF436CFB9CFDF91CF911F910F91AB
:10284000FF90EF90DF90CF90BF90AF909F908F90D0
:102850007F906F905F900895FC018081843010F02C
:1028600080E0089581E00895FC018081843010F0BB
:1028700080E0089581E00895FC018081843010F0AB
:1028800080E0089581E00895FC018081843010F09B
:1028900080E0089581E00895FC018081843010F08B
:1028A00080E0089581E00895FC018081843010F07B
:1028B00080E0089581E008950E94DF098EEC94E0A5
:1028C0000E94CA0A61E080E00E94C909E091010605
:1028D0008E2F90E0FC013197E730F10530F5E2579B
:1028E000FF4F0C94662588EC94E00E94CA0A089574
:1028F00083EC94E00E94CA0A08958CEB94E00E9455
:10290000CA0A089582EB94E00E94CA0A08958BEAED
:1029100094E00E94CA0A089583EA94E00E94CA0AD9
:1029200008958AE994E00E94CA0A0895FC01808112
:10293000813081F018F08430B8F41BC0809101061A
:102940008F5F883019F0809301060EC081E080937C
:1029500001060AC080910106815019F0809301069A
:1029600003C087E080930106862F0E945C1480E0FC
:10297000089581E008950E94DF0983E797E00E94AF
:10298000CA0A61E080E00E94C9098FE097E00E94D6
:10299000980A08950E94DF0987E697E00E94CA0A14
:1029A00061E080E00E94C9098BE297E00E94980AEA
:1029B0000895CF93DF9300D000D01F92CDB7DEB73C
:1029C0000E94DF0989E597E00E94CA0A61E080E081
:1029D0000E94C9094AE0BE016F5F7F4F8091D70610
:1029E0009091D8060E948E25CE0101960E94980AE9
:1029F0000F900F900F900F900F90DF91CF9108954F
:102A0000CF93DF9300D000D0CDB7DEB78091FB0627
:102A10004AE0BE016F5F7F4F90E00E948E250E94CA
:102A2000DF0984E397E00E94CA0A61E080E00E9427
:102A3000C909CE0101960E94980A0F900F900F903D
:102A40000F90DF91CF910895CF93DF9300D000D006
:102A5000CDB7DEB78091E5064AE0BE016F5F7F4FDC
:102A600090E00E948E250E94DF0988E297E00E9494
:102A7000CA0A61E080E00E94C909CE0101960E9465
:102A8000980A0F900F900F900F90DF91CF910895BB
:102A9000CF93DF9300D000D0CDB7DEB70E94DF091F
:102AA00089E197E00E94CA0A61E080E00E94C909BA
:102AB000809106064AE0BE016F5F7F4F90E00E9462
:102AC0008E25CE0101960E94980A0F900F900F90CC
:102AD0000F90DF91CF910895CF93DF9300D000D076
:102AE0001F92CDB7DEB70E94DF0981E197E00E9417
:102AF000CA0A61E080E00E94C9094AE0BE016F5F36
:102B00007F4F80910D0790910E070E948E25CE0178
:102B100001960E94980A0F900F900F900F900F90BF
:102B2000DF91CF910895CF93DF9300D000D01F9213
:102B3000CDB7DEB70E94DF0989E097E00E94CA0A9C
:102B400061E080E00E94C9094AE0BE016F5F7F4FEB
:102B500080912007909121070E948E25CE01019639
:102B60000E94980A0F900F900F900F900F90DF9196
:102B7000CF910895CF93DF9300D000D0CDB7DEB7CB
:102B800080910C014AE0BE016F5F7F4F90E00E9490
:102B90008E250E94DF0982EE96E00E94CA0A61E05B
:102BA00080E00E94C909CE0101960E94980A0F9008
:102BB0000F900F900F90DF91CF910895CF93DF93F7
:102BC00000D000D0CDB7DEB70E94DF0980ED96E0DF
:102BD0000E94CA0A61E080E00E94C90980910B014D
:102BE0004AE0BE016F5F7F4F90E00E948E25CE01CC
:102BF00001960E94980A0F900F900F900F90DF910E
:102C0000CF910895CF93DF9300D000D0CDB7DEB73A
:102C1000809126074AE0BE016F5F7F4F90E00E94DF
:102C20008E250E94DF0988EA96E00E94CA0A61E0C8
:102C300080E00E94C909CE0101960E94980A0F9077
:102C40000F900F900F90DF91CF910895CF93DF9366
:102C5000CDB7DEB727970FB6F894DEBF0FBECDBF56
:102C60008091C6064AE0BE016F5F7F4F90E00E94F0
:102C70008E250E94DF0986E996E00E94CA0A61E07B
:102C800080E00E94C909CE0101960E94980A279609
:102C90000FB6F894DEBF0FBECDBFDF91CF91089580
:102CA000CF93DF9300D000D0CDB7DEB70E94DF090D
:102CB00084E896E00E94CA0A61E080E00E94C909A7
:102CC000809109014AE0BE016F5F7F4F90E00E9452
:102CD0008E25CE0101960E94980A0F900F900F90BA
:102CE0000F90DF91CF910895CF93DF9300D000D064
:102CF000CDB7DEB70E94DF098BEC95E00E94CA0ACF
:102D000061E080E00E94C90980910A014AE0BE01A9
:102D10006F5F7F4F90E00E948E25CE0101960E944A
:102D2000980A0F900F900F900F90DF91CF91089518
:102D3000CF93DF9300D000D0CDB7DEB70E94DF097C
:102D40008EE995E00E94CA0A61E080E00E94C9090C
:102D5000809108014AE0BE016F5F7F4F90E00E94C2
:102D60008E25CE0101960E94980A0F900F900F9029
:102D70000F90DF91CF910895CF93DF9300D000D0D3
:102D8000CDB7DEB70E94DF0985E795E00E94CA0A49
:102D900061E080E00E94C909809107014AE0BE011C
:102DA0006F5F7F4F90E00E948E25CE0101960E94BA
:102DB000980A0F900F900F900F90DF91CF91089588
:102DC000CF93DF9300D000D0CDB7DEB70E94DF09EC
:102DD00081E595E00E94CA0A61E080E00E94C9098D
:102DE000809106014AE0BE016F5F7F4F90E00E9434
:102DF0008E25CE0101960E94980A0F900F900F9099
:102E00000F90DF91CF910895CF93DF9300D000D042
:102E1000CDB7DEB70E94DF0987E295E00E94CA0ABB
:102E200061E080E00E94C909809105014AE0BE018D
:102E30006F5F7F4F90E00E948E25CE0101960E9429
:102E4000980A0F900F900F900F90DF91CF910895F7
:102E5000CF93DF9300D000D0CDB7DEB70E94DF095B
:102E60008DE195E00E94CA0A61E080E00E94C909F4
:102E700080910A064AE0BE016F5F7F4F90E00E949A
:102E80008E25CE0101960E94980A0F900F900F9008
:102E90000F90DF91CF910895CF93DF9300D000D0B2
:102EA000CDB7DEB70E94DF098BE095E00E94CA0A29
:102EB000809111014AE0BE016F5F7F4F90E00E9458
:102EC0008E25CE0101960E94980A0F900F900F90C8
:102ED0000F90DF91CF910895CF93DF9300D000D072
:102EE000CDB7DEB70E94DF0980E095E00E94CA0AF4
:102EF00061E080E00E94C909809109064AE0BE01B4
:102F00006F5F7F4F90E00E948E25CE0101960E9458
:102F1000980A0F900F900F900F90DF91CF91089526
:102F2000CF93DF9300D000D0CDB7DEB70E94DF098A
:102F30008CEE94E00E94CA0A61E080E00E94C90918
:102F40004AE0BE016F5F7F4F80910F0190911001A9
:102F50000E948E25CE0101960E94980A0F900F9034
:102F60000F900F90DF91CF910895CF93DF9300D012
:102F70001F92CDB7DEB70E94DF0988EE94E00E9471
:102F8000CA0A61E080E00E94C909809105064AE012
:102F9000BE016F5F7F4F90E00E948E25CE010196AB
:102FA0000E94980A0F900F900F90DF91CF91089593
:102FB000FC019081913089F028F09230C9F0933073
:102FC00001F11AC0809105068F5F883119F0809356
:102FD000050612C0109205060FC0809105068150AB
:102FE00018F08093050608C087E18093050604C0A9
:102FF00081E0809302060895862F0E94B51780E035
:10300000089581E00895CF93DF9300D000D01F9200
:10301000CDB7DEB70E94DF0980EE94E00E94CA0AB5
:1030200061E080E00E94C9094AE0BE016F5F7F4F06
:1030300080910301909104010E948E25CE0101969A
:103040000E94980A0F900F900F900F900F90DF91B1
:10305000CF910895FC018081813071F018F08430A7
:10306000A0F418C0809103019091040101969093FF
:1030700004018093030109C0809103019091040130
:1030800001979093040180930301862F0E940318F7
:1030900080E0089581E00895CF93DF9300D01F92E0
:1030A000CDB7DEB70E94DF098AED94E00E94CA0A1C
:1030B00061E080E00E94C909809102014AE0BE01FE
:1030C0006F5F7F4F90E00E948E25CE0101960E9497
:1030D000980A0F900F900F90DF91CF910895FC0107
:1030E0008081813081F018F08430B8F41BC0809169
:1030F00002018F5F8D3019F0809302010EC081E0D4
:10310000809302010AC080910201815019F08093DE
:10311000020103C08CE080930201862F0E944C18AC
:1031200080E0089581E00895CF93DF9300D01F924F
:10313000CDB7DEB70E94DF0986ED94E00E94CA0A8F
:1031400061E080E00E94C909809101014AE0BE016E
:103150006F5F7F4F90E00E948E25CE0101960E9406
:10316000980A0F900F900F90DF91CF910895FC0176
:103170008081813081F018F08430B8F41BC08091D8
:1031800001018F5F803219F0809301010EC081E050
:10319000809301010AC080910101815019F0809350
:1031A000010103C08FE180930101862F0E949418D2
:1031B00080E0089581E00895CF93DF9300D0CDB7EC
:1031C000DEB70E94DF098EE894E00E94CA0A61E03F
:1031D00080E00E94C909809108064AE0BE016F5F45
:1031E0007F4F90E00E948E25CE0101960E94980AA2
:1031F0000F900F90DF91CF910895CF93DF9300D080
:1032000000D0CDB7DEB70E94DF0982E894E00E94CB
:10321000CA0A61E080E00E94C90980910E014AE07B
:10322000BE016F5F7F4F90E00E948E25CE01019618
:103230000E94980A0F900F900F900F90DF91CF91FE
:103240000895CF93DF9300D000D0CDB7DEB70E94B2
:10325000DF0980E794E00E94CA0A61E080E00E94F2
:10326000C90980910E014AE0BE016F5F7F4F90E077
:103270000E948E25CE0101960E94980A0F900F9011
:103280000F900F90DF91CF910895FC0190819130C4
:10329000D9F028F0923069F19330D1F134C08091A7
:1032A000D7069091D806833AFDE09F0738F086E371
:1032B00091E09093D8068093D70625C00A96909304
:1032C000D8068093D7061FC08091D7069091D80664
:1032D000873321E0920730F00A979093D8068093C5
:1032E000D70611C08CEA9DE09093D8068093D7064C
:1032F0000AC06091D7067091D80688E090E00E94DD
:10330000E22581E00895862F0E94D91480E0089577
:1033100081E00895FC0190819130C9F028F092304D
:1033200059F19330C1F132C080910D0790910E0791
:103330008432F9E09F0730F40A9690930E07809349
:103340000D0724C010920E0710920D071FC0809128
:103350000D0790910E07863F2FEF920738F08EE20F
:1033600099E090930E0780930D0710C00A979093F1
:103370000E0780930D070AC060910D0770910E072C
:103380008FE090E00E94E22581E00895862F0E9460
:103390006C1580E0089581E00895FC0190819130E2
:1033A000C9F028F0923059F19330C1F132C08091C8
:1033B0002007909121078432F9E09F0730F40A96A4
:1033C000909321078093200724C010922107109228
:1033D00020071FC08091200790912107863F2FEF83
:1033E000920738F08EE299E09093210780932007AE
:1033F00010C00A9790932107809320070AC060911C
:103400002007709121078DE090E00E94E22581E085
:103410000895862F0E94931580E0089581E0089515
:10342000FC019081913081F028F09230B9F0933016
:1034300021F11EC080910F0190911001019690938F
:10344000100180930F0114C080910F019091100121
:1034500001979093100180930F010AC060910F01B2
:103460007091100186E190E00E94E22581E00895CC
:10347000862F0E94901780E0089581E00895CF93F1
:10348000DF93CDB7DEB727970FB6F894DEBF0FBE38
:10349000CDBF0E94DF098DE497E00E94CA0A61E077
:1034A00080E00E94C90980EF96E00E94980A8BE4B0
:1034B00097E00E94030A88E297E00E94980A88E455
:1034C00097E00E94030A62E080E00E94C9098091AF
:1034D0001E074AE0BE016F5F7F4F90E00E948E257D
:1034E000CE0101960E94980A86E497E00E94030AA2
:1034F0008091E6064AE0BE016F5F7F4F90E00E9438
:103500008E25CE0101960E94980A83E497E00E94DE
:10351000030A27960FB6F894DEBF0FBECDBFDF912A
:10352000CF910895CF93DF93CDB7DEB727970FB62E
:10353000F894DEBF0FBECDBF0E94DF098AEF96E090
:103540000E94CA0A61E080E00E94C90981E097E018
:103550000E94980A88EF96E00E94030A8BE197E0A8
:103560000E94980A85EF96E00E94030A62E080E0DC
:103570000E94C90980911A074AE0BE016F5F7F4F20
:1035800090E00E948E25CE0101960E94980A83EF5A
:1035900096E00E94030A8091C4064AE0BE016F5F74
:1035A0007F4F90E00E948E25CE0101960E94980ADE
:1035B00080EF96E00E94030A27960FB6F894DEBFCC
:1035C0000FBECDBFDF91CF910895CF93DF93CDB7DD
:1035D000DEB727970FB6F894DEBF0FBECDBF0E94AF
:1035E000DF0981EC96E00E94CA0A61E080E00E9457
:1035F000C90989ED96E00E94980A8FEB96E00E9437
:10360000030A88EF96E00E94980A8CEB96E00E94ED
:10361000030A62E080E00E94C9098091C2064AE084
:10362000BE016F5F7F4F90E00E948E25CE01019614
:103630000E94980A8AEB96E00E94030A80911F0775
:103640004AE0BE016F5F7F4F90E00E948E25CE0161
:1036500001960E94980A87EB96E00E94030A27963B
:103660000FB6F894DEBF0FBECDBFDF91CF910895A6
:103670000E94DF0981E796E00E94CA0A61E080E0CB
:103680000E94C9098091070684FF05C08EE696E076
:103690000E94030A08958BE696E00E94030A0895AB
:1036A0000E94DF0989E596E00E94CA0A61E080E095
:1036B0000E94C9098091070682FF05C086E596E051
:1036C0000E94030A089583E596E00E94030A089584
:1036D0000E94DF0984E496E00E94030A61E080E032
:1036E0000E94C9098091070683FF05C081E496E026
:1036F0000E94030A08958EE396E00E94030A08954B
:103700000E94DF098AE296E00E94CA0A61E080E036
:103710000E94C9098091070685FF05C083E296E0F3
:103720000E94030A08958FE196E00E94CA0A089554
:103730000E94DF098EE096E00E94CA0A61E080E004
:103740000E94C9098091070686FF05C08BE096E0BC
:103750000E94030A089588E096E00E94030A0895F3
:103760000E94DF098CEF95E00E94CA0A61E080E0C8
:103770000E94C9098091070688232CF489EF95E0FF
:103780000E94030A089586EF95E00E94030A0895B7
:10379000CF93DF93CDB7DEB727970FB6F894DEBF90
:1037A0000FBECDBF0E94DF0987EE95E00E94CA0AD6
:1037B00061E080E00E94C90984E797E00E94980ACE
:1037C00085EE95E00E94030A8AE097E00E94980A3D
:1037D00082EE95E00E94030A62E080E00E94C9093F
:1037E0008091FF064AE0BE016F5F7F4F90E00E942C
:1037F0008E25CE0101960E94980A80EE95E00E94E7
:10380000030A809131074AE0BE016F5F7F4F90E06D
:103810000E948E25CE0101960E94980A8DED95E0BA
:103820000E94030A27960FB6F894DEBF0FBECDBFE5
:10383000DF91CF910895CF93DF93CDB7DEB7279770
:103840000FB6F894DEBF0FBECDBF0E94DF098BEB31
:1038500095E00E94CA0A61E080E00E94C90987ECF5
:1038600096E00E94980A89EB95E00E94030A82E2A2
:1038700097E00E94980A86EB95E00E94030A62E0B6
:1038800080E00E94C909809125074AE0BE016F5F70
:103890007F4F90E00E948E25CE0101960E94980AEB
:1038A00084EB95E00E94030A809172074AE0BE0112
:1038B0006F5F7F4F90E00E948E25CE0101960E949F
:1038C000980A81EB95E00E94030A27960FB6F894B8
:1038D000DEBF0FBECDBFDF91CF910895CF93DF93B1
:1038E000CDB7DEB727970FB6F894DEBF0FBECDBFBA
:1038F0000E94DF0980E995E00E94CA0A61E080E049
:103900000E94C90983ED96E00E94980A8EE895E02E
:103910000E94030A87E097E00E94980A8BE895E0EE
:103920000E94030A62E080E00E94C9098091FD06BE
:103930004AE0BE016F5F7F4F90E00E948E25CE016E
:1039400001960E94980A89E895E00E94030A8091F6
:1039500073074AE0BE016F5F7F4F90E00E948E25A3
:10396000CE0101960E94980A86E895E00E94030A1B
:1039700027960FB6F894DEBF0FBECDBFDF91CF9173
:1039800008950E94DF0987E695E00E94CA0A61E077
:1039900080E00E94C90984EF96E00E94980A85E6BB
:1039A00095E00E94030A87E197E00E94980A82E668
:1039B00095E00E94030A08950E94DF098EE395E0D6
:1039C0000E94CA0A61E080E00E94C9098DED96E07C
:1039D0000E94980A8CE395E00E94030A81EE96E02B
:1039E0000E94980A89E395E00E94030A0895CF9304
:1039F000DF9300D01F92CDB7DEB70E94DF0983EEC0
:103A000094E00E94030A61E080E00E94C90980916D
:103A100004064AE0BE016F5F7F4F90E00E948E2552
:103A2000CE0101960E94980A0F900F900F90DF919F
:103A3000CF910895FC019081913089F028F0923067
:103A4000C9F0933001F11AC0809104068F5F8C3366
:103A500019F08093040612C0109204060FC08091E2
:103A60000406815018F08093040608C08BE380930D
:103A7000040604C081E0809302060895862F0E9408
:103A8000F71C80E0089581E00895FC019081913059
:103A900071F028F09230A9F0933001F11AC08091B2
:103AA000FB068A35B1F08F5F8093FB0612C08091D0
:103AB000FB069091E506981760F481508093FB0611
:103AC00008C06091FB0682E190E00E94D12581E070
:103AD0000895862F0E94001580E0089581E00895E2
:103AE000FC019081913081F028F09230A9F0933060
:103AF00001F11AC08091E5069091FB068917A0F4A8
:103B00008F5F8093E50610C08091E506863060F0F7
:103B100081508093E50608C06091E50681E190E060
:103B20000E94D12581E00895862F0E94241580E00F
:103B3000089581E00895FC019081913091F028F082
:103B40009230E1F0933039F121C0809106068F5F09
:103B5000809306069091E406891318C01092060619
:103B600015C0809106068150809306068F3F71F440
:103B70008091E40681508093060608C06091060695
:103B800087E090E00E94D12581E00895862F0E9471
:103B9000481580E0089581E00895FC0190819130FE
:103BA00071F028F0923099F09330F1F018C08091C4
:103BB0000C018A35A1F08F5F80930C0110C08091B9
:103BC0000C01853160F0815080930C0108C0609138
:103BD0000C018CE090E00E94D12581E00895862FB1
:103BE0000E94BA1580E0089581E00895FC0190815B
:103BF000913091F028F09230E1F0933039F121C00A
:103C000080910B018F5F80930B019091E4068913E3
:103C100018C010920B0115C080910B018150809348
:103C20000B018F3F71F48091E406815080930B016A
:103C300008C060910B0186E090E00E94D12581E0F0
:103C40000895862F0E94DE1580E0089581E0089592
:103C5000FC019081913081F028F09230A9F09330EE
:103C600001F11AC0809126079091C6068917A0F429
:103C70008F5F8093260710C080912607863060F002
:103C800081508093260708C0609126078AE090E063
:103C90000E94D12581E00895862F0E94021680E0BF
:103CA000089581E00895FC019081913071F028F031
:103CB0009230A9F0933001F11AC08091C606833288
:103CC000B0F48F5F8093C60612C08091C6069091B3
:103CD0002607981760F481508093C60608C060914B
:103CE000C6068BE090E00E94D12581E00895862FE2
:103CF0000E94261680E0089581E00895FC019081DD
:103D0000913091F028F09230E1F0933039F121C0F8
:103D1000809109018F5F809309019091E4068913D6
:103D200018C01092090115C080910901815080933B
:103D300009018F3F71F48091E4068150809309015D
:103D400008C06091090184E090E00E94D12581E0E3
:103D50000895862F0E94501680E0089581E008950E
:103D6000FC019081913091F028F09230E1F0933095
:103D700039F121C080910A018F5F80930A019091EF
:103D8000E406891318C010920A0115C080910A0137
:103D9000815080930A018F3F71F48091E406815035
:103DA00080930A0108C060910A0185E090E00E94BA
:103DB000D12581E00895862F0E94741680E0089531
:103DC00081E00895FC019081913091F028F09230CB
:103DD000E1F0933039F121C0809108018F5F809329
:103DE00008019091E406891318C01092080115C0CB
:103DF000809108018150809308018F3F71F4809178
:103E0000E40681508093080108C06091080183E0B6
:103E100090E00E94D12581E00895862F0E94981697
:103E200080E0089581E00895FC019081913091F047
:103E300028F09230E1F0933039F121C080910701F0
:103E40008F5F809307019091E406891318C0109248
:103E5000070115C0809107018150809307018F3FB2
:103E600071F48091E40681508093070108C060914D
:103E7000070182E090E00E94D12581E00895862F1D
:103E80000E94BC1680E0089581E00895FC019081B5
:103E9000913091F028F09230E1F0933039F121C067
:103EA000809106018F5F809306019091E40689134B
:103EB00018C01092060115C08091060181508093B0
:103EC00006018F3F71F48091E406815080930601D2
:103ED00008C06091060181E090E00E94D12581E058
:103EE0000895862F0E94E01680E0089581E00895ED
:103EF000FC019081913091F028F09230E1F0933004
:103F000039F121C0809105018F5F80930501909167
:103F1000E406891318C01092050115C080910501AF
:103F20008150809305018F3F71F48091E4068150A8
:103F30008093050108C06091050180E090E00E9437
:103F4000D12581E00895862F0E94041780E008950E
:103F500081E00895FC019081913061F028F0923069
:103F600079F09330D1F014C080910A068F5F80936E
:103F70000A060EC080910A06815080930A0608C086
:103F800060910A068AE190E00E94D12581E00895BF
:103F9000862F0E94281780E0089581E00895FC0193
:103FA0009081913061F028F0923079F09330D1F027
:103FB00014C0809111018F5F809311010EC0809118
:103FC000110181508093110108C06091110189E1B4
:103FD00090E00E94D12581E00895862F0E944C1721
:103FE00080E0089581E00895FC019081913061F0B6
:103FF00028F0923079F0933019F114C080910906BD
:104000008F5F809309060EC08091090681508093CE
:10401000090608C06091090688E190E00E94D12558
:1040200081E0089520910906222329F030E03093A1
:10403000830020938200862F0E946C1780E00895F1
:1040400081E00895FC019081913089F028F0923050
:10405000C9F0933021F11EC0809108068F5F823035
:1040600019F08093080616C01092080613C08091BC
:104070000806815018F0809308060CC081E08093F8
:10408000080608C06091080685E190E00E94D125ED
:1040900081E00895862F0E94DC1880E0089581E079
:1040A0000895FC019081913091F028F09230D1F088
:1040B000933029F11FC080910E018F5F833219F078
:1040C00080930E0117C08FE080930E0113C0809182
:1040D0000E01815018F080930E010CC083E2809392
:1040E0000E0108C060910E0184E190E00E94D1258C
:1040F00081E00895862F0E94FD1880E0089581E0F8
:104100000895FC019081913099F028F09230E1F00F
:10411000933039F121C090910D0181E0890F809396
:104120000D0120910C01821317C090930D0114C052
:1041300080910D01815080930D018F3F69F4809132
:104140000C0180930D0108C060910D0183E190E0A6
:104150000E94D12581E00895862F0E94211980E0D8
:10416000089581E00895CF93C62FFC0180818230AD
:1041700018F0843070F412C08091070682FF04C0EA
:104180008F7E8093070603C08061809307060E949C
:10419000E10E8C2F0E94381B80E001C081E0CF919E
:1041A0000895CF93C62FFC018081823018F08430AF
:1041B00048F40DC09091070684E089278093070694
:1041C0000E94E10E8C2F0E94501B80E001C081E014
:1041D000CF910895CF93C62FFC018081823018F0D3
:1041E000843048F40DC09091070688E089278093B9
:1041F00007060E94E10E8C2F0E94681B80E001C020
:1042000081E0CF910895CF93C62FFC018081823049
:1042100018F0843048F40DC09091070680E2892799
:10422000809307060E94E10E8C2F0E94801B80E085
:1042300001C081E0CF910895CF93C62FFC0180810A
:10424000823018F0843048F40DC09091070680E465
:104250008927809307060E94E10E8C2F0E94981BED
:1042600080E001C081E0CF910895CF93C62FFC017B
:104270008081823018F0843040F40CC080910706B1
:104280008058809307060E94E10E8C2F0E94B01B7D
:1042900080E001C081E0CF9108958BE491E0089522
:1042A00087E0089581B38F7081BB82B3806F82BB3A
:1042B000089587B3876087BB88B3896088BB8BB359
:1042C0008FEF8BBB9AB38ABB8DB183658DB908958F
:1042D0006E9887B3897F87BB08954BB321E030E0A8
:1042E000F90102C0EE0FFF1F8A95E2F7CF012E2FD2
:1042F000209542234BBB6FB9779BFECF9BB3892B95
:104300008BBB8FB108951F920F920FB60F9211249D
:104310002F938F939F93EF93FF938BB12CB18C715D
:10432000E0915306EF5FEF7190915206E91739F073
:10433000E0935306F0E0EA5AF94F208301C082E08F
:1043400090915106892B80935106FF91EF919F9197
:104350008F912F910F900FBE0F901F9018951F9265
:104360000F920FB60F9211248F939F93EF93FF93A9
:104370009091550680915406981761F0E09154068B
:10438000EF5FEF71E0935406F0E0EA58F94F808157
:104390008CB901C05598FF91EF919F918F910F902B
:1043A0000FBE0F901F90189510925506109254064C
:1043B0001092530610925206992314F422E02BB95E
:1043C00090789093900089B988E98AB986E08093C3
:1043D00095000895209155062F5F2F7190915406F6
:1043E0002917E1F3E22FF0E0EA58F94F8083209398
:1043F0005506559A0895CF93DF93EC018881882361
:1044000031F021960E94EA2189918111FBCFDF9141
:10441000CF910895CF93DF93EC012196FC01849115
:10442000882339F00E94EA21FE01849121968111AE
:10443000F9CFDF91CF9108951F920F920FB60F928F
:1044400011242F938F939F93EF93FF9380919B0061
:1044500020919C008C71E0910E06EF5FEF719091BE
:104460000D06E91739F0E0930E06F0E0EF5EF94F24
:10447000208301C082E090910C06892B80930C066A
:10448000FF91EF919F918F912F910F900FBE0F9001
:104490001F9018951F920F920FB60F9211248F93B1
:1044A0009F93EF93FF939091100680910F069817BA
:1044B00069F0E0910F06EF5FEF71E0930F06F0E017
:1044C000EF5CF94F808180939C0005C0EAE9F0E041
:1044D00080818F7D8083FF91EF919F918F910F90CD
:1044E0000FBE0F901F901895CF93DF93CDB7DEB717
:1044F00061970FB6F894DEBF0FBECDBF4AE0BE0194
:104500006F5F7F4F0E948E250E94FB2161960FB640
:10451000F894DEBF0FBECDBFDF91CF9108952F92EB
:104520003F924F925F926F927F928F929F92AF9243
:10453000BF92CF92DF92EF92FF920F931F93CF9390
:10454000DF93CDB7DEB7A4970FB6F894DEBF0FBEEA
:10455000CDBF8C016A017B01390184E2EAE3F3E01B
:10456000DE01119601900D928A95E1F7CB01BA0117
:104570000E94FC234B015C014AE0B801C4010E9487
:104580008E25F8018081882341F0C8010196FC0145
:10459000019620812111FBCF01C0F8018EE28193A9
:1045A0001F01660C771C660C771CFE01E60DF71DDB
:1045B00061817281838194810E9434242B013C01AA
:1045C000C501B4010E9434249B01AC01C701B601AE
:1045D0000E9418239B01AC01C301B2010E94E9248F
:1045E0000E94FC239B01772324F422273327261BD8
:1045F000370B4AE0B101C9010E948E25C801A4967B
:104600000FB6F894DEBF0FBECDBFDF91CF911F91E3
:104610000F91FF90EF90DF90CF90BF90AF909F9061
:104620008F907F906F905F904F903F902F90089564
:104630005058BB27AA270E9430230C94AA240E941A
:104640009C2438F00E94A32420F039F49F3F19F4F1
:1046500026F40C9499240EF4E095E7FB0C94932433
:10466000E92F0E94BB2458F3BA1762077307840727
:10467000950720F079F4A6F50C94DD240EF4E0956E
:104680000B2EBA2FA02D0B01B90190010C01CA010C
:10469000A0011124FF27591B99F0593F50F4503EB7
:1046A00068F11A16F040A22F232F342F4427585FA9
:1046B000F3CF469537952795A795F0405395C9F7C1
:1046C0007EF41F16BA0B620B730B840BBAF0915079
:1046D000A1F0FF0FBB1F661F771F881FC2F70EC018
:1046E000BA0F621F731F841F48F4879577956795EB
:1046F000B795F7959E3F08F0B0CF9395880F08F0D7
:104700009927EE0F9795879508950E946F2408F4D6
:1047100081E008950E949E230C94AA240E94A32461
:1047200058F00E949C2440F029F45F3F29F00C943B
:10473000932451110C94DE240C9499240E94BB24E0
:1047400068F39923B1F3552391F3951B550BBB27C0
:10475000AA2762177307840738F09F5F5F4F220F05
:10476000331F441FAA1FA9F335D00E2E3AF0E0E8FC
:1047700032D091505040E695001CCAF72BD0FE2F46
:1047800029D0660F771F881FBB1F261737074807DA
:10479000AB07B0E809F0BB0B802DBF01FF27935892
:1047A0005F4F3AF09E3F510578F00C9493240C949F
:1047B000DE245F3FE4F3983ED4F3869577956795C2
:1047C000B795F7959F5FC9F7880F911D96958795C7
:1047D00097F90895E1E0660F771F881FBB1F6217E6
:1047E00073078407BA0720F0621B730B840BBA0BA4
:1047F000EE1F88F7E09508950E9403246894B11194
:104800000C94DE2408950E94C32488F09F5798F0EA
:10481000B92F9927B751B0F0E1F0660F771F881FC5
:10482000991F1AF0BA95C9F714C0B13091F00E94DF
:10483000DD24B1E008950C94DD24672F782F8827BC
:10484000B85F39F0B93FCCF3869577956795B39506
:10485000D9F73EF490958095709561957F4F8F4F75
:104860009F4F0895E89409C097FB3EF4909580957A
:10487000709561957F4F8F4F9F4F9923A9F0F92F26
:1048800096E9BB279395F695879577956795B795A4
:10489000F111F8CFFAF4BB0F11F460FF1BC06F5F8A
:1048A0007F4F8F4F9F4F16C0882311F096E911C09C
:1048B000772321F09EE8872F762F05C0662371F0BD
:1048C00096E8862F70E060E02AF09A95660F771FD1
:1048D000881FDAF7880F9695879597F90895990FAD
:1048E0000008550FAA0BE0E8FEEF16161706E807BA
:1048F000F907C0F012161306E407F50798F0621BDB
:10490000730B840B950B39F40A2661F0232B242BAF
:10491000252B21F408950A2609F4A140A6958FEFCE
:10492000811D811D089597F99F6780E870E060E020
:1049300008959FEF80EC089500240A941616170638
:1049400018060906089500240A9412161306140680
:1049500005060895092E0394000C11F4882352F0E3
:10496000BB0F40F4BF2B11F460FF04C06F5F7F4F9B
:104970008F4F9F4F089557FD9058440F551F59F082
:104980005F3F71F04795880F97FB991F61F09F3F3C
:1049900079F087950895121613061406551FF2CF65
:1049A0004695F1DF08C0161617061806991FF1CFB5
:1049B00086957105610508940895E894BB276627DC
:1049C0007727CB0197F908950E946F2408F48FEFA1
:1049D00008950E94FC240C94AA240E949C2438F080
:1049E0000E94A32420F0952311F00C9493240C949E
:1049F000992411240C94DE240E94BB2470F3959F0B
:104A0000C1F3950F50E0551F629FF001729FBB27C5
:104A1000F00DB11D639FAA27F00DB11DAA1F649F61
:104A20006627B00DA11D661F829F2227B00DA11D14
:104A3000621F739FB00DA11D621F839FA00D611D9A
:104A4000221F749F3327A00D611D231F849F600DBB
:104A5000211D822F762F6A2F11249F5750409AF0E4
:104A6000F1F088234AF0EE0FFF1FBB1F661F771F70
:104A7000881F91505040A9F79E3F510580F00C943B
:104A800093240C94DE245F3FE4F3983ED4F38695A0
:104A900077956795B795F795E7959F5FC1F7FE2BDB
:104AA000880F911D9695879597F90895DB018F934F
:104AB0009F930E946C25BF91AF91A29F800D911D85
:104AC000A39F900DB29F900D11240895EE0FFF1F2C
:104AD0000590F491E02D09940E947F25A59F900DEB
:104AE000B49F900DA49F800D911D11240895B7FFD0
:104AF0000C946C250E946C25821B930B0895A29F39
:104B0000B001B39FC001A39F700D811D1124911DA1
:104B1000B29F700D811D1124911D0895BB274A304D
:104B200031F4992322F4BDE2909581959F4F0C9426
:104B30009A25BB27FB015527AA27880F991FAA1F73
:104B4000A41710F0A41B83955051B9F7A05DAA33A8
:104B500008F0A95DA193009779F7B111B193119273
:104B6000CB010C94B325DC01FC01672F71917723F5
:104B7000E1F7329704C07C916D9370836291AE1718
:104B8000BF07C8F30895E199FECF9FBB8EBBE09AA3
:104B900099278DB30895A8E1B0E042E050E00C946D
:104BA000EA25262FE199FECF9FBB8EBBE09A0197A5
:104BB0000DB2021631F02DBB0FB6F894E29AE19ACD
:104BC0000FBE08950196272F0E94D2250C94D1255F
:104BD000DC01CB01FC01E199FECF06C0FFBBEEBBBF
:104BE000E09A31960DB20D9241505040B8F70895B9
:044BF000F894FFCF67
:104BF400140101E307070605040302012A1C140239
:104C0400000A000700000001060000000204000082
:104C1400000305000000280100000000000000005F
:104C2400000000000001000000000000020000007D
:104C340000000003000000000000045E0300000008
:104C44000005E0026C030000000003C5027D0300C0
:104C540000000004A1028F0300000000031F039E54
:104C64000300000000066B02A403000000000A1108
:104C740002B30300000000068A01C5039017101A4E
:104C8400000000D4030000000003C001E0030000A2
:104C9400000006DB01EB032817AA1F000000F50340
:104CA4004C17CF1F00000002046C17F41F00000013
:104CB400D403DC1822200000000D04FD185120004C
:104CC40000001904211981200000002B04B517D815
:104CD400170000002F04F71C1A1D00000034040301
:104CE400182A1800000037044C186F180000003907
:104CF400049418B7180000003D045C1496140000D6
:104D0400004604C81B541400000051047416B01E5D
:104D140000000063041B1C54140000006F04981668
:104D2400E21E00000082046E1C54140000008C0477
:104D3400BC16141F0000009D04C11C541400000084
:104D4400AB04E016461F000000BC04DC1C54140035
:104D54000000CB040417781F000000DD04381BB3E7
:104D640020000000EA04501BD120000000F9046870
:104D74001BEA200000000505801B0321000000152C
:104D840005981B1C210000002605B01B35210000DE
:104D9400002F05E51A4C140000003E050216281EDB
:104DA4000000004D052616531E0000005F05501636
:104DB4007E1E0000006E05921A44140000009D043B
:104DC400BA15CD1D0000007D05DE15F61D0000009E
:104DD4008C053F1A3C1400000098050015451D0081
:104DE4000000A7052415701D000000B30500000095
:104DF40000020D03BC0548159B1D000000C8056C8E
:104E0400158A19000000D0059315CD19000000D8AB
:104E140005BB142C14000000E205CA14341400006D
:104E240000ED05D9144519000000000000000A0037
:104E3400000064000000E803000010270000A086C2
:104E4400010040420F008096980000E1F505484DAE
:104E540056206265E16C6CED74E173005075666612
:104E64006572206265E16C6CED74E173004B617AEC
:104E7400E16E68E17A207465726D6F737A74004B29
:104E8400FC6C73F520E9727AE96B656CF500526588
:104E94006CE96B00456779E96220E9727AE96B6530
:104EA4006CF50056657AE9726CF5206265E16C6C0C
:104EB400ED74E17300537A697661747479FA20753C
:104EC40074E16E004B6F6D666F7274206DF3640055
:104ED400F372612C2064E174756D005465737A7407
:104EE400FC7A656D004D656EFC206964F57AED749D
:104EF400F5004C43442068E17474E972004B6F6D13
:104F0400666F72742068F56D004B6F6D666F727416
:104F140020656CF572656D656EF500F37261007065
:104F240065726300E9760068F36E6170006E61700B
:104F3400206E65766500476172E17A732068F56DCD
:104F440000476172E17A7320737A656E7A6F72201A
:104F54004944004E617070616C692068F56D004EC3
:104F6400617070616C6920737A656E7A6F72204922
:104F740044005061646CF32068F56D005061646C0A
:104F8400F320737A656E7A6F7220494400456CF59C
:104F940072656D656EF52068F56D00456CF572659A
:104FA40020737A656E7A6F72204944005669737370
:104FB4007A6174E972F52068F56D00566973737A45
:104FC4006120737A656E7A6F7220494400484D56A9
:104FD4002033206AE1726174FA005AF36E6120662C
:104FE400F66C64737A696E74005AF36E6120656DB1
:104FF400656C6574005075666665722033206AE1DD
:10500400726174FA0050756666657220737A697607
:1050140061747479FA0047E17A2072656CE900479B
:10502400E97068E17A20616B742068F56D0047E9E6
:105034007068E17A206D696E2068F56D0047E9704B
:1050440068E17A206BED76E16E742068F56D0047B7
:10505400E97068E17A20737A656E7A6F720042753E
:105064006666657220616B742068F56D0050756624
:1050740066657220737A656E7A6F7200484D5620A9
:10508400616B742068F56D00484D56206BED76E138
:105094006E742068F56D00484D56206D696E206869
:1050A400F56D00484D5620F372E16B00484D5620D3
:1050B400737A656E7A6F72004D696E206964F500CB
:1050C4004D6178206964F5004BFC6C73F52068F53C
:1050D4006D004BFC6C73F52070E17261004BFC6C4D
:0E50E40073F52068F56D2074696C74E173003B
:00000001FF
