:100000000C9418040C9435040C9435040C943504A9
:100010000C9435040C9435040C9435040C9435047C
:100020000C9435040C9435040C9435040C9435046C
:100030000C94540B0C9435040C9435040C94350436
:100040000C9435040C9435040C94E6230C9412247F
:100050000C9435040C94350B0C9435040C94350435
:100060000C9435040C9435040C9435040C9435042C
:100070000C9435040C9435040C949D240C94CB24DE
:100080000C9435040C9435040C943504E10AEE0A02
:10009000EE0AEE0AEE0AEE0AEE0AEE0AE30AEE0AAB
:1000A000EE0AEE0AE50AEE0AEE0AEE0AEE0AEE0A99
:1000B000E70AEE0AE90ADD0AEE0AEE0AEE0AEB0AA0
:1000C000ED0ADF0AEE0AEE0AEE0AEE0AE10AEE0A8D
:1000D000EE0AEE0AEE0AEE0AEE0AEE0AE30AEE0A6B
:1000E000EE0AEE0AE50AEE0AEE0AEE0AEE0AEE0A59
:1000F000E70AEE0AE90ADD0AEE0AEE0AEE0AEB0A60
:10010000ED0ADF0A0D0F120F170F1C0F210F260F1C
:100110002B0F3F1375143F1341133F1341133F132C
:100120003F1341133F1341133F13F4136D14E713AF
:10013000011428140E146D146D146D146D141B1419
:100140006D146D1442146D146D143514BD16C21661
:10015000C716CC16D116D616DB16436F756C642005
:100160006E6F7420636F6E6E65637420746F20739E
:10017000656E736F720002040E010F110F0002040E
:100180000E111F100E000204000C04040E000204E5
:100190000E1111110E00050A0E1111110E000204AC
:1001A000001111130D00050A001111130D002E008E
:1001B0002E002E002E002E002E002E002064620045
:1001C000445331384232303A2000204453313842CF
:1001D00032302073656E736F72730A00466F756EEE
:1001E000642000496E7465727275707420656E616A
:1001F000626C65640A00424D4532383020696E6495
:10020000ED74E1730049324320696E64ED74E1736B
:1002100000416C6170E16C6C61706F74626120E12F
:100220006C6CE1730046FB74E9732076657AE972C1
:100230006CE9732076302E39004275732065727236
:100240006F720A004E6F2073656E736F7220666F57
:10025000756E640A00427573207363616E6E696E19
:1002600067202E2E2E0A0047415320616E642046DF
:10027000495253545F464C4F4F525F56414C56457E
:100280002C205345434F4E445F464C4F4F525F56D0
:10029000414C56452072656C6179206465616374D8
:1002A0006976617465640A005345434F4E442046A5
:1002B0004C4F4F5220646561637469766174656464
:1002C0000A005345434F4E4420464C4F4F52206145
:1002D00063746976617465640A0046495253542018
:1002E000464C4F4F52206465616374697661746552
:1002F000640A00464952535420464C4F4F522061E5
:1003000063746976617465640A004741532C204424
:1003100048572064656163746976617465643B2045
:100320004255464645522072656C6179206465618C
:1003300063746976617465640A00474153206163A0
:10034000746976617465643B204255464645522C7B
:10035000204448572072656C61792064656163743C
:100360006976617465640A004448572072656C615F
:10037000792064656163746976617465640A004418
:1003800048572072656C6179206163746976617485
:1003900065642077697468206275666665720A0014
:1003A0004448572072656C61792061637469766195
:1003B0007465642077697468206761730A0046F683
:1003C0006C642F456D656C20005075666665722003
:1003D000737A2F70200047E17A2072656CE9200063
:1003E0003A00484D5620737A656C6570200076613E
:1003F00073E1726E617000737A6F6D626174007088
:10040000E96E74656B006373FC7400737A657264E3
:1004100061006B6564640068E97466F5002E002E67
:10042000003A002043002E00566973737A6174E924
:1004300072F520002043002E00456CF572656D6555
:100440006EF520002043002E005061646CF3200004
:100450002043002E004E617070616C6920002043C3
:10046000002E00476172E17A7320002043004BFCAC
:100470006C73F520002043002E0047E97068E17A94
:1004800020002043002E0050756666657220002013
:1004900043002E00484D562000210021210021005C
:1004A0002121002100212100210021210021002102
:1004B000210021002121000A002E0025200A0042EF
:1004C0004D453238302048756D69646974793A2039
:1004D0000043200A00424D453238302054656D708B
:1004E000657261747572653A200002040E010F1185
:1004F0000F0002040E111F100E000204000C040471
:100500000E0002040E1111110E00050A0E11111138
:100510000E000204001111130D00050A0011111341
:100520000D004B6F6D666F727420656CF572656DB2
:10053000656EF5004B6F6D666F72742068F56D0027
:100540004B6F6D666F7274206DF36400766173E1BA
:10055000726E617000737A6F6D6261740070E96E23
:1005600074656B006373FC74F67274F66B00737AD7
:1005700065726461006B6564640068E97466F50027
:100580006E6170206EE976006E61700068F36E61D6
:100590007000E976007065726300F3726100537A4F
:1005A000697661747479FA207574E16E667574E128
:1005B00073004C43442068E17474E972004D656E29
:1005C000FC206964F57AED74F520286D70290054DB
:1005D00065737A74FC7A656D00566973737A61206D
:1005E000737A656E7A6F72204944002043002E00B2
:1005F000566973737A6174E972F520616B742068CF
:10060000F56D00456CF5726520737A656E7A6F72D0
:10061000204944002043002E00456CF5726520619E
:100620006B742068F56D005061646CF320737A651B
:100630006E7A6F72204944002043002F002043004F
:100640002E005061646CF320616B742068F56D00BE
:100650004E617070616C6920737A656E7A6F72207A
:100660004944002043002F002043002E004E6170BB
:1006700070616C6920616B742068F56D0047617270
:10068000E17A7320737A656E7A6F72204944002094
:1006900043002F002043002E00476172E17A73204F
:1006A000616B742068F56D004B690042650047E19D
:1006B0007A20E16C6C61706F74004B6900426500D8
:1006C00050756666657220737A697661747479FA1A
:1006D0000047E17A0050756666657200507566667F
:1006E0006572202F2067E17A20737A656C6570004F
:1006F0004B6900426500456D656C65746920737ACD
:10070000656C6570004B690042650046F66C647369
:100710007A696E746920737A656C6570004B690044
:10072000426500484D5620737A656C657020E16C17
:100730006C61706F740047E97068E17A20737A65C4
:100740006E7A6F722049440047E97068E17A206B45
:10075000ED76E16E742068F56D0047E97068E17A26
:10076000206D696E2068F56D002043002F00204346
:10077000002E0047E97068E17A20616B742068F50B
:100780006D0050756666657220737A656E7A6F7259
:1007900020494400456CF572656D656EF52068F57D
:1007A0006D002043002F002043002E005075666628
:1007B000657220616B742068F56D004D6178206969
:1007C00064F5004D696E206964F500484D5620734C
:1007D0007A656E7A6F7220494400484D56206D69E3
:1007E0006E2068F56D00484D56206BED76E16E7415
:1007F0002068F56D002043002F002043002E0048A4
:100800004D5620616B742068F56D004BFC6C73F5E0
:10081000206D696E2068F56D00424D4532383020FC
:1008200070E1726100424D453238302068F56D004C
:1008300011241FBECFEFD0E1DEBFCDBF16E0A0E098
:10084000B1E0ECE9F1E502C005900D92A030B107EE
:10085000D9F727E0A0E0B6E001C01D92AE38B2079C
:10086000E1F70E942F120C94CC280C940000CF9337
:10087000DF93C82F8CEE0E945409811111C08C2F78
:100880000E9479090E94A1098DEE0E9454098111EC
:100890000AC00E949609C82FD0E00E94A10905C095
:1008A000C0E0D0E002C0C0E0D0E0CE01DF91CF9147
:1008B0000895CF93DF93C82F8CEE0E9454098111C5
:1008C00018C08C2F0E9479090E94A1098DEE0E9408
:1008D0005409811111C00E948B09C82FD0E0DC2F70
:1008E000CC270E949609C82B0E94A1098C2F9D2F0E
:1008F00005C080E090E002C080E090E0DF91CF9101
:1009000008950E9459049827892798270895CF921F
:10091000DF92EF92FF92F82E8CEE0E945409811123
:100920002EC08F2D0E9479090E94A1098DEE0E9490
:10093000540981111BC00E948B09C82ED12CE12CB7
:10094000F12CFE2CED2CDC2CCC240E948B09C82A27
:10095000FE2CED2CDC2CCC240E949609C82A0E9487
:10096000A1096C2D7D2D8E2D9F2D0DC08AE591E066
:100970000E948B2460E070E080E090E004C060E0C2
:1009800070E080E090E0FF90EF90DF90CF900895CE
:100990000F931F93CF93DF9388E80E948104C8E9E7
:1009A000D6E0998388838AE80E9481049B838A83A6
:1009B0008CE80E9481049D838C838EE80E948104D0
:1009C0009F838E8380E90E9481049987888782E9CA
:1009D0000E9481049B878A8784E90E9481049D8705
:1009E0008C8786E90E9481049F878E8788E90E9410
:1009F0008104998B888B8AE90E9481049B8B8A8B66
:100A00008CE90E9481049D8B8C8B8EE90E9481046D
:100A10009F8B8E8B81EA0E943704888F81EE0E9423
:100A200081049A8F898F83EE0E9437048B8F84EE26
:100A30000E9437048C0185EE0E94370402951295BE
:100A4000107F1027007F10278F709927802B912B04
:100A50009D8F8C8F86EE0E9437048C0185EE0E945C
:100A6000370402951295107F1027007F102792956A
:100A700082958F7089279F708927802B912B9F8F5C
:100A80008E8F87EE0E94370488A3DF91CF911F914C
:100A90000F9108958CEE0E94540981111EC082EFBF
:100AA0000E94790985E00E94790984EF0E94790902
:100AB00087EB0E94790980ED0E9479090E94C804A1
:100AC0000E94A1098DEE0E945409811106C00E9466
:100AD00096090E946B240E94A10908958F929F920B
:100AE000AF92BF92CF92DF92EF92FF920F931F933C
:100AF0008AEF0E948704E8E9F6E00081118120E096
:100B000030E0C72ED82EE92EFF24E7FCFA94C01A55
:100B1000D10AE20AF30ADC01CB01689416F8B59514
:100B2000A795979587951694D1F7000F111F221F4F
:100B3000331F4C015D01801A910AA20AB30AA50174
:100B40009401A281B3810E94F8274B015C01072E1A
:100B50007BE0B594A794979487947A95D1F7702DFC
:100B6000A7019601C701B6010E94D7279B01AC01DE
:100B7000012E1CE055954795379527951A95D1F785
:100B8000102DA481B5810E94F827DC01CB01072E2E
:100B90007EE0B595A795979587957A95D1F7702DB5
:100BA000880D991DAA1DBB1D8093B9069093BA06A6
:100BB000A093BB06B093BC068C019D01000F111FD2
:100BC000221F331F000F111F221F331F800F911F81
:100BD000A21FB31F80589F4FAF4FBF4F692F7A2F6F
:100BE0008B2F99270E94B32620E030E048EC52E496
:100BF0000E940B261F910F91FF90EF90DF90CF90F6
:100C0000BF90AF909F908F9008954F925F926F9298
:100C10007F928F929F92AF92BF92CF92DF92EF928C
:100C2000FF920E946E058DEF0E9459048090B906D4
:100C30009090BA06A090BB06B090BC062CE2921A27
:100C400021E0A20AB1086C01E12CF12C0B2EBEE0D0
:100C5000CC0CDD1CEE1CFF1CBA95D1F7B02DE8E9D9
:100C6000F6E0848D958D092E000CAA0BBB0B072E88
:100C700074E1880F991FAA1FBB1F7A95D1F7702DB9
:100C8000C81AD90AEA0AFB0AA68DB78DA5019401F4
:100C90000E94F827C61AD70AE80AF90A30E4D30EE8
:100CA000E11CF11C0B2EBFE0F594E794D794C79498
:100CB000BA95D1F7B02DA38DB0E0A50194010E94A3
:100CC000ED272B013C01032E3BE07594679457946C
:100CD00047943A95D1F7302D40E8540E611C711CB1
:100CE000A0A10A2E000CBB0BA50194010E94F827BD
:100CF000052E5AE095958795779567955A95D1F782
:100D0000502DA30192010E94D727DC01CB01072EB1
:100D10007AE0B595A795979587957A95D1F7702D37
:100D20009C01AD01405E5F4FA18DB28D0E94F827FE
:100D3000DC01CB01905EAF4FBF4FBC01CD01052E52
:100D40005EE095958795779567955A95D1F7502DE3
:100D5000A70196010E94D7276B017C01052E5FE059
:100D600095958795779567955A95D1F7502D9B0165
:100D7000AC010E94D7279B01AC01689416F85595E9
:100D80004795379527951694D1F7A08DB0E00E942E
:100D9000ED27DC01CB01689413F8B595A7959795DD
:100DA00087951694D1F7A7019601281B390B4A0B9A
:100DB0005B0BDA01C9011AF480E090E0DC018130BC
:100DC0009105A10539E1B30724F080E090E0A0E0AF
:100DD000B9E1BC01CD01052E5CE09595879577952D
:100DE00067955A95D1F7502D0E94B52620E030E046
:100DF00040E85AE30E946A27FF90EF90DF90CF907F
:100E0000BF90AF909F908F907F906F905F904F902A
:100E1000089561157105A9F0FC01680F791F80E044
:100E200048E1219198E0382F322730FF0CC0842709
:100E30008695806826959150B1F7E617F70789F7F0
:100E4000089580E008958695F5CF0F931F93CF9373
:100E5000DF93DB01EC9111969C911197F0E0F92B57
:100E6000803181F4EE7FEE0FFF1FEE0FFF1FEE0FBC
:100E7000FF1F16969C9116976CE070E0691B710934
:100E8000E60FF71FFF233CF491E0EA019883F19508
:100E9000E195F10902C0EA011882883279F41496CA
:100EA0008C91982F9076903649F086FF02C0EE7FA5
:100EB00005C085FF02C0EC7F01C0E87FCF0192959D
:100EC00082958F7089279F708927D9018C93EF7045
:100ED000E801E88380E0DF91CF911F910F910895A1
:100EE0000F931F93CF93DF93EC018B01B80188819F
:100EF0000E94D208888381508D3F30F4F8018081B0
:100F0000883211F0803191F7DF91CF911F910F91CD
:100F100008950F931F93CF93C82F8B010E941E0833
:100F20000E940208882351F0B80184E40E942C0931
:100F3000C13031F00E940B0880E003C082E001C0A4
:100F400080E0CF911F910F9108956F927F928F92C1
:100F50009F92AF92BF92CF92DF92EF92FF920F9348
:100F60001F93CF93DF93CDB7DEB729970FB6F894D1
:100F7000DEBF0FBECDBF6C015B013A0149010E948B
:100F80001E08B6018EEB0E942C098E010F5F1F4FC9
:100F90007E018AE0E80EF11C0E94CE08F8018193E0
:100FA0008F01EE15FF05C1F769E070E0CE010196F3
:100FB0000E940907F82E81110BC084019301A5013D
:100FC000BE016F5F7F4FF60180810E94250704C03C
:100FD0000F2EF3E0FF2EF02D8F2D29960FB6F894EB
:100FE000DEBF0FBECDBFDF91CF911F910F91FF905C
:100FF000EF90DF90CF90BF90AF909F908F907F90B9
:101000006F900895E091C006F091C10690818091A3
:10101000BF0689230895E091BD06F091BE06908138
:101020008091BF06892B8083E091C206F091C306B0
:1010300090818091BF06892B80830895E091BD0641
:10104000F091BE0690818091BF06809589238083B0
:10105000E091C206F091C30690818091BF06892B72
:1010600080838FE897E08115910511F00197F1F7E2
:101070002FB7F894E091C206F091C3069081809159
:10108000BF0680958923808389E091E081159105D1
:1010900011F00197F1F7E091C006F091C10630819F
:1010A0008091BF062FBFE5E8F6E0E115F10511F0EC
:1010B0003197F1F7E091C006F091C106208190913F
:1010C000BF06922311F08323089581E00895509381
:1010D000C3064093C2067093BE066093BD0690930C
:1010E000C1068093C00681E001C0880F2A95EAF707
:1010F0008093BF060E941E0808953FB7F894E091C0
:10110000C206F091C30620819091BF06922B908376
:10111000E3E0F0E0E115F10511F03197F1F78823F4
:1011200051F0E091C206F091C30620819091BF0674
:10113000909592239083E8E3F0E0E115F10511F03A
:101140003197F1F7E091C006F091C10620819091AE
:10115000BF06292309F480E0E5EBF0E0E115F10595
:1011600011F03197F1F7E091C206F091C3062081AA
:101170009095922390833FBF0895CF93DF93C82F1C
:10118000D8E08C2F81700E947D08C6958111C068BF
:10119000D150B9F78C2FDF91CF9108958FEF0E9436
:1011A000BD080895DF92EF92FF920F931F93CF93A4
:1011B000DF93D82E8B010E941E0881112BC080EF77
:1011C0000E94BD08E12CC0E40F2EF8EFFF2EF02D99
:1011D000FC0E81E00E947D08D82F81E00E947D08EE
:1011E000882319F0DD23D1F017C0D11124C0CD150B
:1011F000E8F0F801808180FF11C0CD111AC00EC047
:10120000C150FC12E6CF0F5F1F4FCF2DF110DCCF86
:101210008E2D1AC08FEF18C08EEF16C080E00E948E
:101220007D08F801908196959083EACFEC2ED1E06D
:1012300002C0EC2ED1E08D2F0E947D08F801908134
:10124000969590689083DCCFDF91CF911F910F919D
:10125000FF90EF90DF900895FF920F931F93CF932D
:10126000DF93F82EEB010E941E08209769F085E5B8
:101270000E94BD088E01085F1F4F89910E94BD0822
:10128000C017D107D1F703C08CEC0E94BD088F2D89
:101290000E94BD08DF91CF911F910F91FF9008959B
:1012A0008EE2809370000895E4E7F0E0108294EA03
:1012B000908390819923ECF790917100987F9830FA
:1012C000A1F48093730084E880937400E4E7F0E075
:1012D00080818823ECF790917100987F983139F0E4
:1012E00081E0903429F480E0089581E0089580E061
:1012F00008958093730084E880937400E4E7F0E03D
:1013000080818823ECF790917100987F81E098327A
:1013100009F480E0089584EC80937400E4E7F0E041
:1013200080818823ECF780917300089584E880938E
:101330007400E4E7F0E080818823ECF7809173008B
:10134000089584E9809374000895AD9A00C000C0A8
:10135000AD980895CF93C82F662311F0AF9A01C0BE
:10136000AF98AE98A49AA39AA29AA19AA998AA987B
:10137000AB98AC98CC230CF4A99AC6FDAA9AC5FDEB
:10138000AB9AC4FDAC9A0E94A509A998AA98AB98FB
:10139000AC98C3FDA99AC2FDAA9AC1FDAB9AC0FD43
:1013A000AC9A0E94A509AC9AAB9AAA9AA99ACF9135
:1013B0000895882311F0AF9A01C0AF98AE9AA4980F
:1013C000A398A298A198AD9A00C000C09C9B02C0AF
:1013D00080E101C080E09B9980629A99806499992C
:1013E0008068AD9800C000C0AD9A00C000C09C9954
:1013F00081609B9982609A99846099998860AD9880
:10140000089580E00E94D9098823DCF388E090E009
:101410000197F1F780E00E94D9090895CF93C82F72
:101420000E94010A60E08C2F0E94AA09CF910895C2
:10143000CF93C82F0E94010A61E08C2F0E94AA0955
:10144000CF910895611104C080580E940E0A08953A
:10145000613021F480540E940E0A0895623021F414
:101460008C560E940E0A08958C520E940E0A08950E
:1014700081E00E940E0A0895CF93C82F0E94010AAE
:10148000CA30A1F4843148F090EC980F943138F0D0
:1014900084518C3230F080E005C080E403C084E1E8
:1014A00001C084E580580E940E0A04C061E08C2FC0
:1014B0000E94AA09CF910895CF93DF93EC01219662
:1014C000FC018491882339F00E943C0AFE0184913A
:1014D00021968111F9CFDF91CF9108951F93CF937A
:1014E000DF93182FA79AA69AA59AA49AA39AA29ACC
:1014F000A19A80E09AEF0197F1F7AB9AAC9A0E941B
:10150000A50980E09EE40197F1F70E94A509C0E0DB
:10151000D1E0CE010197F1F70E94A509CE01019714
:10152000F1F7AC980E94A5092197F1F788E20E9493
:101530000E0A88E00E940E0A0E94380A86E00E9485
:101540000E0A812F0E940E0ADF91CF911F910895FC
:101550000F931F93CF93DF9380E40E940E0AC6E798
:10156000D1E00FEA11E0FE0184910E94180A219651
:10157000C017D107C1F7DF91CF911F910F91089547
:101580009FEF960F662319F086959150E8F780FF3C
:1015900004C081E30E943C0A089580E30E943C0A53
:1015A0000895482F50E0FA01E15CF109EC33F105B0
:1015B000A8F4EA5BFF4F0C94E7278FEE0FC085EF8E
:1015C0000DC080E00BC081E009C082E007C083E06D
:1015D00005C084E003C085E001C086E00E943C0AAB
:1015E0000895CF93DF93EC012196FC01808188233D
:1015F00029F00E94D10A89918111FBCFDF91CF910F
:1016000008950F931F93CF93DF9300D000D0CDB7F1
:10161000DEB78C014AE0BE016F5F7F4F0E945A28FF
:101620000A30110518F480E30E943C0ACE010196AD
:101630000E94F10A0F900F900F900F90DF91CF91C1
:101640001F910F910895CF93DF93EC012196FC0138
:101650008491882339F00E94D10AFE018491219659
:101660008111F9CFDF91CF9108951F920F920FB69C
:101670000F9211248F939F9384B195B10A9738F4F8
:101680008AE090E0909383008093820006C084B14A
:1016900095B190938300809382009F918F910F90DA
:1016A0000FBE0F901F9018951F920F920FB60F92BA
:1016B00011248F9380910D0680910D068F5F80938A
:1016C0000D068F910F900FBE0F901F901895CF921F
:1016D000DF92EF92FF920F931F93CF93DF9300D08F
:1016E0001F92CDB7DEB780910206813009F479C030
:1016F00038F0823009F49DC0833009F4AEC070C266
:101700000E946E05AB01BC014093DD065093DE06DE
:101710006093DF067093E00622E030E082E297E01B
:101720000E94102520E030E048EC52E46091DD0694
:101730007091DE068091DF069091E0060E946A2794
:101740000E947D26709318076093170780910C06FE
:10175000882361F085ED94E00E948B2482E297E07B
:101760000E947C2481ED94E00E948B2480910206EB
:101770008F5F80930206C090DD06D090DE06E09079
:10178000DF06F090E0062091FA063091FB064091CA
:10179000FC065091FD06C701B6010E946527181688
:1017A00044F4C092FA06D092FB06E092FC06F09256
:1017B000FD062091FE063091FF06409100075091F2
:1017C0000107C701B6010E94062688230CF00AC251
:1017D000C092FE06D092FF06E0920007F092010749
:1017E00001C20E940506AB01BC014093E106509383
:1017F000E2066093E3067093E40622E030E08FE3B4
:1018000097E00E94102580910C06882361F08FEBF1
:1018100094E00E948B248FE397E00E947C248BEB62
:1018200094E00E948B24809102068F5F80930206D1
:10183000D9C120E047E350E068E370E086E390E040
:101840000E94670860E070E081E00E948907809153
:1018500002068F5F80930206C5C120E047E350E097
:1018600068E370E086E390E00E9467088091F606E6
:10187000882309F4AFC110E004E6812F90E0880FBF
:10188000991F880F991F880F991F9E012D5F3F4F49
:10189000AE014E5F5F4FBE016F5F7F4F8A5B984F17
:1018A0000E94A507811118C080910C068823A1F021
:1018B000898190E00E94F5248A8190E00E94F524BD
:1018C00089EB94E00E948B248B8190E00E94F524A8
:1018D00087EB94E00E948B248091080681132DC031
:1018E0008A81809312074AE062E077E090E00E94EC
:1018F0006D288B814AE06CE377E090E00E946D28D0
:10190000809112079091F806981710F48093F806CA
:1019100090913107891710F4809331078A818838B4
:1019200060F064EB74E082E097E00E942D2862EBA7
:1019300074E08CE397E00E942D2880910B018113C5
:101940002DC08A8180938D074AE063E177E090E0C3
:101950000E946D288B814AE06EE277E090E00E9461
:101960006D2880918D079091C706981710F4809389
:10197000C70690912D07891710F480932D078A814F
:10198000883860F06FEA74E083E197E00E942D28C8
:101990006DEA74E08EE297E00E942D2880910901A3
:1019A00081132DC08A818093F9064AE06BEE76E0C0
:1019B00090E00E946D288B814AE06AE077E090E039
:1019C0000E946D288091F90690913207981710F4C3
:1019D000809332079091C406891710F48093C4064F
:1019E0008A81883860F06AEA74E08BEE96E00E94A3
:1019F0002D2868EA74E08AE097E00E942D28809103
:101A00000A0181132DC08A81809310074AE069E89A
:101A100077E090E00E946D288B814AE06CE177E0EE
:101A200090E00E946D2880911007909145079817CB
:101A300010F48093450790911107891710F4809353
:101A400011078A81883860F065EA74E089E897E0D8
:101A50000E942D2863EA74E08CE197E00E942D2813
:101A600080910801811357C08A81089FA001112429
:101A70009B819A30A0F4292F30E0B901660F771FBF
:101A8000220F331F220F331F220F331F260F371F42
:101A9000240F351F3093C6062093C50606C0490F94
:101AA000511D5093C6064093C5064AE069ED76E0A5
:101AB00090E00E946D288B814AE065E377E090E03A
:101AC0000E946D288091C5069091C60620918607D8
:101AD000309187072817390720F490938707809360
:101AE000860720913807309139078217930720F431
:101AF00090933907809338078A81883860F060EACC
:101B000074E089ED96E00E942D286EE974E085E38B
:101B100097E00E942D288091070181132DC08A81B2
:101B200080933B074AE065EE76E090E00E946D28E6
:101B30008B814AE069E177E090E00E946D28809116
:101B40003B0790918807981710F48093880790912D
:101B50000F07891710F480930F078A81883860F087
:101B60006BE974E085EE96E00E942D2869E974E047
:101B700089E197E00E942D2880910601811310C011
:101B80008A818093C8064AE066E077E090E00E9490
:101B90006D288B814AE06AE277E090E00E946D2830
:101BA00080910501811310C08A8180930E074AE05D
:101BB0006FEE76E090E00E946D288B814AE063EF43
:101BC00076E090E00E946D281F5F8091F60618175E
:101BD00008F453CE809102068F5F8093020602C004
:101BE0001092020680911201811194C10E94380A5C
:101BF00080910001803108F455C084E994E00E948E
:101C00005C0A82E097E00E94F10A82E994E00E9477
:101C10005C0A8CE397E00E94F10A8FE894E00E944E
:101C20005C0A61E080E00E94220A87E894E00E945A
:101C30005C0A83E197E00E94F10A85E894E00E9443
:101C40005C0A8EE297E00E94F10A82E894E00E942A
:101C50005C0A62E080E00E94220A8AE794E00E9427
:101C6000230B8BEE96E00E94F10A88E794E00E9435
:101C70005C0A8AE097E00E94F10A85E794E00E94FE
:101C80005C0A63E080E00E94220A8EE694E00E94F3
:101C9000230B82E297E00E94F10A8BE694E00E9417
:101CA0005C0A2DC195EF980F953008F045C083E68A
:101CB00094E00E94230B89E897E00E94F10A81E6F4
:101CC00094E00E945C0A8CE197E00E94F10A8EE5A4
:101CD00094E00E945C0A61E080E00E94220A85E5AF
:101CE00094E00E945C0A89ED96E00E94F10A83E587
:101CF00094E00E945C0A85E397E00E94F10A80E587
:101D000094E00E945C0A62E080E00E94220A89E47A
:101D100094E00E94230B85EE96E00E94F10A87E48E
:101D200094E00E945C0A89E197E00E94F10A84E451
:101D300094E00E945C0AE3C09AEF980F953008F097
:101D40008FC089E394E00E94230B86E097E00E9415
:101D5000F10A87E394E00E945C0A8AE297E00E941D
:101D6000F10A84E394E00E945C0A61E080E00E9452
:101D7000220A88E294E00E94230B8FEE96E00E94F4
:101D8000F10A86E294E00E945C0A83EF96E00E94EA
:101D9000F10A83E294E00E945C0A62E080E00E9423
:101DA000220A8091070690E00E94010B81E294E0F4
:101DB0000E945C0A8091060690E00E94010B63E09D
:101DC00080E00E94220A80910301909104010E9408
:101DD000010B8FE194E00E945C0A8091020190E087
:101DE0000E94010B8DE194E00E945C0A8091010148
:101DF00090E00E94010B63E08CE00E94220AE091D7
:101E000003068E2F90E0FC013197E730F10508F0D2
:101E100076C0EE57FF4F0C94E72787E194E00E94CD
:101E2000230B6DC082E194E00E94230B68C08BE01D
:101E300094E00E94230B63C086E094E00E94230B91
:101E40005EC08FEF93E00E94230B59C087EF93E0B1
:101E50000E94230B54C08EEE93E00E94230B4FC0D0
:101E6000863008F04CC082EE93E00E945C0A64E089
:101E7000809109060E94C00A60E08FE00E94220A59
:101E80008091070690E00E94010B80EE93E00E9493
:101E90005C0A8091060690E00E94010B61E080E000
:101EA0000E94220A86ED93E00E94230B67E0809156
:101EB00009060E94C00A62E080E00E94220A89ECC2
:101EC00093E00E945C0A65E0809109060E94C00AC6
:101ED00066E0809109060E94C00A63E080E00E94EB
:101EE000220A8EEB93E00E94230B62E080910906A8
:101EF0000E94C00A63E0809109060E94C00A809196
:101F00000001815019F08093000107C084E18093A3
:101F1000000103C081508093120180910B06811152
:101F200001C0369A0F900F900F90DF91CF911F91C3
:101F30000F91FF90EF90DF90CF900895DF92EF9296
:101F4000FF920F931F93CF93DF93CDB7DEB72997FF
:101F50000FB6F894DEBF0FBECDBF80910C0688236C
:101F600009F43FC085E592E00E948B248FEF8987BA
:101F70000F2EF6E4EF2EF7E0FF2EF02DD12C8E0180
:101F8000075F1F4FBE016F5F7F4FC8010E94700740
:101F900099859F3F49F480910C06882329F184E4B8
:101FA00092E00E948B2420C09E3F49F480910C0651
:101FB0008823D1F089E392E00E948B2415C0FE01B2
:101FC0003196D70181918D93E017F107D9F7D3941A
:101FD000992351F088E0E80EF11C88E0D812D2CFA6
:101FE00003C08FEF8987C4CF8D2D29960FB6F89443
:101FF000DEBF0FBECDBFDF91CF911F910F91FF903C
:10200000EF90DF9008950E94BC236091090681E063
:102010000E94D0230E94CB23089580910406882338
:1020200029F19091120780910D079817D8F48091AB
:1020300007062091060630E094E6899F200D311DA9
:10204000112480913307909134078217930760F031
:1020500081E040912007509121072417350770F443
:1020600080E00CC080E00AC080E008C081E02091E0
:10207000120790910D07291708F080E08823E9F1F5
:102080009091F70680911207981708F443C0909139
:102090008D0780910D079817B8F4809110019091E9
:1020A00011019093010680930006809109068F79B3
:1020B00080698093090680910C06882359F180EA93
:1020C00093E00E948B2426C0809100069091010627
:1020D000009729F001979093010680930006809164
:1020E00009068F778093090680910C06882391F06A
:1020F0008FE793E00E948B240DC0809109068F76B4
:102100008093090680910C06882321F088E693E0ED
:102110000E948B248091090684FD15C10E9B20C06E
:102120000F9B1EC02091F9069091D8062917C0F088
:1021300090910A06992309F4E8C04091C506509190
:10214000C60620910E0130910F014217530708F087
:10215000DCC020918D0790910D01921708F0D5C039
:1021600040911707509118072091E9063091EA062F
:102170002417350708F4C9C02091F90690913A0751
:10218000291720F00E9B02C00F9937C020918D07B0
:1021900090910C012917B0F4209110013091110198
:1021A00030930106209300068F788068809309069B
:1021B00080910C06882309F44BC08AE393E00E94C7
:1021C0008B2446C02091000630910106211531056F
:1021D00029F48F7680668093090606C02150310964
:1021E000309301062093000680910C06882381F12C
:1021F0008AE093E00E948B242BC04091C506509149
:10220000C60620910E0130910F014217530700F5C9
:1022100090918D0720910D012917D0F40E9B18C0C5
:102220000F9B16C02091C806291790F42091000634
:10223000309101062115310529F48F76806680934F
:10224000090606C02150310930930106209300068B
:102250000E990DC0809109068460809309068091D3
:102260000C06882321F083EF92E00E948B240E9BC2
:102270000DC0809109068B7F8093090680910C0622
:10228000882321F08AED92E00E948B240F990DC0E3
:102290008091090688608093090680910C06882346
:1022A00021F082EC92E00E948B240F9B0DC0809164
:1022B0000906877F8093090680910C06882321F008
:1022C00088EA92E00E948B2480910A068823D9F143
:1022D0002091C5063091C60680910E0190910F01A4
:1022E0002817390760F490918D0780910D018917A7
:1022F00030F48091090684608093090624C080919F
:1023000009068B7F809309061EC02091000630913C
:1023100001062115310521F4837F8093090606C04B
:10232000215031093093010620930006809109065F
:102330008F718093090680910C06882321F087E62F
:1023400092E00E948B240E940310089587E090E0A1
:102350000E9497288093080682E190E00E949728C7
:1023600080930D0781E190E00E9497288093F70603
:102370008FE090E00E949F28909321078093200790
:102380008DE090E00E949F2890933407809333075C
:1023900086E090E00E94972880930B018CE090E00B
:1023A0000E94972880930C0184E090E00E94972877
:1023B000809309018BE090E00E9497288093D806D3
:1023C0008AE090E00E94972880933A0785E090E0A9
:1023D0000E94972880930A0183E090E00E9497284A
:1023E0008093080182E090E00E9497288093070183
:1023F00088E090E00E949F289093EA068093E90687
:102400008BE190E00E94972880930C068AE190E08F
:102410000E9497288093120189E190E00E949728FA
:1024200080930B0687E190E00E949F289093110112
:102430008093100186E190E00E94972880930A061D
:1024400084E190E00E949F2890930F0180930E01F9
:1024500083E190E00E94972880930D010895CF9327
:10246000DF93CDB7DEB765970FB6F894DEBF0FBE2A
:10247000CDBF0E94A6110E94BC2360E083E00E94B1
:10248000D0230E94CB238CE00E946E0A8AEE94E057
:102490000E94A80AEBE8F0E0808189608083EAE886
:1024A000F0E080818B60808380E890E090938300EF
:1024B00080938200159A1D9A0E94380A85E292E064
:1024C0000E94230B87E690E00E943724E1E6F0E0CB
:1024D00080818E7F8083E2E6F0E080818E7F808342
:1024E000A09A82B18F7382B9109209060E940310DC
:1024F00061E080E00E94220A81E192E00E94230BC9
:1025000062E080E00E94220A1AE088E70E943C0A0A
:102510002FEF83ED90E3215080409040E1F700C021
:102520000000115091F70E94380A85E092E00E9465
:10253000230B0E94500961E080E00E94220A86EF8E
:1025400091E00E94230B0E944A05789483EE91E06B
:102550000E948B2420E047E350E068E370E086E3CC
:1025600090E00E9467080E949E0F8093F60680917B
:102570000C06882369F08CED91E00E948B248091F9
:10258000F60690E00E94F5248AEC91E00E948B24EC
:1025900062E080E00E94220A80EC91E00E945C0AE6
:1025A0008091F60690E00E94010B8CEB91E00E9476
:1025B0005C0A2FEF8BE792E9215080409040E1F7D1
:1025C00000C000008EB58C608EBD1DBC1CBC84E2BA
:1025D00094EF9BBD8ABD87B7806187BF86B18F6C42
:1025E00086B9A89581B5886181BD81B5876081BDB7
:1025F0000E94F614FF24F3940F2EFDE19F2EF02D80
:102600000F2EFFE1EF2EF02D1DE080910D068130A1
:1026100009F05EC0809105068F5F8C3319F08093BE
:1026200005064BC010920506809106068F5F8C331D
:1026300019F08093060641C01092060680910706A5
:102640008F5F883119F08093070637C01092070614
:10265000809103068F5F883019F08093030602C0D3
:10266000F092030620910201822F90E0FC01319745
:10267000EC30F10538F4E757FF4F0C94E72700E200
:1026800001C00E2D809101018F5F081719F0809312
:10269000010113C0F09201012F5F2D3019F020933A
:1026A00002010BC0F092020180910301909104019C
:1026B000019690930401809303010E94670B80911F
:1026C0000C06823010F40E940D10A89510920D0691
:1026D0000E94FB1480910C06882309F496CF0E9477
:1026E0004D248D3059F0E0911F0791E09E0F90939B
:1026F0001F07F0E0E753F94F808387CFE0911F0772
:10270000F0E0E753F94F10836BE370E089EC96E05B
:102710000E9434285C016CE270E0CE0101960E94B8
:1027200034286C01009741F4B5016F5F7F4FCE01F3
:1027300001960E943F2814C0FC0101900020E9F797
:102740003197AF01481B590BB501CE0101960E948C
:102750004628B6016F5F7F4FCE0141960E943F2809
:102760008091C906823509F58091CA06813349F402
:10277000CE0101960E940F280E9497280E946B2488
:10278000ACC0823309F0A9C0CE0101960E940F2887
:102790000E949F284AE0BE01655F7F4F0E945A2831
:1027A000CE010B960E947C2498C0833509F06FC03F
:1027B000C5010E940F28FC01FF27E254F109E13115
:1027C000F10508F08AC0EB56FF4F0C94E72782E032
:1027D00097E00E947C248AEB91E00E948B248CE39A
:1027E00097E00E947C2479C083E197E00E947C24DA
:1027F00088EB91E00E948B248EE297E00E947C247B
:102800006CC08BEE96E00E947C2486EB91E00E94E7
:102810008B248AE097E00E947C245FC089E897E0DF
:102820000E947C2484EB91E00E948B248CE197E051
:102830000E947C2452C089ED96E00E947C2482EBA9
:1028400091E00E948B2485E397E00E947C2445C0A0
:1028500086E097E00E947C2480EB91E00E948B242C
:102860008AE297E00E947C2438C08FEE96E00E94B6
:102870007C248EEA91E00E948B2483EF96E00E94F4
:102880007C242BC082E297E00E947C2426C08735FE
:1028900001F58091CA06813369F4CE0141960E9408
:1028A0000F28D82ECE0101960E940F286D2D0E9470
:1028B000A52813C0823389F4CE0141960E940F28C7
:1028C0006C01CE0101960E940F28B6010E94B62825
:1028D00004C0853511F40E94A61110921F0795CEF1
:1028E000F09201012F5F092DDACE809101018F5FF7
:1028F0008D31B1F3092DCBCEEF92FF920F931F9341
:10290000CF93DF930E94380A0E94B023EC010E940B
:10291000B323E0912701F091280196819923A1F03A
:10292000A081B1811696AC9187E0A89FD0011124B7
:10293000A75DBE4F12960D90BC91A02D1796CD911C
:10294000DC91189716968C9124819581291BE82E8D
:10295000F12C1E141F04A4F530E08901000F111F93
:10296000000F111F000F111F200F311F8E01020FCA
:10297000131FC0E0D0E06C2F80E00E94220AE0919B
:102980002701F0912801858190E08C179D0721F4A3
:102990008EE30E943C0A03C080E20E943C0A80E26F
:1029A0000E943C0AF801808191810E94F10A2196DF
:1029B000CE15DF0529F0075F1F4FC430D105D9F6CA
:1029C000DF91CF911F910F91FF90EF900895E9E271
:1029D000F1E0F0932801E093270111821082138225
:1029E0001282148215820E947C1408950E94B523DD
:1029F0000E94E71408955F926F927F928F929F9248
:102A0000AF92BF92CF92DF92EF92FF920F931F93FC
:102A1000CF93DF93C3E1D1E00F2EF7E2EF2EF1E089
:102A2000FF2EF02D88248394912C612C712C552439
:102A300053940F2EF5E4AF2EF1E0BF2EF02D0F2EA4
:102A4000F9E2CF2EF1E0DF2EF02D8E0180B390E081
:102A5000098002C0959587950A94E2F7282D392DB3
:102A600080FF02C0262D372DF80182819381880FC7
:102A7000991F906E822B932B938382838115904FA5
:102A800009F011C1F80154828AE190E00E94972870
:102A900080931201A89AA0912701B091280116965F
:102AA0009C911697943009F4DAC0F8018081813046
:102AB000F9F038F0823009F449C0833009F4A7C036
:102AC000B5C014968C911497882309F4B8C0159654
:102AD0009C911597911104C0815014968C93AFC0AE
:102AE000915015969C931597815014968C93A7C07E
:102AF0000E94B323E0912701F09128019681992348
:102B000009F4DAC04481242F30E0A081B181169607
:102B1000AC9187E0A89FD0011124A75DBE4F12960B
:102B20000D90BC91A02D16968C9190E001972817DE
:102B300039070CF07BC08581833019F44F5F4483E3
:102B400075C08F5F85834F5F448370C00E94B02340
:102B5000A0912701B091280116964C911697442315
:102B600079F0ED91FC911197E68127E0E29FF00169
:102B70001124E75DFE4F0280F381E02D878190856F
:102B800014965C911497252F30E0F901EE0FFF1F8A
:102B9000EE0FFF1FEE0FFF1F2E0F3F1F280F391FD5
:102BA000F90182819381892B81F013963C932E93B6
:102BB0001297B0922801A0922701F601B58FA48F39
:102BC000378F268F50A311A231C0F90187819085DC
:102BD000892B61F113963C932E931297842F90E0EA
:102BE0000196FC01EE0FFF1FEE0FFF1FEE0FFF1F00
:102BF000E81BF90BE75DFE4FF0932801E0932701F6
:102C0000B183A08313821282148215820FC099238C
:102C1000B1F0ED91FC918681F7E08F9FC001112406
:102C2000875D9E4F9093280180932701A0912701F3
:102C3000B091280116968C911697843019F00E9455
:102C40007C1434C0ED91FC9111970280F381E02D4A
:102C50000280F381E02D14968C91099527C0ED91A7
:102C6000FC9111970280F381E02D0480F581E02D25
:102C700014966C91C80109958823C1F0E091270151
:102C8000F09128010190F081E02D868127E0829F5C
:102C9000C0011124875D9E4F9093280180932701E6
:102CA0000E947C1403C0F8011482A8982596CE15C2
:102CB000DF0509F0CACE0AC04481242F30E090E03D
:102CC0000197281739070CF436CFB9CFDF91CF9190
:102CD0001F910F91FF90EF90DF90CF90BF90AF903A
:102CE0009F908F907F906F905F900895FC018081FE
:102CF000843010F080E0089581E00895FC01808127
:102D0000843010F080E0089581E00895FC01808116
:102D1000843010F080E0089581E00895FC01808106
:102D2000843010F080E0089581E00895FC018081F6
:102D3000843010F080E0089581E00895FC018081E6
:102D4000843010F080E0089581E008950E94380AF0
:102D500080E895E00E94230B61E080E00E94220A57
:102D6000E09103068E2F90E0FC013197E730F105EA
:102D700030F5EA55FF4F0C94E7278AE795E00E946B
:102D8000230B089585E795E00E94230B08958EE6B6
:102D900095E00E94230B089584E695E00E94230BA2
:102DA00008958DE595E00E94230B089585E595E053
:102DB0000E94230B08958CE495E00E94230B089554
:102DC000FC018081813081F018F08430B8F41BC0A0
:102DD000809103068F5F883019F0809303060EC040
:102DE00081E0809303060AC080910306815019F0A8
:102DF0008093030603C087E080930306862F0E941A
:102E0000A61680E0089581E008950E94380A85E2C0
:102E100098E00E94230B61E080E00E94220A82E297
:102E200097E00E94F10A08950E94380A89E198E02B
:102E30000E94230B61E080E00E94220A8FE397E06A
:102E40000E94F10A0895CF93DF9300D000D01F9223
:102E5000CDB7DEB70E94380A8BE098E00E94230BC2
:102E600061E080E00E94220A4AE0BE016F5F7F4F6E
:102E70008091E9069091EA060E945A28CE010196B7
:102E80000E94F10A0F900F900F900F900F90DF911A
:102E9000CF910895CF93DF9300D000D0CDB7DEB7A8
:102EA00080910D074AE0BE016F5F7F4F90E00E9466
:102EB0005A280E94380A86EE97E00E94230B61E0B0
:102EC00080E00E94220ACE0101960E94F10A0F9032
:102ED0000F900F900F90DF91CF910895CF93DF93D4
:102EE00000D000D0CDB7DEB78091F7064AE0BE0132
:102EF0006F5F7F4F90E00E945A280E94380A8AED47
:102F000097E00E94230B61E080E00E94220ACE013C
:102F100001960E94F10A0F900F900F900F90DF9191
:102F2000CF910895CF93DF9300D000D0CDB7DEB717
:102F30000E94380A8BEC97E00E94230B61E080E04E
:102F40000E94220A809108064AE0BE016F5F7F4F0F
:102F500090E00E945A28CE0101960E94F10A0F903B
:102F60000F900F900F90DF91CF910895CF93DF9343
:102F700000D000D01F92CDB7DEB70E94380A83EC94
:102F800097E00E94230B61E080E00E94220A4AE061
:102F9000BE016F5F7F4F80912007909121070E94B3
:102FA0005A28CE0101960E94F10A0F900F900F90BF
:102FB0000F900F90DF91CF910895CF93DF9300D0C2
:102FC00000D01F92CDB7DEB70E94380A8BEB97E096
:102FD0000E94230B61E080E00E94220A4AE0BE01C9
:102FE0006F5F7F4F80913307909134070E945A287A
:102FF000CE0101960E94F10A0F900F900F900F9052
:103000000F90DF91CF910895CF93DF9300D000D040
:10301000CDB7DEB780910C014AE0BE016F5F7F4FF4
:1030200090E00E945A280E94380A84E997E00E94A2
:10303000230B61E080E00E94220ACE0101960E94EB
:10304000F10A0F900F900F900F90DF91CF9108959C
:10305000CF93DF9300D000D0CDB7DEB70E94380AFF
:1030600082E897E00E94230B61E080E00E94220A40
:1030700080910B014AE0BE016F5F7F4F90E00E949C
:103080005A28CE0101960E94F10A0F900F900F90DE
:103090000F90DF91CF910895CF93DF9300D000D0B0
:1030A000CDB7DEB780913A074AE0BE016F5F7F4F30
:1030B00090E00E945A280E94380A8AE597E00E9410
:1030C000230B61E080E00E94220ACE0101960E945B
:1030D000F10A0F900F900F900F90DF91CF9108950C
:1030E000CF93DF93CDB7DEB727970FB6F894DEBF47
:1030F0000FBECDBF8091D8064AE0BE016F5F7F4F03
:1031000090E00E945A280E94380A88E497E00E94C2
:10311000230B61E080E00E94220ACE0101960E940A
:10312000F10A27960FB6F894DEBF0FBECDBFDF9130
:10313000CF910895CF93DF9300D000D0CDB7DEB705
:103140000E94380A86E397E00E94230B61E080E04A
:103150000E94220A809109014AE0BE016F5F7F4F01
:1031600090E00E945A28CE0101960E94F10A0F9029
:103170000F900F900F90DF91CF910895CF93DF9331
:1031800000D000D0CDB7DEB70E94380A8DE796E0B8
:103190000E94230B61E080E00E94220A80910A01D4
:1031A0004AE0BE016F5F7F4F90E00E945A28CE0137
:1031B00001960E94F10A0F900F900F900F90DF91EF
:1031C000CF910895CF93DF9300D000D0CDB7DEB775
:1031D0000E94380A80E596E00E94230B61E080E0BF
:1031E0000E94220A809108014AE0BE016F5F7F4F72
:1031F00090E00E945A28CE0101960E94F10A0F9099
:103200000F900F900F90DF91CF910895CF93DF93A0
:1032100000D000D0CDB7DEB70E94380A87E296E032
:103220000E94230B61E080E00E94220A8091070146
:103230004AE0BE016F5F7F4F90E00E945A28CE01A6
:1032400001960E94F10A0F900F900F900F90DF915E
:10325000CF910895CF93DF9300D000D0CDB7DEB7E4
:103260000E94380A83E096E00E94230B61E080E030
:103270000E94220A809106014AE0BE016F5F7F4FE3
:1032800090E00E945A28CE0101960E94F10A0F9008
:103290000F900F900F90DF91CF910895CF93DF9310
:1032A00000D000D0CDB7DEB70E94380A89ED95E096
:1032B0000E94230B61E080E00E94220A80910501B8
:1032C0004AE0BE016F5F7F4F90E00E945A28CE0116
:1032D00001960E94F10A0F900F900F900F90DF91CE
:1032E000CF910895CF93DF9300D000D0CDB7DEB754
:1032F0000E94380A8FEC95E00E94230B61E080E089
:103300000E94220A80910C064AE0BE016F5F7F4F47
:1033100090E00E945A28CE0101960E94F10A0F9077
:103320000F900F900F90DF91CF910895CF93DF937F
:1033300000D000D0CDB7DEB70E94380A8DEB95E003
:103340000E94230B809112014AE0BE016F5F7F4F04
:1033500090E00E945A28CE0101960E94F10A0F9037
:103360000F900F900F90DF91CF910895CF93DF933F
:1033700000D000D0CDB7DEB70E94380A82EB95E0CE
:103380000E94230B61E080E00E94220A80910B06DC
:103390004AE0BE016F5F7F4F90E00E945A28CE0145
:1033A00001960E94F10A0F900F900F900F90DF91FD
:1033B000CF910895CF93DF9300D000D0CDB7DEB783
:1033C0000E94380A8EE995E00E94230B61E080E0BC
:1033D0000E94220A4AE0BE016F5F7F4F8091100178
:1033E000909111010E945A28CE0101960E94F10A83
:1033F0000F900F900F900F90DF91CF910895CF9382
:10340000DF9300D01F92CDB7DEB70E94380A8AE959
:1034100095E00E94230B61E080E00E94220A8091E7
:1034200007064AE0BE016F5F7F4F90E00E945A2876
:10343000CE0101960E94F10A0F900F900F90DF913C
:10344000CF910895FC019081913089F028F092305D
:10345000C9F0933001F11AC0809107068F5F88315F
:1034600019F08093070612C0109207060FC08091D2
:103470000706815018F08093070608C087E1809303
:10348000070604C081E0809304060895862F0E94F9
:10349000FF1980E0089581E00895CF93DF9300D075
:1034A00000D01F92CDB7DEB70E94380A82E995E0BE
:1034B0000E94230B61E080E00E94220A4AE0BE01E4
:1034C0006F5F7F4F80910301909104010E945A2801
:1034D000CE0101960E94F10A0F900F900F900F906D
:1034E0000F90DF91CF910895FC018081813071F0C0
:1034F00018F08430A0F418C0809103019091040169
:103500000196909304018093030109C08091030107
:103510009091040101979093040180930301862FF9
:103520000E944D1A80E0089581E00895CF93DF93C3
:1035300000D01F92CDB7DEB70E94380A8CE895E024
:103540000E94230B61E080E00E94220A8091020128
:103550004AE0BE016F5F7F4F90E00E945A28CE0183
:1035600001960E94F10A0F900F900F90DF91CF917A
:103570000895FC018081813081F018F08430B8F426
:103580001BC0809102018F5F8D3019F08093020182
:103590000EC081E0809302010AC080910201815037
:1035A00019F08093020103C08CE080930201862F02
:1035B0000E94961A80E0089581E00895CF93DF93EA
:1035C00000D01F92CDB7DEB70E94380A88E895E098
:1035D0000E94230B61E080E00E94220A8091010199
:1035E0004AE0BE016F5F7F4F90E00E945A28CE01F3
:1035F00001960E94F10A0F900F900F90DF91CF91EA
:103600000895FC018081813081F018F08430B8F495
:103610001BC0809101018F5F803219F080930101FE
:103620000EC081E0809301010AC0809101018150A8
:1036300019F08093010103C08FE180930101862F6F
:103640000E94DE1A80E0089581E00895CF93DF9311
:1036500000D0CDB7DEB70E94380A80E495E00E9422
:10366000230B61E080E00E94220A80910A064AE072
:10367000BE016F5F7F4F90E00E945A28CE010196F5
:103680000E94F10A0F900F90DF91CF910895CF9390
:10369000DF9300D000D0CDB7DEB70E94380A84E3B4
:1036A00095E00E94230B61E080E00E94220A4AE03C
:1036B000BE016F5F7F4F80910E0190910F010E94BC
:1036C0005A28CE0101960E94F10A0F900F900F9098
:1036D0000F90DF91CF910895CF93DF9300D000D06A
:1036E000CDB7DEB70E94380A82E295E00E94230B34
:1036F00061E080E00E94220A4AE0BE016F5F7F4FD6
:1037000080910E0190910F010E945A28CE010196DE
:103710000E94F10A0F900F900F900F90DF91CF91C0
:103720000895FC0190819130D9F028F0923069F130
:103730009330D1F134C08091E9069091EA06833A42
:10374000FDE09F0738F086E391E09093EA068093CE
:10375000E90625C00A969093EA068093E9061FC001
:103760008091E9069091EA06873321E0920730F0D4
:103770000A979093EA068093E90611C08CEA9DE0CF
:103780009093EA068093E9060AC06091E906709179
:10379000EA0688E090E00E94B62881E00895862F2E
:1037A0000E94231780E0089581E00895FC01908134
:1037B0009130C9F028F0923059F19330C1F132C004
:1037C00080912007909121078432F9E09F0730F41F
:1037D0000A96909321078093200724C01092210716
:1037E000109220071FC08091200790912107863FEB
:1037F0002FEF920738F08EE299E0909321078093A3
:10380000200710C00A9790932107809320070AC0D1
:1038100060912007709121078FE090E00E94B62808
:1038200081E00895862F0E94B61780E0089581E018
:103830000895FC0190819130C9F028F0923059F13F
:103840009330C1F132C080913307909134078432B4
:10385000F9E09F0730F40A9690933407809333077A
:1038600024C010923407109233071FC08091330791
:1038700090913407863F2FEF920738F08EE299E05F
:10388000909334078093330710C00A9790933407BE
:10389000809333070AC060913307709134078DE03D
:1038A00090E00E94B62881E00895862F0E94DD17DF
:1038B00080E0089581E00895FC019081913081F0CD
:1038C00028F09230B9F0933021F11EC080911001A0
:1038D000909111010196909311018093100114C0F1
:1038E00080911001909111010197909311018093A3
:1038F00010010AC0609110017091110187E190E000
:103900000E94B62881E00895862F0E94DA1980E08F
:10391000089581E00895FC0190819130D9F028F05C
:10392000923069F19330D1F134C080910E019091C1
:103930000F0101968C3AFDE09F0729F090930F014B
:1039400080930E0126C08CED95E090930F0180933B
:103950000E011FC080910E0190910F010197883ECA
:1039600023E0920729F090930F0180930E0111C07C
:103970008CEA9DE090930F0180930E010AC0609144
:103980000E0170910F0184E190E00E94B62881E061
:103990000895862F0E94471B80E0089581E00895D6
:1039A000CF93DF93CDB7DEB727970FB6F894DEBF7E
:1039B0000FBECDBF0E94380A8FEF97E00E94230B05
:1039C00061E080E00E94220A82E097E00E94F10A12
:1039D0008DEF97E00E945C0A8CE397E00E94F10A69
:1039E0008AEF97E00E945C0A62E080E00E94220A6F
:1039F000809131074AE0BE016F5F7F4F90E00E94E7
:103A00005A28CE0101960E94F10A88EF97E00E94A1
:103A10005C0A8091F8064AE0BE016F5F7F4F90E03C
:103A20000E945A28CE0101960E94F10A85EF97E084
:103A30000E945C0A27960FB6F894DEBF0FBECDBF7A
:103A4000DF91CF910895CF93DF93CDB7DEB727975E
:103A50000FB6F894DEBF0FBECDBF0E94380A8CEAC5
:103A600097E00E94230B61E080E00E94220A83E13C
:103A700097E00E94F10A8AEA97E00E945C0A8EE2CF
:103A800097E00E94F10A87EA97E00E945C0A62E0F0
:103A900080E00E94220A80912D074AE0BE016F5FFC
:103AA0007F4F90E00E945A28CE0101960E94F10AB1
:103AB00085EA97E00E945C0A8091C7064AE0BE0151
:103AC0006F5F7F4F90E00E945A28CE0101960E94BE
:103AD000F10A82EA97E00E945C0A27960FB6F894F2
:103AE000DEBF0FBECDBFDF91CF910895CF93DF939F
:103AF000CDB7DEB727970FB6F894DEBF0FBECDBFA8
:103B00000E94380A83E797E00E94230B61E080E07F
:103B10000E94220A8BEE96E00E94F10A81E797E06C
:103B20000E945C0A8AE097E00E94F10A8EE697E024
:103B30000E945C0A62E080E00E94220A8091C40632
:103B40004AE0BE016F5F7F4F90E00E945A28CE018D
:103B500001960E94F10A8CE697E00E945C0A80912F
:103B600032074AE0BE016F5F7F4F90E00E945A2803
:103B7000CE0101960E94F10A89E697E00E945C0A54
:103B800027960FB6F894DEBF0FBECDBFDF91CF9161
:103B900008950E94380A83E297E00E94230B61E0B7
:103BA00080E00E94220A8091090684FF05C080E21D
:103BB00097E00E945C0A08958DE197E00E945C0AFC
:103BC00008950E94380A8BE097E00E94230B61E081
:103BD00080E00E94220A8091090682FF05C088E0E9
:103BE00097E00E945C0A089585E097E00E945C0AD5
:103BF00008950E94380A86EF96E00E945C0A61E010
:103C000080E00E94220A8091090683FF05C083EFAD
:103C100096E00E945C0A089580EF96E00E945C0A9C
:103C200008950E94380A8CED96E00E94230B61E013
:103C300080E00E94220A8091090685FF05C085ED7B
:103C400096E00E945C0A089581ED96E00E94230BA5
:103C500008950E94380A80EC96E00E94230B61E0F0
:103C600080E00E94220A8091090686FF05C08DEB44
:103C700096E00E945C0A08958AEB96E00E945C0A36
:103C800008950E94380A8EEA96E00E94230B61E0B4
:103C900080E00E94220A8091090688232CF48BEA96
:103CA00096E00E945C0A089588EA96E00E945C0A09
:103CB0000895CF93DF93CDB7DEB727970FB6F8946B
:103CC000DEBF0FBECDBF0E94380A89E996E00E9490
:103CD000230B61E080E00E94220A89E897E00E94BD
:103CE000F10A87E996E00E945C0A8CE197E00E9465
:103CF000F10A84E996E00E945C0A62E080E00E949A
:103D0000220A809111074AE0BE016F5F7F4F90E069
:103D10000E945A28CE0101960E94F10A82E996E09B
:103D20000E945C0A809145074AE0BE016F5F7F4FA9
:103D300090E00E945A28CE0101960E94F10A8FE875
:103D400096E00E945C0A27960FB6F894DEBF0FBE7D
:103D5000CDBFDF91CF910895CF93DF93CDB7DEB77D
:103D600027970FB6F894DEBF0FBECDBF0E94380A6A
:103D70008DE696E00E94230B61E080E00E94220A1B
:103D800089ED96E00E94F10A8BE696E00E945C0ABB
:103D900085E397E00E94F10A88E696E00E945C0ABB
:103DA00062E080E00E94220A4AE0BE016F5F7F4F1E
:103DB00080913807909139070E945A28CE010196C8
:103DC0000E94F10A86E696E00E945C0A4AE0BE0183
:103DD0006F5F7F4F80918607909187070E945A28D6
:103DE000CE0101960E94F10A83E696E00E945C0AE9
:103DF00027960FB6F894DEBF0FBECDBFDF91CF91EF
:103E00000895CF93DF93CDB7DEB727970FB6F89419
:103E1000DEBF0FBECDBF0E94380A82E496E00E944A
:103E2000230B61E080E00E94220A85EE96E00E946A
:103E3000F10A80E496E00E945C0A89E197E00E9422
:103E4000F10A8DE396E00E945C0A62E080E00E9445
:103E5000220A80910F074AE0BE016F5F7F4F90E01A
:103E60000E945A28CE0101960E94F10A8BE396E047
:103E70000E945C0A809188074AE0BE016F5F7F4F15
:103E800090E00E945A28CE0101960E94F10A88E330
:103E900096E00E945C0A27960FB6F894DEBF0FBE2C
:103EA000CDBFDF91CF9108950E94380A89E196E055
:103EB0000E94230B61E080E00E94220A86E097E0E6
:103EC0000E94F10A87E196E00E945C0A8AE297E08C
:103ED0000E94F10A84E196E00E945C0A08950E9423
:103EE000380A80EF95E00E94230B61E080E00E9499
:103EF000220A8FEE96E00E94F10A8EEE95E00E9473
:103F00005C0A83EF96E00E94F10A8BEE95E00E9436
:103F10005C0A0895CF93DF9300D01F92CDB7DEB730
:103F20000E94380A85E995E00E945C0A61E080E021
:103F30000E94220A809106064AE0BE016F5F7F4F11
:103F400090E00E945A28CE0101960E94F10A0F903B
:103F50000F900F90DF91CF910895FC0190819130E7
:103F600089F028F09230C9F0933001F11AC08091A5
:103F700006068F5F8C3319F08093060612C01092EC
:103F800006060FC080910606815018F08093060641
:103F900008C08BE38093060604C081E0809304068A
:103FA0000895862F0E948A1F80E0089581E0089579
:103FB000FC019081913071F028F09230A9F093309B
:103FC00001F11AC080910D078A35B1F08F5F80939F
:103FD0000D0712C080910D079091F706981760F4B5
:103FE000815080930D0708C060910D0782E190E039
:103FF0000E94A52881E00895862F0E944A1780E03C
:10400000089581E00895FC019081913081F028F0BD
:104010009230A9F0933001F11AC08091F706909187
:104020000D078917A0F48F5F8093F70610C0809169
:10403000F706863060F081508093F70608C06091E3
:10404000F70681E190E00E94A52881E00895862F7F
:104050000E946E1780E0089581E00895FC01908130
:10406000913091F028F09230E1F0933039F121C095
:10407000809108068F5F809308069091F606891359
:1040800018C01092080615C08091080681508093D0
:1040900008068F3F71F48091F606815080930806E0
:1040A00008C06091080687E090E00E94A52881E0A2
:1040B0000895862F0E94921780E0089581E0089568
:1040C000FC019081913071F028F0923099F093309A
:1040D000F1F018C080910C018A35A1F08F5F8093B8
:1040E0000C0110C080910C01853160F081508093EB
:1040F0000C0108C060910C018CE090E00E94A528A2
:1041000081E00895862F0E94041880E0089581E0E0
:104110000895FC019081913091F028F09230E1F007
:10412000933039F121C080910B018F5F80930B0197
:104130009091F606891318C010920B0115C080915A
:104140000B01815080930B018F3F71F48091F60633
:10415000815080930B0108C060910B0186E090E0D4
:104160000E94A52881E00895862F0E94281880E0EB
:10417000089581E00895FC019081913081F028F04C
:104180009230A9F0933001F11AC080913A079091D2
:10419000D8068917A0F48F5F80933A0710C08091EA
:1041A0003A07863060F0815080933A0708C06091EA
:1041B0003A078AE090E00E94A52881E00895862FC2
:1041C0000E944C1880E0089581E00895FC019081E0
:1041D000913071F028F09230A9F0933001F11AC0BB
:1041E0008091D8068332B0F48F5F8093D80612C0D6
:1041F0008091D80690913A07981760F48150809387
:10420000D80608C06091D8068BE090E00E94A528EF
:1042100081E00895862F0E94701880E0089581E063
:104220000895FC019081913091F028F09230E1F0F6
:10423000933039F121C0809109018F5F809309018A
:104240009091F606891318C01092090115C080914B
:1042500009018150809309018F3F71F48091F60626
:1042600081508093090108C06091090184E090E0C9
:104270000E94A52881E00895862F0E949A1880E068
:10428000089581E00895FC019081913091F028F02B
:104290009230E1F0933039F121C080910A018F5FB3
:1042A00080930A019091F606891318C010920A01B2
:1042B00015C080910A01815080930A018F3F71F4EB
:1042C0008091F606815080930A0108C060910A012E
:1042D00085E090E00E94A52881E00895862F0E9445
:1042E000BE1880E0089581E00895FC01908191302E
:1042F00091F028F09230E1F0933039F121C08091B3
:1043000008018F5F809308019091F606891318C009
:104310001092080115C08091080181508093080116
:104320008F3F71F48091F60681508093080108C098
:104330006091080183E090E00E94A52881E0089543
:10434000862F0E94E21880E0089581E00895FC0124
:104350009081913091F028F09230E1F0933039F172
:1043600021C0809107018F5F809307019091F6062D
:10437000891318C01092070115C080910701815060
:10438000809307018F3F71F48091F60681508093EE
:10439000070108C06091070182E090E00E94A52813
:1043A00081E00895862F0E94061980E0089581E03B
:1043B0000895FC019081913091F028F09230E1F065
:1043C000933039F121C0809106018F5F80930601FF
:1043D0009091F606891318C01092060115C08091BD
:1043E00006018150809306018F3F71F48091F6069B
:1043F00081508093060108C06091060181E090E041
:104400000E94A52881E00895862F0E942A1980E045
:10441000089581E00895FC019081913091F028F099
:104420009230E1F0933039F121C0809105018F5F26
:10443000809305019091F606891318C0109205012A
:1044400015C0809105018150809305018F3F71F463
:104450008091F60681508093050108C060910501A6
:1044600080E090E00E94A52881E00895862F0E94B8
:104470004E1980E0089581E00895FC01908191300B
:1044800061F028F0923079F09330D1F014C080912F
:104490000C068F5F80930C060EC080910C06815035
:1044A00080930C0608C060910C068BE190E00E949E
:1044B000A52881E00895862F0E94721980E0089552
:1044C00081E00895FC019081913061F028F09230F4
:1044D00079F09330D1F014C0809112018F5F8093F6
:1044E00012010EC08091120181508093120108C008
:1044F000609112018AE190E00E94A52881E0089570
:10450000862F0E94961980E0089581E00895FC01AD
:104510009081913061F028F0923079F0933019F168
:1045200014C080910B068F5F80930B060EC08091A4
:104530000B06815080930B0608C060910B0689E141
:1045400090E00E94A52881E0089520910B06222387
:1045500029F030E03093830020938200862F0E9460
:10456000B61980E0089581E00895FC0190819130B2
:1045700089F028F09230C9F0933021F11EC080916B
:104580000A068F5F823019F080930A0616C01092D7
:104590000A0613C080910A06815018F080930A061B
:1045A0000CC081E080930A0608C060910A0686E18B
:1045B00090E00E94A52881E00895862F0E94261B86
:1045C00080E0089581E00895FC019081913099F098
:1045D00028F09230E1F0933039F121C090910D0133
:1045E00081E0890F80930D0120910C01821317C087
:1045F00090930D0114C080910D01815080930D01A5
:104600008F3F69F480910C0180930D0108C0609187
:104610000D0183E190E00E94A52881E00895862F96
:104620000E946C1B80E0089581E00895CF93C62F0F
:10463000FC018081823018F0843070F412C08091C7
:10464000090682FF04C08F7E8093090603C0806143
:10465000809309060E9403108C2F0E94C91D80E0E0
:1046600001C081E0CF910895CF93C62FFC018081D6
:10467000823018F0843048F40DC09091090684E02F
:104680008927809309060E9403108C2F0E94E11D48
:1046900080E001C081E0CF910895CF93C62FFC0147
:1046A0008081823018F0843048F40DC09091090662
:1046B00088E08927809309060E9403108C2F0E94AE
:1046C000F91D80E001C081E0CF910895CF93C62FFE
:1046D000FC018081823018F0843048F40DC0909144
:1046E000090680E28927809309060E9403108C2F17
:1046F0000E94111E80E001C081E0CF910895CF9308
:10470000C62FFC018081823018F0843048F40DC03F
:104710009091090680E48927809309060E9403107E
:104720008C2F0E94291E80E001C081E0CF91089566
:10473000CF93C62FFC018081823018F0843040F482
:104740000CC0809109068058809309060E940310CE
:104750008C2F0E94411E80E001C081E0CF9108951E
:104760008CE491E0089587E0089581B38F7081BB58
:1047700082B3806F82BB089587B3876087BB88B39D
:10478000896088BB8BB38FEF8BBB9AB38ABB8DB12B
:1047900083658DB908956E9887B3897F87BB089527
:1047A0004BB321E030E0F90102C0EE0FFF1F8A9504
:1047B000E2F7CF012E2F209542234BBB6FB9779B99
:1047C000FECF9BB3892B8BBB8FB108951F920F92A5
:1047D0000FB60F9211242F938F939F93EF93FF9314
:1047E0008BB12CB18C71E0915506EF5FEF71909118
:1047F0005406E91739F0E0935506F0E0E85AF94F0E
:10480000208301C082E090915306892B8093530648
:10481000FF91EF919F918F912F910F900FBE0F906D
:104820001F9018951F920F920FB60F9211248F931D
:104830009F93EF93FF939091570680915606981798
:1048400061F0E0915606EF5FEF71E0935606F0E0FD
:10485000E858F94F80818CB901C05598FF91EF91CC
:104860009F918F910F900FBE0F901F9018951092EF
:104870005706109256061092550610925406992328
:1048800014F422E02BB990789093900089B988E9CC
:104890008AB986E08093950008959091550680919D
:1048A00054069817A9F0909154069F5F9F71E92FC5
:1048B000F0E0E85AF94F2081809153069093540616
:1048C0001092530690E0982F8827820F911D08952B
:1048D00080E091E00895209157062F5F2F7190910D
:1048E00056062917E1F3E22FF0E0E858F94F8083EC
:1048F00020935706559A0895CF93DF93EC01888152
:10490000882331F021960E946B2489918111FBCF7D
:10491000DF91CF910895CF93DF93EC012196FC01B5
:104920008491882339F00E946B24FE0184912196A2
:104930008111F9CFDF91CF9108951F920F920FB699
:104940000F9211242F938F939F93EF93FF93809156
:104950009B0020919C008C71E0911006EF5FEF713D
:1049600090910F06E91739F0E0931006F0E0ED5E44
:10497000F94F208301C082E090910E06892B80932D
:104980000E06FF91EF919F918F912F910F900FBE87
:104990000F901F9018951F920F920FB60F9211242F
:1049A0008F939F93EF93FF9390911206809111063E
:1049B000981769F0E0911106EF5FEF71E09311062F
:1049C000F0E0ED5CF94F808180939C0005C0EAE93E
:1049D000F0E080818F7D8083FF91EF919F918F9197
:1049E0000F900FBE0F901F901895CF93DF93CDB708
:1049F000DEB761970FB6F894DEBF0FBECDBF4AE0B9
:104A0000BE016F5F7F4F0E945A280E947C246196EE
:104A10000FB6F894DEBF0FBECDBFDF91CF910895E2
:104A20002F923F924F925F926F927F928F929F92BE
:104A3000AF92BF92CF92DF92EF92FF920F931F93AC
:104A4000CF93DF93CDB7DEB7A4970FB6F894DEBF50
:104A50000FBECDBF8C016A017B01390184E2EBE31B
:104A6000F3E0DE01119601900D928A95E1F7CB01FA
:104A7000BA010E947D264B015C014AE0B801C401E5
:104A80000E945A28F8018081882341F0C8010196CC
:104A9000FC01019620812111FBCF01C0F8018EE2BB
:104AA00081931F01660C771C660C771CFE01E60DD6
:104AB000F71D61817281838194810E94B5262B014B
:104AC0003C01C501B4010E94B5269B01AC01C701A0
:104AD000B6010E9499259B01AC01C301B2010E945D
:104AE0006A270E947D269B01772324F422273327FF
:104AF000261B370B4AE0B101C9010E945A28C801A0
:104B0000A4960FB6F894DEBF0FBECDBFDF91CF9154
:104B10001F910F91FF90EF90DF90CF90BF90AF90DB
:104B20009F908F907F906F905F904F903F902F90CD
:104B300008955058BB27AA270E94B1250C942B2713
:104B40000E941D2738F00E94242720F039F49F3F4F
:104B500019F426F40C941A270EF4E095E7FB0C9454
:104B60001427E92F0E943C2758F3BA1762077307EE
:104B70008407950720F079F4A6F50C945E270EF4CF
:104B8000E0950B2EBA2FA02D0B01B90190010C015D
:104B9000CA01A0011124FF27591B99F0593F50F475
:104BA000503E68F11A16F040A22F232F342F4427CD
:104BB000585FF3CF469537952795A795F0405395C5
:104BC000C9F77EF41F16BA0B620B730B840BBAF095
:104BD0009150A1F0FF0FBB1F661F771F881FC2F700
:104BE0000EC0BA0F621F731F841F48F48795779514
:104BF0006795B795F7959E3F08F0B0CF9395880FCE
:104C000008F09927EE0F9795879508950E94F02652
:104C100008F481E008950E941F260C942B270E941F
:104C2000242758F00E941D2740F029F45F3F29F007
:104C30000C94142751110C945F270C941A270E948E
:104C40003C2768F39923B1F3552391F3951B550B3A
:104C5000BB27AA2762177307840738F09F5F5F4F4F
:104C6000220F331F441FAA1FA9F335D00E2E3AF08E
:104C7000E0E832D091505040E695001CCAF72BD0A6
:104C8000FE2F29D0660F771F881FBB1F26173707F7
:104C90004807AB07B0E809F0BB0B802DBF01FF2729
:104CA00093585F4F3AF09E3F510578F00C941427CB
:104CB0000C945F275F3FE4F3983ED4F38695779595
:104CC0006795B795F7959F5FC9F7880F911D9695E2
:104CD000879597F90895E1E0660F771F881FBB1F3E
:104CE000621773078407BA0720F0621B730B840BEB
:104CF000BA0BEE1F88F7E09508950E948426689409
:104D0000B1110C945F2708950E94442788F09F57A3
:104D100098F0B92F9927B751B0F0E1F0660F771FDF
:104D2000881F991F1AF0BA95C9F714C0B13091F0D5
:104D30000E945E27B1E008950C945E27672F782FBC
:104D40008827B85F39F0B93FCCF38695779567959A
:104D5000B395D9F73EF490958095709561957F4F06
:104D60008F4F9F4F0895E89409C097FB3EF49095AC
:104D70008095709561957F4F8F4F9F4F9923A9F034
:104D8000F92F96E9BB279395F695879577956795C3
:104D9000B795F111F8CFFAF4BB0F11F460FF1BC007
:104DA0006F5F7F4F8F4F9F4F16C0882311F096E99A
:104DB00011C0772321F09EE8872F762F05C0662348
:104DC00071F096E8862F70E060E02AF09A95660F01
:104DD000771F881FDAF7880F9695879597F90895BA
:104DE000990F0008550FAA0BE0E8FEEF16161706FC
:104DF000E807F907C0F012161306E407F50798F064
:104E0000621B730B840B950B39F40A2661F0232B7C
:104E1000242B252B21F408950A2609F4A140A695F8
:104E20008FEF811D811D089597F99F6780E870E0DD
:104E300060E008959FEF80EC089500240A94161610
:104E4000170618060906089500240A941216130678
:104E5000140605060895092E0394000C11F4882306
:104E600052F0BB0F40F4BF2B11F460FF04C06F5F22
:104E70007F4F8F4F9F4F089557FD9058440F551FF8
:104E800059F05F3F71F04795880F97FB991F61F0CC
:104E90009F3F79F087950895121613061406551F43
:104EA000F2CF4695F1DF08C0161617061806991FAF
:104EB000F1CF86957105610508940895E894BB27A4
:104EC00066277727CB0197F908950E94F02608F40A
:104ED0008FEF08950E947D270C942B270E941D2799
:104EE00038F00E94242720F0952311F00C94142709
:104EF0000C941A2711240C945F270E943C2770F30E
:104F0000959FC1F3950F50E0551F629FF001729F6E
:104F1000BB27F00DB11D639FAA27F00DB11DAA1F7D
:104F2000649F6627B00DA11D661F829F2227B00DCA
:104F3000A11D621F739FB00DA11D621F839FA00D55
:104F4000611D221F749F3327A00D611D231F849FA5
:104F5000600D211D822F762F6A2F11249F575040FC
:104F60009AF0F1F088234AF0EE0FFF1FBB1F661F77
:104F7000771F881F91505040A9F79E3F510580F040
:104F80000C9414270C945F275F3FE4F3983ED4F30E
:104F9000869577956795B795F795E7959F5FC1F7E4
:104FA000FE2B880F911D9695879597F90895DB0143
:104FB0008F939F930E94ED27BF91AF91A29F800D89
:104FC000911DA39F900DB29F900D11240895EE0F97
:104FD000FF1F0590F491E02D09940E940028A59FE1
:104FE000900DB49F900DA49F800D911D11240895E4
:104FF000B7FF0C94ED270E94ED27821B930B0895B9
:10500000A29FB001B39FC001A39F700D811D112409
:10501000911DB29F700D811D1124911D0895FC01F9
:1050200088279927E89421912032E9F3293010F05C
:105030002E30C8F32B3241F02D3239F4689404C07D
:105040000E946528820F911D219120532A30C0F3C0
:105050001EF4909581959F4F0895FB01DC0105900A
:105060000D920020E1F70895FC018191861721F04F
:105070008823D9F7992708953197CF010895FB0127
:10508000DC0101900D920020E1F70895DC01FB01A5
:105090004150504058F049F001900D920020C1F766
:1050A000E61BF70B3197CF0108951C920190002069
:1050B000E9F7F6CFBB274A3031F4992322F4BDE259
:1050C000909581959F4F0C946E287AE0979F902D34
:1050D000879F802D910D11240895BB27FB01552733
:1050E000AA27880F991FAA1FA41710F0A41B839545
:1050F0005051B9F7A05DAA3308F0A95DA1930097BC
:1051000079F7B111B1931192CB010C948728DC018E
:10511000FC01672F71917723E1F7329704C07C91EE
:105120006D9370836291AE17BF07C8F30895E1993C
:10513000FECF9FBB8EBBE09A99278DB30895A8E15F
:10514000B0E042E050E00C94BE28262FE199FECF5B
:105150009FBB8EBBE09A01970DB2021631F02DBBBA
:105160000FB6F894E29AE19A0FBE08950196272FA0
:105170000E94A6280C94A528DC01CB01FC01E19932
:10518000FECF06C0FFBBEEBBE09A31960DB20D928A
:0C51900041505040B8F70895F894FFCF4C
:10519C00140101E307070605040302012A1CD007CA
:1051AC0002000A00070000000106000000020400D3
:1051BC0000000305000000290100000000000000B1
:1051CC0000000000000001000000000000020000D0
:1051DC000000000003000000000000045F0300005A
:1051EC00000005E1026D030000000003C6027E030F
:1051FC000000000004A20290030000000003200342
:10520C009F0300000000066C02A503000000000ACA
:10521C001202B40300000000068B01C603DA195C0D
:10522C001C000000D5030000000003C101E10300D5
:10523C0000000006DC01EC0372193D22000000F6B0
:10524C0003961962220000000304B619872200009D
:10525C0000D503261BB5220000000E04471B8B1C37
:10526C000000001A046C1BE4220000002C04FF193F
:10527C00221A00000030048A1FAD1F000000350404
:10528C004D1A741A0000003804961AB91A0000005E
:10529C003A04DE1A011B0000003E04A616E01600BC
:1052AC0000004704591E9E160000005204BE18430D
:1052BC00210000006404AC1E9E160000007004E285
:1052CC001875210000008304011F9E160000008D3C
:1052DC00040619A7210000009E04541F9E1600000E
:1052EC0000AC042A19D921000000BD046F1F9E16C2
:1052FC00000000CC044E190B22000000DE04C91D76
:10530C001623000000EB04E11D3423000000FA0416
:10531C00F91D4D230000000605111E662300000038
:10532C001605291E7F230000002705411E98230027
:10533C0000003005761D96160000003F054C18BB8A
:10534C00200000004E057018E62000000060059A51
:10535C001811210000006F05231D8E160000009E01
:10536C0004041860200000007E0528188920000025
:10537C00008D05D01C861600000099054A17D81F11
:10538C00000000A8056E170320000000B405000003
:10539C000000020E03BD0592172E20000000C90567
:1053AC00B617D61B000000D105DD17191C00000034
:1053BC00D90505177616000000E30514177E1600B4
:1053CC000000EE052317911B000000000000000AEE
:1053DC0000000064000000E803000010270000A09B
:1053EC0086010040420F008096980000E1F50548C8
:1053FC004D56206265E16C6CED74E173005075667E
:10540C00666572206265E16C6CED74E173004B6152
:10541C007AE16E68E17A207465726D6F737A74004C
:10542C004BFC6C73F520E9727AE96B656CF50052F4
:10543C00656CE96B00456779E96220E9727AE96B82
:10544C00656CF50056657AE9726CF5206265E16C65
:10545C006CED74E17300537A697661747479FA2097
:10546C007574E16E004B6F6D666F7274206DF36432
:10547C0000F372612C2064E174756D005465737ACD
:10548C0074FC7A656D004D656EFC206964F57AEDEF
:10549C0074F5004C43442068E17474E972004B6F5E
:1054AC006D666F72742068F56D004B6F6D666F7270
:1054BC007420656CF572656D656EF500F3726100B4
:1054CC007065726300E9760068F36E6170006E615E
:1054DC0070206E65766500476172E17A732068F51D
:1054EC006D00476172E17A7320737A656E7A6F7220
:1054FC00204944004E617070616C692068F56D0044
:10550C004E617070616C6920737A656E7A6F72206F
:10551C004944005061646CF32068F56D005061647F
:10552C006CF320737A656E7A6F7220494400456C77
:10553C00F572656D656EF52068F56D00456CF5725C
:10554C006520737A656E7A6F7220494400566973D0
:10555C00737A6174E972F52068F56D00566973739E
:10556C007A6120737A656E7A6F7220494400484DD7
:10557C00562033206AE1726174FA005AF36E61208E
:10558C0066F66C64737A696E74005AF36E6120650A
:10559C006D656C6574005075666665722033206AA3
:1055AC00E1726174FA0050756666657220737A69EF
:1055BC007661747479FA0047E17A2072656CE900BF
:1055CC0047E97068E17A20616B742068F56D0047DB
:1055DC00E97068E17A206D696E2068F56D0047E925
:1055EC007068E17A206BED76E16E742068F56D00E1
:1055FC0047E97068E17A20737A656E7A6F720042BF
:10560C00756666657220616B742068F56D00507567
:10561C006666657220737A656E7A6F7200484D56B5
:10562C0020616B742068F56D00484D56206BED764B
:10563C00E16E742068F56D00484D56206D696E2042
:10564C0068F56D00484D5620F372E16B00484D56DD
:10565C0020737A656E7A6F72004D696E206964F5FD
:10566C00004D6178206964F5004BFC6C73F5206883
:10567C00F56D004BFC6C73F52070E17261004BFC16
:10568C006C73F52068F56D2074696C74E17300001F
:00000001FF
