S015000066757465735F76657A65726C6F2E7372656382
S11300000C94DF030C94FC030C94FC030C94FC038D
S11300100C94FC030C94FC030C94FC030C94FC0360
S11300200C94FC030C94FC030C94FC030C94FC0350
S11300300C941B0B0C94FC030C94FC030C94FC0319
S11300400C94FC030C94FC030C94A6220C94D22272
S11300500C94FC030C94FC0A0C94FC030C94FC0319
S11300600C94FC030C94FC030C94FC030C94FC0310
S11300700C94FC030C94FC030C945D230C948B23D0
S11300800C94FC030C94FC030C94FC03A80AB50A1E
S1130090B50AB50AB50AB50AB50AB50AAA0AB50A6F
S11300A0B50AB50AAC0AB50AB50AB50AB50AB50A5D
S11300B0AE0AB50AB00AA40AB50AB50AB50AB20A64
S11300C0B40AA60AB50AB50AB50AB50AA80AB50A51
S11300D0B50AB50AB50AB50AB50AB50AAA0AB50A2F
S11300E0B50AB50AAC0AB50AB50AB50AB50AB50A1D
S11300F0AE0AB50AB00AA40AB50AB50AB50AB20A24
S1130100B40AA60A34124E133412361234123612BA
S1130110341234123612341236123412E5124613E3
S1130120DC12EE120913F712461346134613461354
S11301300013461346131B13461346131213961546
S11301409B15A015A515AA15AF15B415436F756CAD
S113015064206E6F7420636F6E6E65637420746FB9
S11301602073656E736F720002040E010F110F008D
S113017002040E111F100E000204000C04040E00F1
S113018002040E1111110E00050A0E1111110E00B8
S11301900204001111130D00050A001111130D00C2
S11301A020646200445331384232303A2000204403
S11301B05331384232302073656E736F72730A00A4
S11301C0466F756E642000496E7465727275707442
S11301D020656E61626C65640A00424D45323830B8
S11301E020696E64ED74E1730049324320696E64E2
S11301F0ED74E17300416C6170E16C6C61706F745B
S1130200626120E16C6CE1730046FB74E973207653
S1130210657AE9726CE9732076302E390042757381
S1130220206572726F720A004E6F2073656E736F71
S11302307220666F756E640A004275732073636181
S11302406E6E696E67202E2E2E0A00474153206180
S11302506E642046495253545F464C4F4F525F568A
S1130260414C56452C205345434F4E445F464C4F1A
S11302704F525F56414C56452072656C617920643B
S1130280656163746976617465640A005345434F1C
S11302904E4420464C4F4F52206465616374697626
S11302A0617465640A005345434F4E4420464C4FE5
S11302B04F52206163746976617465640A0046492B
S11302C052535420464C4F4F522064656163746905
S11302D076617465640A00464952535420464C4F73
S11302E04F52206163746976617465640A00474102
S11302F0532C2044485720646561637469766174A3
S113030065643B204255464645522072656C6179CE
S11303102064656163746976617465640A004741A9
S113032053206163746976617465643B2042554669
S11303304645522C204448572072656C61792064EC
S1130340656163746976617465640A004448572082
S113035072656C6179206465616374697661746542
S1130360640A004448572072656C617920616374A3
S1130370697661746564207769746820627566665D
S113038065720A004448572072656C617920616384
S11303907469766174656420776974682067617331
S11303A00A0046F66C642F456D656C200050756636
S11303B066657220737A2F70200047E17A20726597
S11303C06CE920003A00484D5620737A656C6570DC
S11303D020002043002E005061646CF32000204371
S11303E0002E004E617070616C6920002043002E65
S11303F000476172E17A7320002043004BFC6C7368
S1130400F520002043002E0047E97068E17A2000BF
S11304102043002E0050756666657220002043005C
S11304202E00484D562000210021210021002121C9
S1130430002100212100210021210021002121008F
S113044021002121000A002E0025200A00424D45EA
S11304503238302048756D69646974793A200043F4
S1130460200A00424D453238302054656D70657263
S113047061747572653A200002040E010F110F00B9
S113048002040E111F100E000204000C04040E00DE
S113049002040E1111110E00050A0E1111110E00A5
S11304A00204001111130D00050A001111130D00AF
S11304B04B6F6D666F727420656CF572656D656E59
S11304C0F5004B6F6D666F72742068F56D004B6FAD
S11304D06D666F7274206DF36400766173E1726E01
S11304E0617000737A6F6D6261740070E96E746597
S11304F06B006373FC74F67274F66B00737A657246
S11305006461006B6564640068E97466F5006E619B
S113051070206EE976006E61700068F36E617000A1
S1130520E976007065726300F3726100537A69764C
S113053061747479FA207574E16E667574E1730000
S11305404C43442068E17474E972004D656EFC20EC
S11305506964F57AED74F520286D7029005465738B
S11305607A74FC7A656D00566973737A6120737AC4
S1130570656E7A6F72204944002043002E0056694C
S113058073737A6174E972F520616B742068F56D98
S113059000456CF5726520737A656E7A6F72204936
S11305A044002043002E00456CF5726520616B7495
S11305B02068F56D005061646CF320737A656E7A7F
S11305C06F72204944002043002F002043002E0076
S11305D05061646CF320616B742068F56D004E61AA
S11305E07070616C6920737A656E7A6F7220494409
S11305F0002043002F002043002E004E61707061E4
S11306006C6920616B742068F56D00476172E17A52
S11306107320737A656E7A6F722049440020430018
S11306202F002043002E00476172E17A7320616B32
S1130630742068F56D004B690042650047E17A203B
S1130640E16C6C61706F74004B6900426500507519
S11306506666657220737A697661747479FA004704
S1130660E17A00507566666572005075666665725B
S1130670202F2067E17A20737A656C6570004B69DE
S113068000426500456D656C65746920737A656C1C
S11306906570004B690042650046F66C64737A69C4
S11306A06E746920737A656C6570004B69004265ED
S11306B000484D5620737A656C657020E16C6C615E
S11306C0706F740047E97068E17A20737A656E7A16
S11306D06F722049440047E97068E17A206BED7637
S11306E0E16E742068F56D0047E97068E17A206D69
S11306F0696E2068F56D002043002F002043002E12
S11307000047E97068E17A20616B742068F56D0038
S113071050756666657220737A656E7A6F722049C9
S11307204400456CF572656D656EF52068F56D00E5
S11307302043002F002043002E005075666665722A
S113074020616B742068F56D004D6178206964F553
S1130750004D696E206964F500484D5620737A6532
S11307606E7A6F7220494400484D56206D696E20A0
S113077068F56D00484D56206BED76E16E74206887
S1130780F56D002043002F002043002E00484D56F5
S113079020616B742068F56D004BFC6C73F5206D63
S11307A0696E2068F56D00424D453238302070E1A5
S11307B0726100424D453238302068F56D001124D5
S11307C01FBECFEFD0E1DEBFCDBF15E0A0E0B1E0AA
S11307D0ECE1FFE402C005900D92AE3FB107D9F7FA
S11307E027E0AEEFB5E001C01D92A938B207E1F7EA
S11307F00E9424110C948C270C940000CF93DF9357
S1130800C82F8CEE0E941B09811111C08C2F0E94ED
S113081040090E9468098DEE0E941B0981110AC0DB
S11308200E945D09C82FD0E00E94680905C0C0E09D
S1130830D0E002C0C0E0D0E0CE01DF91CF910895B6
S1130840CF93DF93C82F8CEE0E941B09811118C02F
S11308508C2F0E9440090E9468098DEE0E941B099A
S1130860811111C00E945209C82FD0E0DC2FCC277F
S11308700E945D09C82B0E9468098C2F9D2F05C01A
S113088080E090E002C080E090E0DF91CF91089595
S11308900E9420049827892798270895CF92DF92F1
S11308A0EF92FF92F82E8CEE0E941B0981112EC04C
S11308B08F2D0E9440090E9468098DEE0E941B0939
S11308C081111BC00E945209C82ED12CE12CF12C9D
S11308D0FE2CED2CDC2CCC240E945209C82AFE2CC0
S11308E0ED2CDC2CCC240E945D09C82A0E946809E6
S11308F06C2D7D2D8E2D9F2D0DC08CE491E00E94DA
S11309004B2360E070E080E090E004C060E070E0C1
S113091080E090E0FF90EF90DF90CF9008950F93E8
S11309201F93CF93DF9388E80E944804C6E9D6E07A
S1130930998388838AE80E9448049B838A838CE88D
S11309400E9448049D838C838EE80E9448049F8300
S11309508E8380E90E9448049987888782E90E94EF
S113096048049B878A8784E90E9448049D878C8772
S113097086E90E9448049F878E8788E90E9448047C
S1130980998B888B8AE90E9448049B8B8A8B8CE91B
S11309900E9448049D8B8C8B8EE90E9448049F8B97
S11309A08E8B81EA0E94FE03888F81EE0E944804A8
S11309B09A8F898F83EE0E94FE038B8F84EE0E94B0
S11309C0FE038C0185EE0E94FE0302951295107FB2
S11309D01027007F10278F709927802B912B9D8FD4
S11309E08C8F86EE0E94FE038C0185EE0E94FE032E
S11309F002951295107F1027007F102792958295FB
S1130A008F7089279F708927802B912B9F8F8E8FC2
S1130A1087EE0E94FE0388A3DF91CF911F910F916F
S1130A2008958CEE0E941B0981111EC082EF0E9462
S1130A30400985E00E94400984EF0E94400987EB49
S1130A400E94400980ED0E9440090E948F040E9488
S1130A5068098DEE0E941B09811106C00E945D0980
S1130A600E942B230E94680908958F929F92AF924F
S1130A70BF92CF92DF92EF92FF920F931F938AEF70
S1130A800E944E04E6E9F6E00081118120E030E0A6
S1130A90C72ED82EE92EFF24E7FCFA94C01AD10AF7
S1130AA0E20AF30ADC01CB01689416F8B595A79520
S1130AB0979587951694D1F7000F111F221F331FA6
S1130AC04C015D01801A910AA20AB30AA50194019E
S1130AD0A281B3810E94B8264B015C01072E7BE002
S1130AE0B594A794979487947A95D1F7702DA7011C
S1130AF09601C701B6010E9497269B01AC01012E05
S1130B001CE055954795379527951A95D1F7102DE3
S1130B10A481B5810E94B826DC01CB01072E7EE0BA
S1130B20B595A795979587957A95D1F7702D880DEA
S1130B30991DAA1DBB1D8093B7069093B806A09378
S1130B40B906B093BA068C019D01000F111F221F34
S1130B50331F000F111F221F331F800F911FA21F6D
S1130B60B31F80589F4FAF4FBF4F692F7A2F8B2FE2
S1130B7099270E94732520E030E048EC52E40E945B
S1130B80CB241F910F91FF90EF90DF90CF90BF90F7
S1130B90AF909F908F9008954F925F926F927F9243
S1130BA08F929F92AF92BF92CF92DF92EF92FF9279
S1130BB00E9435058DEF0E9420048090B706909026
S1130BC0B806A090B906B090BA062CE2921A21E0B9
S1130BD0A20AB1086C01E12CF12C0B2EBEE0CC0C66
S1130BE0DD1CEE1CFF1CBA95D1F7B02DE6E9F6E04A
S1130BF0848D958D092E000CAA0BBB0B072E74E176
S1130C00880F991FAA1FBB1F7A95D1F7702DC81A98
S1130C10D90AEA0AFB0AA68DB78DA50194010E94A0
S1130C20B826C61AD70AE80AF90A30E4D30EE11C3A
S1130C30F11C0B2EBFE0F594E794D794C794BA95B2
S1130C40D1F7B02DA38DB0E0A50194010E94AD268B
S1130C502B013C01032E3BE0759467945794479411
S1130C603A95D1F7302D40E8540E611C711CA0A1B7
S1130C700A2E000CBB0BA50194010E94B826052E78
S1130C805AE095958795779567955A95D1F7502DA4
S1130C90A30192010E949726DC01CB01072E7AE082
S1130CA0B595A795979587957A95D1F7702D9C0161
S1130CB0AD01405E5F4FA18DB28D0E94B826DC016C
S1130CC0CB01905EAF4FBF4FBC01CD01052E5EE05E
S1130CD095958795779567955A95D1F7502DA701E6
S1130CE096010E9497266B017C01052E5FE0959585
S1130CF08795779567955A95D1F7502D9B01AC014F
S1130D000E9497269B01AC01689416F85595479567
S1130D10379527951694D1F7A08DB0E00E94AD26A3
S1130D20DC01CB01689413F8B595A7959795879541
S1130D301694D1F7A7019601281B390B4A0B5B0BBC
S1130D40DA01C9011AF480E090E0DC0181309105F8
S1130D50A10539E1B30724F080E090E0A0E0B9E117
S1130D60BC01CD01052E5CE0959587957795679537
S1130D705A95D1F7502D0E94752520E030E040E8C7
S1130D805AE30E942A26FF90EF90DF90CF90BF9005
S1130D90AF909F908F907F906F905F904F90089549
S1130DA061157105A9F0FC01680F791F80E048E125
S1130DB0219198E0382F322730FF0CC08427869584
S1130DC0806826959150B1F7E617F70789F70895DB
S1130DD080E008958695F5CF0F931F93CF93DF930B
S1130DE0DB01EC9111969C911197F0E0F92B803185
S1130DF081F4EE7FEE0FFF1FEE0FFF1FEE0FFF1FBC
S1130E0016969C9116976CE070E0691B7109E60FC9
S1130E10F71FFF233CF491E0EA019883F195E195F3
S1130E20F10902C0EA011882883279F414968C918F
S1130E30982F9076903649F086FF02C0EE7F05C069
S1130E4085FF02C0EC7F01C0E87FCF0192958295B7
S1130E508F7089279F708927D9018C93EF70E801DF
S1130E60E88380E0DF91CF911F910F9108950F9354
S1130E701F93CF93DF93EC018B01B80188810E940B
S1130E809908888381508D3F30F4F801808188323D
S1130E9011F0803191F7DF91CF911F910F91089557
S1130EA00F931F93CF93C82F8B010E94E5070E94D5
S1130EB0C907882351F0B80184E40E94F308C130C3
S1130EC031F00E94D20780E003C082E001C080E0DC
S1130ED0CF911F910F9108956F927F928F929F925D
S1130EE0AF92BF92CF92DF92EF92FF920F931F9334
S1130EF0CF93DF93CDB7DEB729970FB6F894DEBF53
S1130F000FBECDBF6C015B013A0149010E94E507A8
S1130F10B6018EEB0E94F3088E010F5F1F4F7E0116
S1130F208AE0E80EF11C0E949508F80181938F0174
S1130F30EE15FF05C1F769E070E0CE0101960E944D
S1130F40D006F82E81110BC084019301A501BE01C6
S1130F506F5F7F4FF60180810E94EC0604C00F2E64
S1130F60F3E0FF2EF02D8F2D29960FB6F894DEBFF7
S1130F700FBECDBFDF91CF911F910F91FF90EF90E6
S1130F80DF90CF90BF90AF909F908F907F906F90A5
S1130F900895E091BE06F091BF0690818091BD0650
S1130FA089230895E091BB06F091BC06908180915D
S1130FB0BD06892B8083E091C006F091C106908123
S1130FC08091BD06892B80830895E091BB06F09142
S1130FD0BC0690818091BD06809589238083E09131
S1130FE0C006F091C10690818091BD06892B808353
S1130FF08FE897E08115910511F00197F1F72FB76C
S1131000F894E091C006F091C10690818091BD06EC
S113101080958923808389E091E08115910511F001
S11310200197F1F7E091BE06F091BF0630818091FF
S1131030BD062FBFE5E8F6E0E115F10511F03197A3
S1131040F1F7E091BE06F091BF0620819091BD06B4
S1131050922311F08323089581E008955093C106EB
S11310604093C0067093BC066093BB069093BF0682
S11310708093BE0681E001C0880F2A95EAF7809329
S1131080BD060E94E50708953FB7F894E091C006B5
S1131090F091C10620819091BD06922B9083E3E0EC
S11310A0F0E0E115F10511F03197F1F7882351F0E3
S11310B0E091C006F091C10620819091BD06909503
S11310C092239083E8E3F0E0E115F10511F0319704
S11310D0F1F7E091BE06F091BF0620819091BD0624
S11310E0292309F480E0E5EBF0E0E115F10511F0C6
S11310F03197F1F7E091C006F091C10620819095F7
S1131100922390833FBF0895CF93DF93C82FD8E0F5
S11311108C2F81700E944408C6958111C068D150FB
S1131120B9F78C2FDF91CF9108958FEF0E94840837
S11311300895DF92EF92FF920F931F93CF93DF9363
S1131140D82E8B010E94E50781112BC080EF0E94ED
S11311508408E12CC0E40F2EF8EFFF2EF02DFC0ED6
S113116081E00E944408D82F81E00E94440888232B
S113117019F0DD23D1F017C0D11124C0CD15E8F04A
S1131180F801808180FF11C0CD111AC00EC0C1507A
S1131190FC12E6CF0F5F1F4FCF2DF110DCCF8E2D49
S11311A01AC08FEF18C08EEF16C080E00E9444086A
S11311B0F801908196959083EACFEC2ED1E002C09D
S11311C0EC2ED1E08D2F0E944408F8019081969571
S11311D090689083DCCFDF91CF911F910F91FF90A6
S11311E0EF90DF900895FF920F931F93CF93DF93B7
S11311F0F82EEB010E94E507209769F085E50E942F
S113120084088E01085F1F4F89910E948408C017CB
S1131210D107D1F703C08CEC0E9484088F2D0E9463
S11312208408DF91CF911F910F91FF9008958EE272
S1131230809370000895E4E7F0E0108294EA9083CC
S113124090819923ECF790917100987F9830A1F4E4
S11312508093730084E880937400E4E7F0E0808175
S11312608823ECF790917100987F983139F081E0F0
S1131270903429F480E0089581E0089580E0089591
S11312808093730084E880937400E4E7F0E0808145
S11312908823ECF790917100987F81E0983209F4EB
S11312A080E0089584EC80937400E4E7F0E08081AA
S11312B08823ECF780917300089584E88093740088
S11312C0E4E7F0E080818823ECF7809173000895CF
S11312D084E9809374000895AD9A00C000C0AD986D
S11312E00895CF93C82F662311F0AF9A01C0AF9829
S11312F0AE98A49AA39AA29AA19AA998AA98AB98EC
S1131300AC98CC230CF4A99AC6FDAA9AC5FDAB9A55
S1131310C4FDAC9A0E946C09A998AA98AB98AC98A1
S1131320C3FDA99AC2FDAA9AC1FDAB9AC0FDAC9AAD
S11313300E946C09AC9AAB9AAA9AA99ACF91089583
S1131340882311F0AF9A01C0AF98AE9AA498A398DD
S1131350A298A198AD9A00C000C09C9B02C080E1F5
S113136001C080E09B9980629A9980649999806811
S1131370AD9800C000C0AD9A00C000C09C998160C7
S11313809B9982609A99846099998860AD98089530
S113139080E00E94A0098823DCF388E090E00197B4
S11313A0F1F780E00E94A0090895CF93C82F0E940E
S11313B0C80960E08C2F0E947109CF910895CF93E2
S11313C0C82F0E94C80961E08C2F0E947109CF9137
S11313D00895611104C080580E94D50908956130B0
S11313E021F480540E94D5090895623021F48C566A
S11313F00E94D50908958C520E94D509089581E070
S11314000E94D5090895CF93C82F0E94C809CA30F5
S1131410A1F4843148F090EC980F943138F0845161
S11314208C3230F080E005C080E403C084E101C068
S113143084E580580E94D50904C061E08C2F0E9485
S11314407109CF910895CF93DF93EC012196FC01AC
S11314508491882339F00E94030AFE018491219625
S11314608111F9CFDF91CF9108951F93CF93DF932B
S1131470182FA79AA69AA59AA49AA39AA29AA19A6F
S113148080E09AEF0197F1F7AB9AAC9A0E946C094D
S113149080E09EE40197F1F70E946C09C0E0D1E07E
S11314A0CE010197F1F70E946C09CE010197F1F783
S11314B0AC980E946C092197F1F788E20E94D50943
S11314C088E00E94D5090E94FF0986E00E94D509A0
S11314D0812F0E94D509DF91CF911F9108950F9319
S11314E01F93CF93DF9380E40E94D509C8E6D1E02F
S11314F001EA11E0FE0184910E94DF092196C017E0
S1131500D107C1F7DF91CF911F910F9108959FEFFC
S1131510960F662319F086959150E8F780FF04C072
S113152081E30E94030A089580E30E94030A089558
S1131530482F50E0FA01E15CF109EC33F105A8F41D
S1131540EA5BFF4F0C94A7268FEE0FC085EF0DC00A
S113155080E00BC081E009C082E007C083E005C0E1
S113156084E003C085E001C086E00E94030A089578
S1131570CF93DF93EC012196FC018081882329F02D
S11315800E94980A89918111FBCFDF91CF91089530
S11315900F931F93CF93DF9300D000D0CDB7DEB766
S11315A08C014AE0BE016F5F7F4F0E941A270A3008
S11315B0110518F480E30E94030ACE0101960E94EB
S11315C0B80A0F900F900F900F90DF91CF911F9159
S11315D00F910895CF93DF93EC012196FC01849140
S11315E0882339F00E94980AFE0184912196811182
S11315F0F9CFDF91CF9108951F920F920FB60F92FA
S113160011248F939F9384B195B10A9738F48AE09B
S113161090E0909383008093820006C084B195B1DA
S113162090938300809382009F918F910F900FBEBF
S11316300F901F9018951F920F920FB60F921124BE
S11316408F9380910B0680910B068F5F80930B061E
S11316508F910F900FBE0F901F901895CF92DF922D
S1131660EF92FF921F93CF93DF9300D01F92CDB7D9
S1131670DEB780910006813009F479C038F08230F9
S113168009F49DC0833009F4AEC045C20E943505FB
S1131690AB01BC014093DA065093DB066093DC0691
S11316A07093DD0622E030E08FE197E00E94D023C2
S11316B020E030E048EC52E46091DA067091DB06F9
S11316C08091DC069091DD060E942A260E943D2529
S11316D0709315076093140780910A06882361F0BC
S11316E083E694E00E944B238FE197E00E943C2321
S11316F08FE594E00E944B23809100068F5F8093D6
S11317000006C090DA06D090DB06E090DC06F0908C
S1131710DD062091F7063091F8064091F9065091C4
S1131720FA06C701B6010E942526181644F4C09291
S1131730F706D092F806E092F906F092FA062091A4
S1131740FB063091FC064091FD065091FE06C70150
S1131750B6010E94C62488230CF0DFC1C092FB06A8
S1131760D092FC06E092FD06F092FE06D6C10E94DD
S1131770CC05AB01BC014093DE065093DF066093B9
S1131780E0067093E10622E030E08BE397E00E94EC
S1131790D02380910A06882361F08DE494E00E94AE
S11317A04B238BE397E00E943C2389E494E00E945E
S11317B04B23809100068F5F80930006AEC120E02A
S11317C047E350E068E370E086E390E00E942E086F
S11317D060E070E081E00E945007809100068F5F16
S11317E0809300069AC120E047E350E068E370E08C
S11317F086E390E00E942E088091F306882309F482
S113180084C110E0812F90E0880F991F880F991FE1
S1131810880F991F9E012D5F3F4FAE014E5F5F4FB2
S1131820BE016F5F7F4F8E5B984F0E946C078111E2
S113183018C080910A068823A1F0898190E00E9453
S1131840B5238A8190E00E94B52387E494E00E9446
S11318504B238B8190E00E94B52385E494E00E94A1
S11318604B238091060681132DC08A8180930F0734
S11318704AE06FEF76E090E00E942D278B814AE0EA
S113188068E377E090E00E942D2780910F07909104
S1131890F506981710F48093F50690912E07891792
S11318A010F480932E078A81883860F062E474E033
S11318B08FEF96E00E94ED2660E474E088E397E001
S11318C00E94ED2680910B0181132DC08A818093A3
S11318D088074AE060E177E090E00E942D278B8141
S11318E04AE06BE277E090E00E942D278091880720
S11318F09091C406981710F48093C40690912A0717
S1131900891710F480932A078A81883860F06DE380
S113191074E080E197E00E94ED266BE374E08BE2D3
S113192097E00E94ED268091090181132DC08A81E0
S11319308093F6064AE068EE76E090E00E942D2758
S11319408B814AE067E077E090E00E942D27809148
S1131950F60690912F07981710F480932F07909113
S1131960C206891710F48093C2068A81883860F011
S113197068E374E088EE96E00E94ED2666E374E086
S113198087E097E00E94ED2680910A0181132DC023
S11319908A8180930D074AE064E877E090E00E9432
S11319A02D278B814AE069E177E090E00E942D27A2
S11319B080910D0790914107981710F48093410787
S11319C090910E07891710F480930E078A81883846
S11319D060F063E374E084E897E00E94ED2661E33D
S11319E074E089E197E00E94ED268091080181135B
S11319F02DC08A818093C3064AE066ED76E090E0CC
S1131A000E942D278B814AE062E377E090E00E94F8
S1131A102D278091C30690918207981710F4809324
S1131A20820790913507891710F4809335078A81CE
S1131A30883860F06EE274E086ED96E00E94ED2650
S1131A406CE274E082E397E00E94ED268091070146
S1131A5081132DC08A81809337074AE062EE76E0D5
S1131A6090E00E942D278B814AE066E177E090E0C8
S1131A700E942D278091370790918307981710F4BF
S1131A808093830790910C07891710F480930C07B7
S1131A908A81883860F069E274E082EE96E00E9400
S1131AA0ED2667E274E086E197E00E94ED268091DE
S1131AB00601811310C08A818093C5064AE063E061
S1131AC077E090E00E942D278B814AE067E277E07F
S1131AD090E00E942D2780910501811310C08A8116
S1131AE080930B074AE06CEE76E090E00E942D278D
S1131AF08B814AE060EF76E090E00E942D271F5F23
S1131B008091F306181708F47DCE809100068F5F4C
S1131B108093000602C01092000680911101811189
S1131B2000C10E94FF0980910001803108F455C072
S1131B3082E294E00E94230A8FEF96E00E94B80AA2
S1131B4080E294E00E94230A88E397E00E94B80AA6
S1131B508DE194E00E94230A61E080E00E94E9099B
S1131B6085E194E00E94230A80E197E00E94B80A8C
S1131B7083E194E00E94230A8BE297E00E94B80A72
S1131B8080E194E00E94230A62E080E00E94E90977
S1131B9088E094E00E94EA0A88EE96E00E94B80A7F
S1131BA086E094E00E94230A87E097E00E94B80A46
S1131BB083E094E00E94230A63E080E00E94E90944
S1131BC08CEF93E00E94EA0A8FE197E00E94B80A42
S1131BD089EF93E00E94230A99C095EF980F9530FE
S1131BE008F045C081EF93E00E94EA0A84E897E098
S1131BF00E94B80A8FEE93E00E94230A89E197E0DD
S1131C000E94B80A8CEE93E00E94230A61E080E00F
S1131C100E94E90983EE93E00E94230A86ED96E090
S1131C200E94B80A81EE93E00E94230A82E397E0BF
S1131C300E94B80A8EED93E00E94230A62E080E0DD
S1131C400E94E90987ED93E00E94EA0A82EE96E099
S1131C500E94B80A85ED93E00E94230A86E197E08A
S1131C600E94B80A82ED93E00E94230A4FC0863096
S1131C7008F04CC086EC93E00E94230A64E0809153
S1131C8007060E94870A60E08FE00E94E9098091BC
S1131C90050690E00E94C80A84EC93E00E94230A9F
S1131CA08091040690E00E94C80A61E080E00E94EE
S1131CB0E9098AEB93E00E94EA0A67E0809107064B
S1131CC00E94870A62E080E00E94E9098DEA93E0BD
S1131CD00E94230A65E0809107060E94870A66E055
S1131CE0809107060E94870A63E080E00E94E90968
S1131CF082EA93E00E94EA0A62E0809107060E9469
S1131D00870A63E0809107060E94870A8091000198
S1131D10815019F08093000107C084E18093000191
S1131D2003C081508093110180910906811101C083
S1131D30369A0F900F900F90DF91CF911F91FF90E3
S1131D40EF90DF90CF900895DF92EF92FF920F9380
S1131D501F93CF93DF93CDB7DEB729970FB6F894CF
S1131D60DEBF0FBECDBF80910A06882309F43FC0B1
S1131D7089E392E00E944B238FEF89870F2EF2E4D0
S1131D80EF2EF7E0FF2EF02DD12C8E01075F1F4FB1
S1131D90BE016F5F7F4FC8010E94370799859F3F3F
S1131DA049F480910A06882329F188E292E00E948E
S1131DB04B2320C09E3F49F480910A068823D1F02A
S1131DC08DE192E00E944B2315C0FE013196D701AC
S1131DD081918D93E017F107D9F7D394992351F0AA
S1131DE088E0E80EF11C88E0D812D2CF03C08FEF50
S1131DF08987C4CF8D2D29960FB6F894DEBF0FBE08
S1131E00CDBFDF91CF911F910F91FF90EF90DF90A5
S1131E1008950E947C226091070681E00E9490222E
S1131E200E948B22089580910206882329F19091C3
S1131E300F0780910A079817D8F48091050620911E
S1131E40040630E094E6899F200D311D1124809111
S1131E503007909131078217930760F081E0409139
S1131E601D0750911E072417350770F480E00CC03D
S1131E7080E00AC080E008C081E020910F079091C3
S1131E800A07291708F080E08823E9F19091F40605
S1131E9080910F07981708F443C0909188078091A8
S1131EA00A079817B8F480910F019091100190934C
S1131EB0FF058093FE05809107068F7980698093E2
S1131EC0070680910A06882359F184E893E00E946A
S1131ED04B2326C08091FE059091FF05009729F0C1
S1131EE001979093FF058093FE05809107068F77F5
S1131EF08093070680910A06882391F083E693E095
S1131F000E944B230DC0809107068F7680930706AD
S1131F1080910A06882321F08CE493E00E944B23ED
S1131F208091070684FD06C10E9B1BC00F9B19C040
S1131F302091F6069091D506291798F090910806FD
S1131F40992309F4D9C02091C30690910E01291751
S1131F5008F0D2C02091880790910D01921708F0E3
S1131F60CBC040911407509115072091E60630919B
S1131F70E7062417350708F4BFC02091F6069091B0
S1131F803607291720F00E9B02C00F9937C0209105
S1131F90880790910C012917B0F420910F0130911A
S1131FA010013093FF052093FE058F78806880939D
S1131FB0070680910A06882309F446C08EE193E05F
S1131FC00E944B2341C02091FE053091FF0521154D
S1131FD0310529F48F7680668093070606C0215068
S1131FE031093093FF052093FE0580910A0688236A
S1131FF059F18EEE92E00E944B2326C02091C30635
S113200090910E01291700F59091880720910D01F8
S11320102917D0F40E9B18C00F9B16C02091C5063B
S1132020291790F42091FE053091FF052115310503
S113203029F48F7680668093070606C02150310903
S11320403093FF052093FE050E990DC0809107067D
S113205084608093070680910A06882321F087ED27
S113206092E00E944B230E9B0DC0809107068B7F4C
S11320708093070680910A06882321F08EEB92E074
S11320800E944B230F990DC08091070688608093AE
S1132090070680910A06882321F086EA92E00E94CE
S11320A04B230F9B0DC080910706877F8093070603
S11320B080910A06882321F08CE892E00E944B2349
S11320C0809108068823B1F19091C30680910E0196
S11320D0981760F49091880780910D01891730F466
S11320E08091070684608093070624C080910706C8
S11320F08B7F809307061EC02091FE053091FF055B
S11321002115310521F4837F8093070606C02150F1
S113211031093093FF052093FE05809107068F71E6
S11321208093070680910A06882321F08BE492E0CD
S11321300E944B230E94090F089587E090E00E94BB
S113214057278093060682E190E00E9457278093E8
S11321500A0781E190E00E9457278093F4068FE0FC
S113216090E00E945F2790931E0780931D078DE0E7
S113217090E00E945F27909331078093300786E0B8
S113218090E00E94572780930B018CE090E00E941E
S1132190572780930C0184E090E00E945727809396
S11321A009018BE090E00E9457278093D5068AE0CE
S11321B090E00E9457278093360785E090E00E94C4
S11321C0572780930A0183E090E00E945727809369
S11321D0080182E090E00E9457278093070188E07D
S11321E090E00E945F279093E7068093E6068AE1D9
S11321F090E00E94572780930A0689E190E00E94AC
S113220057278093110188E190E00E94572780931B
S1132210090686E190E00E945F2790931001809365
S11322200F0185E190E00E9457278093080684E11E
S113223090E00E94572780930E0183E190E00E9472
S1132240572780930D010895CF93DF93CDB7DEB761
S113225065970FB6F894DEBF0FBECDBF0E949D10E8
S11322600E947C2260E083E00E9490220E948B22E4
S11322708CE00E94350A88E794E00E946F0AEBE83C
S1132280F0E0808189608083EAE8F0E080818B60FF
S1132290808380E890E09093830080938200159A75
S11322A01D9A0E94FF0989E092E00E94EA0A87E6EB
S11322B090E00E94F722E1E6F0E080818E7F808347
S11322C0E2E6F0E080818E7F8083A09A82B18F73F2
S11322D082B9109207060E94090F61E080E00E9413
S11322E0E90985EF91E00E94EA0A62E080E00E9439
S11322F0E9091AE088E70E94030A2FEF83ED90E3CF
S1132300215080409040E1F700C00000115091F747
S11323100E94FF0989EE91E00E94EA0A0E941709CF
S113232061E080E00E94E9098AED91E00E94EA0AF6
S11323300E941105789487EC91E00E944B2320E0E1
S113234047E350E068E370E086E390E00E942E08E3
S11323500E94A40E8093F30680910A06882369F0F4
S113236080EC91E00E944B238091F30690E00E9460
S1132370B5238EEA91E00E944B2362E080E00E9444
S1132380E90984EA91E00E94230A8091F30690E02F
S11323900E94C80A80EA91E00E94230A2FEF8BE78B
S11323A092E9215080409040E1F700C000008EB5D2
S11323B08C608EBD1DBC1CBC84E294EF9BBD8ABDA9
S11323C087B7806187BF86B18F6C86B9A89581B5C0
S11323D0886181BD81B5876081BD0E94CF13FF24D0
S11323E0F3940F2EFDE19F2EF02D0F2EFFE1EF2E23
S11323F0F02D1DE080910B06813009F05EC08091C4
S113240003068F5F8C3319F0809303064BC0109240
S11324100306809104068F5F8C3319F080930406C1
S113242041C010920406809105068F5F883119F02F
S11324308093050637C010920506809101068F5FD0
S1132440883019F08093010602C0F09201062091B1
S11324500201822F90E0FC013197EC30F10538F451
S1132460EE57FF4F0C94A72600E201C00E2D809179
S113247001018F5F081719F08093010113C0F092D6
S113248001012F5F2D3019F0209302010BC0F0924F
S1132490020180910301909104010196909304013B
S11324A0809303010E942E0B80910A06823010F45F
S11324B00E94130FA89510920B060E94D4138091CA
S11324C00A06882309F496CF0E940D238D3059F013
S11324D0E0911C0791E09E0F90931C07F0E0EA53F3
S11324E0F94F808387CFE0911C07F0E0EA53F94F5E
S11324F010836BE370E086EC96E00E94F4265C01A6
S11325006CE270E0CE0101960E94F4266C01009703
S113251041F4B5016F5F7F4FCE0101960E94FF2603
S113252014C0FC0101900020E9F73197AF01481B6A
S1132530590BB501CE0101960E940627B6016F5FC3
S11325407F4FCE0141960E94FF268091C6068235B8
S113255009F58091C706813349F4CE0101960E94A2
S1132560CF260E9457270E942B2390C0823309F064
S11325708DC0CE0101960E94CF260E945F274AE0BB
S1132580BE01655F7F4F0E941A27CE010B960E9401
S11325903C237CC0833509F053C0C5010E94CF267B
S11325A0FC01FF27E254F109E131F10508F06EC0A6
S11325B0E257FF4F0C94A7268FEF96E00E943C232E
S11325C088E397E00E943C2361C080E197E00E9489
S11325D03C238BE297E00E943C2358C088EE96E0AF
S11325E00E943C2387E097E00E943C234FC084E88C
S11325F097E00E943C2389E197E00E943C2346C077
S113260086ED96E00E943C2382E397E00E943C23FF
S11326103DC083E097E00E943C2387E297E00E945C
S11326203C2334C08CEE96E00E943C2380EF96E07D
S11326300E943C232BC08FE197E00E943C2326C0DC
S1132640873501F58091C706813369F4CE0141963F
S11326500E94CF26D82ECE0101960E94CF266D2D42
S11326600E94652713C0823389F4CE0141960E94EB
S1132670CF266C01CE0101960E94CF26B6010E949E
S1132680762704C0853511F40E949D1010921C0712
S1132690B1CEF09201012F5F092DF6CE8091010198
S11326A08F5F8D31B1F3092DE7CEEF92FF920F9337
S11326B01F93CF93DF930E94FF090E947022EC01C5
S11326C00E947322E0912601F091270196819923BB
S11326D0A1F0A081B1811696AC9187E0A89FD001AA
S11326E01124A85DBE4F12960D90BC91A02D179693
S11326F0CD91DC91189716968C9124819581291B94
S1132700E82EF12C1E141F04A4F530E08901000FFB
S1132710111F000F111F000F111F200F311F8E01F9
S1132720020F131FC0E0D0E06C2F80E00E94E90983
S1132730E0912601F0912701858190E08C179D0797
S113274021F48EE30E94030A03C080E20E94030A7C
S113275080E20E94030AF801808191810E94B80AF4
S11327602196CE15DF0529F0075F1F4FC430D10530
S1132770D9F6DF91CF911F910F91FF90EF900895BB
S1132780E8E2F1E0F0932701E09326011182108240
S113279013821282148215820E94551308950E9496
S11327A075220E94C01308955F926F927F928F9258
S11327B09F92AF92BF92CF92DF92EF92FF920F93CC
S11327C01F93CF93DF93C2E1D1E00F2EF6E2EF2EF9
S11327D0F1E0FF2EF02D88248394912C612C712C30
S11327E0552453940F2EF4E4AF2EF1E0BF2EF02DB8
S11327F00F2EF8E2CF2EF1E0DF2EF02D8E0180B304
S113280090E0098002C0959587950A94E2F7282DF7
S1132810392D80FF02C0262D372DF8018281938146
S1132820880F991F906E822B932B9383828381153B
S1132830904F09F011C1F801548289E190E00E949F
S1132840572780931101A89AA0912601B0912701DE
S113285016969C911697943009F4DAC0F801808199
S11328608130F9F038F0823009F449C0833009F43A
S1132870A7C0B5C014968C911497882309F4B8C0E6
S113288015969C911597911104C0815014968C93C0
S1132890AFC0915015969C931597815014968C93C4
S11328A0A7C00E947322E0912601F091270196812E
S11328B0992309F4DAC04481242F30E0A081B18146
S11328C01696AC9187E0A89FD0011124A85DBE4F55
S11328D012960D90BC91A02D16968C9190E00197C4
S11328E0281739070CF07BC08581833019F44F5FBA
S11328F0448375C08F5F85834F5F448370C00E949B
S11329007022A0912601B091270116964C9116973A
S1132910442379F0ED91FC911197E68127E0E29F41
S1132920F0011124E85DFE4F0280F381E02D8781E0
S1132930908514965C911497252F30E0F901EE0FE1
S1132940FF1FEE0FFF1FEE0FFF1F2E0F3F1F280F5D
S1132950391FF90182819381892B81F013963C936D
S11329602E931297B0922701A0922601F601B58FFB
S1132970A48F378F268F50A311A231C0F90187810C
S11329809085892B61F113963C932E931297842F93
S113299090E00196FC01EE0FFF1FEE0FFF1FEE0FFC
S11329A0FF1FE81BF90BE85DFE4FF0932701E0934E
S11329B02601B183A08313821282148215820FC070
S11329C09923B1F0ED91FC918681F7E08F9FC001CE
S11329D01124885D9E4F9093270180932601A09136
S11329E02601B091270116968C911697843019F020
S11329F00E94551334C0ED91FC9111970280F3812C
S1132A00E02D0280F381E02D14968C91099527C066
S1132A10ED91FC9111970280F381E02D0480F58102
S1132A20E02D14966C91C80109958823C1F0E091BA
S1132A302601F09127010190F081E02D868127E0A5
S1132A40829FC0011124885D9E4F9093270180933B
S1132A5026010E94551303C0F8011482A8982596F4
S1132A60CE15DF0509F0CACE0AC04481242F30E018
S1132A7090E00197281739070CF436CFB9CFDF91CE
S1132A80CF911F910F91FF90EF90DF90CF90BF9067
S1132A90AF909F908F907F906F905F900895FC010E
S1132AA08081843010F080E0089581E00895FC0175
S1132AB08081843010F080E0089581E00895FC0165
S1132AC08081843010F080E0089581E00895FC0155
S1132AD08081843010F080E0089581E00895FC0145
S1132AE08081843010F080E0089581E00895FC0135
S1132AF08081843010F080E0089581E008950E9480
S1132B00FF098EE095E00E94EA0A61E080E00E94FD
S1132B10E909E09101068E2F90E0FC013197E7303E
S1132B20F10530F5E156FF4F0C94A72688E095E0B7
S1132B300E94EA0A089583E095E00E94EA0A089553
S1132B408CEF94E00E94EA0A089582EF94E00E94D8
S1132B50EA0A08958BEE94E00E94EA0A089583EE4F
S1132B6094E00E94EA0A08958AED94E00E94EA0A39
S1132B700895FC018081813081F018F08430B8F42C
S1132B801BC0809101068F5F883019F08093010685
S1132B900EC081E0809301060AC080910106815035
S1132BA019F08093010603C087E080930106862F05
S1132BB00E947F1580E0089581E008950E94FF0936
S1132BC083EB97E00E94EA0A61E080E00E94E90951
S1132BD08FE197E00E94B80A08950E94FF0987EAEE
S1132BE097E00E94EA0A61E080E00E94E9098BE331
S1132BF097E00E94B80A0895CF93DF9300D000D0E5
S1132C001F92CDB7DEB70E94FF0989E997E00E94C1
S1132C10EA0A61E080E00E94E9094AE0BE016F5FD0
S1132C207F4F8091E6069091E7060E941A27CE0115
S1132C3001960E94B80A0F900F900F900F900F907A
S1132C40DF91CF910895CF93DF9300D000D0CDB71B
S1132C50DEB780910A074AE0BE016F5F7F4F90E0C4
S1132C600E941A270E94FF0984E797E00E94EA0A5B
S1132C7061E080E00E94E909CE0101960E94B80A51
S1132C800F900F900F900F90DF91CF910895CF93F5
S1132C90DF9300D000D0CDB7DEB78091F4064AE0D0
S1132CA0BE016F5F7F4F90E00E941A270E94FF09C8
S1132CB088E697E00E94EA0A61E080E00E94E90960
S1132CC0CE0101960E94B80A0F900F900F900F90BA
S1132CD0DF91CF910895CF93DF9300D000D0CDB78B
S1132CE0DEB70E94FF0989E597E00E94EA0A61E0E5
S1132CF080E00E94E909809106064AE0BE016F5F08
S1132D007F4F90E00E941A27CE0101960E94B80AD4
S1132D100F900F900F900F90DF91CF910895CF9364
S1132D20DF9300D000D01F92CDB7DEB70E94FF0919
S1132D3081E597E00E94EA0A61E080E00E94E909E7
S1132D404AE0BE016F5F7F4F80911D0790911E077F
S1132D500E941A27CE0101960E94B80A0F900F9084
S1132D600F900F900F90DF91CF910895CF93DF9341
S1132D7000D000D01F92CDB7DEB70E94FF0989E4CE
S1132D8097E00E94EA0A61E080E00E94E9094AE0D3
S1132D90BE016F5F7F4F80913007909131070E9491
S1132DA01A27CE0101960E94B80A0F900F900F9037
S1132DB00F900F90DF91CF910895CF93DF9300D0C0
S1132DC000D0CDB7DEB780910C014AE0BE016F5F41
S1132DD07F4F90E00E941A270E94FF0982E297E049
S1132DE00E94EA0A61E080E00E94E909CE010196AE
S1132DF00E94B80A0F900F900F900F90DF91CF911F
S1132E000895CF93DF9300D000D0CDB7DEB70E94F2
S1132E10FF0980E197E00E94EA0A61E080E00E94F5
S1132E20E90980910B014AE0BE016F5F7F4F90E09A
S1132E300E941A27CE0101960E94B80A0F900F90A3
S1132E400F900F90DF91CF910895CF93DF9300D02F
S1132E5000D0CDB7DEB7809136074AE0BE016F5F80
S1132E607F4F90E00E941A270E94FF0988EE96E0A7
S1132E700E94EA0A61E080E00E94E909CE0101961D
S1132E800E94B80A0F900F900F900F90DF91CF918E
S1132E900895CF93DF93CDB7DEB727970FB6F89495
S1132EA0DEBF0FBECDBF8091D5064AE0BE016F5F85
S1132EB07F4F90E00E941A270E94FF0986ED96E05A
S1132EC00E94EA0A61E080E00E94E909CE010196CD
S1132ED00E94B80A27960FB6F894DEBF0FBECDBF86
S1132EE0DF91CF910895CF93DF9300D000D0CDB779
S1132EF0DEB70E94FF0984EC96E00E94EA0A61E0D2
S1132F0080E00E94E909809109014AE0BE016F5FF7
S1132F107F4F90E00E941A27CE0101960E94B80AC2
S1132F200F900F900F900F90DF91CF910895CF9352
S1132F30DF9300D000D0CDB7DEB70E94FF098BE04D
S1132F4096E00E94EA0A61E080E00E94E90980912B
S1132F500A014AE0BE016F5F7F4F90E00E941A278A
S1132F60CE0101960E94B80A0F900F900F900F9017
S1132F70DF91CF910895CF93DF9300D000D0CDB7E8
S1132F80DEB70E94FF098EED95E00E94EA0A61E037
S1132F9080E00E94E909809108014AE0BE016F5F68
S1132FA07F4F90E00E941A27CE0101960E94B80A32
S1132FB00F900F900F900F90DF91CF910895CF93C2
S1132FC0DF9300D000D0CDB7DEB70E94FF0985EBB8
S1132FD095E00E94EA0A61E080E00E94E90980919C
S1132FE007014AE0BE016F5F7F4F90E00E941A27FD
S1132FF0CE0101960E94B80A0F900F900F900F9087
S1133000DF91CF910895CF93DF9300D000D0CDB757
S1133010DEB70E94FF0981E995E00E94EA0A61E0B7
S113302080E00E94E909809106014AE0BE016F5FD9
S11330307F4F90E00E941A27CE0101960E94B80AA1
S11330400F900F900F900F90DF91CF910895CF9331
S1133050DF9300D000D0CDB7DEB70E94FF0987E62A
S113306095E00E94EA0A61E080E00E94E90980910B
S113307005014AE0BE016F5F7F4F90E00E941A276E
S1133080CE0101960E94B80A0F900F900F900F90F6
S1133090DF91CF910895CF93DF9300D000D0CDB7C7
S11330A0DEB70E94FF098DE595E00E94EA0A61E01F
S11330B080E00E94E90980910A064AE0BE016F5F40
S11330C07F4F90E00E941A27CE0101960E94B80A11
S11330D00F900F900F900F90DF91CF910895CF93A1
S11330E0DF9300D000D0CDB7DEB70E94FF098BE498
S11330F095E00E94EA0A809111014AE0BE016F5FE7
S11331007F4F90E00E941A27CE0101960E94B80AD0
S11331100F900F900F900F90DF91CF910895CF9360
S1133120DF9300D000D0CDB7DEB70E94FF0980E462
S113313095E00E94EA0A61E080E00E94E90980913A
S113314009064AE0BE016F5F7F4F90E00E941A2794
S1133150CE0101960E94B80A0F900F900F900F9025
S1133160DF91CF910895CF93DF9300D000D0CDB7F6
S1133170DEB70E94FF098CE295E00E94EA0A61E052
S113318080E00E94E9094AE0BE016F5F7F4F8091B1
S11331900F01909110010E941A27CE0101960E94FE
S11331A0B80A0F900F900F900F90DF91CF91089570
S11331B0CF93DF9300D01F92CDB7DEB70E94FF09F3
S11331C088E295E00E94EA0A61E080E00E94E90951
S11331D0809105064AE0BE016F5F7F4F90E00E9438
S11331E01A27CE0101960E94B80A0F900F900F90F3
S11331F0DF91CF910895FC019081913089F028F0FE
S11332009230C9F0933001F11AC0809105068F5FA6
S1133210883119F08093050612C0109205060FC07C
S113322080910506815018F08093050608C087E157
S11332308093050604C081E0809302060895862FDA
S11332400E94D81880E0089581E00895CF93DF9319
S113325000D000D01F92CDB7DEB70E94FF0980E2F4
S113326095E00E94EA0A61E080E00E94E9094AE0F0
S1133270BE016F5F7F4F80910301909104010E9412
S11332801A27CE0101960E94B80A0F900F900F9052
S11332900F900F90DF91CF910895FC0180818130D0
S11332A071F018F08430A0F418C08091030190915B
S11332B004010196909304018093030109C0809155
S11332C003019091040101979093040180930301F9
S11332D0862F0E94261980E0089581E00895CF93F7
S11332E0DF9300D01F92CDB7DEB70E94FF098AE1B9
S11332F095E00E94EA0A61E080E00E94E909809179
S113330002014AE0BE016F5F7F4F90E00E941A27DE
S1133310CE0101960E94B80A0F900F900F90DF9192
S1133320CF910895FC018081813081F018F08430C0
S1133330B8F41BC0809102018F5F8D3019F0809327
S113334002010EC081E0809302010AC08091020153
S1133350815019F08093020103C08CE08093020134
S1133360862F0E946F1980E0089581E00895CF931D
S1133370DF9300D01F92CDB7DEB70E94FF0986E12C
S113338095E00E94EA0A61E080E00E94E9098091E8
S113339001014AE0BE016F5F7F4F90E00E941A274F
S11333A0CE0101960E94B80A0F900F900F90DF9102
S11333B0CF910895FC018081813081F018F0843030
S11333C0B8F41BC0809101018F5F803219F08093A3
S11333D001010EC081E0809301010AC080910101C6
S11333E0815019F08093010103C08FE180930101A2
S11333F0862F0E94B71980E0089581E00895CF9345
S1133400DF9300D0CDB7DEB70E94FF098EEC94E0C5
S11334100E94EA0A61E080E00E94E90980910806BE
S11334204AE0BE016F5F7F4F90E00E941A27CE01F1
S113343001960E94B80A0F900F90DF91CF910895E2
S1133440CF93DF9300D000D0CDB7DEB70E94FF0941
S113345082EC94E00E94EA0A61E080E00E94E909BB
S113346080910E014AE0BE016F5F7F4F90E00E94A1
S11334701A27CE0101960E94B80A0F900F900F9060
S11334800F90DF91CF910895CF93DF9300D000D0B8
S1133490CDB7DEB70E94FF0980EB94E00E94EA0AF0
S11334A061E080E00E94E90980910E014AE0BE01DA
S11334B06F5F7F4F90E00E941A27CE0101960E9411
S11334C0B80A0F900F900F900F90DF91CF9108954D
S11334D0FC0190819130D9F028F0923069F1933059
S11334E0D1F134C08091E6069091E706833AFDE07D
S11334F09F0738F086E391E09093E7068093E60611
S113350025C00A969093E7068093E6061FC0809133
S1133510E6069091E706873321E0920730F00A9798
S11335209093E7068093E60611C08CEA9DE09093A1
S1133530E7068093E6060AC06091E6067091E70606
S113354088E090E00E94762781E00895862F0E940B
S1133550FC1580E0089581E00895FC01908191308C
S1133560C9F028F0923059F19330C1F132C0809102
S11335701D0790911E078432F9E09F0730F40A96E4
S113358090931E0780931D0724C010921E0710926B
S11335901D071FC080911D0790911E07863F2FEFC6
S11335A0920738F08EE299E090931E0780931D07EE
S11335B010C00A9790931E0780931D070AC060915C
S11335C01D0770911E078FE090E00E94762781E02E
S11335D00895862F0E948F1680E0089581E0089553
S11335E0FC0190819130C9F028F0923059F1933068
S11335F0C1F132C080913007909131078432F9E0F3
S11336009F0730F40A96909331078093300724C0C3
S113361010923107109230071FC0809130079091AB
S11336203107863F2FEF920738F08EE299E09093AE
S113363031078093300710C00A9790933107809325
S113364030070AC060913007709131078DE090E037
S11336500E94762781E00895862F0E94B61680E0A6
S1133660089581E00895FC019081913081F028F063
S11336709230B9F0933021F11EC080910F019091E6
S1133680100101969093100180930F0114C0809152
S11336900F019091100101979093100180930F01F5
S11336A00AC060910F017091100186E190E00E94C0
S11336B0762781E00895862F0E94B31880E008954C
S11336C081E00895CF93DF93CDB7DEB727970FB688
S11336D0F894DEBF0FBECDBF0E94FF098DE897E0CE
S11336E00E94EA0A61E080E00E94E9098FEF96E017
S11336F00E94B80A8BE897E00E94230A88E397E0C7
S11337000E94B80A88E897E00E94230A62E080E0F9
S11337100E94E90980912E074AE0BE016F5F7F4F46
S113372090E00E941A27CE0101960E94B80A86E80A
S113373097E00E94230A8091F5064AE0BE016F5F7C
S11337407F4F90E00E941A27CE0101960E94B80A8A
S113375083E897E00E94230A27960FB6F894DEBF09
S11337600FBECDBFDF91CF910895CF93DF93CDB737
S1133770DEB727970FB6F894DEBF0FBECDBF0E9409
S1133780FF098AE397E00E94EA0A61E080E00E9470
S1133790E90980E197E00E94B80A88E397E00E9473
S11337A0230A8BE297E00E94B80A85E397E00E941F
S11337B0230A62E080E00E94E90980912A074AE036
S11337C0BE016F5F7F4F90E00E941A27CE010196E1
S11337D00E94B80A83E397E00E94230A8091C406FA
S11337E04AE0BE016F5F7F4F90E00E941A27CE012E
S11337F001960E94B80A80E397E00E94230A279664
S11338000FB6F894DEBF0FBECDBFDF91CF91089500
S1133810CF93DF93CDB7DEB727970FB6F894DEBF0B
S11338200FBECDBF0E94FF0981E097E00E94EA0A23
S113383061E080E00E94E90988EE96E00E94B80AFF
S11338408FEF96E00E94230A87E097E00E94B80A6F
S11338508CEF96E00E94230A62E080E00E94E9096E
S11338608091C2064AE0BE016F5F7F4F90E00E94E4
S11338701A27CE0101960E94B80A8AEF96E00E94A8
S1133880230A80912F074AE0BE016F5F7F4F90E0CB
S11338900E941A27CE0101960E94B80A87EF96E08B
S11338A00E94230A27960FB6F894DEBF0FBECDBF41
S11338B0DF91CF9108950E94FF0981EB96E00E9469
S11338C0EA0A61E080E00E94E9098091070684FF2A
S11338D005C08EEA96E00E94230A08958BEA96E0DA
S11338E00E94230A08950E94FF0989E996E00E9434
S11338F0EA0A61E080E00E94E9098091070682FFFC
S113390005C086E996E00E94230A089583E996E0BB
S11339100E94230A08950E94FF0984E896E00E9409
S1133920230A61E080E00E94E9098091070683FF91
S113393005C081E896E00E94230A08958EE796E088
S11339400E94230A08950E94FF098AE696E00E94D5
S1133950EA0A61E080E00E94E9098091070685FF98
S113396005C083E696E00E94230A08958FE596E059
S11339700E94EA0A08950E94FF098EE496E00E94DC
S1133980EA0A61E080E00E94E9098091070686FF67
S113399005C08BE496E00E94230A089588E496E02B
S11339A00E94230A08950E94FF098CE396E00E9476
S11339B0EA0A61E080E00E94E90980910706882311
S11339C02CF489E396E00E94230A089586E396E0A6
S11339D00E94230A0895CF93DF93CDB7DEB72797CC
S11339E00FB6F894DEBF0FBECDBF0E94FF0987E279
S11339F096E00E94EA0A61E080E00E94E90984E816
S1133A0097E00E94B80A85E296E00E94230A89E1C1
S1133A1097E00E94B80A82E296E00E94230A62E0DC
S1133A2080E00E94E90980910E074AE0BE016F5FC1
S1133A307F4F90E00E941A27CE0101960E94B80A97
S1133A4080E296E00E94230A809141074AE0BE0189
S1133A506F5F7F4F90E00E941A27CE0101960E946B
S1133A60B80A8DE196E00E94230A27960FB6F894CF
S1133A70DEBF0FBECDBFDF91CF910895CF93DF930B
S1133A80CDB7DEB727970FB6F894DEBF0FBECDBF14
S1133A900E94FF098BEF95E00E94EA0A61E080E052
S1133AA00E94E90986ED96E00E94B80A89EF95E044
S1133AB00E94230A82E397E00E94B80A86EF95E009
S1133AC00E94230A62E080E00E94E90980913507A0
S1133AD04AE0BE016F5F7F4F90E00E941A27CE013B
S1133AE001960E94B80A84EF95E00E94230A80910F
S1133AF082074AE0BE016F5F7F4F90E00E941A2761
S1133B00CE0101960E94B80A81EF95E00E94230A33
S1133B1027960FB6F894DEBF0FBECDBFDF91CF91CD
S1133B200895CF93DF93CDB7DEB727970FB6F894F8
S1133B30DEBF0FBECDBF0E94FF0980ED95E00E945D
S1133B40EA0A61E080E00E94E90982EE96E00E94C0
S1133B50B80A8EEC95E00E94230A86E197E00E9461
S1133B60B80A8BEC95E00E94230A62E080E00E9490
S1133B70E90980910C074AE0BE016F5F7F4F90E036
S1133B800E941A27CE0101960E94B80A89EC95E09A
S1133B900E94230A809183074AE0BE016F5F7F4F32
S1133BA090E00E941A27CE0101960E94B80A86EC82
S1133BB095E00E94230A27960FB6F894DEBF0FBE45
S1133BC0CDBFDF91CF9108950E94FF0987EA95E068
S1133BD00E94EA0A61E080E00E94E90983E097E03C
S1133BE00E94B80A85EA95E00E94230A87E297E0DA
S1133BF00E94B80A82EA95E00E94230A08950E946E
S1133C00FF098EE795E00E94EA0A61E080E00E94E5
S1133C10E9098CEE96E00E94B80A8CE795E00E94D0
S1133C20230A80EF96E00E94B80A89E795E00E9493
S1133C30230A0895CF93DF9300D01F92CDB7DEB748
S1133C400E94FF0983E295E00E94230A61E080E07C
S1133C500E94E909809104064AE0BE016F5F7F4F2C
S1133C6090E00E941A27CE0101960E94B80A0F9094
S1133C700F900F90DF91CF910895FC0190819130C6
S1133C8089F028F09230C9F0933001F11AC0809184
S1133C9004068F5F8C3319F08093040612C01092CF
S1133CA004060FC080910406815018F08093040626
S1133CB008C08BE38093040604C081E0809302066D
S1133CC00895862F0E941A1E80E0089581E00895C9
S1133CD0FC019081913071F028F09230A9F093307A
S1133CE001F11AC080910A078A35B1F08F5F809381
S1133CF00A0712C080910A079091F406981760F49D
S1133D00815080930A0708C060910A0782E190E01D
S1133D100E94652781E00895862F0E94231680E083
S1133D20089581E00895FC019081913081F028F09C
S1133D309230A9F0933001F11AC08091F406909169
S1133D400A078917A0F48F5F8093F40610C080914E
S1133D50F406863060F081508093F40608C06091C8
S1133D60F40681E190E00E94652781E00895862FA2
S1133D700E94471680E0089581E00895FC01908137
S1133D80913091F028F09230E1F0933039F121C074
S1133D90809106068F5F809306069091F30689133F
S1133DA018C01092060615C08091060681508093B3
S1133DB006068F3F71F48091F306815080930606C6
S1133DC008C06091060687E090E00E94652781E0C4
S1133DD00895862F0E946B1680E0089581E008956F
S1133DE0FC019081913071F028F0923099F0933079
S1133DF0F1F018C080910C018A35A1F08F5F809397
S1133E000C0110C080910C01853160F081508093C9
S1133E100C0108C060910C018CE090E00E946527C1
S1133E2081E00895862F0E94DD1680E0089581E0E8
S1133E300895FC019081913091F028F09230E1F0E6
S1133E40933039F121C080910B018F5F80930B0176
S1133E509091F306891318C010920B0115C080913C
S1133E600B01815080930B018F3F71F48091F30615
S1133E70815080930B0108C060910B0186E090E0B3
S1133E800E94652781E00895862F0E94011780E033
S1133E90089581E00895FC019081913081F028F02B
S1133EA09230A9F0933001F11AC0809136079091B5
S1133EB0D5068917A0F48F5F8093360710C08091D0
S1133EC03607863060F081508093360708C06091D1
S1133ED036078AE090E00E94652781E00895862FE6
S1133EE00E94251780E0089581E00895FC019081E7
S1133EF0913071F028F09230A9F0933001F11AC09A
S1133F008091D5068332B0F48F5F8093D50612C0BA
S1133F108091D50690913607981760F4815080936C
S1133F20D50608C06091D5068BE090E00E94652715
S1133F3081E00895862F0E94491780E0089581E06A
S1133F400895FC019081913091F028F09230E1F0D5
S1133F50933039F121C0809109018F5F8093090169
S1133F609091F306891318C01092090115C080912D
S1133F7009018150809309018F3F71F48091F30608
S1133F8081508093090108C06091090184E090E0A8
S1133F900E94652781E00895862F0E94731780E0B0
S1133FA0089581E00895FC019081913091F028F00A
S1133FB09230E1F0933039F121C080910A018F5F92
S1133FC080930A019091F306891318C010920A0194
S1133FD015C080910A01815080930A018F3F71F4CA
S1133FE08091F306815080930A0108C060910A0110
S1133FF085E090E00E94652781E00895862F0E9465
S1134000971780E0089581E00895FC019081913034
S113401091F028F09230E1F0933039F121C0809191
S113402008018F5F809308019091F306891318C0EB
S11340301092080115C080910801815080930801F5
S11340408F3F71F48091F30681508093080108C07A
S11340506091080183E090E00E94652781E0089563
S1134060862F0E94BB1780E0089581E00895FC012B
S11340709081913091F028F09230E1F0933039F151
S113408021C0809107018F5F809307019091F3060F
S1134090891318C01092070115C08091070181503F
S11340A0809307018F3F71F48091F30681508093D0
S11340B0070108C06091070182E090E00E94652733
S11340C081E00895862F0E94DF1780E0089581E043
S11340D00895FC019081913091F028F09230E1F044
S11340E0933039F121C0809106018F5F80930601DE
S11340F09091F306891318C01092060115C080919F
S113410006018150809306018F3F71F48091F3067C
S113411081508093060108C06091060181E090E01F
S11341200E94652781E00895862F0E94031880E08D
S1134130089581E00895FC019081913091F028F078
S11341409230E1F0933039F121C0809105018F5F05
S1134150809305019091F306891318C0109205010C
S113416015C0809105018150809305018F3F71F442
S11341708091F30681508093050108C06091050188
S113418080E090E00E94652781E00895862F0E94D8
S1134190271880E0089581E00895FC019081913012
S11341A061F028F0923079F09330D1F014C080910E
S11341B00A068F5F80930A060EC080910A0681501A
S11341C080930A0608C060910A068AE190E00E9482
S11341D0652781E00895862F0E944B1880E008959A
S11341E081E00895FC019081913061F028F09230D3
S11341F079F09330D1F014C0809111018F5F8093D6
S113420011010EC08091110181508093110108C0E9
S11342106091110189E190E00E94652781E0089591
S1134220862F0E946F1880E0089581E00895FC01B4
S11342309081913061F028F0923079F0933019F147
S113424014C0809109068F5F809309060EC0809187
S1134250090681508093090608C06091090688E127
S113426090E00E94652781E00895209109062223A9
S113427029F030E03093830020938200862F0E943F
S11342808F1880E0089581E00895FC0190819130B9
S113429089F028F09230C9F0933021F11EC080914A
S11342A008068F5F823019F08093080616C01092BA
S11342B0080613C080910806815018F08093080600
S11342C00CC081E08093080608C06091080685E16F
S11342D090E00E94652781E00895862F0E94FF19CF
S11342E080E0089581E00895FC019081913091F07F
S11342F028F09230D1F0933029F11FC080910E0143
S11343008F5F833219F080930E0117C08FE0809382
S11343100E0113C080910E01815018F080930E019C
S11343200CC083E280930E0108C060910E0184E109
S113433090E00E94652781E00895862F0E94201A4C
S113434080E0089581E00895FC019081913099F016
S113435028F09230E1F0933039F121C090910D01B1
S113436081E0890F80930D0120910C01821317C005
S113437090930D0114C080910D01815080930D0123
S11343808F3F69F480910C0180930D0108C0609106
S11343900D0183E190E00E94652781E00895862F56
S11343A00E94441A80E0089581E00895CF93C62FB7
S11343B0FC018081823018F0843070F412C0809146
S11343C0070682FF04C08F7E8093070603C08061C6
S11343D0809307060E94090F8C2F0E945B1C80E0CB
S11343E001C081E0CF910895CF93C62FFC01808155
S11343F0823018F0843048F40DC09091070684E0B0
S11344008927809307060E94090F8C2F0E94731C32
S113441080E001C081E0CF910895CF93C62FFC01C5
S11344208081823018F0843048F40DC090910706E2
S113443088E08927809307060E94090F8C2F0E9429
S11344408B1C80E001C081E0CF910895CF93C62FEB
S1134450FC018081823018F0843048F40DC09091C2
S1134460070680E28927809307060E94090F8C2F94
S11344700E94A31C80E001C081E0CF910895CF93F6
S1134480C62FFC018081823018F0843048F40DC0BE
S11344909091070680E48927809307060E94090FFC
S11344A08C2F0E94BB1C80E001C081E0CF91089555
S11344B0CF93C62FFC018081823018F0843040F401
S11344C00CC0809107068058809307060E94090F4C
S11344D08C2F0E94D31C80E001C081E0CF9108950D
S11344E08BE491E0089587E0089581B38F7081BBD8
S11344F082B3806F82BB089587B3876087BB88B31C
S1134500896088BB8BB38FEF8BBB9AB38ABB8DB1A9
S113451083658DB908956E9887B3897F87BB0895A5
S11345204BB321E030E0F90102C0EE0FFF1F8A9582
S1134530E2F7CF012E2F209542234BBB6FB9779B17
S1134540FECF9BB3892B8BBB8FB108951F920F9223
S11345500FB60F9211242F938F939F93EF93FF9392
S11345608BB12CB18C71E0915306EF5FEF71909198
S11345705206E91739F0E0935306F0E0EA5AF94F8E
S1134580208301C082E090915106892B80935106CB
S1134590FF91EF919F918F912F910F900FBE0F90EC
S11345A01F9018951F920F920FB60F9211248F939C
S11345B09F93EF93FF93909155068091540698171B
S11345C061F0E0915406EF5FEF71E0935406F0E080
S11345D0EA58F94F80818CB901C05598FF91EF9149
S11345E09F918F910F900FBE0F901F90189510926E
S11345F055061092540610925306109252069923AF
S113460014F422E02BB990789093900089B988E94A
S11346108AB986E08093950008959091530680911D
S113462052069817A9F0909152069F5F9F71E92F47
S1134630F0E0EA5AF94F2081809151069093520696
S11346401092510690E0982F8827820F911D0895AB
S113465080E091E00895209155062F5F2F7190918D
S113466054062917E1F3E22FF0E0EA58F94F80836A
S113467020935506559A0895CF93DF93EC018881D2
S1134680882331F021960E942B2389918111FBCF3D
S1134690DF91CF910895CF93DF93EC012196FC0134
S11346A08491882339F00E942B23FE018491219662
S11346B08111F9CFDF91CF9108951F920F920FB618
S11346C00F9211242F938F939F93EF93FF938091D5
S11346D09B0020919C008C71E0910E06EF5FEF71BE
S11346E090910D06E91739F0E0930E06F0E0EF5EC5
S11346F0F94F208301C082E090910C06892B8093AE
S11347000C06FF91EF919F918F912F910F900FBE07
S11347100F901F9018951F920F920FB60F921124AD
S11347208F939F93EF93FF939091100680910F06C0
S1134730981769F0E0910F06EF5FEF71E0930F06B1
S1134740F0E0EF5CF94F808180939C0005C0EAE9BA
S1134750F0E080818F7D8083FF91EF919F918F9115
S11347600F900FBE0F901F901895CF93DF93CDB786
S1134770DEB761970FB6F894DEBF0FBECDBF4AE037
S1134780BE016F5F7F4F0E941A270E943C236196EF
S11347900FB6F894DEBF0FBECDBFDF91CF91089561
S11347A02F923F924F925F926F927F928F929F923D
S11347B0AF92BF92CF92DF92EF92FF920F931F932B
S11347C0CF93DF93CDB7DEB7A4970FB6F894DEBFCF
S11347D00FBECDBF8C016A017B01390184E2EAE39B
S11347E0F3E0DE01119601900D928A95E1F7CB0179
S11347F0BA010E943D254B015C014AE0B801C401A5
S11348000E941A27F8018081882341F0C80101968B
S1134810FC01019620812111FBCF01C0F8018EE239
S113482081931F01660C771C660C771CFE01E60D54
S1134830F71D61817281838194810E9475252B010A
S11348403C01C501B4010E9475259B01AC01C7015F
S1134850B6010E9459249B01AC01C301B2010E941C
S11348602A260E943D259B01772324F422273327FF
S1134870261B370B4AE0B101C9010E941A27C8015F
S1134880A4960FB6F894DEBF0FBECDBFDF91CF91D3
S11348901F910F91FF90EF90DF90CF90BF90AF905A
S11348A09F908F907F906F905F904F903F902F904C
S11348B008955058BB27AA270E9471240C94EB2515
S11348C00E94DD2538F00E94E42520F039F49F3F52
S11348D019F426F40C94DA250EF4E095E7FB0C9415
S11348E0D425E92F0E94FC2558F3BA1762077307F1
S11348F08407950720F079F4A6F50C941E260EF48F
S1134900E0950B2EBA2FA02D0B01B90190010C01DB
S1134910CA01A0011124FF27591B99F0593F50F4F3
S1134920503E68F11A16F040A22F232F342F44274B
S1134930585FF3CF469537952795A795F040539543
S1134940C9F77EF41F16BA0B620B730B840BBAF013
S11349509150A1F0FF0FBB1F661F771F881FC2F77E
S11349600EC0BA0F621F731F841F48F48795779592
S11349706795B795F7959E3F08F0B0CF9395880F4C
S113498008F09927EE0F9795879508950E94B02512
S113499008F481E008950E94DF240C94EB250E9422
S11349A0E42558F00E94DD2540F029F45F3F29F00A
S11349B00C94D42551110C941F260C94DA250E94D2
S11349C0FC2568F39923B1F3552391F3951B550BFB
S11349D0BB27AA2762177307840738F09F5F5F4FCE
S11349E0220F331F441FAA1FA9F335D00E2E3AF00D
S11349F0E0E832D091505040E695001CCAF72BD025
S1134A00FE2F29D0660F771F881FBB1F2617370775
S1134A104807AB07B0E809F0BB0B802DBF01FF27A7
S1134A2093585F4F3AF09E3F510578F00C94D4258B
S1134A300C941F265F3FE4F3983ED4F38695779554
S1134A406795B795F7959F5FC9F7880F911D969560
S1134A50879597F90895E1E0660F771F881FBB1FBC
S1134A60621773078407BA0720F0621B730B840B69
S1134A70BA0BEE1F88F7E09508950E9444256894C8
S1134A80B1110C941F2608950E94042688F09F57A4
S1134A9098F0B92F9927B751B0F0E1F0660F771F5E
S1134AA0881F991F1AF0BA95C9F714C0B13091F054
S1134AB00E941E26B1E008950C941E26672F782FBD
S1134AC08827B85F39F0B93FCCF386957795679519
S1134AD0B395D9F73EF490958095709561957F4F85
S1134AE08F4F9F4F0895E89409C097FB3EF490952B
S1134AF08095709561957F4F8F4F9F4F9923A9F0B3
S1134B00F92F96E9BB279395F69587957795679541
S1134B10B795F111F8CFFAF4BB0F11F460FF1BC085
S1134B206F5F7F4F8F4F9F4F16C0882311F096E918
S1134B3011C0772321F09EE8872F762F05C06623C6
S1134B4071F096E8862F70E060E02AF09A95660F7F
S1134B50771F881FDAF7880F9695879597F9089538
S1134B60990F0008550FAA0BE0E8FEEF161617067A
S1134B70E807F907C0F012161306E407F50798F0E2
S1134B80621B730B840B950B39F40A2661F0232BFB
S1134B90242B252B21F408950A2609F4A140A69577
S1134BA08FEF811D811D089597F99F6780E870E05C
S1134BB060E008959FEF80EC089500240A9416168F
S1134BC0170618060906089500240A9412161306F7
S1134BD0140605060895092E0394000C11F4882385
S1134BE052F0BB0F40F4BF2B11F460FF04C06F5FA1
S1134BF07F4F8F4F9F4F089557FD9058440F551F77
S1134C0059F05F3F71F04795880F97FB991F61F04A
S1134C109F3F79F087950895121613061406551FC1
S1134C20F2CF4695F1DF08C0161617061806991F2D
S1134C30F1CF86957105610508940895E894BB2722
S1134C4066277727CB0197F908950E94B02508F4C9
S1134C508FEF08950E943D260C94EB250E94DD25DC
S1134C6038F00E94E42520F0952311F00C94D4250B
S1134C700C94DA2511240C941F260E94FC2570F351
S1134C80959FC1F3950F50E0551F629FF001729FED
S1134C90BB27F00DB11D639FAA27F00DB11DAA1FFC
S1134CA0649F6627B00DA11D661F829F2227B00D49
S1134CB0A11D621F739FB00DA11D621F839FA00DD4
S1134CC0611D221F749F3327A00D611D231F849F24
S1134CD0600D211D822F762F6A2F11249F5750407B
S1134CE09AF0F1F088234AF0EE0FFF1FBB1F661FF6
S1134CF0771F881F91505040A9F79E3F510580F0BF
S1134D000C94D4250C941F265F3FE4F3983ED4F30F
S1134D10869577956795B795F795E7959F5FC1F762
S1134D20FE2B880F911D9695879597F90895DB01C1
S1134D308F939F930E94AD26BF91AF91A29F800D48
S1134D40911DA39F900DB29F900D11240895EE0F15
S1134D50FF1F0590F491E02D09940E94C026A59FA1
S1134D60900DB49F900DA49F800D911D1124089562
S1134D70B7FF0C94AD260E94AD26821B930B0895B9
S1134D80A29FB001B39FC001A39F700D811D112488
S1134D90911DB29F700D811D1124911D0895FC0178
S1134DA088279927E89421912032E9F3293010F0DB
S1134DB02E30C8F32B3241F02D3239F4689404C0FC
S1134DC00E942527820F911D219120532A30C0F380
S1134DD01EF4909581959F4F0895FB01DC01059089
S1134DE00D920020E1F70895FC018191861721F0CE
S1134DF08823D9F7992708953197CF010895FB01A6
S1134E00DC0101900D920020E1F70895DC01FB0123
S1134E104150504058F049F001900D920020C1F7E4
S1134E20E61BF70B3197CF0108951C9201900020E7
S1134E30E9F7F6CFBB274A3031F4992322F4BDE2D7
S1134E40909581959F4F0C942E277AE0979F902DF3
S1134E50879F802D910D11240895BB27FB015527B1
S1134E60AA27880F991FAA1FA41710F0A41B8395C3
S1134E705051B9F7A05DAA3308F0A95DA19300973A
S1134E8079F7B111B1931192CB010C944727DC014E
S1134E90FC01672F71917723E1F7329704C07C916D
S1134EA06D9370836291AE17BF07C8F30895E199BB
S1134EB0FECF9FBB8EBBE09A99278DB30895A8E1DE
S1134EC0B0E042E050E00C947E27262FE199FECF1B
S1134ED09FBB8EBBE09A01970DB2021631F02DBB39
S1134EE00FB6F894E29AE19A0FBE08950196272F1F
S1134EF00E9466270C946527DC01CB01FC01E19933
S1134F00FECF06C0FFBBEEBBE09A31960DB20D9208
S10F4F1041505040B8F70895F894FFCFCA
S1134F1C140101E307070605040302012A1C140209
S1134F2C000A000700000001060000000204000053
S1134F3C0003050000002801000000000000000030
S1134F4C000000000001000000000000020000004E
S1134F5C00000003000000000000045E03000000D9
S1134F6C0005E0026C030000000003C5027D030091
S1134F7C00000004A1028F0300000000031F039E25
S1134F8C0300000000066B02A403000000000A11D9
S1134F9C02B30300000000068A01C503B318331BD7
S1134FAC000000D4030000000003C001E003000073
S1134FBC000006DB01EB034B18CD20000000F503C9
S1134FCC6F18F22000000002048F18172100000053
S1134FDCD403FF1945210000000D04201A7421008C
S1134FEC00001904441AA4210000002B04D818FB57
S1134FFC180000002F041A1E3D1E00000034042665
S113500C194D1900000037046F199219000000396A
S113501C04B719DA190000003D047F15B915000016
S113502C004604EB1C771500000051049717D31F9E
S113503C00000063043E1D77150000006F04BB17CD
S113504C05200000008204911D77150000008C04DB
S113505CDF1737200000009D04E41D7715000000C5
S113506CAB0403186920000000BC04FF1D77150075
S113507C0000CB0427189B20000000DD045B1CD629
S113508C21000000EA04731CF421000000F9048BD5
S113509C1C0D220000000505A31C2622000000158F
S11350AC05BB1C3F220000002605D31C582200001F
S11350BC002F05081C6F150000003E0525174B1F1B
S11350CC0000004D054917761F0000005F0573179B
S11350DCA11F0000006E05B51B67150000009D04A0
S11350ECDD16F01E0000007D050117191F000000DD
S11350FC8C05621B5F1500000098052316681E00C2
S113510C0000A7054716931E000000B3050000001D
S113511C00020D03BC056B16BE1E000000C8058FF3
S113512C16AD1A000000D005B616F01A000000D80F
S113513C05DE154F15000000E205ED1557150000AE
S113514C00ED05FC15681A000000000000000A00C0
S113515C000064000000E803000010270000A08693
S113516C010040420F008096980000E1F505484D7F
S113517C56206265E16C6CED74E1730050756666E3
S113518C6572206265E16C6CED74E173004B617ABD
S113519CE16E68E17A207465726D6F737A74004BFA
S11351ACFC6C73F520E9727AE96B656CF500526559
S11351BC6CE96B00456779E96220E9727AE96B6501
S11351CC6CF50056657AE9726CF5206265E16C6CDD
S11351DCED74E17300537A697661747479FA20750D
S11351EC74E16E004B6F6D666F7274206DF3640026
S11351FCF372612C2064E174756D005465737A74D8
S113520CFC7A656D004D656EFC206964F57AED746D
S113521CF5004C43442068E17474E972004B6F6DE3
S113522C666F72742068F56D004B6F6D666F7274E7
S113523C20656CF572656D656EF500F37261007036
S113524C65726300E9760068F36E6170006E6170DC
S113525C206E65766500476172E17A732068F56D9E
S113526C00476172E17A7320737A656E7A6F7220EB
S113527C4944004E617070616C692068F56D004E94
S113528C617070616C6920737A656E7A6F722049F3
S113529C44005061646CF32068F56D005061646CDB
S11352ACF320737A656E7A6F7220494400456CF56D
S11352BC72656D656EF52068F56D00456CF572656B
S11352CC20737A656E7A6F72204944005669737341
S11352DC7A6174E972F52068F56D00566973737A16
S11352EC6120737A656E7A6F7220494400484D567A
S11352FC2033206AE1726174FA005AF36E612066FD
S113530CF66C64737A696E74005AF36E6120656D81
S113531C656C6574005075666665722033206AE1AD
S113532C726174FA0050756666657220737A6976D8
S113533C61747479FA0047E17A2072656CE900476C
S113534CE97068E17A20616B742068F56D0047E9B7
S113535C7068E17A206D696E2068F56D0047E9701C
S113536C68E17A206BED76E16E742068F56D004788
S113537CE97068E17A20737A656E7A6F720042750F
S113538C6666657220616B742068F56D00507566F5
S113539C66657220737A656E7A6F7200484D56207A
S11353AC616B742068F56D00484D56206BED76E109
S11353BC6E742068F56D00484D56206D696E20683A
S11353CCF56D00484D5620F372E16B00484D5620A4
S11353DC737A656E7A6F72004D696E206964F5009C
S11353EC4D6178206964F5004BFC6C73F52068F50D
S11353FC6D004BFC6C73F52070E17261004BFC6C1E
S111540C73F52068F56D2074696C74E173000B
S9030000FC
