:100000000C9465020C9482020C9482020C9482027D
:100010000C9482020C9482020C9482020C94820250
:100020000C9482020C9482020C9482020C94820240
:100030000C9487090C9482020C9482020C94820224
:100040000C9482020C9482020C9479140C94A514E2
:100050000C9482020C9468090C9482020C94820223
:100060000C9482020C9482020C9482020C94820200
:100070000C9482020C9482020C9412150C9440157C
:100080000C9482020C9482020C9482024609530959
:10009000530953095309530953095309480953098B
:1000A000530953094A095309530953095309530979
:1000B0004C0953094E094209530953095309500980
:1000C000520944095309530953095309460953096D
:1000D000530953095309530953095309480953094B
:1000E000530953094A095309530953095309530939
:1000F0004C0953094E094209530953095309500940
:1001000052094409436F756C64206E6F7420636FED
:100110006E6E65637420746F2073656E736F72000A
:1001200020445331384232302073656E736F7273DE
:100130000A00466F756E642000496E7465727275B0
:10014000707420656E61626C65640A00427573208C
:100150006572726F720A004E6F2073656E736F72F4
:1001600020666F756E640A00427573207363616E5A
:100170006E696E67202E2E2E0A0047415320616E55
:10018000642046495253545F464C4F4F525F56418C
:100190004C56452C205345434F4E445F464C4F4FE1
:1001A000525F56414C56452072656C6179206465FA
:1001B000616374697661746564005345434F4E44CE
:1001C00020464C4F4F5220646561637469766174B8
:1001D0006564005345434F4E4420464C4F4F5220D8
:1001E00061637469766174656400464952535420B2
:1001F000464C4F4F52206465616374697661746543
:100200006400464952535420464C4F4F522061637C
:1002100074697661746564004741532C20444857E3
:100220002064656163746976617465643B2042553E
:10023000464645522072656C61792064656163743D
:10024000697661746564004741532061637469761F
:10025000617465643B204255464645522C20444813
:10026000572072656C617920646561637469766199
:10027000746564004448572072656C617920646538
:1002800061637469766174656400444857207265DF
:100290006C61792061637469766174656420776943
:1002A00074682062756666657200444857207265FE
:1002B0006C61792061637469766174656420776923
:1002C0007468206761730052656C656B3A20004B5F
:1002D000617A616E68617A20686F6D200050756682
:1002E00066657220686F6D3A2000484D5620686F31
:1002F0006D20000A002E0025200A00424D453238AC
:10030000302048756D69646974793A200043200A89
:1003100000424D453238302054656D70657261740D
:100320007572653A20000002040E010F110F0002E1
:10033000040E111F100E000204000C04040E000233
:10034000040E1111110E00050A0E1111110E0002FA
:1003500004001111130D00050A001111130D00FF07
:100360004C434420686174746572004D656E75205D
:1003700069646F7A69746F20286D7029004B696B0E
:10038000617063736F6C76610042656B617063735B
:100390006F6C7661005465737A74757A656D004B85
:1003A000690042650047617A20616C6C61706F740E
:1003B000004B690042650050756666657220737A6D
:1003C000697661747479750047617A005075666664
:1003D000657200507566666572202F2067617A200D
:1003E000737A656C6570004B6900426500456D6508
:1003F0006C65746920737A656C6570004B690042A6
:100400006500466F6C64737A696E746920737A65EF
:100410006C6570004B6900426500484D5620737A48
:10042000656C657020616C6C61706F7400507566EE
:1004300066657220737A656E7A6F72204944004552
:100440006C6F72656D656E6F20686F6D00507566BC
:1004500066657220616B7420686F6D00484D562090
:10046000737A656E7A6F7220494400484D56206D4C
:10047000696E20686F6D00484D56206B6976616E1D
:100480007420686F6D00484D5620616B7420686F52
:100490006D00424D45323830206B6976616E7420B4
:1004A000686F6D00424D45323830206D696E2068AE
:1004B0006F6D00424D4532383020706172610042EC
:1004C0004D4532383020686F6D0011241FBECFEFCC
:1004D000D0E1DEBFCDBF13E0A0E0B1E0EEE9F1E393
:1004E00002C005900D92A43EB107D9F724E0A4EE16
:1004F000B3E001C01D92A83FB207E1F70E949C0C37
:100500000C94CD180C940000CF93DF93C82F8CEE81
:100510000E94A107811111C08C2F0E94C6070E9462
:10052000EE078DEE0E94A10781110AC00E94E30729
:10053000C82FD0E00E94EE0705C0C0E0D0E002C0A6
:10054000C0E0D0E0CE01DF91CF910895CF93DF934B
:10055000C82F8CEE0E94A107811118C08C2F0E9419
:10056000C6070E94EE078DEE0E94A107811111C0FF
:100570000E94D807C82FD0E0DC2FCC270E94E307C9
:10058000C82B0E94EE078C2F9D2F05C080E090E0C5
:1005900002C080E090E0DF91CF9108950E94A60212
:1005A0009827892798270895CF92DF92EF92FF929C
:1005B000F82E8CEE0E94A10781112EC08F2D0E9473
:1005C000C6070E94EE078DEE0E94A10781111BC095
:1005D0000E94D807C82ED12CE12CF12CFE2CED2C3A
:1005E000DC2CCC240E94D807C82AFE2CED2CDC2C55
:1005F000CC240E94E307C82A0E94EE076C2D7D2DB3
:100600008E2D9F2D0DC084E091E00E94001560E0CA
:1006100070E080E090E004C060E070E080E090E096
:10062000FF90EF90DF90CF9008950F931F93CF939B
:10063000DF9388E80E94CE02C4E7D4E099838883E0
:100640008AE80E94CE029B838A838CE80E94CE02B5
:100650009D838C838EE80E94CE029F838E8380E9E7
:100660000E94CE029987888782E90E94CE029B87EA
:100670008A8784E90E94CE029D878C8786E90E9442
:10068000CE029F878E8788E90E94CE02998B888B45
:100690008AE90E94CE029B8B8A8B8CE90E94CE0253
:1006A0009D8B8C8B8EE90E94CE029F8B8E8B81EA74
:1006B0000E948402888F81EE0E94CE029A8F898FD9
:1006C00083EE0E9484028B8F84EE0E9484028C0150
:1006D00085EE0E94840202951295107F1027007FFC
:1006E00010278F709927802B912B9D8F8C8F86EEF2
:1006F0000E9484028C0185EE0E948402029512956C
:10070000107F1027007F1027929582958F70892780
:100710009F708927802B912B9F8F8E8F87EE0E9451
:10072000840288A3DF91CF911F910F9108958CEEE1
:100730000E94A10781111EC082EF0E94C60785E0BA
:100740000E94C60784EF0E94C60787EB0E94C60777
:1007500080ED0E94C6070E9415030E94EE078DEEF1
:100760000E94A107811106C00E94E3070E94E014C5
:100770000E94EE0708958F929F92AF92BF92CF9200
:10078000DF92EF92FF920F931F938AEF0E94D402A1
:10079000E4E7F4E00081118120E030E0C72ED82E9C
:1007A000E92EFF24E7FCFA94C01AD10AE20AF30A00
:1007B000DC01CB01689416F8B595A79597958795B8
:1007C0001694D1F7000F111F221F331F4C015D013A
:1007D000801A910AA20AB30AA5019401A281B381E9
:1007E0000E9468184B015C01072E7BE0B594A7942A
:1007F000979487947A95D1F7702DA7019601C70138
:10080000B6010E9447189B01AC01012E1CE05595D2
:100810004795379527951A95D1F7102DA481B58165
:100820000E946818DC01CB01072E7EE0B595A795E4
:10083000979587957A95D1F7702D880D991DAA1DEA
:10084000BB1D8093950490939604A0939704B09356
:1008500098048C019D01000F111F221F331F000FF0
:10086000111F221F331F800F911FA21FB31F80581B
:100870009F4FAF4FBF4F692F7A2F8B2F99270E9421
:10088000231720E030E048EC52E40E947B161F91D1
:100890000F91FF90EF90DF90CF90BF90AF909F901F
:1008A0008F9008954F925F926F927F928F929F9256
:1008B000AF92BF92CF92DF92EF92FF920E94BB0362
:1008C0008DEF0E94A6028090950490909604A090CF
:1008D0009704B09098042CE2921A21E0A20AB10881
:1008E0006C01E12CF12C0B2EBEE0CC0CDD1CEE1CBF
:1008F000FF1CBA95D1F7B02DE4E7F4E0848D958D17
:10090000092E000CAA0BBB0B072E74E1880F991F50
:10091000AA1FBB1F7A95D1F7702DC81AD90AEA0A07
:10092000FB0AA68DB78DA50194010E946818C61A0E
:10093000D70AE80AF90A30E4D30EE11CF11C0B2EA9
:10094000BFE0F594E794D794C794BA95D1F7B02D4A
:10095000A38DB0E0A50194010E945D182B013C011C
:10096000032E3BE075946794579447943A95D1F7DA
:10097000302D40E8540E611C711CA0A10A2E000C01
:10098000BB0BA50194010E946818052E5AE09595AD
:100990008795779567955A95D1F7502DA3019201C8
:1009A0000E944718DC01CB01072E7AE0B595A79588
:1009B000979587957A95D1F7702D9C01AD01405E92
:1009C0005F4FA18DB28D0E946818DC01CB01905E53
:1009D000AF4FBF4FBC01CD01052E5EE095958795C9
:1009E000779567955A95D1F7502DA70196010E94EA
:1009F00047186B017C01052E5FE0959587957795EB
:100A000067955A95D1F7502D9B01AC010E9447186C
:100A10009B01AC01689416F8559547953795279535
:100A20001694D1F7A08DB0E00E945D18DC01CB01D7
:100A3000689413F8B595A795979587951694D1F76F
:100A4000A7019601281B390B4A0B5B0BDA01C90180
:100A50001AF480E090E0DC0181309105A10539E1D4
:100A6000B30724F080E090E0A0E0B9E1BC01CD0143
:100A7000052E5CE095958795779567955A95D1F702
:100A8000502D0E94251720E030E040E85AE30E94F4
:100A9000B617FF90EF90DF90CF90BF90AF909F90F0
:100AA0008F907F906F905F904F90089561157105C2
:100AB000A9F0FC01680F791F80E048E1219198E0DE
:100AC000382F322730FF0CC0842786958068269502
:100AD0009150B1F7E617F70789F7089580E0089578
:100AE0008695F5CF0F931F93CF93DF93DB01EC91A6
:100AF00011969C911197F0E0F92B803181F4EE7FF3
:100B0000EE0FFF1FEE0FFF1FEE0FFF1F16969C91BB
:100B100016976CE070E0691B7109E60FF71FFF2361
:100B20003CF491E0EA019883F195E195F10902C066
:100B3000EA011882883279F414968C91982F907675
:100B4000903649F086FF02C0EE7F05C085FF02C0E7
:100B5000EC7F01C0E87FCF01929582958F70892745
:100B60009F708927D9018C93EF70E801E88380E0BA
:100B7000DF91CF911F910F9108950F931F93CF9302
:100B8000DF93EC018B01B80188810E941F078883E5
:100B900081508D3F30F4F8018081883211F080312E
:100BA00091F7DF91CF911F910F9108950F931F93AC
:100BB000CF93C82F8B010E946B060E944F0688239B
:100BC00051F0B80184E40E947907C13031F00E94ED
:100BD000580680E003C082E001C080E0CF911F9101
:100BE0000F9108956F927F928F929F92AF92BF92D2
:100BF000CF92DF92EF92FF920F931F93CF93DF93E9
:100C0000CDB7DEB729970FB6F894DEBF0FBECDBFC4
:100C10006C015B013A0149010E946B06B6018EEB43
:100C20000E9479078E010F5F1F4F7E018AE0E80E58
:100C3000F11C0E941B07F80181938F01EE15FF053F
:100C4000C1F769E070E0CE0101960E945605F82ECA
:100C500081110BC084019301A501BE016F5F7F4F1D
:100C6000F60180810E94720504C00F2EF3E0FF2E72
:100C7000F02D8F2D29960FB6F894DEBF0FBECDBF95
:100C8000DF91CF911F910F91FF90EF90DF90CF9068
:100C9000BF90AF909F908F907F906F900895E0915C
:100CA0009C04F0919D04908180919B048923089578
:100CB000E0919904F0919A04908180919B04892B92
:100CC0008083E0919E04F0919F04908180919B0429
:100CD000892B80830895E0919904F0919A04908182
:100CE00080919B04809589238083E0919E04F091FC
:100CF0009F04908180919B04892B80838FE897E0EB
:100D00008115910511F00197F1F72FB7F894E09153
:100D10009E04F0919F04908180919B04809589238B
:100D2000808389E091E08115910511F00197F1F739
:100D3000E0919C04F0919D04308180919B042FBF31
:100D4000E5E8F6E0E115F10511F03197F1F7E091F2
:100D50009C04F0919D04208190919B04922311F0BA
:100D60008323089581E0089550939F0440939E0447
:100D700070939A046093990490939D0480939C04CB
:100D800081E001C0880F2A95EAF780939B040E94B6
:100D90006B0608953FB7F894E0919E04F0919F048C
:100DA000208190919B04922B9083E3E0F0E0E11589
:100DB000F10511F03197F1F7882351F0E0919E048D
:100DC000F0919F04208190919B04909592239083B1
:100DD000E8E3F0E0E115F10511F03197F1F7E0916A
:100DE0009C04F0919D04208190919B04292309F497
:100DF00080E0E5EBF0E0E115F10511F03197F1F756
:100E0000E0919E04F0919F0420819095922390831D
:100E10003FBF0895CF93DF93C82FD8E08C2F817008
:100E20000E94CA06C6958111C068D150B9F78C2FAF
:100E3000DF91CF9108958FEF0E940A070895DF9206
:100E4000EF92FF920F931F93CF93DF93D82E8B01D6
:100E50000E946B0681112BC080EF0E940A07E12CD3
:100E6000C0E40F2EF8EFFF2EF02DFC0E81E00E9463
:100E7000CA06D82F81E00E94CA06882319F0DD2314
:100E8000D1F017C0D11124C0CD15E8F0F801808150
:100E900080FF11C0CD111AC00EC0C150FC12E6CFA8
:100EA0000F5F1F4FCF2DF110DCCF8E2D1AC08FEFAB
:100EB00018C08EEF16C080E00E94CA06F80190812B
:100EC00096959083EACFEC2ED1E002C0EC2ED1E0D3
:100ED0008D2F0E94CA06F8019081969590689083A4
:100EE000DCCFDF91CF911F910F91FF90EF90DF90BA
:100EF0000895FF920F931F93CF93DF93F82EEB018A
:100F00000E946B06209769F085E50E940A078E0112
:100F1000085F1F4F89910E940A07C017D107D1F7B8
:100F200003C08CEC0E940A078F2D0E940A07DF91F4
:100F3000CF911F910F91FF9008958EE280937000E2
:100F40000895E4E7F0E0108294EA90839081992379
:100F5000ECF790917100987F9830A1F48093730022
:100F600084E880937400E4E7F0E080818823ECF764
:100F700090917100987F983139F081E0903429F494
:100F800080E0089581E0089580E0089580937300E3
:100F900084E880937400E4E7F0E080818823ECF734
:100FA00090917100987F81E0983209F480E0089573
:100FB00084EC80937400E4E7F0E080818823ECF710
:100FC00080917300089584E880937400E4E7F0E072
:100FD00080818823ECF780917300089584E98093E1
:100FE00074000895AD9A00C000C0AD980895CF93E5
:100FF000C82F662311F0AF9A01C0AF98AE98A49A9B
:10100000A39AA29AA19AA998AA98AB98AC98CC2333
:101010000CF4A99AC6FDAA9AC5FDAB9AC4FDAC9A78
:101020000E94F207A998AA98AB98AC98C3FDA99A18
:10103000C2FDAA9AC1FDAB9AC0FDAC9A0E94F2070C
:10104000AC9AAB9AAA9AA99ACF910895882311F0E5
:10105000AF9A01C0AF98AE9AA498A398A298A1980D
:10106000AD9A00C000C09C9B02C080E101C080E03E
:101070009B9980629A99806499998068AD9800C024
:1010800000C0AD9A00C000C09C9981609B998260AD
:101090009A99846099998860AD98089580E00E943B
:1010A00026088823DCF388E090E00197F1F780E0E0
:1010B0000E9426080895CF93C82F0E944E0860E032
:1010C0008C2F0E94F707CF910895611104C08058BA
:1010D0000E945B080895613021F480540E945B08EF
:1010E0000895623021F48C560E945B0808958C525A
:1010F0000E945B08089581E00E945B080895CF93E9
:10110000C82F0E944E08CA30A1F4843148F090ECF8
:10111000980F943138F084518C3230F080E005C063
:1011200080E403C084E101C084E580580E945B082C
:1011300004C061E08C2F0E94F707CF910895CF93F0
:10114000DF93EC012196FC018081882329F00E9425
:101150007F0889918111FBCFDF91CF9108951F9373
:10116000CF93DF93182FA79AA69AA59AA49AA39A29
:10117000A29AA19A80E09AEF0197F1F7AB9AAC9A04
:101180000E94F20780E09EE40197F1F70E94F207C7
:10119000C0E0D1E0CE010197F1F70E94F207CE0145
:1011A0000197F1F7AC980E94F2072197F1F788E2D6
:1011B0000E945B0888E00E945B080E947B0886E032
:1011C0000E945B08812F0E945B08DF91CF911F91E5
:1011D0000895CF93DF93EC01AF98FC018491877061
:1011E000880F880F880F80640E947F08AF9A9E0145
:1011F0002E5F3F4FFE01319684918F3F41F0E90110
:101200000E947F08FE01849121968F3FC9F7AF9815
:10121000AF9ADF91CF910895CF93DF93D82FC8E095
:10122000DD2324F481E30E947F0803C080E30E9451
:101230007F08DD0FC150A1F7DF91CF910895CF93C3
:10124000DF9300D000D0CDB7DEB74AE0BE016F5FBC
:101250007F4F0E947F18CE0101960E949F080F9039
:101260000F900F900F90DF91CF910895482F50E08D
:10127000FA01E15CF109EC33F105A8F4EA5BFF4FF8
:101280000C9457188FEE0FC085EF0DC080E00BC097
:1012900081E009C082E007C083E005C084E003C0AC
:1012A00085E001C086E00E947F080895CF93DF9318
:1012B000EC012196FC018491882339F00E943609C3
:1012C000FE01849121968111F9CFDF91CF9108958C
:1012D0001F920F920FB60F9211248F939F9384B198
:1012E00095B10A9738F48AE090E090938300809358
:1012F000820006C084B195B19093830080938200F0
:101300009F918F910F900FBE0F901F9018951F9275
:101310000F920FB60F9211248F938091E903809161
:10132000E9038F5F8093E9038F910F900FBE0F90B9
:101330001F9018951F93CF93DF9300D01F92CDB7C6
:10134000DEB78091E8038130B1F138F0823009F4E2
:1013500060C0833009F483C0F8C00E94BB0360936F
:10136000B4047093B5048093B6049093B70440918D
:10137000B4045091B5046091B6047091B70422E0B2
:1013800030E082EA94E00E9485158091E70388238B
:1013900061F081E193E00E94001582EA94E00E94EE
:1013A000F1148DE093E00E9400158091E8038F5FB7
:1013B0008093E803CCC00E9452046093EB047093C6
:1013C000EC048093ED049093EE044091EB04509173
:1013D000EC046091ED047091EE0422E030E08FEEB9
:1013E00094E00E9485158091E703882361F08BEFDC
:1013F00092E00E9400158FEE94E00E94F11487EFB6
:1014000092E00E9400158091E8038F5F8093E803CB
:101410009EC020E047E350E068E370E086E390E0A0
:101420000E94B4068091A104882399F010E0612FF6
:1014300070E0660F771F660F771F660F771F665481
:101440007B4F81E00E94D6051F5F8091A104181791
:1014500070F38091E8038F5F8093E80378C020E009
:1014600047E350E068E370E086E390E00E94B40652
:101470008091A104882309F462C010E0812F90E0DC
:10148000880F991F880F991F880F991F9E012D5F44
:101490003F4FAE014E5F5F4FBE016F5F7F4F86547F
:1014A0009B4F0E94F205811118C08091E7038823A9
:1014B000A1F0898190E00E946A158A8190E00E94E3
:1014C0006A1585EF92E00E9400158B8190E00E94E2
:1014D0006A1583EF92E00E9400158091E403811366
:1014E00012C08A818093B3048091B3044AE06FEA0A
:1014F00074E090E00E947F188B814AE068EA74E013
:1015000090E00E947F1880910001811312C08A81AF
:101510008093B9048091B9044AE06BEA74E090E0EA
:101520000E947F188B814AE065EF74E090E00E9492
:101530007F181F5F8091A104181708F49FCF809136
:10154000E8038F5F8093E80302C01092E803809164
:10155000050181114BC00E947B088AEE92E00E9437
:1015600056098FEA94E00E949F0885E492E00E9469
:101570009F0888EA94E00E949F0887E492E00E9416
:101580009F0861E080E00E9465088DED92E00E9476
:1015900056098BEA94E00E949F0885E492E00E943D
:1015A0009F0885EF94E00E949F0887E492E00E94E4
:1015B0009F0862E080E00E9465088FEC92E00E9444
:1015C000560982EA94E00E949F0887E492E00E9414
:1015D0009F0863E080E00E94650887EC92E00E942B
:1015E00056098091E5030E940C0905C08091050110
:1015F0008150809305018091E603811101C0369AE4
:101600000F900F900F90DF91CF911F910895DF926F
:10161000EF92FF920F931F93CF93DF93CDB7DEB777
:1016200029970FB6F894DEBF0FBECDBF8091E703B8
:10163000882309F43FC088E691E00E9400158FEFEF
:1016400089870F2EFAEBEF2EF4E0FF2EF02DD12C30
:101650008E01075F1F4FBE016F5F7F4FC8010E9461
:10166000BD0599859F3F49F48091E703882329F1BF
:1016700087E591E00E94001520C09E3F49F48091CB
:10168000E7038823D1F08CE491E00E94001515C097
:10169000FE013196D70181918D93E017F107D9F7BB
:1016A000D394992351F088E0E80EF11C86E0D8121B
:1016B000D2CF03C08FEF8987C4CF8D2D29960FB667
:1016C000F894DEBF0FBECDBFDF91CF911F910F9178
:1016D000FF90EF90DF9008950E944F146091E50312
:1016E00081E00E9463140E945E140895CF92DF92FD
:1016F000EF92FF929091B3048091B804891790F112
:101700009091B3048091A004891760F19091B9047D
:101710008091B304891798F08091E50380698093E4
:10172000E5038091E5038F798093E5038091E703DA
:10173000882329F18AEA92E00E94001520C0809156
:10174000E50380678093E5038091E5038F778093BD
:10175000E5038091E703882391F08AE892E00E94F4
:1017600000150DC08091E5038F708093E503809193
:10177000E703882321F084E792E00E9400151E9B76
:1017800018C01F9B16C060910301C090B404D09094
:10179000B504E090B604F090B70470E080E090E00B
:1017A0000E942517A70196010E94B11718160CF088
:1017B0006CC08091E50384FD68C09091B90480916C
:1017C0000201981798F48091E50380688093E503FF
:1017D0008091E5038F788093E5038091E703882368
:1017E000B9F087E492E00E94001512C08091E503F1
:1017F0008F768093E5038091E50380668093E5030F
:101800008091E703882321F088E192E00E9400158F
:101810001E990DC08091E50384608093E50380915B
:10182000E703882321F082E092E00E9400151E9BCE
:101830000DC08091E5038B7F8093E5038091E703E2
:10184000882321F08AEE91E00E9400151F990DC0B7
:101850008091E50388608093E5038091E703882306
:1018600021F083ED91E00E9400151F9B1BC0809129
:10187000E503877F8093E5038091E703882391F058
:101880008AEB91E00E9400150DC08091E5038F71F5
:101890008093E5038091E703882321F08AE791E0B4
:1018A0000E9400150E946C0BFF90EF90DF90CF908C
:1018B000089581E090E00E94B4188093E40384E0EE
:1018C00090E00E94B4188093A00483E090E00E940E
:1018D000B4188093EA0482E090E00E94B4188093E8
:1018E000B80480E090E00E94B4188093000181E089
:1018F00091E00E94B4188093020186E090E00E947B
:10190000B4188093040185E090E00E94B41880939D
:10191000030189E090E00E94B4188093E70388E017
:1019200090E00E94B4188093060187E090E00E9446
:10193000B4188093E60308950E94590C8091060123
:10194000809305018CE00E94AF0886E293E00E943C
:10195000E9080E947B088AE492E00E949F0887E6DB
:1019600090E00E94CA14E1E6F0E080818E7F8083DF
:10197000E2E6F0E080818E7F8083A09A169883B1A2
:10198000806C83B91092E5030E946C0B61E080E0EB
:101990000E9465088EE592E00E949F0862E080E068
:1019A0000E946508CAE088E70E947F082FEF83ED58
:1019B00090E3215080409040E1F700C00000C1500A
:1019C00091F70E947B0882E792E00E949F080E94A4
:1019D0009D0761E080E00E9465088EE792E00E942A
:1019E0009F080E949703789489E391E00E94001574
:1019F000A89581B5886181BD81B5876081BD20E0F2
:101A000047E350E068E370E086E390E00E94B406AC
:101A10000E94070B8093A1048091E703882369F05B
:101A200082E391E00E9400158091A10490E00E9461
:101A30006A1580E291E00E94001562E080E00E9459
:101A400065088DE892E00E949F088091A10490E0D3
:101A50000E941F0987E992E00E949F082FEF8BE701
:101A600092E9215080409040E1F700C00000EBE88F
:101A7000F0E0808189608083EAE8F0E080818B601B
:101A8000808380E890E09093830080938200159A91
:101A90001D9A63E080E00E9465088EB584608EBD6B
:101AA0001DBC1CBC84E294EF9BBD8ABD87B78061DE
:101AB00087BF86B18F6C86B90E94EF0D8091E903D4
:101AC000813081F48091E9038F5F8093E9030E9464
:101AD0009A098091E703811102C00E94760BA895B4
:101AE0001092E9030E94F40DE9CFEF92FF920F9359
:101AF0001F93CF93DF930E947B080E944314EC0155
:101B00000E944614E0911B01F0911C0196819923DB
:101B1000A1F0A081B1811696AC9187E0A89FD00179
:101B20001124A35EBE4F12960D90BC91A02D179666
:101B3000CD91DC91189716968C9124819581291B63
:101B4000E82EF12C1E141F04A4F530E08901000FCB
:101B5000111F000F111F000F111F200F311F8E01C9
:101B6000020F131FC0E0D0E06C2F80E00E946508D8
:101B7000E0911B01F0911C01858190E08C179D077D
:101B800021F48EE30E947F0803C080E20E947F0858
:101B900080E20E947F08F801808191810E949F0865
:101BA0002196CE15DF0529F0075F1F4FC430D10500
:101BB000D9F6DF91CF911F910F91FF90EF9008958B
:101BC000EDE1F1E0F0931C01E0931B011182108222
:101BD00013821282148215820E94750D08950E944C
:101BE00048140E94E00D08957F928F929F92AF92C9
:101BF000BF92CF92DF92EF92FF920F931F93CF93FA
:101C0000DF93C7E0D1E00BE111E0AA24A394B12C4B
:101C1000812C912C772473940F2EF9E3CF2EF1E0D1
:101C2000DF2EF02D0F2EFDE1EF2EF1E0FF2EF02D37
:101C3000DE0120B330E0098002C0359527950A9473
:101C4000E2F78A2D9B2D20FF02C0882D992D129638
:101C50002D913C911397220F331F306E282B392B77
:101C600013963C932E9312972115304F09F009C11A
:101C700014967C9214978091060180930501A89A8E
:101C800040911B0150911C01FA019681943009F496
:101C9000D3C08C918130C1F038F0823009F442C059
:101CA000833009F4A0C0AFC08481882309F4B4C094
:101CB0009581911103C081508483AEC09150FA0187
:101CC000958381508483A8C00E944614E0911B0133
:101CD000F0911C019681992309F4DCC04481242FE2
:101CE00030E0A081B1811696AC9187E0A89FD00129
:101CF0001124A35EBE4F12960D90BC91A02D169696
:101D00008C9190E00197281739070CF07CC08581F1
:101D1000833019F44F5F448376C08F5F85834F5FB4
:101D2000448371C00E944314A0911B01B0911C0117
:101D300016964C911697442379F0ED91FC911197EA
:101D4000E68127E0E29FF0011124E35EFE4F02806E
:101D5000F381E02D8781908514965C911497252F4F
:101D600030E0F901EE0FFF1FEE0FFF1FEE0FFF1F18
:101D70002E0F3F1F280F391FF90182819381892B74
:101D800081F013963C932E931297D0921C01C0922F
:101D90001B01F701B58FA48F378F268F50A311A297
:101DA00032C0F90187819085892B69F113963C93A4
:101DB0002E931297842F90E00196FC01EE0FFF1FE7
:101DC000EE0FFF1FEE0FFF1FE81BF90BE35EFE4F48
:101DD000F0931C01E0931B01B183A0831382128254
:101DE0001482158210C09923B9F00190F081E02D82
:101DF0008681B7E08B9FC0011124835E9E4F909334
:101E00001C0180931B01A0911B01B0911C0116962F
:101E10008C911697843019F00E94750D35C0ED91A4
:101E2000FC9111970280F381E02D0280F381E02D77
:101E300014968C91099528C0FA0180819181FC014A
:101E400082819381FC0124813581FA016481CD0175
:101E5000F90109958823C1F0E0911B01F0911C0163
:101E60000190F081E02D8681F7E08F9FC001112461
:101E7000835E9E4F90931C0180931B010E94750D01
:101E800003C014961C92A8982596C017D10709F094
:101E9000CFCE0AC04481242F30E090E0019728176C
:101EA00039070CF434CFB8CFDF91CF911F910F9148
:101EB000FF90EF90DF90CF90BF90AF909F908F906A
:101EC0007F9008950E947B088AE194E00E94560961
:101ED00061E080E00E9465088091E50384FF05C011
:101EE00087E194E00E945609089584E194E00E94FD
:101EF000560908950E947B0882E094E00E945609EA
:101F000061E080E00E9465088091E50382FF05C0E2
:101F10008FEF93E00E94560908958CEF93E00E94A2
:101F2000560908950E947B088DEE93E00E945609A1
:101F300061E080E00E9465088091E50383FF05C0B1
:101F40008AEE93E00E945609089587EE93E00E947E
:101F5000560908950E947B0883ED93E00E9456097C
:101F600061E080E00E9465088091E50385FF05C07F
:101F70008CEC93E00E945609089588EC93E00E944F
:101F8000560908950E947B0887EB93E00E9456094A
:101F900061E080E00E9465088091E50386FF05C04E
:101FA00084EB93E00E945609089581EB93E00E9430
:101FB000560908950E947B0885EA93E00E9456091D
:101FC00061E080E00E9465088091E50388232CF49D
:101FD00082EA93E00E94560908958FE993E00E94F7
:101FE000560908950E947B0885E993E00E945609EE
:101FF00061E080E00E9465088091E703882329F072
:1020000089E893E00E94560908958DE793E00E94C5
:10201000560908950E947B088FEB94E00E945609B0
:1020200061E080E00E94650882EA94E00E949F08D7
:102030000895FC018081833029F0862F0E940A10C8
:1020400080E0089581E008950E947B0883EB94E08E
:102050000E94560961E080E00E9465088FEE94E0DE
:102060000E949F080895FC018081833029F0862F0B
:102070000E94241080E0089581E00895CF93DF93BB
:10208000CDB7DEB72A970FB6F894DEBF0FBECDBF2F
:10209000809104014AE0BE016F5F7F4F90E00E9493
:1020A0007F180E947B0884EA94E00E94560961E050
:1020B00080E00E946508CE0101960E949F082A9642
:1020C0000FB6F894DEBF0FBECDBFDF91CF9108955C
:1020D000CF93DF93CDB7DEB72A970FB6F894DEBF64
:1020E0000FBECDBF809103014AE0BE016F5F7F4FFD
:1020F00090E00E947F180E947B0882E994E00E9491
:10210000560961E080E00E946508CE0101960E94B8
:102110009F082A960FB6F894DEBF0FBECDBFDF91A1
:10212000CF910895CF93DF93CDB7DEB727970FB642
:10213000F894DEBF0FBECDBF8091B3044AE0BE016C
:102140006F5F7F4F90E00E947F180E947B0886E8B7
:1021500094E00E94560961E080E00E946508CE018B
:1021600001960E949F0827960FB6F894DEBF0FBE17
:10217000CDBFDF91CF910895FC018081833029F09C
:10218000862F0E94921080E0089581E00895CF93F9
:10219000DF93CDB7DEB727970FB6F894DEBF0FBE3B
:1021A000CDBF8091A0044AE0BE016F5F7F4F90E0F9
:1021B0000E947F180E947B0887E794E00E945609DE
:1021C00061E080E00E946508CE0101960E949F08B0
:1021D00027960FB6F894DEBF0FBECDBFDF91CF912B
:1021E0000895CF93DF93CDB7DEB72A970FB6F89453
:1021F000DEBF0FBECDBF8091B8044AE0BE016F5F65
:102200007F4F90E00E947F180E947B088BE694E04D
:102210000E94560961E080E00E946508CE010196A7
:102220000E949F082A960FB6F894DEBF0FBECDBF5E
:10223000DF91CF910895CF93DF9300D000D0CDB739
:10224000DEB70E947B088CE594E00E94560961E0AD
:1022500080E00E9465088091E4034AE0BE016F5F60
:102260007F4F90E00E947F18CE0101960E949F0848
:102270000F900F900F900F90DF91CF910895CF9313
:10228000DF93CDB7DEB727970FB6F894DEBF0FBE4A
:10229000CDBF8091B9044AE0BE016F5F7F4F90E0EF
:1022A0000E947F180E947B088DE494E00E945609EA
:1022B00061E080E00E946508CE0101960E949F08BF
:1022C00027960FB6F894DEBF0FBECDBFDF91CF913A
:1022D0000895FC018081833029F0862F0E943F11F0
:1022E00080E0089581E00895CF93DF93CDB7DEB706
:1022F0002A970FB6F894DEBF0FBECDBF80910201C2
:102300004AE0BE016F5F7F4F90E00E947F180E94FD
:102310007B088FE394E00E94560961E080E00E9410
:102320006508CE0101960E949F082A960FB6F89480
:10233000DEBF0FBECDBFDF91CF910895CF93DF9366
:1023400000D000D0CDB7DEB70E947B088DE294E0CC
:102350000E94560961E080E00E94650880910001BA
:102360004AE0BE016F5F7F4F90E00E947F18CE0170
:1023700001960E949F080F900F900F900F90DF9191
:10238000CF910895CF93DF9300D000D0CDB7DEB7C3
:102390000E947B088BE693E00E945609809106011B
:1023A0004AE0BE016F5F7F4F90E00E947F18CE0130
:1023B00001960E949F080F900F900F900F90DF9151
:1023C000CF910895CF93DF9300D000D0CDB7DEB783
:1023D0000E947B0880E693E00E94560961E080E05D
:1023E0000E9465088091E6034AE0BE016F5F7F4F5F
:1023F00090E00E947F18CE0101960E949F080F90E6
:102400000F900F900F90DF91CF910895FC01908174
:10241000913061F028F0923079F09330D1F014C00F
:10242000809104018F5F809304010EC080910401AC
:1024300081508093040108C06091040186E090E01F
:102440000E94BC1881E00895862F0E943E1080E013
:10245000089581E00895FC019081913061F028F0A9
:10246000923079F09330D1F014C0809103018F5FE6
:10247000809303010EC0809103018150809303017A
:1024800008C06091030185E090E00E94BC1881E0E3
:102490000895862F0E94681080E0089581E00895D5
:1024A000FC019081913061F028F0923079F0933006
:1024B000D1F014C08091A0048F5F8093A0040EC05F
:1024C0008091A00481508093A00408C06091A00472
:1024D00084E090E00E94BC1881E00895862F0E945D
:1024E000C71080E0089581E00895FC01908191304B
:1024F00061F028F0923079F09330D1F014C08091DF
:10250000B8048F5F8093B8040EC08091B8048150E6
:102510008093B80408C06091B80482E090E00E9403
:10252000BC1881E00895862F0E94F11080E0089584
:1025300081E00895FC0190819130A1F028F0923063
:1025400001F1933059F125C08091E4038F5F8093AE
:10255000E4039091E4038091A10498131AC01092AF
:10256000E40317C08091E40381508093E4038091D9
:10257000E4038F3F71F48091A10481508093E403C0
:1025800008C06091E40381E090E00E94BC1881E003
:102590000895862F0E941B1180E0089581E0089520
:1025A000FC019081913061F028F0923079F0933005
:1025B000D1F014C08091B8048F5F8093B8040EC02E
:1025C0008091B80481508093B80408C060910201E2
:1025D00081E091E00E94BC1881E00895862F0E945E
:1025E000741180E0089581E00895FC01908191309C
:1025F000A1F028F0923001F1933059F125C080917B
:1026000000018F5F80930001909100018091A104EF
:1026100098131AC01092000117C0809100018150D8
:1026200080930001809100018F3F71F48091A1049B
:1026300081508093000108C06091000180E090E02B
:102640000E94BC1881E00895862F0E949E1180E0B0
:10265000089581E00895FC019081913061F028F0A7
:10266000923079F09330D1F014C08091E7038F5FFE
:102670008093E7030EC08091E70381508093E703C6
:1026800008C06091E70389E090E00E94BC1881E0F7
:102690000895862F0E94F20F80E0089581E008954A
:1026A000FC019081913061F028F0923079F0933004
:1026B000D1F014C0809106018F5F809306010EC097
:1026C0008091060181508093060108C06091060147
:1026D00088E090E00E94BC1881E00895862F0E9457
:1026E000C21180E0089581E00895FC01908191304D
:1026F00061F028F0923079F0933029F114C0809184
:10270000E6038F5F8093E6030EC08091E60381505D
:102710008093E60308C06091E60387E090E00E94A2
:10272000BC1881E008958091E603882339F08091F8
:10273000E60390E09093830080938200862F0E94AE
:10274000E21180E0089581E00895CF93C62FFC0147
:102750008081823018F0843090F416C08091E503B7
:1027600082FF06C08091E5038F7E8093E50305C05C
:102770008091E50380618093E5030E946C0B8C2FB0
:102780000E94620F80E001C081E0CF910895CF9355
:10279000C62FFC018081823018F0843048F40DC0CF
:1027A0009091E50384E089278093E5030E946C0BF8
:1027B0008C2F0E947A0F80E001C081E0CF910895B4
:1027C000CF93C62FFC018081823018F0843048F40A
:1027D0000DC09091E50388E089278093E5030E946E
:1027E0006C0B8C2F0E94920F80E001C081E0CF9192
:1027F0000895CF93C62FFC018081823018F0843079
:1028000048F40DC09091E50380E289278093E503A9
:102810000E946C0B8C2F0E94AA0F80E001C081E007
:10282000CF910895CF93C62FFC018081823018F09C
:10283000843048F40DC09091E50380E489278093AB
:10284000E5030E946C0B8C2F0E94C20F80E001C038
:1028500081E0CF910895CF93C62FFC018081823013
:1028600018F0843040F40CC08091E50380588093C8
:10287000E5030E946C0B8C2F0E94DA0F80E001C0F0
:1028800081E0CF91089580E491E0089585E0089576
:1028900081B38F7081BB82B3806F82BB089587B391
:1028A000876087BB88B3896088BB8BB38FEF8BBB96
:1028B0009AB38ABB8DB183658DB908956E9887B33D
:1028C000897F87BB08954BB321E030E0F90102C056
:1028D000EE0FFF1F8A95E2F7CF012E2F209542239E
:1028E0004BBB6FB9779BFECF9BB3892B8BBB8FB153
:1028F00008951F920F920FB60F9211242F938F936A
:102900009F93EF93FF938BB12CB18C71E0913104C5
:10291000EF5FEF7190913004E91739F0E0933104E3
:10292000F0E0EC5CFB4F208301C082E090912F042B
:10293000892B80932F04FF91EF919F918F912F917D
:102940000F900FBE0F901F9018951F920F920FB609
:102950000F9211248F939F93EF93FF9390913304E1
:1029600080913204981761F0E0913204EF5FEF71CB
:10297000E0933204F0E0EC5AFB4F80818CB901C047
:102980005598FF91EF919F918F910F900FBE0F90EF
:102990001F90189510923304109232041092310453
:1029A00010923004992314F422E02BB9907890937C
:1029B000900089B988E98AB986E0809395000895E6
:1029C000209133042F5F2F71909132042917E1F386
:1029D000E22FF0E0EC5AFB4F808320933304559AAA
:1029E0000895CF93DF93EC018881882331F02196FD
:1029F0000E94E01489918111FBCFDF91CF9108955E
:102A0000CF93DF93EC012196FC018491882339F068
:102A10000E94E014FE01849121968111F9CFDF918B
:102A2000CF9108951F920F920FB60F9211242F93FA
:102A30008F939F93EF93FF9380919B0020919C0035
:102A40008C71E091EC03EF5FEF719091EB03E9176C
:102A500039F0E093EC03F0E0E151FC4F208301C03A
:102A600082E09091EA03892B8093EA03FF91EF9132
:102A70009F918F912F910F900FBE0F901F901895DF
:102A80001F920F920FB60F9211248F939F93EF9383
:102A9000FF939091EE038091ED03981769F0E09118
:102AA000ED03EF5FEF71E093ED03F0E0E15FFB4FCB
:102AB000808180939C0005C0EAE9F0E080818F7DF1
:102AC0008083FF91EF919F918F910F900FBE0F9098
:102AD0001F901895CF93DF93CDB7DEB761970FB6F0
:102AE000F894DEBF0FBECDBF4AE0BE016F5F7F4FDF
:102AF0000E947F180E94F11461960FB6F894DEBF11
:102B00000FBECDBFDF91CF9108952F923F924F928C
:102B10005F926F927F928F929F92AF92BF92CF926D
:102B2000DF92EF92FF920F931F93CF93DF93CDB776
:102B3000DEB7A4970FB6F894DEBF0FBECDBF8C01F1
:102B40006A017B01390184E2E1E2F2E0DE011196E3
:102B500001900D928A95E1F7CB01BA010E94ED1622
:102B60004B015C014AE0B801C4010E947F18F801E2
:102B70008081882341F0C8010196FC0101962081E3
:102B80002111FBCF01C0F8018EE281931F01660C79
:102B9000771C660C771CFE01E60DF71D61817281C2
:102BA000838194810E9425172B013C01C501B4014A
:102BB0000E9425179B01AC01C701B6010E940E16A9
:102BC0009B01AC01C301B2010E94B6170E94ED1631
:102BD0009B01772324F422273327261B370B4AE057
:102BE000B101C9010E947F18C801A4960FB6F894DC
:102BF000DEBF0FBECDBFDF91CF911F910F91FF9030
:102C0000EF90DF90CF90BF90AF909F908F907F908C
:102C10006F905F904F903F902F9008955058BB2732
:102C2000AA270E9426160C9477170E94691738F07D
:102C30000E94701720F039F49F3F19F426F40C9489
:102C400066170EF4E095E7FB0C946017E92F0E94DD
:102C5000881758F3BA17620773078407950720F09F
:102C600079F4A6F50C94AA170EF4E0950B2EBA2F62
:102C7000A02D0B01B90190010C01CA01A001112482
:102C8000FF27591B99F0593F50F4503E68F11A162E
:102C9000F040A22F232F342F4427585FF3CF4695BF
:102CA00037952795A795F0405395C9F77EF41F16E1
:102CB000BA0B620B730B840BBAF09150A1F0FF0FAB
:102CC000BB1F661F771F881FC2F70EC0BA0F621F97
:102CD000731F841F48F4879577956795B795F79587
:102CE0009E3F08F0B0CF9395880F08F09927EE0F1C
:102CF0009795879508950E948F160C9477170E94D8
:102D0000701758F00E94691740F029F45F3F29F0CE
:102D10000C94601751110C94AB170C9466170E9419
:102D2000881768F39923B1F3552391F3951B550B3D
:102D3000BB27AA2762177307840738F09F5F5F4F8E
:102D4000220F331F441FAA1FA9F335D00E2E3AF0CD
:102D5000E0E832D091505040E695001CCAF72BD0E5
:102D6000FE2F29D0660F771F881FBB1F2617370736
:102D70004807AB07B0E809F0BB0B802DBF01FF2768
:102D800093585F4F3AF09E3F510578F00C946017CE
:102D90000C94AB175F3FE4F3983ED4F38695779598
:102DA0006795B795F7959F5FC9F7880F911D969521
:102DB000879597F90895E1E0660F771F881FBB1F7D
:102DC000621773078407BA0720F0621B730B840B2A
:102DD000BA0BEE1F88F7E09508950E94F4166894E8
:102DE000B1110C94AB1708950E94901788F09F576B
:102DF00098F0B92F9927B751B0F0E1F0660F771F1F
:102E0000881F991F1AF0BA95C9F714C0B13091F014
:102E10000E94AA17B1E008950C94AA17672F782F83
:102E20008827B85F39F0B93FCCF3869577956795D9
:102E3000B395D9F73EF490958095709561957F4F45
:102E40008F4F9F4F0895E89409C097FB3EF49095EB
:102E50008095709561957F4F8F4F9F4F9923A9F073
:102E6000F92F96E9BB279395F69587957795679502
:102E7000B795F111F8CFFAF4BB0F11F460FF1BC046
:102E80006F5F7F4F8F4F9F4F16C0882311F096E9D9
:102E900011C0772321F09EE8872F762F05C0662387
:102EA00071F096E8862F70E060E02AF09A95660F40
:102EB000771F881FDAF7880F9695879597F90895F9
:102EC00097F99F6780E870E060E008959FEF80ECDD
:102ED000089500240A941616170618060906089580
:102EE00000240A9412161306140605060895092EE6
:102EF0000394000C11F4882352F0BB0F40F4BF2B55
:102F000011F460FF04C06F5F7F4F8F4F9F4F089594
:102F100057FD9058440F551F59F05F3F71F047958A
:102F2000880F97FB991F61F09F3F79F0879508956F
:102F3000121613061406551FF2CF4695F1DF08C08E
:102F4000161617061806991FF1CF869571056105AB
:102F500008940895E894BB2766277727CB0197F953
:102F600008950E94231808F48FEF08950E94C9174E
:102F70000C9477170E94691738F00E94701720F0A0
:102F8000952311F00C9460170C94661711240C947F
:102F9000AB170E94881770F3959FC1F3950F50E00F
:102FA000551F629FF001729FBB27F00DB11D639FFB
:102FB000AA27F00DB11DAA1F649F6627B00DA11DA1
:102FC000661F829F2227B00DA11D621F739FB00D47
:102FD000A11D621F839FA00D611D221F749F3327B7
:102FE000A00D611D231F849F600D211D822F762F50
:102FF0006A2F11249F5750409AF0F1F088234AF02D
:10300000EE0FFF1FBB1F661F771F881F9150504098
:10301000A9F79E3F510580F00C9460170C94AB17F4
:103020005F3FE4F3983ED4F3869577956795B7951F
:10303000F795E7959F5FC1F7FE2B880F911D969539
:10304000879597F90895990F0008550FAA0BE0E8A6
:10305000FEEF16161706E807F907C0F0121613065A
:10306000E407F50798F0621B730B840B950B39F49A
:103070000A2661F0232B242B252B21F408950A2600
:1030800009F4A140A6958FEF811D811D0895DB01F4
:103090008F939F930E945D18BF91AF91A29F800D67
:1030A000911DA39F900DB29F900D11240895EE0FD6
:1030B000FF1F0590F491E02D09940E947018A59FC0
:1030C000900DB49F900DA49F800D911D1124089523
:1030D000B7FF0C945D180E945D18821B930B089536
:1030E000A29FB001B39FC001A39F700D811D112449
:1030F000911DB29F700D811D1124911D0895BB2754
:103100004A3031F4992322F4BDE2909581959F4F86
:103110000C948B18BB27FB015527AA27880F991FF2
:10312000AA1FA41710F0A41B83955051B9F7A05DF6
:10313000AA3308F0A95DA193009779F7B111B19373
:103140001192CB010C94A418DC01FC01672F719142
:103150007723E1F7329704C07C916D93708362917D
:10316000AE17BF07C8F30895E199FECF9FBB8EBB92
:10317000E09A99278DB30895262FE199FECF9FBB42
:103180008EBBE09A01970DB2021631F02DBB0FB63F
:0E319000F894E29AE19A0FBE0895F894FFCFEA
:10319E000123230F0A0A0A0006000000010700009F
:1031AE0000020500000003040000001D01000000E5
:1031BE000000000000000000000001000000000000
:1031CE0000020000000000000300000000000004E8
:1031DE009B020000000004D901A9020000000003B8
:1031EE00BE01BA020000000004FD01CC0200000086
:1031FE0000068801D20200000000036D01E402F215
:10320E000F2B13000000EE02C2115013000000FB42
:10321E0002E21175130000000603620FA5130000F1
:10322E000013037A0FC7130000002203920FE0135E
:10323E000000002E03AA0FF9130000003E03C20F78
:10324E0012140000004F03DA0F2B14000000580375
:10325E003F11691100000067037411D012000000C5
:10326E0075039E11F51200000084039210BC10002D
:10327E0000009003C71050120000009F03F110755C
:10328E0012000000AB031B119A12000000B7030AD4
:10329E00101910000000BF0324103310000000C8E6
:1032AE00033E100612000000D40368102B1200001B
:1032BE0000000000000A00000064000000E80300A7
:1032CE000010270000A086010040420F0080969853
:1032DE000000E1F5052E002043004675746573204D
:1032EE0076657A65726C65732076302E3800416C87
:1032FE006170616C6C61706F74626120616C6C6185
:10330E00730049324320696E646974617300424DE3
:10331E004532383020696E646974617300445331EC
:10332E00384232303A200020646200484D56206206
:10333E0065616C6C697461730050756666657220A8
:10334E006265616C6C69746173004B617A616E6861
:10335E00617A207465726D6F737A740052656C6554
:10336E006B0056657A65726C6F206265616C6C6974
:10337E00746173005465737A74757A656D004D656A
:10338E006E752069646F7A69746F004C43442068CF
:10339E00617474657200484D562033206A61726103
:1033AE007475005A6F6E6120666F6C64737A696E05
:1033BE0074005A6F6E6120656D656C657400507592
:1033CE00666665722033206A61726174750050758D
:1033DE006666657220737A697661747479750047D2
:1033EE00617A2072656C6500427566666572206151
:1033FE006B7420686F6D00456C6F72656D656E6FD6
:10340E0020686F6D0042756666657220737A656E10
:10341E007A6F7200484D5620616B7420686F6D0094
:10342E00484D56206B6976616E7420686F6D00484A
:10343E004D56206D696E20686F6D00484D56207395
:10344E007A656E7A6F7200424D4520686F6D00424C
:10345E004D45207061726100424D45206D696E20B0
:10346E00686F6D00424D45206B6976616E74206801
:04347E006F6D00006E
:00000001FF
