:100000000C9497020C94B4020C94B4020C94B402B5
:100010000C94B4020C94B4020C94B4020C94B40288
:100020000C94B4020C94B4020C94B4020C94B40278
:100030000C94B7090C94B4020C94B4020C94B4025E
:100040000C94B4020C94B4020C94CA160C94F616D8
:100050000C94B4020C9498090C94B4020C94B4025D
:100060000C94B4020C94B4020C94B4020C94B40238
:100070000C94B4020C94B4020C9463170C94911772
:100080000C94B4020C94B4020C94B4027609830963
:10009000830983098309830983098309780983090B
:1000A000830983097A0983098309830983098309F9
:1000B0007C0983097E097209830983098309800900
:1000C00082097409830983098309830976098309ED
:1000D00083098309830983098309830978098309CB
:1000E000830983097A0983098309830983098309B9
:1000F0007C0983097E0972098309830983098009C0
:1001000082097409436F756C64206E6F7420636F8D
:100110006E6E65637420746F2073656E736F72000A
:1001200020445331384232302073656E736F7273DE
:100130000A00466F756E642000496E7465727275B0
:10014000707420656E61626C65640A00427573208C
:100150006572726F720A004E6F2073656E736F72F4
:1001600020666F756E640A00427573207363616E5A
:100170006E696E67202E2E2E0A0047415320616E55
:10018000642046495253545F464C4F4F525F56418C
:100190004C56452C205345434F4E445F464C4F4FE1
:1001A000525F56414C56452072656C6179206465FA
:1001B0006163746976617465640A005345434F4E08
:1001C0004420464C4F4F52206465616374697661E8
:1001D0007465640A005345434F4E4420464C4F4FCC
:1001E00052206163746976617465640A00464952FD
:1001F000535420464C4F4F522064656163746976B6
:10020000617465640A00464952535420464C4F4F6E
:1002100052206163746976617465640A00474153D2
:100220002C20444857206465616374697661746565
:10023000643B204255464645522072656C617920E8
:1002400064656163746976617465640A004741534B
:10025000206163746976617465643B20425546464B
:1002600045522C204448572072656C6179206465A2
:100270006163746976617465640A0044485720724A
:10028000656C617920646561637469766174656425
:100290000A004448572072656C6179206163746973
:1002A0007661746564207769746820627566666536
:1002B000720A004448572072656C6179206163744A
:1002C0006976617465642077697468206761730A70
:1002D00000466F6C642F456D656C20005075666636
:1002E000657220737A2F70200047617A2072656CE6
:1002F000652000484D5620737A656C657020004B70
:10030000756C736F20686F6D200047657068617A47
:1003100020686F6D200050756666657220686F6D8D
:100320003A2000484D5620686F6D20000A002E00CC
:1003300025200A00424D453238302048756D6964E9
:100340006974793A200043200A00424D4532383022
:100350002054656D70657261747572653A20000095
:1003600002040E010F110F0002040E111F100E00E7
:100370000204000C04040E0002040E1111110E0000
:10038000050A0E1111110E000204001111130D00C7
:10039000050A001111130D00FF537A697661747418
:1003A0007975207574616E6675746173004C434491
:1003B00020686174746572004D656E752069646FA4
:1003C0007A69746F20286D7029005465737A74758A
:1003D0007A656D004B690042650047617A20616C67
:1003E0006C61706F74004B69004265005075666601
:1003F000657220737A697661747479750047617AE1
:100400000050756666657200507566666572202FCD
:100410002067617A20737A656C6570004B690042D1
:100420006500456D656C65746920737A656C6570EF
:10043000004B6900426500466F6C64737A696E74A4
:100440006920737A656C6570004B690042650048ED
:100450004D5620737A656C657020616C6C61706FAD
:10046000740047657068617A20737A656E7A6F727E
:100470002049440047657068617A206B6976616E37
:100480007420686F6D0047657068617A206D696ED1
:1004900020686F6D0047657068617A20616B742019
:1004A000686F6D0050756666657220737A656E7A46
:1004B0006F7220494400456C6F72656D656E6F20E8
:1004C000686F6D0050756666657220616B74206898
:1004D0006F6D00484D5620737A656E7A6F722049B1
:1004E0004400484D56206D696E20686F6D00484D80
:1004F00056206B6976616E7420686F6D00484D56AA
:1005000020616B7420686F6D004B756C736F206D8C
:10051000696E20686F6D00424D4532383020706141
:10052000726100424D4532383020686F6D001124F1
:100530001FBECFEFD0E1DEBFCDBF14E0A0E0B1E041
:10054000E6E2F6E302C005900D92A836B107D9F7AE
:1005500025E0A8E6B4E001C01D92AB38B207E1F790
:100560000E94A20D0C94111B0C940000CF93DF93FA
:10057000C82F8CEE0E94D307811111C08C2F0E94CE
:10058000F8070E9420088DEE0E94D30781110AC04F
:100590000E941508C82FD0E00E94200805C0C0E0C6
:1005A000D0E002C0C0E0D0E0CE01DF91CF9108954D
:1005B000CF93DF93C82F8CEE0E94D307811118C010
:1005C0008C2F0E94F8070E9420088DEE0E94D3070E
:1005D000811111C00E940A08C82FD0E0DC2FCC275F
:1005E0000E941508C82B0E9420088C2F9D2F05C043
:1005F00080E090E002C080E090E0DF91CF9108952C
:100600000E94D8029827892798270895CF92DF92D1
:10061000EF92FF92F82E8CEE0E94D30781112EC02C
:100620008F2D0E94F8070E9420088DEE0E94D307AC
:1006300081111BC00E940A08C82ED12CE12CF12C7C
:10064000FE2CED2CDC2CCC240E940A08C82AFE2C9F
:10065000ED2CDC2CCC240E941508C82A0E9420080E
:100660006C2D7D2D8E2D9F2D0DC084E091E00E947C
:10067000511760E070E080E090E004C060E070E05E
:1006800080E090E0FF90EF90DF90CF9008950F937F
:100690001F93CF93DF9388E80E940003CAEFD4E052
:1006A000998388838AE80E9400039B838A838CE86D
:1006B0000E9400039D838C838EE80E9400039F8329
:1006C0008E8380E90E9400039987888782E90E94CF
:1006D00000039B878A8784E90E9400039D878C879B
:1006E00086E90E9400039F878E8788E90E940003A5
:1006F000998B888B8AE90E9400039B8B8A8B8CE9FB
:100700000E9400039D8B8C8B8EE90E9400039F8BBF
:100710008E8B81EA0E94B602888F81EE0E940003D0
:100720009A8F898F83EE0E94B6028B8F84EE0E948F
:10073000B6028C0185EE0E94B60202951295107FDA
:100740001027007F10278F709927802B912B9D8F6A
:100750008C8F86EE0E94B6028C0185EE0E94B60256
:1007600002951295107F1027007F10279295829591
:100770008F7089279F708927802B912B9F8F8E8F59
:1007800087EE0E94B60288A3DF91CF911F910F914F
:1007900008958CEE0E94D30781111EC082EF0E9443
:1007A000F80785E00E94F80784EF0E94F80787EBBE
:1007B0000E94F80780ED0E94F8070E9447030E94FC
:1007C00020088DEE0E94D307811106C00E941508F3
:1007D0000E9431170E94200808958F929F92AF9235
:1007E000BF92CF92DF92EF92FF920F931F938AEF07
:1007F0000E940603EAEFF4E00081118120E030E07E
:10080000C72ED82EE92EFF24E7FCFA94C01AD10A8D
:10081000E20AF30ADC01CB01689416F8B595A795B6
:10082000979587951694D1F7000F111F221F331F3C
:100830004C015D01801A910AA20AB30AA501940134
:10084000A281B3810E94901A4B015C01072E7BE0CC
:10085000B594A794979487947A95D1F7702DA701B2
:100860009601C701B6010E946F1A9B01AC01012ECF
:100870001CE055954795379527951A95D1F7102D7A
:10088000A481B5810E94901ADC01CB01072E7EE085
:10089000B595A795979587957A95D1F7702D880D81
:1008A000991DAA1DBB1D80931B0590931C05A09349
:1008B0001D05B0931E058C019D01000F111F221F05
:1008C000331F000F111F221F331F800F911FA21F04
:1008D000B31F80589F4FAF4FBF4F692F7A2F8B2F79
:1008E00099270E94741920E030E048EC52E40E94FD
:1008F000CC181F910F91FF90EF90DF90CF90BF9099
:10090000AF909F908F9008954F925F926F927F92D9
:100910008F929F92AF92BF92CF92DF92EF92FF920F
:100920000E94ED038DEF0E94D80280901B059090ED
:100930001C05A0901D05B0901E052CE2921A21E026
:10094000A20AB1086C01E12CF12C0B2EBEE0CC0CFC
:10095000DD1CEE1CFF1CBA95D1F7B02DEAEFF4E0D8
:10096000848D958D092E000CAA0BBB0B072E74E10C
:10097000880F991FAA1FBB1F7A95D1F7702DC81A2F
:10098000D90AEA0AFB0AA68DB78DA50194010E9437
:10099000901AC61AD70AE80AF90A30E4D30EE11C05
:1009A000F11C0B2EBFE0F594E794D794C794BA9549
:1009B000D1F7B02DA38DB0E0A50194010E94851A56
:1009C0002B013C01032E3BE07594679457944794A8
:1009D0003A95D1F7302D40E8540E611C711CA0A14E
:1009E0000A2E000CBB0BA50194010E94901A052E43
:1009F0005AE095958795779567955A95D1F7502D3B
:100A0000A30192010E946F1ADC01CB01072E7AE04C
:100A1000B595A795979587957A95D1F7702D9C01F7
:100A2000AD01405E5F4FA18DB28D0E94901ADC0136
:100A3000CB01905EAF4FBF4FBC01CD01052E5EE0F4
:100A400095958795779567955A95D1F7502DA7017C
:100A500096010E946F1A6B017C01052E5FE095954F
:100A60008795779567955A95D1F7502D9B01AC01E5
:100A70000E946F1A9B01AC01689416F85595479532
:100A8000379527951694D1F7A08DB0E00E94851A6E
:100A9000DC01CB01689413F8B595A79597958795D8
:100AA0001694D1F7A7019601281B390B4A0B5B0B53
:100AB000DA01C9011AF480E090E0DC01813091058F
:100AC000A10539E1B30724F080E090E0A0E0B9E1AE
:100AD000BC01CD01052E5CE09595879577956795CE
:100AE0005A95D1F7502D0E94761920E030E040E869
:100AF0005AE30E94021AFF90EF90DF90CF90BF90D0
:100B0000AF909F908F907F906F905F904F900895DF
:100B100061157105A9F0FC01680F791F80E048E1BB
:100B2000219198E0382F322730FF0CC0842786951A
:100B3000806826959150B1F7E617F70789F7089571
:100B400080E008958695F5CF0F931F93CF93DF93A1
:100B5000DB01EC9111969C911197F0E0F92B80311B
:100B600081F4EE7FEE0FFF1FEE0FFF1FEE0FFF1F52
:100B700016969C9116976CE070E0691B7109E60F60
:100B8000F71FFF233CF491E0EA019883F195E1958A
:100B9000F10902C0EA011882883279F414968C9126
:100BA000982F9076903649F086FF02C0EE7F05C000
:100BB00085FF02C0EC7F01C0E87FCF01929582954E
:100BC0008F7089279F708927D9018C93EF70E80176
:100BD000E88380E0DF91CF911F910F9108950F93EB
:100BE0001F93CF93DF93EC018B01B80188810E94A2
:100BF0005107888381508D3F30F4F801808188321D
:100C000011F0803191F7DF91CF911F910F910895ED
:100C10000F931F93CF93C82F8B010E949D060E94B4
:100C20008106882351F0B80184E40E94AB07C130EB
:100C300031F00E948A0680E003C082E001C080E0BB
:100C4000CF911F910F9108956F927F928F929F92F3
:100C5000AF92BF92CF92DF92EF92FF920F931F93CA
:100C6000CF93DF93CDB7DEB729970FB6F894DEBFE9
:100C70000FBECDBF6C015B013A0149010E949D0688
:100C8000B6018EEB0E94AB078E010F5F1F4F7E01F6
:100C90008AE0E80EF11C0E944D07F80181938F0154
:100CA000EE15FF05C1F769E070E0CE0101960E94E4
:100CB0008805F82E81110BC084019301A501BE01A6
:100CC0006F5F7F4FF60180810E94A40504C00F2E44
:100CD000F3E0FF2EF02D8F2D29960FB6F894DEBF8E
:100CE0000FBECDBFDF91CF911F910F91FF90EF907D
:100CF000DF90CF90BF90AF909F908F907F906F903C
:100D00000895E0912205F0912305908180912105BD
:100D100089230895E0911F05F0912005908180912D
:100D20002105892B8083E0912405F0912505908190
:100D300080912105892B80830895E0911F05F09112
:100D40002005908180912105809589238083E09101
:100D50002405F0912505908180912105892B8083C0
:100D60008FE897E08115910511F00197F1F72FB702
:100D7000F894E0912405F09125059081809121055A
:100D800080958923808389E091E08115910511F098
:100D90000197F1F7E0912205F091230530818091D0
:100DA00021052FBFE5E8F6E0E115F10511F03197D7
:100DB000F1F7E0912205F091230520819091210522
:100DC000922311F08323089581E00895509325051F
:100DD000409324057093200560931F05909323058D
:100DE0008093220581E001C0880F2A95EAF780935D
:100DF00021050E949D0608953FB7F894E0912405CF
:100E0000F0912505208190912105922B9083E3E0BC
:100E1000F0E0E115F10511F03197F1F7882351F079
:100E2000E0912405F0912505208190912105909570
:100E300092239083E8E3F0E0E115F10511F031979A
:100E4000F1F7E0912205F091230520819091210591
:100E5000292309F480E0E5EBF0E0E115F10511F05C
:100E60003197F1F7E0912405F091250520819095C7
:100E7000922390833FBF0895CF93DF93C82FD8E08C
:100E80008C2F81700E94FC06C6958111C068D150DC
:100E9000B9F78C2FDF91CF9108958FEF0E943C0717
:100EA0000895DF92EF92FF920F931F93CF93DF93FA
:100EB000D82E8B010E949D0681112BC080EF0E94CD
:100EC0003C07E12CC0E40F2EF8EFFF2EF02DFC0EB6
:100ED00081E00E94FC06D82F81E00E94FC06882356
:100EE00019F0DD23D1F017C0D11124C0CD15E8F0E1
:100EF000F801808180FF11C0CD111AC00EC0C15011
:100F0000FC12E6CF0F5F1F4FCF2DF110DCCF8E2DDF
:100F10001AC08FEF18C08EEF16C080E00E94FC064A
:100F2000F801908196959083EACFEC2ED1E002C033
:100F3000EC2ED1E08D2F0E94FC06F8019081969551
:100F400090689083DCCFDF91CF911F910F91FF903C
:100F5000EF90DF900895FF920F931F93CF93DF934D
:100F6000F82EEB010E949D06209769F085E50E940E
:100F70003C078E01085F1F4F89910E943C07C017F4
:100F8000D107D1F703C08CEC0E943C078F2D0E9443
:100F90003C07DF91CF911F910F91FF9008958EE252
:100FA000809370000895E4E7F0E0108294EA908363
:100FB00090819923ECF790917100987F9830A1F47B
:100FC0008093730084E880937400E4E7F0E080810C
:100FD0008823ECF790917100987F983139F081E087
:100FE000903429F480E0089581E0089580E0089528
:100FF0008093730084E880937400E4E7F0E08081DC
:101000008823ECF790917100987F81E0983209F481
:1010100080E0089584EC80937400E4E7F0E0808140
:101020008823ECF780917300089584E8809374001E
:10103000E4E7F0E080818823ECF780917300089565
:1010400084E9809374000895AD9A00C000C0AD9803
:101050000895CF93C82F662311F0AF9A01C0AF98BF
:10106000AE98A49AA39AA29AA19AA998AA98AB9882
:10107000AC98CC230CF4A99AC6FDAA9AC5FDAB9AEC
:10108000C4FDAC9A0E942408A998AA98AB98AC9881
:10109000C3FDA99AC2FDAA9AC1FDAB9AC0FDAC9A44
:1010A0000E942408AC9AAB9AAA9AA99ACF91089563
:1010B000882311F0AF9A01C0AF98AE9AA498A39874
:1010C000A298A198AD9A00C000C09C9B02C080E18C
:1010D00001C080E09B9980629A99806499998068A8
:1010E000AD9800C000C0AD9A00C000C09C9981605E
:1010F0009B9982609A99846099998860AD980895C7
:1011000080E00E9458088823DCF388E090E0019793
:10111000F1F780E00E9458080895CF93C82F0E94ED
:10112000800860E08C2F0E942908CF9108956111FA
:1011300004C080580E948D080895613021F48054C5
:101140000E948D080895623021F48C560E948D080B
:1011500008958C520E948D08089581E00E948D08A8
:101160000895CF93C82F0E948008CA30A1F484311B
:1011700048F090EC980F943138F084518C3230F074
:1011800080E005C080E403C084E101C084E58058AC
:101190000E948D0804C061E08C2F0E942908CF9125
:1011A0000895CF93DF93EC012196FC018081882381
:1011B00029F00E94B10889918111FBCFDF91CF9175
:1011C00008951F93CF93DF93182FA79AA69AA59AF5
:1011D000A49AA39AA29AA19A80E09AEF0197F1F7B4
:1011E000AB9AAC9A0E94240880E09EE40197F1F744
:1011F0000E942408C0E0D1E0CE010197F1F70E94DF
:101200002408CE010197F1F7AC980E942408219799
:10121000F1F788E20E948D0888E00E948D080E9404
:10122000AD0886E00E948D08812F0E948D08DF9115
:10123000CF911F910895CF93DF93EC01AF98FC01FC
:1012400084918770880F880F880F80640E94B1088E
:10125000AF9A9E012E5F3F4FFE01319684918F3FE2
:1012600041F0E9010E94B108FE01849121968F3F6F
:10127000C9F7AF98AF9ADF91CF9108959FEF960F7E
:10128000662319F086959150E8F780FF04C081E34A
:101290000E94B108089580E30E94B1080895CF9399
:1012A000DF9300D000D0CDB7DEB74AE0BE016F5F5C
:1012B0007F4F0E94A71ACE0101960E94D1080F907D
:1012C0000F900F900F90DF91CF910895482F50E02D
:1012D000FA01E15CF109EC33F105A8F4EA5BFF4F98
:1012E0000C947F1A8FEE0FC085EF0DC080E00BC00D
:1012F00081E009C082E007C083E005C084E003C04C
:1013000085E001C086E00E94B1080895CF93DF9385
:10131000EC012196FC018491882339F00E94660932
:10132000FE01849121968111F9CFDF91CF9108952B
:101330001F920F920FB60F9211248F939F9384B137
:1013400095B10A9738F48AE090E0909383008093F7
:10135000820006C084B195B190938300809382008F
:101360009F918F910F900FBE0F901F9018951F9215
:101370000F920FB60F9211248F9380916F0480917A
:101380006F048F5F80936F048F910F900FBE0F904B
:101390001F9018951F93CF93DF9300D01F92CDB766
:1013A000DEB780916E04813009F44AC038F0823093
:1013B00009F474C0833009F497C022C10E94ED0380
:1013C00060932705709328058093290590932A053B
:1013D00040912705509128056091290570912A05B3
:1013E00022E030E082E495E00E94D6176091270564
:1013F000709128058091290590912A0520E030E020
:1014000048EC52E40E94021A0E9445197093850527
:101410006093840580916D04882361F08AE493E0F1
:101420000E94511782E495E00E94421786E493E0FF
:101430000E94511780916E048F5F80936E04E2C00A
:101440000E94840460932B0570932C0580932D05D6
:1014500090932E0540912B0550912C0560912D0500
:1014600070912E0522E030E08EE495E00E94D617C0
:1014700080916D04882361F084E393E00E9451170A
:101480008EE495E00E94421780E393E00E9451179A
:1014900080916E048F5F80936E04B4C020E047E3B8
:1014A00050E068E370E086E390E00E94E6068091F9
:1014B0003405882399F010E0612F70E0660F771FE4
:1014C000660F771F660F771F6C5A7A4F81E00E9474
:1014D00008061F5F80913405181770F380916E0421
:1014E0008F5F80936E048EC020E047E350E068E396
:1014F00070E086E390E00E94E60680913405882340
:1015000009F478C010E0812F90E0880F991F880FB0
:10151000991F880F991F9E012D5F3F4FAE014E5FAF
:101520005F4FBE016F5F7F4F8C5A9A4F0E94240617
:10153000811118C080916D048823A1F0898190E009
:101540000E94BB178A8190E00E94BB178EE293E055
:101550000E9451178B8190E00E94BB178CE293E0B0
:101560000E94511780916A04811312C08A8180936E
:101570003D0580913D054AE066E375E090E00E94FC
:10158000A71A8B814AE06BE475E090E00E94A71AED
:1015900080910201811312C08A8180938605809117
:1015A00086054AE06EE375E090E00E94A71A8B8101
:1015B0004AE068E475E090E00E94A71A809101017A
:1015C000811312C08A8180933B0580913B054AE0DC
:1015D00067E875E090E00E94A71A8B814AE061E31A
:1015E00075E090E00E94A71A1F5F809134051817DC
:1015F00008F489CF80916E048F5F80936E0402C0DF
:1016000010926E04809106018111A8C080910001A2
:10161000863008F457C00E94AD0883E293E00E9430
:10162000860986E395E00E94D10882E792E00E9455
:10163000D1088BE495E00E94D10884E792E00E94F3
:10164000D10861E080E00E94970886E193E00E9463
:1016500086098EE395E00E94D10882E792E00E941D
:10166000D10888E495E00E94D10884E792E00E94C6
:10167000D10862E080E00E9497088AE093E00E942F
:10168000860987E895E00E94D10882E792E00E94EF
:10169000D10881E395E00E94D10884E792E00E949E
:1016A000D10863E080E00E9497088FEF92E00E94EB
:1016B000860982E495E00E94D10884E792E00E94C6
:1016C000D10846C0853008F043C00E94AD0883EFC2
:1016D00092E00E94860980916B0464E00E943E09BA
:1016E00061E080E00E94970889EE92E00E948609FE
:1016F00080916B0467E00E943E0962E080E00E94F6
:1017000097088CED92E00E94860980916B0465E059
:101710000E943E0980916B0466E00E943E0963E0EE
:1017200080E00E94970881ED92E00E9486098091F6
:101730006B0462E00E943E0980916B0463E00E94AA
:101740003E0980910001811103C08AE0809300016D
:101750008091000181508093000105C080910601B5
:1017600081508093060180916C04811101C0369AEA
:101770000F900F900F90DF91CF911F910895DF92FE
:10178000EF92FF920F931F93CF93DF93CDB7DEB706
:1017900029970FB6F894DEBF0FBECDBF80916D04C0
:1017A000882309F43FC088E691E00E9451178FEF2B
:1017B00089870F2EF4E5EF2EF5E0FF2EF02DD12CCA
:1017C0008E01075F1F4FBE016F5F7F4FC8010E94F0
:1017D000EF0599859F3F49F480916D04882329F195
:1017E00087E591E00E94511720C09E3F49F4809107
:1017F0006D048823D1F08CE491E00E94511715C04C
:10180000FE013196D70181918D93E017F107D9F749
:10181000D394992351F088E0E80EF11C86E0D812A9
:10182000D2CF03C08FEF8987C4CF8D2D29960FB6F5
:10183000F894DEBF0FBECDBFDF91CF911F910F9106
:10184000FF90EF90DF9008950E94A01660916B04C6
:1018500081E00E94B4160E94AF16089590913D0554
:1018600080913A05981708F047C09091350580910E
:101870003D05981708F44DC09091860580913A0572
:101880009817D8F480910401909105019093690410
:101890008093680480916B04806980936B048091CD
:1018A0006B048F7980936B0480916D04882389F198
:1018B00083EB92E00E9451172CC0809168049091B4
:1018C0006904009731F480916B04806780936B0406
:1018D00005C00197909369048093680480916B041C
:1018E0008F7780936B0480916D04882391F082E957
:1018F00092E00E9451170DC080916B048F7080930D
:101900006B0480916D04882321F08BE792E00E94A4
:10191000511780916B0484FDBBC00E9B09C00F9BC7
:1019200007C090913B0580912605981708F092C05A
:10193000209184053091850580912F059091300587
:101940008217930708F486C090913B0580913C056F
:10195000981720F00E9B02C00F993FC0909186050A
:10196000809103019817D8F48091040190910501AA
:10197000909369048093680480916B0480688093DD
:101980006B0480916B048F7880936B0480916D045D
:10199000882319F18DE492E00E9451171EC08091B6
:1019A000680490916904009759F480916B048F76D4
:1019B00080936B0480916B04806680936B0405C0F8
:1019C0000197909369048093680480916D04882343
:1019D00021F08DE192E00E9451170E990DC0809187
:1019E0006B04846080936B0480916D04882321F0E4
:1019F00086E092E00E9451170E9B0DC080916B040F
:101A00008B7F80936B0480916D04882321F08DEE91
:101A100091E00E9451170F990DC080916B0488606E
:101A200080936B0480916D04882321F085ED91E013
:101A30000E9451170F9B2CC080916B04877F80936D
:101A40006B0480916D04882319F18BEB91E00E9467
:101A500051171EC08091680490916904009731F479
:101A600080916B04837F80936B0405C001979093F2
:101A700069048093680480916B048F7180936B0478
:101A800080916D04882321F08AE791E00E9451172C
:101A900080916D04823010F40E94240C089582E03D
:101AA00090E00E94DC1A80936A0489E090E00E9432
:101AB000DC1A80933A0588E090E00E94DC1A80935B
:101AC000350581E090E00E94DC1A8093020187E0F6
:101AD00090E00E94DC1A8093030180E090E00E9475
:101AE000DC1A8093010186E090E00E94DC1A80936A
:101AF000260585E090E00E94DC1A80933C0583E097
:101B000090E00E94E41A9093300580932F058EE0B8
:101B100090E00E94DC1A80936D048DE090E00E94BA
:101B2000DC1A809306018CE090E00E94DC1A80931E
:101B30006C048AE090E00E94E41A9093050180937F
:101B4000040108950E944F0D8CE00E94E1088FE58A
:101B500093E00E941B09EBE8F0E0808189608083BC
:101B6000EAE8F0E080818B60808380E890E09093E9
:101B7000830080938200159A1D9A0E94AD0887E722
:101B800092E00E94D10887E690E00E941B17E1E6F0
:101B9000F0E080818E7F8083E2E6F0E080818E7FBE
:101BA0008083A09A82B18F7382B910926B040E94D5
:101BB000240C61E080E00E9497088BE892E00E948C
:101BC000D10862E080E00E949708CAE088E70E949E
:101BD000B1082FEF83ED90E3215080409040E1F772
:101BE00000C00000C15091F70E94AD088FE992E05B
:101BF0000E94D1080E94CF0761E080E00E94970810
:101C00008BEA92E00E94D1080E94C903789489E38C
:101C100091E00E945117A89581B5886181BD81B579
:101C2000876081BD20E047E350E068E370E086E331
:101C300090E00E94E6060E94BF0B809334058091DD
:101C40006D04882369F082E391E00E94511780912E
:101C5000340590E00E94BB1780E291E00E9451178A
:101C600062E080E00E9497088AEB92E00E94D1082F
:101C70008091340590E00E944F0984EC92E00E942C
:101C8000D10863E080E00E9497088EB584608EBD25
:101C90001DBC1CBC84E294EF9BBD8ABD87B78061EC
:101CA00087BF86B18F6C86B90E94E70E80916F0462
:101CB000813081F480916F048F5F80936F040E9464
:101CC000CA0980916D04823010F40E942E0CA895F0
:101CD00010926F040E94EC0EE9CFEF92FF920F93E7
:101CE0001F93CF93DF930E94AD080E949416EC01DE
:101CF0000E949716E0911B01F0911C019681992397
:101D0000A1F0A081B1811696AC9187E0A89FD00187
:101D10001124A35EBE4F12960D90BC91A02D179674
:101D2000CD91DC91189716968C9124819581291B71
:101D3000E82EF12C1E141F04A4F530E08901000FD9
:101D4000111F000F111F000F111F200F311F8E01D7
:101D5000020F131FC0E0D0E06C2F80E00E949708B4
:101D6000E0911B01F0911C01858190E08C179D078B
:101D700021F48EE30E94B10803C080E20E94B10802
:101D800080E20E94B108F801808191810E94D1080F
:101D90002196CE15DF0529F0075F1F4FC430D1050E
:101DA000D9F6DF91CF911F910F91FF90EF90089599
:101DB000EDE1F1E0F0931C01E0931B011182108230
:101DC00013821282148215820E946D0E08950E9461
:101DD00099160E94D80E08955F926F927F928F920B
:101DE0009F92AF92BF92CF92DF92EF92FF920F93AA
:101DF0001F93CF93DF93C7E0D1E00F2EFBE1EF2ECF
:101E0000F1E0FF2EF02D88248394912C612C712C0D
:101E1000552453940F2EF9E3AF2EF1E0BF2EF02D91
:101E20000F2EFDE1CF2EF1E0DF2EF02D8E0180B3DD
:101E300090E0098002C0959587950A94E2F7282DD5
:101E4000392D80FF02C0262D372DF8018281938124
:101E5000880F991F906E822B932B93838283811519
:101E6000904F09F011C1F80154828DE090E00E947A
:101E7000DC1A80930601A89AA0911B01B0911C0165
:101E800016969C911697943009F4DAC0F801808177
:101E90008130F9F038F0823009F449C0833009F418
:101EA000A7C0B5C014968C911497882309F4B8C0C4
:101EB00015969C911597911104C0815014968C939E
:101EC000AFC0915015969C931597815014968C93A2
:101ED000A7C00E949716E0911B01F0911C0196810A
:101EE000992309F4DAC04481242F30E0A081B18124
:101EF0001696AC9187E0A89FD0011124A35EBE4F37
:101F000012960D90BC91A02D16968C9190E00197A1
:101F1000281739070CF07BC08581833019F44F5F97
:101F2000448375C08F5F85834F5F448370C00E9478
:101F30009416A0911B01B0911C0116964C91169716
:101F4000442379F0ED91FC911197E68127E0E29F1F
:101F5000F0011124E35EFE4F0280F381E02D8781C2
:101F6000908514965C911497252F30E0F901EE0FBF
:101F7000FF1FEE0FFF1FEE0FFF1F2E0F3F1F280F3B
:101F8000391FF90182819381892B81F013963C934B
:101F90002E931297B0921C01A0921B01F601B58FEF
:101FA000A48F378F268F50A311A231C0F9018781EA
:101FB0009085892B61F113963C932E931297842F71
:101FC00090E00196FC01EE0FFF1FEE0FFF1FEE0FDA
:101FD000FF1FE81BF90BE35EFE4FF0931C01E0933B
:101FE0001B01B183A08313821282148215820FC059
:101FF0009923B1F0ED91FC918681F7E08F9FC001AC
:102000001124835E9E4F90931C0180931B01A0912D
:102010001B01B0911C0116968C911697843019F013
:102020000E946D0E34C0ED91FC9111970280F381F6
:10203000E02D0280F381E02D14968C91099527C044
:10204000ED91FC9111970280F381E02D0480F581E0
:10205000E02D14966C91C80109958823C1F0E09198
:102060001B01F0911C010190F081E02D868127E099
:10207000829FC0011124835E9E4F90931C01809328
:102080001B010E946D0E03C0F8011482A8982596CA
:10209000CE15DF0509F0CACE0AC04481242F30E0F6
:1020A00090E00197281739070CF436CFB9CFDF91AC
:1020B000CF911F910F91FF90EF90DF90CF90BF9045
:1020C000AF909F908F907F906F905F9008950E9447
:1020D000AD088FE494E00E94860961E080E00E94F0
:1020E000970880916B0484FF05C08CE494E00E9403
:1020F0008609089589E494E00E94860908950E9463
:10210000AD0887E394E00E94860961E080E00E94C8
:10211000970880916B0482FF05C084E394E00E94DD
:102120008609089581E394E00E94860908950E943B
:10213000AD0882E294E00E94860961E080E00E949E
:10214000970880916B0483FF05C08FE194E00E94A3
:10215000860908958CE194E00E94860908950E9402
:10216000AD0888E094E00E94860961E080E00E946A
:10217000970880916B0485FF05C081E094E00E9480
:10218000860908958DEF93E00E94860908950E94C4
:10219000AD088CEE93E00E94860961E080E00E9429
:1021A000970880916B0486FF05C089EE93E00E943A
:1021B0008609089586EE93E00E94860908950E949C
:1021C000AD088AED93E00E94860961E080E00E94FC
:1021D000970880916B0488232CF487ED93E00E948C
:1021E0008609089584ED93E00E94860908950E946F
:1021F000AD0883E295E00E94860961E080E00E94DC
:10220000970882E495E00E94D1080895FC0180813E
:10221000833029F0862F0E94F71080E0089581E036
:1022200008950E94AD0887E195E00E94860961E06B
:1022300080E00E9497088EE495E00E94D1080895FE
:10224000FC018081833029F0862F0E94111180E0EB
:10225000089581E008950E94AD088DEF94E00E94FA
:10226000860961E080E00E94970886E395E00E947D
:10227000D10882E792E00E94D1088BE495E00E94A9
:10228000D10884E792E00E94D1080895FC01808182
:10229000833029F0862F0E942B1180E0089581E081
:1022A00008950E94AD0884EC94E00E94860961E0E4
:1022B00080E00E9497088EE395E00E94D10882E7B3
:1022C00092E00E94D10888E495E00E94D10884E75A
:1022D00092E00E94D1080895FC018081833029F0AA
:1022E000862F0E94511180E0089581E008950E9498
:1022F000AD0885E994E00E94860961E080E00E94D3
:10230000970887E895E00E94D10882E792E00E9452
:10231000D10881E395E00E94D10884E792E00E9411
:10232000D1080895FC018081833029F0862F0E9416
:10233000771180E0089581E00895CF93DF93CDB7C2
:10234000DEB72A970FB6F894DEBF0FBECDBF8091DF
:102350002F05909130054AE0BE016F5F7F4F0E94CC
:10236000A71A0E94AD0889E095E00E94860961E005
:1023700080E00E949708CE0101960E94D1082A961B
:102380000FB6F894DEBF0FBECDBFDF91CF91089599
:10239000CF93DF93CDB7DEB727970FB6F894DEBFA4
:1023A0000FBECDBF80913A054AE0BE016F5F7F4FFF
:1023B00090E00E94A71A0E94AD088EEE94E00E9461
:1023C000860961E080E00E949708CE0101960E9494
:1023D000D10827960FB6F894DEBF0FBECDBFDF91B0
:1023E000CF910895CF93DF93CDB7DEB72A970FB67D
:1023F000F894DEBF0FBECDBF809135054AE0BE0127
:102400006F5F7F4F90E00E94A71A0E94AD0882EE96
:1024100094E00E94860961E080E00E949708CE0166
:1024200001960E94D1082A960FB6F894DEBF0FBE1F
:10243000CDBFDF91CF910895CF93DF9300D000D02F
:10244000CDB7DEB70E94AD0883ED94E00E94860907
:1024500061E080E00E94970880916A044AE0BE0132
:102460006F5F7F4F90E00E94A71ACE0101960E94F5
:10247000D1080F900F900F900F90DF91CF9108959A
:10248000CF93DF93CDB7DEB72A970FB6F894DEBFB0
:102490000FBECDBF809103014AE0BE016F5F7F4F49
:1024A00090E00E94A71A0E94AD0886EB94E00E947B
:1024B000860961E080E00E949708CE0101960E94A3
:1024C000D1082A960FB6F894DEBF0FBECDBFDF91BC
:1024D000CF910895CF93DF9300D000D0CDB7DEB772
:1024E0000E94AD0884EA94E00E94860961E080E0E1
:1024F0000E949708809102014AE0BE016F5F7F4F02
:1025000090E00E94A71ACE0101960E94D1080F9078
:102510000F900F900F90DF91CF910895CF93DF939D
:10252000CDB7DEB72A970FB6F894DEBF0FBECDBF8A
:1025300080913C054AE0BE016F5F7F4F90E00E94B2
:10254000A71A0E94AD0886E894E00E94860961E01F
:1025500080E00E949708CE0101960E94D1082A9639
:102560000FB6F894DEBF0FBECDBFDF91CF910895B7
:10257000CF93DF93CDB7DEB727970FB6F894DEBFC2
:102580000FBECDBF809126054AE0BE016F5F7F4F31
:1025900090E00E94A71A0E94AD0884E794E00E9490
:1025A000860961E080E00E949708CE0101960E94B2
:1025B000D10827960FB6F894DEBF0FBECDBFDF91CE
:1025C000CF910895CF93DF9300D000D0CDB7DEB781
:1025D0000E94AD0882E694E00E94860961E080E0F6
:1025E0000E949708809101014AE0BE016F5F7F4F12
:1025F00090E00E94A71ACE0101960E94D1080F9088
:102600000F900F900F90DF91CF910895CF93DF93AC
:1026100000D000D0CDB7DEB70E94AD088AEC93E0C1
:102620000E94860961E080E00E94970880916D0415
:102630004AE0BE016F5F7F4F90E00E94A71ACE0173
:1026400001960E94D1080F900F900F900F90DF918C
:10265000CF910895CF93DF9300D000D0CDB7DEB7F0
:102660000E94AD0888EB93E00E94860980910601E4
:102670004AE0BE016F5F7F4F90E00E94A71ACE0133
:1026800001960E94D1080F900F900F900F90DF914C
:10269000CF910895CF93DF9300D000D0CDB7DEB7B0
:1026A0000E94AD088DEA93E00E94860961E080E017
:1026B0000E94970880916C044AE0BE016F5F7F4FD3
:1026C00090E00E94A71ACE0101960E94D1080F90B7
:1026D0000F900F900F90DF91CF910895CF93DF93DC
:1026E00000D000D0CDB7DEB70E94AD0889E993E0F5
:1026F0000E94860961E080E00E94970880910401B1
:10270000909105014AE0BE016F5F7F4F0E94A71ABA
:10271000CE0101960E94D1080F900F900F900F905C
:10272000DF91CF910895FC019081913081F028F0E4
:102730009230B9F0933021F11EC080912F05909115
:1027400030050A969093300580932F0514C0809130
:102750002F05909130050A979093300580932F05AF
:102760000AC060912F057091300583E090E00E94CF
:10277000FB1A81E00895862F0E949D1180E0089544
:1027800081E00895FC019081913081F028F0923031
:10279000B9F0933021F11EC08091040190910501A0
:1027A0000196909305018093040114C08091040167
:1027B00090910501019790930501809304010AC04F
:1027C00060910401709105018AE090E00E94FB1A7B
:1027D00081E00895862F0E946E1380E0089581E0C5
:1027E0000895FC019081913081F028F09230C9F079
:1027F000933021F11EC080913A058A35D1F0809145
:102800003A058F5F80933A0514C090913A05809104
:102810003505891770F480913A05815080933A0507
:1028200008C060913A0589E090E00E94EA1A81E0D0
:102830000895862F0E94C81180E0089581E00895D0
:10284000FC019081913091F028F09230C9F09330E2
:1028500021F11EC09091350580913A059817C0F47A
:10286000809135058F5F8093350512C080913505C5
:10287000863070F08091350581508093350508C011
:102880006091350588E090E00E94EA1A81E00895A1
:10289000862F0E94F21180E0089581E00895FC01E6
:1028A00090819130A1F028F0923001F1933059F1EC
:1028B00025C080916A048F5F80936A0490916A04B6
:1028C0008091340598131AC010926A0417C0809141
:1028D0006A04815080936A0480916A048F3F71F486
:1028E00080913405815080936A0408C060916A0425
:1028F00082E090E00E94EA1A81E00895862F0E940B
:102900001C1280E0089581E00895FC0190819130CF
:1029100081F028F09230B9F0933011F11CC0809111
:1029200003018A35C1F0809103018F5F8093030119
:1029300012C080910301853170F0809103018150B4
:102940008093030108C06091030187E090E00E943A
:10295000EA1A81E00895862F0E94401280E00895CF
:1029600081E00895FC0190819130A1F028F092302F
:1029700001F1933059F125C0809102018F5F80935E
:102980000201909102018091340598131AC01092AF
:10299000020117C080910201815080930201809151
:1029A00002018F3F71F480913405815080930201C0
:1029B00008C06091020181E090E00E94EA1A81E083
:1029C0000895862F0E946A1280E0089581E008959C
:1029D000FC019081913091F028F09230C9F0933051
:1029E00021F11EC090913C05809126059817C0F4F6
:1029F00080913C058F5F80933C0512C080913C051F
:102A0000863070F080913C05815080933C0508C071
:102A100060913C0585E090E00E94EA1A81E008950B
:102A2000862F0E948E1280E0089581E00895FC01B7
:102A30009081913081F028F09230C9F0933021F1EB
:102A40001EC0809126058332D0F4809126058F5FC9
:102A50008093260514C09091260580913C05891726
:102A600070F48091260581508093260508C06091FE
:102A7000260586E090E00E94EA1A81E00895862FFC
:102A80000E94B81280E0089581E00895FC019081D1
:102A90009130A1F028F0923001F1933059F125C026
:102AA000809101018F5F80930101909101018091DC
:102AB000340598131AC01092010117C080910101CA
:102AC000815080930101809101018F3F71F48091C9
:102AD000340581508093010108C06091010180E0BC
:102AE00090E00E94EA1A81E00895862F0E94E21287
:102AF00080E0089581E00895FC019081913061F0BB
:102B000028F0923079F09330D1F014C080916D04A8
:102B10008F5F80936D040EC080916D04815080930F
:102B20006D0408C060916D048EE090E00E94EA1A86
:102B300081E00895862F0E94061380E0089581E0C9
:102B40000895FC019081913061F028F0923079F085
:102B50009330D1F014C0809106018F5F80930601FD
:102B60000EC08091060181508093060108C06091DB
:102B700006018DE090E00E94EA1A81E00895862F18
:102B80000E942A1380E0089581E00895FC0190815D
:102B9000913061F028F0923079F0933029F114C02F
:102BA00080916C048F5F80936C040EC080916C04E4
:102BB000815080936C0408C060916C048CE090E0BC
:102BC0000E94EA1A81E0089580916C04882339F00C
:102BD00080916C0490E09093830080938200862F14
:102BE0000E944A1380E0089581E00895CF93C62F94
:102BF000FC018081823018F0843090F416C08091FE
:102C00006B0482FF06C080916B048F7E80936B04FF
:102C100005C080916B04806180936B040E94240C3A
:102C20008C2F0E94671080E001C081E0CF91089551
:102C3000CF93C62FFC018081823018F0843048F495
:102C40000DC090916B0484E0892780936B040E94EF
:102C5000240C8C2F0E947F1080E001C081E0CF9176
:102C60000895CF93C62FFC018081823018F0843004
:102C700048F40DC090916B0488E0892780936B0421
:102C80000E94240C8C2F0E94971080E001C081E0EC
:102C9000CF910895CF93C62FFC018081823018F028
:102CA000843048F40DC090916B0480E289278093B2
:102CB0006B040E94240C8C2F0E94AF1080E001C096
:102CC00081E0CF910895CF93C62FFC01808182309F
:102CD00018F0843048F40DC090916B0480E489278B
:102CE00080936B040E94240C8C2F0E94C71080E0FC
:102CF00001C081E0CF910895CF93C62FFC01808160
:102D0000823018F0843040F40CC080916B048058FD
:102D100080936B040E94240C8C2F0E94DF1080E0B3
:102D200001C081E0CF91089580E491E0089586E0AC
:102D3000089581B38F7081BB82B3806F82BB089589
:102D400087B3876087BB88B3896088BB8BB38FEFFD
:102D50008BBB9AB38ABB8DB183658DB908956E988C
:102D600087B3897F87BB08954BB321E030E0F90139
:102D700002C0EE0FFF1F8A95E2F7CF012E2F20959C
:102D800042234BBB6FB9779BFECF9BB3892B8BBB89
:102D90008FB108951F920F920FB60F9211242F93A7
:102DA0008F939F93EF93FF938BB12CB18C71E09134
:102DB000B704EF5FEF719091B604E91739F0E09333
:102DC000B704F0E0E654FB4F208301C082E090910D
:102DD000B504892B8093B504FF91EF919F918F915A
:102DE0002F910F900FBE0F901F9018951F920F926A
:102DF0000FB60F9211248F939F93EF93FF939091AF
:102E0000B9048091B804981761F0E091B804EF5FBD
:102E1000EF71E093B804F0E0E652FB4F80818CB98B
:102E200001C05598FF91EF919F918F910F900FBE28
:102E30000F901F9018951092B9041092B804109238
:102E4000B7041092B604992314F422E02BB99078B9
:102E50009093900089B988E98AB986E080939500BB
:102E600008952091B9042F5F2F719091B80429170C
:102E7000E1F3E22FF0E0E652FB4F80832093B904A8
:102E8000559A0895CF93DF93EC018881882331F020
:102E900021960E94311789918111FBCFDF91CF914B
:102EA0000895CF93DF93EC012196FC018491882350
:102EB00039F00E943117FE01849121968111F9CFDA
:102EC000DF91CF9108951F920F920FB60F921124A8
:102ED0002F938F939F93EF93FF9380919B0020916B
:102EE0009C008C71E0917204EF5FEF71909171041E
:102EF000E91739F0E0937204F0E0EB58FB4F2083C0
:102F000001C082E090917004892B80937004FF913E
:102F1000EF919F918F912F910F900FBE0F901F9067
:102F200018951F920F920FB60F9211248F939F93B3
:102F3000EF93FF939091740480917304981769F054
:102F4000E0917304EF5FEF71E0937304F0E0EB56F0
:102F5000FB4F808180939C0005C0EAE9F0E080810E
:102F60008F7D8083FF91EF919F918F910F900FBE86
:102F70000F901F901895CF93DF93CDB7DEB7619771
:102F80000FB6F894DEBF0FBECDBF4AE0BE016F5F43
:102F90007F4F0E94A71A0E94421761960FB6F894BD
:102FA000DEBF0FBECDBFDF91CF9108952F923F922C
:102FB0004F925F926F927F928F929F92AF92BF9249
:102FC000CF92DF92EF92FF920F931F93CF93DF93F5
:102FD000CDB7DEB7A4970FB6F894DEBF0FBECDBF56
:102FE0008C016A017B01390184E2EEE4F2E0DE014A
:102FF000119601900D928A95E1F7CB01BA010E94DA
:103000003E194B015C014AE0B801C4010E94A71AB5
:10301000F8018081882341F0C8010196FC010196E6
:1030200020812111FBCF01C0F8018EE281931F01A5
:10303000660C771C660C771CFE01E60DF71D61819E
:103040007281838194810E9476192B013C01C50114
:10305000B4010E9476199B01AC01C701B6010E9420
:103060005F189B01AC01C301B2010E94021A0E94C9
:103070003E199B01772324F422273327261B370B85
:103080004AE0B101C9010E94A71AC801A4960FB66F
:10309000F894DEBF0FBECDBFDF91CF911F910F918E
:1030A000FF90EF90DF90CF90BF90AF909F908F9068
:1030B0007F906F905F904F903F902F900895505861
:1030C000BB27AA270E9477180C94C8190E94BA1926
:1030D00038F00E94C11920F039F49F3F19F426F40A
:1030E0000C94B7190EF4E095E7FB0C94B119E92F95
:1030F0000E94D91958F3BA17620773078407950716
:1031000020F079F4A6F50C94FB190EF4E0950B2E43
:10311000BA2FA02D0B01B90190010C01CA01A00129
:103120001124FF27591B99F0593F50F4503E68F184
:103130001A16F040A22F232F342F4427585FF3CFC5
:10314000469537952795A795F0405395C9F77EF496
:103150001F16BA0B620B730B840BBAF09150A1F0DF
:10316000FF0FBB1F661F771F881FC2F70EC0BA0F65
:10317000621F731F841F48F4879577956795B795ED
:10318000F7959E3F08F0B0CF9395880F08F09927E8
:10319000EE0F9795879508950E94E0180C94C81932
:1031A0000E94C11958F00E94BA1940F029F45F3FFB
:1031B00029F00C94B11951110C94FC190C94B71905
:1031C0000E94D91968F39923B1F3552391F3951B04
:1031D000550BBB27AA2762177307840738F09F5F38
:1031E0005F4F220F331F441FAA1FA9F335D00E2EA5
:1031F0003AF0E0E832D091505040E695001CCAF712
:103200002BD0FE2F29D0660F771F881FBB1F2617D4
:1032100037074807AB07B0E809F0BB0B802DBF01AB
:10322000FF2793585F4F3AF09E3F510578F00C947A
:10323000B1190C94FC195F3FE4F3983ED4F38695E2
:1032400077956795B795F7959F5FC9F7880F911D9B
:103250009695879597F90895E1E0660F771F881F87
:10326000BB1F621773078407BA0720F0621B730B3A
:10327000840BBA0BEE1F88F7E09508950E9445195C
:103280006894B1110C94FC1908950E94E11988F01A
:103290009F5798F0B92F9927B751B0F0E1F0660F1A
:1032A000771F881F991F1AF0BA95C9F714C0B1305B
:1032B00091F00E94FB19B1E008950C94FB19672F5F
:1032C000782F8827B85F39F0B93FCCF3869577958A
:1032D0006795B395D9F73EF4909580957095619573
:1032E0007F4F8F4F9F4F0895E89409C097FB3EF49E
:1032F00090958095709561957F4F8F4F9F4F992343
:10330000A9F0F92F96E9BB279395F69587957795C0
:103310006795B795F111F8CFFAF4BB0F11F460FF80
:103320001BC06F5F7F4F8F4F9F4F16C0882311F0D8
:1033300096E911C0772321F09EE8872F762F05C0EC
:10334000662371F096E8862F70E060E02AF09A9587
:10335000660F771F881FDAF7880F9695879597F97C
:10336000089597F99F6780E870E060E008959FEF07
:1033700080EC089500240A9416161706180609060C
:10338000089500240A9412161306140605060895DB
:10339000092E0394000C11F4882352F0BB0F40F463
:1033A000BF2B11F460FF04C06F5F7F4F8F4F9F4FA3
:1033B000089557FD9058440F551F59F05F3F71F025
:1033C0004795880F97FB991F61F09F3F79F087958C
:1033D0000895121613061406551FF2CF4695F1DF15
:1033E00008C0161617061806991FF1CF86957105A5
:1033F000610508940895E894BB2766277727CB01D9
:1034000097F908950E94151A0C94C8190E94BA19C8
:1034100038F00E94C11920F0952311F00C94B119D5
:103420000C94B71911240C94FC190E94D91970F34B
:10343000959FC1F3950F50E0551F629FF001729F59
:10344000BB27F00DB11D639FAA27F00DB11DAA1F68
:10345000649F6627B00DA11D661F829F2227B00DB5
:10346000A11D621F739FB00DA11D621F839FA00D40
:10347000611D221F749F3327A00D611D231F849F90
:10348000600D211D822F762F6A2F11249F575040E7
:103490009AF0F1F088234AF0EE0FFF1FBB1F661F62
:1034A000771F881F91505040A9F79E3F510580F02B
:1034B0000C94B1190C94FC195F3FE4F3983ED4F3DB
:1034C000869577956795B795F795E7959F5FC1F7CF
:1034D000FE2B880F911D9695879597F90895DB012E
:1034E0008F939F930E94851ABF91AF91A29F800DE9
:1034F000911DA39F900DB29F900D11240895EE0F82
:10350000FF1F0590F491E02D09940E94981AA59F41
:10351000900DB49F900DA49F800D911D11240895CE
:10352000B7FF0C94851A0E94851A821B930B08958D
:10353000A29FB001B39FC001A39F700D811D1124F4
:10354000911DB29F700D811D1124911D0895BB27FF
:103550004A3031F4992322F4BDE2909581959F4F32
:103560000C94B31ABB27FB015527AA27880F991F74
:10357000AA1FA41710F0A41B83955051B9F7A05DA2
:10358000AA3308F0A95DA193009779F7B111B1931F
:103590001192CB010C94CC1ADC01FC01672F7191C4
:1035A0007723E1F7329704C07C916D937083629129
:1035B000AE17BF07C8F30895E199FECF9FBB8EBB3E
:1035C000E09A99278DB30895A8E1B0E042E050E079
:1035D0000C94031B262FE199FECF9FBB8EBBE09A74
:1035E00001970DB2021631F02DBB0FB6F894E29A96
:1035F000E19A0FBE08950196272F0E94EB1A0C94B2
:10360000EA1ADC01CB01FC01E199FECF06C0FFBB49
:10361000EEBBE09A31960DB20D9241505040B8F792
:063620000895F894FFCFAD
:103626000A02011905000A00070000000106000051
:1036360000020400000003050000001D0100000058
:103646000000000000000000000001000000000073
:10365600000200000000000003000000000000045B
:10366600C80200000000040F02D60200000000039A
:10367600F401E7020000000004D001F90200000096
:1036860000033302080300000000069A010E03003F
:1036960000000004760120036E13C2130000002F01
:1036A6000306137C1500000039032A13A115000038
:1036B6000046034A13C61500000051036710F615AD
:1036C6000000005E037F1018160000006D039710BF
:1036D60031160000007903AF104A16000000890376
:1036E600C71063160000009A03DF107C1600000066
:1036F600A30377119211000000B2038E12E81400A2
:103706000000C103B8121715000000D303E21246E9
:1037160015000000E20351116C11000000F1034096
:10372600128514000000FF036A12B2140000000E96
:10373600042B1146110000001A04C811F1130000F1
:10374600002904F211201400000035041C124F1445
:103756000000004104F71006110000004B0411118F
:10376600201100000056049D119313000000000074
:1037760000000A00000064000000E80300001027B3
:103786000000A086010040420F008096980000E1EC
:10379600F5052E0020430046757465732076657A1C
:1037A60065726C65732076302E3800416C617061ED
:1037B6006C6C61706F74626120616C6C617300493E
:1037C600324320696E646974617300424D45323834
:1037D6003020696E64697461730044533138423233
:1037E600303A200020646200484D56206265616CC4
:1037F6006C697461730050756666657220626561F6
:103806006C6C69746173004B617A616E68617A20D1
:103816007465726D6F737A74004B756C736F206587
:10382600727A656B656C6F0052656C656B005665E8
:103836007A65726C6F206265616C6C697461730085
:10384600537A69766174747975207574616E005463
:1038560065737A74757A656D004D656E7520696459
:103866006F7A69746F004C434420686174746572A2
:1038760000484D562033206A6172617475005A6F94
:103886006E6120666F6C64737A696E74005A6F6E2F
:103896006120656D656C657400507566666572209D
:1038A60033206A61726174750050756666657220B0
:1038B600737A697661747479750047617A207265E6
:1038C6006C650047657068617A20616B7420686F6B
:1038D6006D0047657068617A206D696E20686F6D4E
:1038E6000047657068617A206B6976616E7420683E
:1038F6006F6D0047657068617A20737A656E7A6FBE
:10390600720042756666657220616B7420686F6D21
:1039160000456C6F72656D656E6F20686F6D004255
:10392600756666657220737A656E7A6F7200484DA9
:103936005620616B7420686F6D00484D56206B6988
:1039460076616E7420686F6D00484D56206D696E05
:1039560020686F6D00484D5620737A656E7A6F72D7
:10396600004B756C736F20686F6D004B756C736FD1
:103976002070617261004B756C736F20686F6D20EB
:0839860074696C7461730000A8
:00000001FF
