S015000066757465735F76657A65726C6F2E7372656382
S11300000C9413030C9430030C9430030C943003BD
S11300100C9430030C9430030C9430030C94300390
S11300200C9430030C9430030C9430030C94300380
S11300300C94470A0C9430030C9430030C94300352
S11300400C9430030C9430030C943E150C946A15F4
S11300500C9430030C94280A0C9430030C94300351
S11300600C9430030C9430030C9430030C94300340
S11300700C9430030C9430030C94D7150C9405168F
S11300800C9430030C9430030C943003060A130AC6
S1130090130A130A130A130A130A130A080A130A7F
S11300A0130A130A0A0A130A130A130A130A130A6D
S11300B00C0A130A0E0A020A130A130A130A100A74
S11300C0120A040A130A130A130A130A060A130A61
S11300D0130A130A130A130A130A130A080A130A3F
S11300E0130A130A0A0A130A130A130A130A130A2D
S11300F00C0A130A0E0A020A130A130A130A100A34
S1130100120A040A436F756C64206E6F7420636F67
S11301106E6E65637420746F2073656E736F720006
S113012020445331384232302073656E736F7273DA
S11301300A00466F756E642000496E7465727275AC
S1130140707420656E61626C65640A004275732088
S11301506572726F720A004E6F2073656E736F72F0
S113016020666F756E640A00427573207363616E56
S11301706E696E67202E2E2E0A0047415320616E51
S1130180642046495253545F464C4F4F525F564188
S11301904C56452C205345434F4E445F464C4F4FDD
S11301A0525F56414C56452072656C6179206465F6
S11301B0616374697661746564005345434F4E44CA
S11301C05F464C4F4F525F56414C56452072656C0A
S11301D06179206465616374697661746564005350
S11301E045434F4E445F464C4F4F525F56414C5629
S11301F0452072656C617920616374697661746508
S1130200640046495253545F464C4F4F525F564127
S11302104C56452072656C6179206465616374692C
S113022076617465640046495253545F464C4F4F9F
S1130230525F56414C56452072656C61792061636A
S113024074697661746564004741532072656C611A
S11302507920616374697661746564004448572049
S113026050574D20646561637469766174656400F8
S11302704448572072656C617920646561637469D0
S11302807661746564004448572050574D2061637B
S113029074697661746564004448572072656C61C2
S11302A079206163746976617465640050756D705A
S11302B0616B3A2000537A656C6570656B3A200077
S11302C0484D5620686F6D20004B617A616E6861FD
S11302D07A20686F6D20000A002E0025200A004253
S11302E04D453238302048756D69646974793A2017
S11302F00043200A00424D453238302054656D7069
S1130300657261747572653A20000002040E010F73
S1130310110F0002040E111F100E000204000C0441
S1130320040E0002040E1111110E00050A0E111123
S1130330110E000204001111130D00050A00111121
S1130340130D00FF4C434420686174746572004DC2
S1130350656E752069646F7A69746F20286D7029E1
S1130360004B696B617063736F6C76610042656BFF
S1130370617063736F6C7661005465737A74757A17
S1130380656D0052656C65206B696B617063736F9A
S11303906C76610052656C652062656B6170637395
S11303A06F6C76610033206A61726174752032204B
S11303B0616C6C61706F740052656C65206B696B65
S11303C0617063736F6C76610052656C6520626561
S11303D06B617063736F6C76610033206A61726164
S11303E07475203220616C6C61706F740052656C9E
S11303F065206B696B617063736F6C766100526525
S11304006C652062656B617063736F6C7661003339
S1130410206A6172617475203120616C6C61706F47
S1130420740052656C65206B696B617063736F6CEB
S113043076610052656C652062656B617063736FF1
S11304406C7661005A6F6E61737A656C65702032E8
S113045020616C6C61706F740052656C65206B690F
S11304606B617063736F6C76610052656C652062BA
S1130470656B617063736F6C766100484D562070D4
S1130480756D706120616C6C61706F740052656C85
S113049065206B696B617063736F6C766100526584
S11304A06C652062656B617063736F6C7661003399
S11304B0206A6172617475203220616C6C61706FA6
S11304C0740052656C65206B696B617063736F6C4B
S11304D076610052656C652062656B617063736F51
S11304E06C76610033206A61726174752031206119
S11304F06C6C61706F740052656C65206B696B6124
S11305007063736F6C76610052656C652062656B15
S1130510617063736F6C7661005A6F6E61737A6594
S11305206C6570203220616C6C61706F7400526570
S11305306C65206B696B617063736F6C76610052DC
S1130540656C652062656B617063736F6C766100C6
S11305505A6F6E61737A656C6570203120616C6CC2
S113056061706F740050574D3A200052656C6520DD
S11305706B696B617063736F6C76610052656C6557
S11305802062656B617063736F6C766100484D56D1
S11305902070756D706120616C6C61706F740050B7
S11305A0574D0052656C6500484D562070756D704E
S11305B06120746970757300484D5620737A656EB6
S11305C07A6F7220494400484D56206D696E206848
S11305D06F6D00484D56206B6976616E7420686FAC
S11305E06D00484D5620616B7420686F6D00424D5C
S11305F045323830206B6976616E7420686F6D0007
S1130600424D45323830206D696E20686F6D00426E
S11306104D45323830207061726100424D453238A8
S11306203020686F6D0011241FBECFEFD0E1DEBF14
S1130630CDBF14E0A0E0B1E0E8E2F3E302C005902E
S11306400D92AA30B107D9F725E0AAE0B4E001C0C1
S11306501D92AE31B207E1F70E94100D0C9492196D
S11306600C940000CF93DF93C82F8CEE0E944F08A8
S1130670811111C08C2F0E9474080E949C088DEE79
S11306800E944F0881110AC00E949108C82FD0E02F
S11306900E949C0805C0C0E0D0E002C0C0E0D0E0E9
S11306A0CE01DF91CF910895CF93DF93C82F8CEEC5
S11306B00E944F08811118C08C2F0E9474080E9458
S11306C09C088DEE0E944F08811111C00E9486087B
S11306D0C82FD0E0DC2FCC270E949108C82B0E94A1
S11306E09C088C2F9D2F05C080E090E002C080E024
S11306F090E0DF91CF9108950E94540398278927B1
S113070098270895CF92DF92EF92FF92F82E8CEE05
S11307100E944F0881112EC08F2D0E9474080E94E0
S11307209C088DEE0E944F0881111BC00E94860810
S1130730C82ED12CE12CF12CFE2CED2CDC2CCC245D
S11307400E948608C82AFE2CED2CDC2CCC240E94A6
S11307509108C82A0E949C086C2D7D2D8E2D9F2DFA
S11307600DC084E091E00E94C51560E070E080E077
S113077090E004C060E070E080E090E0FF90EF90D3
S1130780DF90CF9008950F931F93CF93DF9388E862
S11307900E947C03CCE9D4E0998388838AE80E9490
S11307A07C039B838A838CE80E947C039D838C83D7
S11307B08EE80E947C039F838E8380E90E947C03E1
S11307C09987888782E90E947C039B878A8784E9CA
S11307D00E947C039D878C8786E90E947C039F8707
S11307E08E8788E90E947C03998B888B8AE90E9412
S11307F07C039B8B8A8B8CE90E947C039D8B8C8B66
S11308008EE90E947C039F8B8E8B81EA0E943203C7
S1130810888F81EE0E947C039A8F898F83EE0E94D9
S113082032038B8F84EE0E9432038C0185EE0E948A
S1130830320302951295107F1027007F10278F70C6
S11308409927802B912B9D8F8C8F86EE0E943203EB
S11308508C0185EE0E94320302951295107F1027B9
S1130860007F1027929582958F7089279F70892722
S1130870802B912B9F8F8E8F87EE0E94320388A34B
S1130880DF91CF911F910F9108958CEE0E944F0834
S113089081111EC082EF0E94740885E00E947408D2
S11308A084EF0E94740887EB0E94740880ED0E9414
S11308B074080E94C3030E949C088DEE0E944F0896
S11308C0811106C00E9491080E94A5150E949C08EF
S11308D008958F929F92AF92BF92CF92DF92EF9240
S11308E0FF920F931F938AEF0E948203ECE9F4E0D6
S11308F00081118120E030E0C72ED82EE92EFF249C
S1130900E7FCFA94C01AD10AE20AF30ADC01CB012B
S1130910689416F8B595A795979587951694D1F789
S1130920000F111F221F331F4C015D01801A910A11
S1130930A20AB30AA5019401A281B3810E942D19D0
S11309404B015C01072E7BE0B594A79497948794A0
S11309507A95D1F7702DA7019601C701B6010E94BF
S11309600C199B01AC01012E1CE055954795379558
S113097027951A95D1F7102DA481B5810E942D19C0
S1130980DC01CB01072E7EE0B595A7959795879559
S11309907A95D1F7702D880D991DAA1DBB1D8093E2
S11309A0BD049093BE04A093BF04B093C0048C0113
S11309B09D01000F111F221F331F000F111F221F43
S11309C0331F800F911FA21FB31F80589F4FAF4F3B
S11309D0BF4F692F7A2F8B2F99270E94E81720E0A9
S11309E030E048EC52E40E9440171F910F91FF90B1
S11309F0EF90DF90CF90BF90AF909F908F9008952D
S1130A004F925F926F927F928F929F92AF92BF921A
S1130A10CF92DF92EF92FF920E9469048DEF0E94C1
S1130A2054038090BD049090BE04A090BF04B09085
S1130A30C0042CE2921A21E0A20AB1086C01E12C54
S1130A40F12C0B2EBEE0CC0CDD1CEE1CFF1CBA9569
S1130A50D1F7B02DECE9F4E0848D958D092E000CCE
S1130A60AA0BBB0B072E74E1880F991FAA1FBB1F8B
S1130A707A95D1F7702DC81AD90AEA0AFB0AA68D0D
S1130A80B78DA50194010E942D19C61AD70AE80A48
S1130A90F90A30E4D30EE11CF11C0B2EBFE0F594EF
S1130AA0E794D794C794BA95D1F7B02DA38DB0E04D
S1130AB0A50194010E9422192B013C01032E3BE065
S1130AC075946794579447943A95D1F7302D40E83C
S1130AD0540E611C711CA0A10A2E000CBB0BA501B5
S1130AE094010E942D19052E5AE0959587957795C6
S1130AF067955A95D1F7502DA30192010E940C19C4
S1130B00DC01CB01072E7AE0B595A79597958795DB
S1130B107A95D1F7702D9C01AD01405E5F4FA18D98
S1130B20B28D0E942D19DC01CB01905EAF4FBF4FF7
S1130B30BC01CD01052E5EE0959587957795679567
S1130B405A95D1F7502DA70196010E940C196B01FB
S1130B507C01052E5FE095958795779567955A9565
S1130B60D1F7502D9B01AC010E940C199B01AC01E3
S1130B70689416F855954795379527951694D1F7A7
S1130B80A08DB0E00E942219DC01CB01689413F817
S1130B90B595A795979587951694D1F7A7019601D2
S1130BA0281B390B4A0B5B0BDA01C9011AF480E0EC
S1130BB090E0DC0181309105A10539E1B30724F00F
S1130BC080E090E0A0E0B9E1BC01CD01052E5CE03D
S1130BD095958795779567955A95D1F7502D0E94ED
S1130BE0EA1720E030E040E85AE30E947B18FF90C7
S1130BF0EF90DF90CF90BF90AF909F908F907F90B9
S1130C006F905F904F90089561157105A9F0FC01F4
S1130C10680F791F80E048E1219198E0382F32274E
S1130C2030FF0CC084278695806826959150B1F7D3
S1130C30E617F70789F7089580E008958695F5CFBC
S1130C400F931F93CF93DF93DB01EC9111969C914B
S1130C501197F0E0F92B803181F4EE7FEE0FFF1F46
S1130C60EE0FFF1FEE0FFF1F16969C9116976CE078
S1130C7070E0691B7109E60FF71FFF233CF491E054
S1130C80EA019883F195E195F10902C0EA0118821D
S1130C90883279F414968C91982F9076903649F096
S1130CA086FF02C0EE7F05C085FF02C0EC7F01C055
S1130CB0E87FCF01929582958F7089279F7089274D
S1130CC0D9018C93EF70E801E88380E0DF91CF9144
S1130CD01F910F9108950F931F93CF93DF93EC010E
S1130CE08B01B80188810E94CD07888381508D3F94
S1130CF030F4F8018081883211F0803191F7DF916E
S1130D00CF911F910F9108950F931F93CF93C82FE5
S1130D108B010E9419070E94FD06882351F0B80137
S1130D2084E40E942708C13031F00E94060780E065
S1130D3003C082E001C080E0CF911F910F9108951C
S1130D406F927F928F929F92AF92BF92CF92DF92D7
S1130D50EF92FF920F931F93CF93DF93CDB7DEB73C
S1130D6029970FB6F894DEBF0FBECDBF6C015B01AF
S1130D703A0149010E941907B6018EEB0E94270827
S1130D808E010F5F1F4F7E018AE0E80EF11C0E9466
S1130D90C907F80181938F01EE15FF05C1F769E0DA
S1130DA070E0CE0101960E940406F82E81110BC05A
S1130DB084019301A501BE016F5F7F4FF60180811D
S1130DC00E94200604C00F2EF3E0FF2EF02D8F2D7D
S1130DD029960FB6F894DEBF0FBECDBFDF91CF9139
S1130DE01F910F91FF90EF90DF90CF90BF90AF9045
S1130DF09F908F907F906F900895E091C404F0913C
S1130E00C50490818091C30489230895E091C104AD
S1130E10F091C20490818091C304892B8083E09176
S1130E20C604F091C70490818091C304892B808308
S1130E300895E091C104F091C20490818091C304AB
S1130E40809589238083E091C604F091C704908142
S1130E508091C304892B80838FE897E081159105E5
S1130E6011F00197F1F72FB7F894E091C604F091CF
S1130E70C70490818091C30480958923808389E08D
S1130E8091E08115910511F00197F1F7E091C40407
S1130E90F091C50430818091C3042FBFE5E8F6E0EA
S1130EA0E115F10511F03197F1F7E091C404F091E7
S1130EB0C50420819091C304922311F083230895E3
S1130EC081E008955093C7044093C6047093C2040C
S1130ED06093C1049093C5048093C40481E001C06D
S1130EE0880F2A95EAF78093C3040E94190708958E
S1130EF03FB7F894E091C604F091C7042081909123
S1130F00C304922B9083E3E0F0E0E115F10511F0C6
S1130F103197F1F7882351F0E091C604F091C704AA
S1130F2020819091C304909592239083E8E3F0E0AC
S1130F30E115F10511F03197F1F7E091C404F09156
S1130F40C50420819091C304292309F480E0E5EBD2
S1130F50F0E0E115F10511F03197F1F7E091C604E5
S1130F60F091C70420819095922390833FBF089508
S1130F70CF93DF93C82FD8E08C2F81700E9478071D
S1130F80C6958111C068D150B9F78C2FDF91CF91EC
S1130F9008958FEF0E94B8070895DF92EF92FF92B1
S1130FA00F931F93CF93DF93D82E8B010E941907C1
S1130FB081112BC080EF0E94B807E12CC0E40F2EF2
S1130FC0F8EFFF2EF02DFC0E81E00E947807D82F59
S1130FD081E00E947807882319F0DD23D1F017C03F
S1130FE0D11124C0CD15E8F0F801808180FF11C033
S1130FF0CD111AC00EC0C150FC12E6CF0F5F1F4FB7
S1131000CF2DF110DCCF8E2D1AC08FEF18C08EEFCC
S113101016C080E00E947807F8019081969590832D
S1131020EACFEC2ED1E002C0EC2ED1E08D2F0E944D
S11310307807F8019081969590689083DCCFDF91D2
S1131040CF911F910F91FF90EF90DF900895FF9241
S11310500F931F93CF93DF93F82EEB010E94190790
S1131060209769F085E50E94B8078E01085F1F4F3D
S113107089910E94B807C017D107D1F703C08CEC3F
S11310800E94B8078F2D0E94B807DF91CF911F915E
S11310900F91FF9008958EE2809370000895E4E725
S11310A0F0E0108294EA908390819923ECF7909178
S11310B07100987F9830A1F48093730084E8809342
S11310C07400E4E7F0E080818823ECF790917100EC
S11310D0987F983139F081E0903429F480E00895C4
S11310E081E0089580E008958093730084E88093FC
S11310F07400E4E7F0E080818823ECF790917100BC
S1131100987F81E0983209F480E0089584EC80931C
S11311107400E4E7F0E080818823ECF780917300A9
S1131120089584E880937400E4E7F0E080818823E4
S1131130ECF780917300089584E980937400089516
S1131140AD9A00C000C0AD980895CF93C82F662310
S113115011F0AF9A01C0AF98AE98A49AA39AA29A3C
S1131160A19AA998AA98AB98AC98CC230CF4A99A04
S1131170C6FDAA9AC5FDAB9AC4FDAC9A0E94A0080C
S1131180A998AA98AB98AC98C3FDA99AC2FDAA9A4B
S1131190C1FDAB9AC0FDAC9A0E94A008AC9AAB9A70
S11311A0AA9AA99ACF910895882311F0AF9A01C001
S11311B0AF98AE9AA498A398A298A198AD9A00C0AB
S11311C000C09C9B02C080E101C080E09B998062CA
S11311D09A99806499998068AD9800C000C0AD9ACE
S11311E000C000C09C9981609B9982609A99846038
S11311F099998860AD98089580E00E94D408882366
S1131200DCF388E090E00197F1F780E00E94D408D5
S11312100895CF93C82F0E94FC0860E08C2F0E9491
S1131220A508CF910895611104C080580E9409094E
S11312300895613021F480540E94090908956230B0
S113124021F48C560E94090908958C520E940909C0
S1131250089581E00E9409090895CF93C82F0E9440
S1131260FC08CA30A1F4843148F090EC980F943112
S113127038F084518C3230F080E005C080E403C043
S113128084E101C084E580580E94090904C061E03A
S11312908C2F0E94A508CF910895CF93DF93EC0182
S11312A02196FC018081882329F00E942D098991CF
S11312B08111FBCFDF91CF910895CF93DF93EC01A0
S11312C02196FC018491882339F00E942D09FE01A6
S11312D0849121968111F9CFDF91CF9108951F93C5
S11312E0CF93DF93182FA79AA69AA59AA49AA39AA4
S11312F0A29AA19A80E09AEF0197F1F7AB9AAC9A7F
S11313000E94A00880E09EE40197F1F70E94A008E3
S1131310C0E0D1E0CE010197F1F70E94A008CE0110
S11313200197F1F7AC980E94A0082197F1F788E2A1
S11313300E94090988E00E9409090E94290986E09F
S11313400E940909812F0E940909DF91CF911F9101
S11313500895CF93DF93EC01AF98FC0184918770DB
S1131360880F880F880F80640E942D09AF9A9E0110
S11313702E5F3F4FFE01319684918F3F41F0E9018A
S11313800E942D09FE01849121968F3FC9F7AF98E1
S1131390AF9ADF91CF910895CF93DF93D82FC8E010
S11313A0DD2324F481E30E942D0903C080E30E941D
S11313B02D09DD0FC150A1F7DF91CF910895CF938F
S11313C0DF9300D000D0CDB7DEB74AE0BE016F5F37
S11313D07F4F0E944419CE0101960E944D090F903F
S11313E00F900F900F90DF91CF910895482F50E008
S11313F0FA01E15CF109EC33F105A8F4EA5BFF4F73
S11314000C941C198FEE0FC085EF0DC080E00BC04B
S113141081E009C082E007C083E005C084E003C026
S113142085E001C086E00E942D090895CF93DF93E3
S1131430EC012196FC018491882339F00E94F6097D
S1131440FE01849121968111F9CFDF91CF91089506
S11314501F920F920FB60F9211248F939F9384B112
S113146095B10A9738F48AE090E0909383008093D2
S1131470820006C084B195B190938300809382006A
S11314809F918F910F900FBE0F901F9018951F92F0
S11314900F920FB60F9211248F93809111048091B3
S11314A011048F5F809311048F910F900FBE0F90E2
S11314B01F9018951F93CF93DF9300D01F92CDB741
S11314C0DEB780911004813091F138F0823009F454
S11314D058C0833009F47BC0D6C00E94690460936D
S11314E0DA047093DB048093DC049093DD04409170
S11314F0DA045091DB046091DC047091DD0422E095
S113150030E08BEC94E00E944A1685EF92E00E9452
S1131510C5158BEC94E00E94B61581EF92E00E9411
S1131520C515809110048F5F80931004AEC00E9493
S11315300005609314057093150580931605909328
S11315401705409114055091150560911605709189
S1131550170522E030E088E195E00E944A168FEDFD
S113156092E00E94C51588E195E00E94B6158BEDC6
S113157092E00E94C515809110048F5F809310043F
S113158084C020E047E350E068E370E086E390E045
S11315900E9462078091CA04882399F010E0612FA9
S11315A070E0660F771F660F771F660F771F6D5108
S11315B07B4F81E00E9484061F5F8091CA04181744
S11315C070F3809110048F5F809310045EC020E05C
S11315D047E350E068E370E086E390E00E9462072E
S11315E08091CA04882309F448C010E0812F90E058
S11315F0880F991F880F991F880F991F9E012D5FCF
S11316003F4FAE014E5F5F4FBE016F5F7F4F8D5105
S11316109B4F0E94A006811114C0898190E00E9412
S11316202F168A8190E00E942F1689ED92E00E9485
S1131630C5158B8190E00E942F1687ED92E00E94E1
S1131640C51580910A04811312C08A818093D9043C
S11316508091D9044AE065ED74E090E00E94441959
S11316608B814AE061ED74E090E00E9444191F5FB1
S11316708091CA04181708F4B9CF809110048F5FC1
S11316808093100402C01092100480910201811111
S11316903FC00E94290989EC92E00E94160A8BEC53
S11316A094E00E944D098DE592E00E944D0961E0AD
S11316B080E00E94130980EC92E00E94160A85EDF6
S11316C094E00E944D0980E692E00E944D0981ED6C
S11316D094E00E944D098DE592E00E944D0962E07C
S11316E080E00E94130985EB92E00E94160A809123
S11316F00C040E94CC0963E080E00E9413098CEA88
S113170092E00E94160A80910D040E94CC0905C043
S11317108091020181508093020180910E04811115
S113172001C0369A0F900F900F90DF91CF911F91C7
S11317300895DF92EF92FF920F931F93CF93DF935D
S1131740CDB7DEB729970FB6F894DEBF0FBECDBF75
S113175088E691E00E94C5158FEF89870F2EF3EE7E
S1131760EF2EF4E0FF2EF02DD12C8E01075F1F4FDA
S1131770BE016F5F7F4FC8010E946B0699859F3F32
S113178029F487E591E00E94C51518C09E3F29F40D
S11317908CE491E00E94C51511C0FE013196D70179
S11317A081918D93E017F107D9F7D394992331F000
S11317B088E0E80EF11C86E0D812DACF8D2D299648
S11317C00FB6F894DEBF0FBECDBFDF91CF911F914E
S11317D00F91FF90EF90DF900895089508950E946F
S11317E0141560910C0483E00E9428150E942315AF
S11317F008950E94141560910D0482E00E9428153A
S11318000E9423150895CF92DF92EF92FF92909158
S1131810D9048091DF049817B0F580910B0480FD02
S11318200AC080910D04826080930D0488E992E0DF
S11318300E94C51540C086E892E00E94C5158091BB
S1131840C8042091D90490E0821B91098F3191053D
S113185018F084E183BD2FC08531910518F08CE325
S113186083BD29C08B30910518F086E983BD23C060
S11318708630910518F08CED83BD1DC0892BD9F0FD
S113188080EF83BD18C09091D9048091C804891752
S113189090F480910B0480FD0AC080910D048D7F2B
S11318A080930D0480E792E00E94C51504C08CE586
S11318B092E00E94C5158091620081FD1AC080915A
S11318C0620082FD16C060910001C090DA04D090DD
S11318D0DB04E090DC04F090DD0470E080E090E054
S11318E00E94EA17A70196010E94761818160CF0B8
S11318F043C080910D04806180930D0480910C0499
S11319008F7E80930C0488E492E00E94C515809138
S1131910620081FF09C080910C04826080930C04F2
S113192086E292E00E94C5158091620081FD09C0A3
S113193082E092E00E94C51580910C048D7F809313
S11319400C048091620082FF09C080910C048460C1
S113195080930C048FED91E00E94C5158091620084
S113196082FD18C080910C048B7F80930C048AEB59
S113197091E00E94C5150EC080910D048F7E809366
S11319800D0480910C04897F80930C048AE791E014
S11319900E94C5150E94F90B0E94EF0BFF90EF9077
S11319A0DF90CF90089580E090E00E9479198093B1
S11319B00A0484E090E00E9479198093C80483E0CB
S11319C090E00E9479198093130582E090E00E94D0
S11319D079198093DF0486E090E00E94791980935E
S11319E0010185E090E00E9479198093000181E073
S11319F090E00E94791980930B0489E090E00E94A2
S1131A00791980930F0488E090E00E9479198093FB
S1131A10030187E090E00E94791980930E040895F1
S1131A200E94D30C80910301809302018CE00E94F8
S1131A306F098AE093E00E94A9090E94290982E6BD
S1131A4092E00E944D0987E690E00E948F15A1E67E
S1131A50B0E08C918E7F8C93E2E6F0E080818E7F03
S1131A608083A09A8C918D7F8C9380818660808303
S1131A7010920C0410920D0461E080E00E9413099E
S1131A8086E792E00E944D0962E080E00E9413091B
S1131A90CAE088E70E942D092FEF83ED90E32150DF
S1131AA080409040E1F700C00000C15091F70E94CF
S1131AB029098AE892E00E944D090E944B0861E0DE
S1131AC080E00E94130986E992E00E944D090E9479
S1131AD04504789489E391E00E94C515A89581B5E1
S1131AE0886181BD81B5876081BD20E047E350E016
S1131AF068E370E086E390E00E9462070E94990B1D
S1131B008093CA0482E391E00E94C5158091CA04BF
S1131B1090E00E942F1680E291E00E94C51562E0D9
S1131B2080E00E94130985EA92E00E944D098091A9
S1131B30CA0490E00E94DF098FEA92E00E944D09F6
S1131B40EBE8F0E0808189608083EAE8F0E080815E
S1131B508B60808380E890E0909383008093820080
S1131B60159A1D9A63E080E00E94130980E009C081
S1131B7090911004981729F088E70E942D0980910C
S1131B8010049091E0049111F3CF8EB584608EBD62
S1131B901DBC1CBC84E294EF9BBD8ABD87B78061E9
S1131BA087BF86B18F6C86B90E946A0E809111043A
S1131BB0813099F4809111048F5F809311040E9405
S1131BC05A0A80910F04811105C08091E0048111AB
S1131BD00E94030CA895109211040E946F0EE6CF88
S1131BE0EF92FF920F931F93CF93DF930E942909E3
S1131BF00E940815EC010E940B15E0911801F09168
S1131C00190196819923A1F0A081B1811696AC9116
S1131C1087E0A89FD0011124A65EBE4F12960D90B6
S1131C20BC91A02D1796CD91DC91189716968C91A6
S1131C3024819581291BE82EF12C1E141F04A4F580
S1131C4030E08901000F111F000F111F000F111F39
S1131C50200F311F8E01020F131FC0E0D0E06C2F44
S1131C6080E00E941309E0911801F0911901858127
S1131C7090E08C179D0721F48EE30E942D0903C088
S1131C8080E20E942D0980E20E942D09F8018081E2
S1131C9091810E944D092196CE15DF0529F0075F39
S1131CA01F4FC430D105D9F6DF91CF911F910F9109
S1131CB0FF90EF900895EAE1F1E0F0931901E093C9
S1131CC018011182108213821282148215820E94DA
S1131CD0F00D08950E940D150E945B0E08957F92E9
S1131CE08F929F92AF92BF92CF92DF92EF92FF9228
S1131CF00F931F93CF93DF93C4E0D1E008E111E089
S1131D00AA24A394B12C812C912C772473940F2EA4
S1131D10F6E3CF2EF1E0DF2EF02D0F2EFAE1EF2EB9
S1131D20F1E0FF2EF02DDE0120B330E0098002C087
S1131D30359527950A94E2F78A2D9B2D20FF02C042
S1131D40882D992D12962D913C911397220F331FB4
S1131D50306E282B392B13963C932E931297211512
S1131D60304F09F009C114967C92149780910301B5
S1131D7080930201A89A4091180150911901FA0127
S1131D809681943009F4D3C08C918130C1F038F03D
S1131D90823009F442C0833009F4A0C0AFC084810A
S1131DA0882309F4B4C09581911103C081508483C0
S1131DB0AEC09150FA01958381508483A8C00E94DB
S1131DC00B15E0911801F09119019681992309F4FA
S1131DD0DCC04481242F30E0A081B1811696AC91FF
S1131DE087E0A89FD0011124A65EBE4F12960D90E5
S1131DF0BC91A02D16968C9190E001972817390775
S1131E000CF07CC08581833019F44F5F448376C025
S1131E108F5F85834F5F448371C00E940815A09132
S1131E201801B091190116964C911697442379F034
S1131E30ED91FC911197E68127E0E29FF0011124D6
S1131E40E65EFE4F0280F381E02D87819085149633
S1131E505C911497252F30E0F901EE0FFF1FEE0F70
S1131E60FF1FEE0FFF1F2E0F3F1F280F391FF90111
S1131E7082819381892B81F013963C932E93129740
S1131E80D0921901C0921801F701B58FA48F378F32
S1131E90268F50A311A232C0F90187819085892B26
S1131EA069F113963C932E931297842F90E0019638
S1131EB0FC01EE0FFF1FEE0FFF1FEE0FFF1FE81BCD
S1131EC0F90BE65EFE4FF0931901E0931801B1831C
S1131ED0A083138212821482158210C09923B9F050
S1131EE00190F081E02D8681B7E08B9FC001112421
S1131EF0865E9E4F9093190180931801A09118015A
S1131F00B091190116968C911697843019F00E949D
S1131F10F00D35C0ED91FC9111970280F381E02D15
S1131F200280F381E02D14968C91099528C0FA0162
S1131F3080819181FC0182819381FC01248135811E
S1131F40FA016481CD01F90109958823C1F0E0917A
S1131F501801F09119010190F081E02D8681F7E0DC
S1131F608F9FC0011124865E9E4F90931901809328
S1131F7018010E94F00D03C014961C92A89825968F
S1131F80C017D10709F0CFCE0AC04481242F30E016
S1131F9090E00197281739070CF434CFB8CFDF91BC
S1131FA0CF911F910F91FF90EF90DF90CF90BF9052
S1131FB0AF909F908F907F9008950E94290988EA9E
S1131FC095E00E94160A61E080E00E941309809166
S1131FD00B0480FD05C083EA95E00E94160A08956B
S1131FE08FE995E00E945D0908950E94290980E522
S1131FF095E00E94160A61E080E00E941309809136
S11320000C0481FF05C08FE395E00E94160A089531
S11320108EE295E00E94160A08950E94290989E13A
S113202095E00E94160A61E080E00E941309809105
S11320300C0482FF05C088E095E00E94160A08950A
S113204087EF94E00E94160A08950E94290984EEFD
S113205094E00E94160A61E080E00E9413098091D6
S11320600C0483FF05C083ED94E00E94160A0895D2
S113207082EC94E00E94160A08950E9429098FEACE
S113208094E00E94160A61E080E00E9413098091A6
S11320900C0484FF05C08EE994E00E94160A08959A
S11320A08DE894E00E94160A08950E9429098BE79E
S11320B094E00E94160A61E080E00E941309809176
S11320C00D0481FF05C08AE694E00E94160A089573
S11320D089E594E00E94160A08950E94290984E47F
S11320E094E00E94160A61E080E00E941309809146
S11320F00C0482FF05C083E394E00E94160A08954D
S113210082E294E00E94160A08950E9429098FE051
S113211094E00E94160A61E080E00E941309809115
S11321200C0483FF05C08EEF93E00E94160A089505
S11321308DEE93E00E94160A08950E9429098AED03
S113214093E00E94160A61E080E00E9413098091E6
S11321500C0484FF05C089EC93E00E94160A0895DC
S113216088EB93E00E94160A08950E94290985EAE3
S113217093E00E94160A61E080E00E9413098091B6
S11321800C0484FF05C084E993E00E94160A0895B4
S113219083E893E00E94160A08950E94290989E7BA
S11321A093E00E94160A61E080E00E941309809186
S11321B00F04882329F08DE693E00E94160A0895FF
S11321C081E693E00E94160A08950E9429098BE192
S11321D096E00E94160A61E080E00E9413098BECED
S11321E094E00E944D090895FC018081833029F018
S11321F0862F0E94E51080E0089581E008950E94F2
S113220029098FE096E00E94160A61E080E00E94AE
S1132210130988E195E00E944D090895FC0180812D
S1132220833029F0862F0E94FF1080E0089581E01A
S11322300895CF93DF9300D000D000D0CDB7DEB7A0
S11322400E9429098DE895E00E94160A61E080E069
S11322500E94130980910B0480FD0EC080910D042F
S113226081FF05C08CE795E00E94160A11C08BE639
S113227095E00E94160A0CC085E695E00E945D096F
S113228083B54AE0BE016F5F7F4F90E00E9444191E
S113229026960FB6F894DEBF0FBECDBFDF91CF9167
S11322A00895CF93DF93CDB7DEB72A970FB6F8948E
S11322B0DEBF0FBECDBF809101014AE0BE016F5F5A
S11322C07F4F90E00E9444190E94290980E096E023
S11322D00E94160A61E080E00E941309CE01019673
S11322E00E944D092A960FB6F894DEBF0FBECDBFEB
S11322F0DF91CF910895CF93DF93CDB7DEB72A97BF
S11323000FB6F894DEBF0FBECDBF809100014AE046
S1132310BE016F5F7F4F90E00E9444190E9429091B
S11323208EEE95E00E94160A61E080E00E94130997
S1132330CE0101960E944D092A960FB6F894DEBF8D
S11323400FBECDBFDF91CF910895CF93DF93CDB76B
S1132350DEB727970FB6F894DEBF0FBECDBF8091CE
S1132360D9044AE0BE016F5F7F4F90E00E94441998
S11323700E94290982EE95E00E94160A61E080E03D
S11323800E941309CE0101960E944D0927960FB6AB
S1132390F894DEBF0FBECDBFDF91CF910895FC014D
S11323A08081833029F0862F0E94A51180E0089552
S11323B081E00895CF93DF93CDB7DEB727970FB6AB
S11323C0F894DEBF0FBECDBF8091C8044AE0BE01C1
S11323D06F5F7F4F90E00E9444190E94290983EDAA
S11323E095E00E94160A61E080E00E941309CE0184
S11323F001960E944D0927960FB6F894DEBF0FBED2
S1132400CDBFDF91CF910895CF93DF93CDB7DEB7E2
S11324102A970FB6F894DEBF0FBECDBF8091DF04BC
S11324204AE0BE016F5F7F4F90E00E9444190E9412
S1132430290987EC95E00E94160A61E080E00E9479
S11324401309CE0101960E944D092A960FB6F894FD
S1132450DEBF0FBECDBFDF91CF910895CF93DF9341
S113246000D000D0CDB7DEB70E94290988EB95E0F3
S11324700E94160A61E080E00E94130980910A0418
S11324804AE0BE016F5F7F4F90E00E944419CE0185
S113249001960E944D090F900F900F900F90DF91BD
S11324A0CF910895CF93DF9300D000D0CDB7DEB79E
S11324B00E9429098FE493E00E94160A8091030187
S11324C04AE0BE016F5F7F4F90E00E944419CE0145
S11324D001960E944D090F900F900F900F90DF917D
S11324E0CF910895CF93DF9300D000D0CDB7DEB75E
S11324F00E94290984E493E00E94160A61E080E0C6
S11325000E94130980910E044AE0BE016F5F7F4F61
S113251090E00E944419CE0101960E944D090F904B
S11325200F900F900F90DF91CF910895FC0190814F
S1132530913061F028F0923079F09330D1F014C0EA
S1132540809101018F5F809301010EC08091010190
S113255081508093010108C06091010186E090E000
S11325600E94811981E00895862F0E94511180E014
S1132570089581E00895FC019081913061F028F084
S1132580923079F09330D1F014C0809100018F5FC4
S1132590809300010EC0809100018150809300015E
S11325A008C06091000185E090E00E94811981E0FB
S11325B00895862F0E947B1180E0089581E008959C
S11325C0FC019081913061F028F0923079F09330E1
S11325D0D1F014C08091C8048F5F8093C8040EC0EA
S11325E08091C80481508093C80408C06091C804D5
S11325F084E090E00E94811981E00895862F0E9472
S1132600DA1180E0089581E00895FC019081913011
S113261061F028F0923079F09330D1F014C08091B9
S1132620DF048F5F8093DF040EC08091DF0481504C
S11326308093DF0408C06091DF0482E090E00E9490
S1132640811981E00895862F0E94041280E0089584
S113265081E00895FC0190819130A1F028F092303E
S113266001F1933059F125C080910A048F5F809362
S11326700A0490910A048091CA0498131AC0109213
S11326800A0417C080910A04815080930A0480913F
S11326900A048F3F71F48091CA04815080930A0424
S11326A008C060910A0480E090E00E94811981E0F2
S11326B00895862F0E942E1280E0089581E00895E7
S11326C0FC019081923059F018F09330A9F00FC0BA
S11326D090910B0481E0892780930B0408C06091DA
S11326E00B0481E090E00E94811981E00895862F17
S11326F00E94DD0F80E0089581E00895FC0190813F
S1132700913061F028F0923079F09330D1F014C018
S113271080910F048F5F80930F040EC080910F048B
S1132720815080930F0408C060910F0489E090E009
S11327300E94811981E00895862F0E94CD1080E0C7
S1132740089581E00895FC019081913061F028F0B2
S1132750923079F09330D1F014C0809103018F5FEF
S1132760809303010EC08091030181508093030183
S113277008C06091030188E090E00E94811981E023
S11327800895862F0E94521280E0089581E00895F2
S1132790FC019081913061F028F0923079F093300F
S11327A029F114C080910E048F5F80930E040EC033
S11327B080910E04815080930E0408C060910E0431
S11327C087E090E00E94811981E0089580910E04D1
S11327D0882339F080910E0490E0909383008093D5
S11327E08200862F0E94721280E0089581E008958D
S11327F0CF93C62FFC018081823018F08430F8F426
S113280023C080910B0480FD12C080910D0480FFD1
S113281006C080910D048D7F80930D0405C08091C6
S11328200D04826080930D040E94F90B08C083B5E7
S11328308B3018F00E94ED0B02C00E94EE0B8C2F1F
S11328400E94191180E001C081E0CF910895CF93D7
S1132850C62FFC018081823018F0843048F40DC00A
S113286090910C0482E0892780930C040E94EF0B62
S11328708C2F0E94F50F80E001C081E0CF91089574
S1132880CF93C62FFC018081823018F0843048F445
S11328900DC090910C0484E0892780930C040E945D
S11328A0EF0B8C2F0E940D1080E001C081E0CF91CE
S11328B00895CF93C62FFC018081823018F08430B4
S11328C048F40DC090910C0488E0892780930C048F
S11328D00E94EF0B8C2F0E94251080E001C081E044
S11328E0CF910895CF93C62FFC018081823018F0D8
S11328F0843048F40DC090910C0480E189278093C2
S11329000C040E94EF0B8C2F0E943D1080E001C04C
S113291081E0CF910895CF93C62FFC01808182304E
S113292018F0843048F40DC090910C0482E089279B
S113293080930C040E94EF0B8C2F0E94551080E0B2
S113294001C081E0CF910895CF93C62FFC0180810F
S1132950823018F0843048F40DC090910C0484E067
S1132960892780930C040E94EF0B8C2F0E946D101A
S113297080E001C081E0CF910895CF93C62FFC0180
S11329808081823018F0843048F40DC090910C049A
S113299088E0892780930C040E94EF0B8C2F0E94FF
S11329A0851080E001C081E0CF910895CF93C62FB8
S11329B0FC018081823018F0843048F40DC090917D
S11329C00C0480E1892780930C040E94EF0B8C2F68
S11329D00E949D1080E001C081E0CF910895CF93C3
S11329E0C62FFC018081823018F0843048F40DC079
S11329F090910C0480E1892780930C040E94EF0BD2
S1132A008C2F0E94B51080E001C081E0CF91089521
S1132A108DE391E0089585E0089581B38F7081BBC3
S1132A2082B3806F82BB089587B3876087BB88B306
S1132A30896088BB8BB38FEF8BBB9AB38ABB8DB194
S1132A4083658DB908956E9887B3897F87BB089590
S1132A504BB321E030E0F90102C0EE0FFF1F8A956D
S1132A60E2F7CF012E2F209542234BBB6FB9779B02
S1132A70FECF9BB3892B8BBB8FB108951F920F920E
S1132A800FB60F9211242F938F939F93EF93FF937D
S1132A908BB12CB18C71E0915904EF5FEF7190917F
S1132AA05804E91739F0E0935904F0E0E45AFB4F75
S1132AB0208301C082E090915704892B80935704AE
S1132AC0FF91EF919F918F912F910F900FBE0F90D7
S1132AD01F9018951F920F920FB60F9211248F9387
S1132AE09F93EF93FF9390915B0480915A049817FE
S1132AF061F0E0915A04EF5FEF71E0935A04F0E063
S1132B00E458FB4F80818CB901C05598FF91EF9137
S1132B109F918F910F900FBE0F901F901895109258
S1132B205B0410925A041092590410925804992389
S1132B3014F422E02BB990789093900089B988E935
S1132B408AB986E080939500089520915B042F5FF5
S1132B502F7190915A042917E1F3E22FF0E0E45821
S1132B60FB4F808320935B04559A0895CF93DF93A2
S1132B70EC018881882331F021960E94A515899162
S1132B808111FBCFDF91CF910895CF93DF93EC01B7
S1132B902196FC018491882339F00E94A515FE0139
S1132BA0849121968111F9CFDF91CF9108951F92DD
S1132BB00F920FB60F9211242F938F939F93EF933D
S1132BC0FF9380919B0020919C008C71E0911404F0
S1132BD0EF5FEF7190911304E91739F0E093140457
S1132BE0F0E0E95EFB4F208301C082E09091120483
S1132BF0892B80931204FF91EF919F918F912F91D4
S1132C000F900FBE0F901F9018951F920F920FB642
S1132C100F9211248F939F93EF93FF939091160437
S1132C2080911504981769F0E0911504EF5FEF7136
S1132C30E0931504F0E0E95CFB4F808180939C00F5
S1132C4005C0EAE9F0E080818F7D8083FF91EF91F8
S1132C509F918F910F900FBE0F901F901895CF9357
S1132C60DF93CDB7DEB761970FB6F894DEBF0FBE22
S1132C70CDBF4AE0BE016F5F7F4F0E9444190E949E
S1132C80B61561960FB6F894DEBF0FBECDBFDF91C7
S1132C90CF9108952F923F924F925F926F927F92BD
S1132CA08F929F92AF92BF92CF92DF92EF92FF9258
S1132CB00F931F93CF93DF93CDB7DEB7A4970FB6CF
S1132CC0F894DEBF0FBECDBF8C016A017B013901D0
S1132CD084E2E9E3F2E0DE01119601900D928A9517
S1132CE0E1F7CB01BA010E94B2174B015C014AE043
S1132CF0B801C4010E944419F8018081882341F07D
S1132D00C8010196FC01019620812111FBCF01C06D
S1132D10F8018EE281931F01660C771C660C771C08
S1132D20FE01E60DF71D61817281838194810E9409
S1132D30EA172B013C01C501B4010E94EA179B016B
S1132D40AC01C701B6010E94D3169B01AC01C301BB
S1132D50B2010E947B180E94B2179B01772324F4CE
S1132D6022273327261B370B4AE0B101C9010E94F1
S1132D704419C801A4960FB6F894DEBF0FBECDBFA8
S1132D80DF91CF911F910F91FF90EF90DF90CF9043
S1132D90BF90AF909F908F907F906F905F904F9077
S1132DA03F902F9008955058BB27AA270E94EB16F6
S1132DB00C943C180E942E1838F00E94351820F00C
S1132DC039F49F3F19F426F40C942B180EF4E09573
S1132DD0E7FB0C942518E92F0E944D1858F3BA17F5
S1132DE0620773078407950720F079F4A6F50C941D
S1132DF06F180EF4E0950B2EBA2FA02D0B01B9011C
S1132E0090010C01CA01A0011124FF27591B99F05C
S1132E10593F50F4503E68F11A16F040A22F232F68
S1132E20342F4427585FF3CF469537952795A795B8
S1132E30F0405395C9F77EF41F16BA0B620B730B5F
S1132E40840BBAF09150A1F0FF0FBB1F661F771FD0
S1132E50881FC2F70EC0BA0F621F731F841F48F485
S1132E60879577956795B795F7959E3F08F0B0CF0E
S1132E709395880F08F09927EE0F979587950895F5
S1132E800E9454170C943C180E94351858F00E9464
S1132E902E1840F029F45F3F29F00C9425185111A5
S1132EA00C9470180C942B180E944D1868F39923F5
S1132EB0B1F3552391F3951B550BBB27AA27621732
S1132EC07307840738F09F5F5F4F220F331F441F3F
S1132ED0AA1FA9F335D00E2E3AF0E0E832D0915073
S1132EE05040E695001CCAF72BD0FE2F29D0660F60
S1132EF0771F881FBB1F261737074807AB07B0E8A3
S1132F0009F0BB0B802DBF01FF2793585F4F3AF0A8
S1132F109E3F510578F00C9425180C9470185F3F6F
S1132F20E4F3983ED4F3869577956795B795F7952E
S1132F309F5FC9F7880F911D9695879597F9089516
S1132F40E1E0660F771F881FBB1F621773078407B2
S1132F50BA0720F0621B730B840BBA0BEE1F88F7C1
S1132F60E09508950E94B9176894B1110C947018F3
S1132F7008950E94551888F09F5798F0B92F992703
S1132F80B751B0F0E1F0660F771F881F991F1AF050
S1132F90BA95C9F714C0B13091F00E946F18B1E02E
S1132FA008950C946F18672F782F8827B85F39F02D
S1132FB0B93FCCF3869577956795B395D9F73EF4E9
S1132FC090958095709561957F4F8F4F9F4F089591
S1132FD0E89409C097FB3EF49095809570956195AF
S1132FE07F4F8F4F9F4F9923A9F0F92F96E9BB2765
S1132FF09395F695879577956795B795F111F8CFE1
S1133000FAF4BB0F11F460FF1BC06F5F7F4F8F4F4B
S11330109F4F16C0882311F096E911C0772321F041
S11330209EE8872F762F05C0662371F096E8862FD9
S113303070E060E02AF09A95660F771F881FDAF730
S1133040880F9695879597F9089597F99F6780E873
S113305070E060E008959FEF80EC089500240A94E6
S11330601616170618060906089500240A9412165F
S11330701306140605060895092E0394000C11F492
S1133080882352F0BB0F40F4BF2B11F460FF04C03F
S11330906F5F7F4F8F4F9F4F089557FD9058440F98
S11330A0551F59F05F3F71F04795880F97FB991FA3
S11330B061F09F3F79F08795089512161306140660
S11330C0551FF2CF4695F1DF08C0161617061806ED
S11330D0991FF1CF86957105610508940895E894C8
S11330E0BB2766277727CB0197F908950E94E81834
S11330F008F48FEF08950E948E180C943C180E94D7
S11331002E1838F00E94351820F0952311F00C94F5
S113311025180C942B1811240C9470180E944D1827
S113312070F3959FC1F3950F50E0551F629FF00116
S1133130729FBB27F00DB11D639FAA27F00DB11D2F
S1133140AA1F649F6627B00DA11D661F829F2227B8
S1133150B00DA11D621F739FB00DA11D621F839F3F
S1133160A00D611D221F749F3327A00D611D231F15
S1133170849F600D211D822F762F6A2F11249F5763
S113318050409AF0F1F088234AF0EE0FFF1FBB1F66
S1133190661F771F881F91505040A9F79E3F510525
S11331A080F00C9425180C9470185F3FE4F3983E5B
S11331B0D4F3869577956795B795F795E7959F5FCF
S11331C0C1F7FE2B880F911D9695879597F9089561
S11331D0990F0008550FAA0BE0E8FEEF1616170624
S11331E0E807F907C0F012161306E407F50798F08C
S11331F0621B730B840B950B39F40A2661F0232BA5
S1133200242B252B21F408950A2609F4A140A69520
S11332108FEF811D811D0895DB018F939F930E9481
S11332202219BF91AF91A29F800D911DA39F900D74
S1133230B29F900D11240895EE0FFF1F0590F49195
S1133240E02D09940E943519A59F900DB49F900D0F
S1133250A49F800D911D11240895B7FF0C94221989
S11332600E942219821B930B0895A29FB001B39F61
S1133270C001A39F700D811D1124911DB29F700D7B
S1133280811D1124911D0895BB274A3031F49923DF
S113329022F4BDE2909581959F4F0C945019BB2761
S11332A0FB015527AA27880F991FAA1FA41710F0FE
S11332B0A41B83955051B9F7A05DAA3308F0A95D0A
S11332C0A193009779F7B111B1931192CB010C94AA
S11332D06919DC01FC01672F71917723E1F73297BB
S11332E004C07C916D9370836291AE17BF07C8F3DD
S11332F00895E199FECF9FBB8EBBE09A99278DB3C9
S11333000895262FE199FECF9FBB8EBBE09A0197CB
S11333100DB2021631F02DBB0FB6F894E29AE19A81
S10B33200FBE0895F894FFCFDD
S11333280F0A0A0A0006000000010700000002054F
S113333800000003040000001A010000000000005F
S1133348000000000000000100000000000002006E
S113335800000000000300000000000004B30200A5
S113336800000005D601C10200000000041502D3C4
S1133378020000000004B201DC0200000000058520
S113338801E30200000000036A01F502CD107E1378
S1133398000000FF025212A3130000000C03721273
S11333A8C813000000170355108B140000001B03FA
S11333B86D10A41400000022038510BD1400000041
S11333C829039D10D6140000003803B510EF14002B
S11333D800004603F50F271400000055030D1040A4
S11333E81400000061032510591400000070033D07
S11333F81072140000008003A511CF110000008C86
S113340803DA11E0120000009B0304120513000004
S113341800A7032E122A13000000B30300000000C3
S1133428020302BD03DD0F6013000000CD03191170
S1133438F813000000DD03E510F410000000E503B4
S1133448FF100E11000000EE035111961200000047
S1133458FA037B11BB12000000000000000A000000
S11334680064000000E803000010270000A08601A3
S11334780040420F008096980000E1F505204300C3
S11334882E0046757465732076657A65726C65736B
S11334982076302E3500416C6170616C6C61706F00
S11334A874626120616C6C61730049324320696EF7
S11334B8646974617300424D4532383020696E6422
S11334C86974617300445331384232303A20002021
S11334D8646200484D56206265616C6C697461735E
S11334E8004B617A616E68617A207465726D6F73DE
S11334F87A7400537A656C6570656B0050756D70ED
S1133508616B0056657A65726C6F206265616C6CDC
S113351869746173005465737A74757A656D004DC6
S1133528656E752069646F7A69746F004C43442032
S113353868617474657200484D5600537A6F6C6103
S113354872005075666665720047617A2074657208
S11335586D6F737A74617400537A6F6C617220763C
S11335686973737A61005A6F6E6120666F6C647355
S11335787A696E74005A6F6E6120656D656C657446
S113358800536F6C61722033206A61726174750034
S11335985075666665722033206A617261747500BD
S11335A8484D5620616B7420686F6D00484D562055
S11335B86B6976616E7420686F6D00484D56206D96
S11335C8696E20686F6D00484D5620737A656E7A6F
S11335D86F7200484D562070756D706100484D56E5
S11335E82070756D7061206265616C6C00484D5681
S11335F82070756D7061206B6170637300424D4576
S113360820686F6D00424D45207061726100424D23
S113361845206D696E20686F6D00424D45206B69C9
S10D362876616E7420686F6D000077
S9030000FC
