S015000066757465735F76657A65726C6F2E7372656382
S11300000C9494020C94B1020C94B1020C94B102BD
S11300100C94B1020C94B1020C94B1020C94B10290
S11300200C94B1020C94B1020C94B1020C94B10280
S11300300C94B4090C94B1020C94B1020C94B10266
S11300400C94B1020C94B1020C9411170C943D174A
S11300500C94B1020C9495090C94B1020C94B10265
S11300600C94B1020C94B1020C94B1020C94B10240
S11300700C94B1020C94B1020C94AA170C94D817E6
S11300800C94B1020C94B1020C94B102730980096E
S1130090800980098009800980098009750980091F
S11300A0800980097709800980098009800980090D
S11300B0790980097B096F098009800980097D0914
S11300C07F09710980098009800980097309800901
S11300D080098009800980098009800975098009DF
S11300E080098009770980098009800980098009CD
S11300F0790980097B096F098009800980097D09D4
S11301007F097109436F756C64206E6F7420636F8F
S11301106E6E65637420746F2073656E736F720006
S113012020445331384232302073656E736F7273DA
S11301300A00466F756E642000496E7465727275AC
S1130140707420656E61626C65640A004275732088
S11301506572726F720A004E6F2073656E736F72F0
S113016020666F756E640A00427573207363616E56
S11301706E696E67202E2E2E0A0047415320616E51
S1130180642046495253545F464C4F4F525F564188
S11301904C56452C205345434F4E445F464C4F4FDD
S11301A0525F56414C56452072656C6179206465F6
S11301B06163746976617465640A005345434F4E04
S11301C04420464C4F4F52206465616374697661E4
S11301D07465640A005345434F4E4420464C4F4FC8
S11301E052206163746976617465640A00464952F9
S11301F0535420464C4F4F522064656163746976B2
S1130200617465640A00464952535420464C4F4F6A
S113021052206163746976617465640A00474153CE
S11302202C20444857206465616374697661746561
S1130230643B204255464645522072656C617920E4
S113024064656163746976617465640A0047415347
S1130250206163746976617465643B204255464647
S113026045522C204448572072656C61792064659E
S11302706163746976617465640A00444857207246
S1130280656C617920646561637469766174656421
S11302900A004448572072656C617920616374696F
S11302A07661746564207769746820627566666532
S11302B0720A004448572072656C61792061637446
S11302C06976617465642077697468206761730A6C
S11302D000466F6C642F456D656C20005075666632
S11302E0657220737A2F70200047617A2072656CE2
S11302F06520003A003A002000484D5620737A6584
S11303006C657020004B756C736F200047657068D6
S1130310617A200050756666657220003A003A00E2
S1130320484D5620000A002E0025200A00424D4563
S11303303238302048756D69646974793A20004315
S1130340200A00424D453238302054656D70657284
S113035061747572653A20000002040E010F110FDA
S11303600002040E111F100E000204000C04040EFF
S11303700002040E1111110E00050A0E1111110EC6
S1130380000204001111130D00050A001111130DD0
S113039000FF537A69766174747975207574616E9F
S11303A06675746173004C434420686174746572AB
S11303B0004D656E752069646F7A69746F20286DCD
S11303C07029005465737A74757A656D004B690001
S11303D042650047617A20616C6C61706F74004BF8
S11303E0690042650050756666657220737A6976A5
S11303F061747479750047617A0050756666657238
S113040000507566666572202F2067617A20737AC2
S1130410656C6570004B6900426500456D656C65EF
S1130420746920737A656C6570004B6900426500DD
S1130430466F6C64737A696E746920737A656C654F
S113044070004B6900426500484D5620737A656C14
S1130450657020616C6C61706F74004765706861D1
S11304607A20737A656E7A6F72204944004765700A
S113047068617A206B6976616E7420686F6D0047DD
S1130480657068617A206D696E20686F6D004765DC
S11304907068617A20616B7420686F6D00507566B6
S11304A066657220737A656E7A6F722049440045DE
S11304B06C6F72656D656E6F20686F6D0050756648
S11304C066657220616B7420686F6D00484D56201C
S11304D0737A656E7A6F7220494400484D56206DD8
S11304E0696E20686F6D00484D56206B6976616EA9
S11304F07420686F6D00484D5620616B7420686FDE
S11305006D004B756C736F206D696E20686F6D00A4
S1130510424D45323830207061726100424D45329F
S1130520383020686F6D000011241FBECFEFD0E17A
S1130530DEBFCDBF14E0A0E0B1E0E4EBF6E302C01F
S113054005900D92AC36B107D9F725E0ACE6B4E0DE
S113055001C01D92A239B207E1F70E94E90D0C9483
S1130560581B0C940000CF93DF93C82F8CEE0E948D
S1130570D007811111C08C2F0E94F5070E941D081D
S11305808DEE0E94D00781110AC00E941208C82F64
S1130590D0E00E941D0805C0C0E0D0E002C0C0E069
S11305A0D0E0CE01DF91CF910895CF93DF93C82F90
S11305B08CEE0E94D007811118C08C2F0E94F50781
S11305C00E941D088DEE0E94D007811111C00E9467
S11305D00708C82FD0E0DC2FCC270E941208C82BB4
S11305E00E941D088C2F9D2F05C080E090E002C062
S11305F080E090E0DF91CF9108950E94D502982782
S1130600892798270895CF92DF92EF92FF92F82ED0
S11306108CEE0E94D00781112EC08F2D0E94F50709
S11306200E941D088DEE0E94D00781111BC00E94FC
S11306300708C82ED12CE12CF12CFE2CED2CDC2C3F
S1130640CC240E940708C82AFE2CED2CDC2CCC24D8
S11306500E941208C82A0E941D086C2D7D2D8E2D23
S11306609F2D0DC084E091E00E94981760E070E037
S113067080E090E004C060E070E080E090E0FF90F3
S1130680EF90DF90CF9008950F931F93CF93DF9354
S113069088E80E94FD02C1E0D5E0998388838AE856
S11306A00E94FD029B838A838CE80E94FD029D8345
S11306B08C838EE80E94FD029F838E8380E90E94D2
S11306C0FD029987888782E90E94FD029B878A87B9
S11306D084E90E94FD029D878C8786E90E94FD02C1
S11306E09F878E8788E90E94FD02998B888B8AE90F
S11306F00E94FD029B8B8A8B8CE90E94FD029D8BDC
S11307008C8B8EE90E94FD029F8B8E8B81EA0E9466
S1130710B302888F81EE0E94FD029A8F898F83EE47
S11307200E94B3028B8F84EE0E94B3028C0185EE8B
S11307300E94B30202951295107F1027007F1027A4
S11307408F709927802B912B9D8F8C8F86EE0E9422
S1130750B3028C0185EE0E94B30202951295107FBC
S11307601027007F1027929582958F7089279F709C
S11307708927802B912B9F8F8E8F87EE0E94B30247
S113078088A3DF91CF911F910F9108958CEE0E9461
S1130790D00781111EC082EF0E94F50785E00E94F8
S11307A0F50784EF0E94F50787EB0E94F50780EDBB
S11307B00E94F5070E9444030E941D088DEE0E94CA
S11307C0D007811106C00E9412080E9478170E9467
S11307D01D0808958F929F92AF92BF92CF92DF929D
S11307E0EF92FF920F931F938AEF0E940303E1E0BD
S11307F0F5E00081118120E030E0C72ED82EE92EEB
S1130800FF24E7FCFA94C01AD10AE20AF30ADC01D5
S1130810CB01689416F8B595A79597958795169486
S1130820D1F7000F111F221F331F4C015D01801AE5
S1130830910AA20AB30AA5019401A281B3810E947C
S1130840D71A4B015C01072E7BE0B594A7949794CB
S113085087947A95D1F7702DA7019601C701B60147
S11308600E94B61A9B01AC01012E1CE055954795D8
S1130870379527951A95D1F7102DA481B5810E943B
S1130880D71ADC01CB01072E7EE0B595A795979585
S113089087957A95D1F7702D880D991DAA1DBB1DDA
S11308A08093220590932305A0932405B0932505F6
S11308B08C019D01000F111F221F331F000F111FF8
S11308C0221F331F800F911FA21FB31F80589F4FF9
S11308D0AF4FBF4F692F7A2F8B2F99270E94BB19D7
S11308E020E030E048EC52E40E9413191F910F916C
S11308F0FF90EF90DF90CF90BF90AF909F908F903C
S113090008954F925F926F927F928F929F92AF92CF
S1130910BF92CF92DF92EF92FF920E94EA038DEF93
S11309200E94D5028090220590902305A090240572
S1130930B09025052CE2921A21E0A20AB1086C01BC
S1130940E12CF12C0B2EBEE0CC0CDD1CEE1CFF1CAC
S1130950BA95D1F7B02DE1E0F5E0848D958D092E9F
S1130960000CAA0BBB0B072E74E1880F991FAA1F5A
S1130970BB1F7A95D1F7702DC81AD90AEA0AFB0A67
S1130980A68DB78DA50194010E94D71AC61AD70A5D
S1130990E80AF90A30E4D30EE11CF11C0B2EBFE087
S11309A0F594E794D794C794BA95D1F7B02DA38D55
S11309B0B0E0A50194010E94CC1A2B013C01032E46
S11309C03BE075946794579447943A95D1F7302D4A
S11309D040E8540E611C711CA0A10A2E000CBB0B34
S11309E0A50194010E94D71A052E5AE09595879582
S11309F0779567955A95D1F7502DA30192010E94DE
S1130A00B61ADC01CB01072E7AE0B595A795979528
S1130A1087957A95D1F7702D9C01AD01405E5F4FAB
S1130A20A18DB28D0E94D71ADC01CB01905EAF4F2D
S1130A30BF4FBC01CD01052E5EE095958795779556
S1130A4067955A95D1F7502DA70196010E94B61AC1
S1130A506B017C01052E5FE09595879577956795E9
S1130A605A95D1F7502D9B01AC010E94B61A9B01F7
S1130A70AC01689416F855954795379527951694C3
S1130A80D1F7A08DB0E00E94CC1ADC01CB016894B0
S1130A9013F8B595A795979587951694D1F7A7015F
S1130AA09601281B390B4A0B5B0BDA01C9011AF4B6
S1130AB080E090E0DC0181309105A10539E1B307C4
S1130AC024F080E090E0A0E0B9E1BC01CD01052E66
S1130AD05CE095958795779567955A95D1F7502D54
S1130AE00E94BD1920E030E040E85AE30E94491A10
S1130AF0FF90EF90DF90CF90BF90AF909F908F903A
S1130B007F906F905F904F90089561157105A9F0E3
S1130B10FC01680F791F80E048E1219198E0382FAB
S1130B20322730FF0CC08427869580682695915023
S1130B30B1F7E617F70789F7089580E008958695D9
S1130B40F5CF0F931F93CF93DF93DB01EC911196B5
S1130B509C911197F0E0F92B803181F4EE7FEE0F38
S1130B60FF1FEE0FFF1FEE0FFF1F16969C911697A7
S1130B706CE070E0691B7109E60FF71FFF233CF47A
S1130B8091E0EA019883F195E195F10902C0EA0147
S1130B901882883279F414968C91982F9076903636
S1130BA049F086FF02C0EE7F05C085FF02C0EC7FDE
S1130BB001C0E87FCF01929582958F7089279F703D
S1130BC08927D9018C93EF70E801E88380E0DF91F5
S1130BD0CF911F910F9108950F931F93CF93DF939C
S1130BE0EC018B01B80188810E944E0788838150F3
S1130BF08D3F30F4F8018081883211F0803191F713
S1130C00DF91CF911F910F9108950F931F93CF936D
S1130C10C82F8B010E949A060E947E06882351F0F9
S1130C20B80184E40E94A807C13031F00E9487060D
S1130C3080E003C082E001C080E0CF911F910F915A
S1130C4008956F927F928F929F92AF92BF92CF92AC
S1130C50DF92EF92FF920F931F93CF93DF93CDB761
S1130C60DEB729970FB6F894DEBF0FBECDBF6C0177
S1130C705B013A0149010E949A06B6018EEB0E947B
S1130C80A8078E010F5F1F4F7E018AE0E80EF11C5A
S1130C900E944A07F80181938F01EE15FF05C1F701
S1130CA069E070E0CE0101960E948505F82E81115D
S1130CB00BC084019301A501BE016F5F7F4FF60154
S1130CC080810E94A10504C00F2EF3E0FF2EF02DB9
S1130CD08F2D29960FB6F894DEBF0FBECDBFDF91DE
S1130CE0CF911F910F91FF90EF90DF90CF90BF9025
S1130CF0AF909F908F907F906F900895E091290519
S1130D00F0912A0590818091280589230895E09126
S1130D102605F0912705908180912805892B8083F1
S1130D20E0912B05F0912C05908180912805892B69
S1130D3080830895E0912605F091270590818091A4
S1130D402805809589238083E0912B05F0912C055B
S1130D50908180912805892B80838FE897E0811505
S1130D60910511F00197F1F72FB7F894E0912B0555
S1130D70F0912C05908180912805809589238083AA
S1130D8089E091E08115910511F00197F1F7E09167
S1130D902905F0912A053081809128052FBFE5E8C7
S1130DA0F6E0E115F10511F03197F1F7E09129052D
S1130DB0F0912A05208190912805922311F0832334
S1130DC0089581E0089550932C0540932B0570936A
S1130DD027056093260590932A058093290581E0D1
S1130DE001C0880F2A95EAF7809328050E949A0685
S1130DF008953FB7F894E0912B05F0912C052081DC
S1130E0090912805922B9083E3E0F0E0E115F10541
S1130E1011F03197F1F7882351F0E0912B05F0910F
S1130E202C05208190912805909592239083E8E3E6
S1130E30F0E0E115F10511F03197F1F7E0912905A2
S1130E40F0912A05208190912805292309F480E056
S1130E50E5EBF0E0E115F10511F03197F1F7E091E0
S1130E602B05F0912C0520819095922390833FBF10
S1130E700895CF93DF93C82FD8E08C2F81700E9400
S1130E80F906C6958111C068D150B9F78C2FDF914E
S1130E90CF9108958FEF0E9439070895DF92EF9262
S1130EA0FF920F931F93CF93DF93D82E8B010E9451
S1130EB09A0681112BC080EF0E943907E12CC0E40F
S1130EC00F2EF8EFFF2EF02DFC0E81E00E94F906A4
S1130ED0D82F81E00E94F906882319F0DD23D1F090
S1130EE017C0D11124C0CD15E8F0F801808180FF2E
S1130EF011C0CD111AC00EC0C150FC12E6CF0F5F55
S1130F001F4FCF2DF110DCCF8E2D1AC08FEF18C0DC
S1130F108EEF16C080E00E94F906F8019081969544
S1130F209083EACFEC2ED1E002C0EC2ED1E08D2FDD
S1130F300E94F906F8019081969590689083DCCF21
S1130F40DF91CF911F910F91FF90EF90DF90089563
S1130F50FF920F931F93CF93DF93F82EEB010E9420
S1130F609A06209769F085E50E9439078E01085F8B
S1130F701F4F89910E943907C017D107D1F703C0C9
S1130F808CEC0E9439078F2D0E943907DF91CF9195
S1130F901F910F91FF9008958EE280937000089541
S1130FA0E4E7F0E0108294EA908390819923ECF7CF
S1130FB090917100987F9830A1F48093730084E835
S1130FC080937400E4E7F0E080818823ECF790914B
S1130FD07100987F983139F081E0903429F480E0F1
S1130FE0089581E0089580E008958093730084E873
S1130FF080937400E4E7F0E080818823ECF790911B
S11310007100987F81E0983209F480E0089584ECBF
S113101080937400E4E7F0E080818823ECF780910A
S11310207300089584E880937400E4E7F0E080811D
S11310308823ECF780917300089584E98093740009
S11310400895AD9A00C000C0AD980895CF93C82FFD
S1131050662311F0AF9A01C0AF98AE98A49AA39AF0
S1131060A29AA19AA998AA98AB98AC98CC230CF40C
S1131070A99AC6FDAA9AC5FDAB9AC4FDAC9A0E9472
S11310802108A998AA98AB98AC98C3FDA99AC2FD67
S1131090AA9AC1FDAB9AC0FDAC9A0E942108AC9AF1
S11310A0AB9AAA9AA99ACF910895882311F0AF9A7E
S11310B001C0AF98AE9AA498A398A298A198AD9AAB
S11310C000C000C09C9B02C080E101C080E09B99ED
S11310D080629A99806499998068AD9800C000C034
S11310E0AD9A00C000C09C9981609B9982609A99D6
S11310F0846099998860AD98089580E00E945508AD
S11311008823DCF388E090E00197F1F780E00E9407
S113111055080895CF93C82F0E947D0860E08C2F56
S11311200E942608CF910895611104C080580E943E
S11311308A080895613021F480540E948A08089531
S1131140623021F48C560E948A0808958C520E94C1
S11311508A08089581E00E948A080895CF93C82FD1
S11311600E947D08CA30A1F4843148F090EC980FB5
S1131170943138F084518C3230F080E005C080E442
S113118003C084E101C084E580580E948A0804C039
S113119061E08C2F0E942608CF910895CF93DF93AE
S11311A0EC012196FC018081882329F00E94AE087D
S11311B089918111FBCFDF91CF9108951F93CF9334
S11311C0DF93182FA79AA69AA59AA49AA39AA29AEB
S11311D0A19A80E09AEF0197F1F7AB9AAC9A0E943A
S11311E0210880E09EE40197F1F70E942108C0E005
S11311F0D1E0CE010197F1F70E942108CE010197B9
S1131200F1F7AC980E9421082197F1F788E20E9437
S11312108A0888E00E948A080E94AA0886E00E9440
S11312208A08812F0E948A08DF91CF911F91089527
S1131230CF93DF93EC01AF98FC0184918770880F02
S1131240880F880F80640E94AE08AF9A9E012E5FBB
S11312503F4FFE01319684918F3F41F0E9010E9496
S1131260AE08FE01849121968F3FC9F7AF98AF9ADB
S1131270DF91CF9108959FEF960F662319F086951D
S11312809150E8F780FF04C081E30E94AE080895FE
S113129080E30E94AE080895CF93DF9300D000D07E
S11312A0CDB7DEB74AE0BE016F5F7F4F0E94EE1AF2
S11312B0CE0101960E94CE080F900F900F900F90D0
S11312C0DF91CF910895482F50E0FA01E15CF109D4
S11312D0EC33F105A8F4EA5BFF4F0C94C61A8FEEC9
S11312E00FC085EF0DC080E00BC081E009C082E033
S11312F007C083E005C084E003C085E001C086E048
S11313000E94AE080895CF93DF93EC012196FC016F
S11313108491882339F00E946309FE018491219607
S11313208111F9CFDF91CF9108951F920F920FB6DB
S11313300F9211248F939F9384B195B10A9738F437
S11313408AE090E0909383008093820006C084B189
S113135095B190938300809382009F918F910F9019
S11313600FBE0F901F9018951F920F920FB60F92F9
S113137011248F9380917604809176048F5F8093FB
S113138076048F910F900FBE0F901F9018951F93A6
S1131390CF93DF9300D01F92CDB7DEB780916E0458
S11313A08F5F80936E048C33C1F410926E0480912D
S11313B06F048F5F80936F0480916F048C3369F4A2
S11313C010926F04809170048F5F809370048091F9
S11313D07004883111F41092700480917504813086
S11313E009F44AC038F0823009F474C0833009F437
S11313F097C022C10E94EA0360932E0570932F05C3
S1131400809330059093310540912E0550912F051E
S1131410609130057091310522E030E089E495E077
S11314200E941D1860912E0570912F058091300542
S11314309091310520E030E048EC52E40E94491AD2
S11314400E948C1970938C0560938B0580917404B1
S1131450882361F083E493E00E94981789E495E07F
S11314600E9489178FE393E00E9498178091750476
S11314708F5F80937504E2C00E94810460933205FB
S1131480709333058093340590933505409132056C
S113149050913305609134057091350522E030E0B8
S11314A085E595E00E941D1880917404882361F0FD
S11314B08DE293E00E94981785E595E00E948917D4
S11314C089E293E00E949817809175048F5F80935E
S11314D07504B4C020E047E350E068E370E086E3BD
S11314E090E00E94E30680913B05882399F010E088
S11314F0612F70E0660F771F660F771F660F771FE7
S1131500655A7A4F81E00E9405061F5F80913B0572
S1131510181770F3809175048F5F809375048EC0E3
S113152020E047E350E068E370E086E390E00E9447
S1131530E30680913B05882309F478C010E0812FED
S113154090E0880F991F880F991F880F991F9E019B
S11315502D5F3F4FAE014E5F5F4FBE016F5F7F4F08
S1131560855A9A4F0E942106811118C080917404F3
S11315708823A1F0898190E00E9402188A8190E07A
S11315800E94021887E293E00E9498178B8190E0F2
S11315900E94021885E293E00E94981780917104DA
S11315A0811312C08A8180934405809144054AE0E6
S11315B06DE375E090E00E94EE1A8B814AE062E5EB
S11315C075E090E00E94EE1A80910201811312C02E
S11315D08A8180938D0580918D054AE065E475E0EC
S11315E090E00E94EE1A8B814AE06FE475E090E08F
S11315F00E94EE1A80910101811312C08A818093A6
S11316004205809142054AE06EE875E090E00E9450
S1131610EE1A8B814AE068E375E090E00E94EE1ACE
S11316201F5F80913B05181708F489CF80917504DA
S11316308F5F8093750402C0109275048091060137
S11316408111D3C00E94AA0880910001863008F459
S11316506CC080E293E00E9483098DE395E00E94D0
S1131660CE0882E792E00E94CE0882E595E00E94CF
S1131670CE0884E792E00E94CE088091700490E046
S11316800E944C098EE193E00E94830980916F04CB
S113169090E00E944C098CE193E00E9483098091C0
S11316A06E0490E00E944C0961E080E00E9494087E
S11316B084E193E00E94830985E495E00E94CE08CA
S11316C082E792E00E94CE088FE495E00E94CE0863
S11316D088E792E00E94CE0862E080E00E949408CD
S11316E08CE093E00E9483098EE895E00E94CE0886
S11316F082E792E00E94CE0888E395E00E94CE083B
S113170088E792E00E94CE0863E080E00E9494089B
S113171085E093E00E94830989E495E00E94CE0865
S113172088E792E00E94CE0855C089EF92E00E94BB
S113173083098091720464E00E943B0987EF92E080
S11317400E9483098091700490E00E944C0985EF07
S113175092E00E94830980916F0490E00E944C09FA
S113176083EF92E00E94830980916E0490E00E94CE
S11317704C0961E080E00E94940889EE92E00E94A6
S113178083098091720467E00E943B0962E080E073
S11317900E9494088CED92E00E9483098091720467
S11317A065E00E943B098091720466E00E943B0957
S11317B063E080E00E94940881ED92E00E94830936
S11317C08091720462E00E943B098091720463E09C
S11317D00E943B0980910001815019F0809300011F
S11317E009C08AE08093000105C080910601815000
S11317F08093060180917304811101C0369A0F9081
S11318000F900F90DF91CF911F910895DF92EF9287
S1131810FF920F931F93CF93DF93CDB7DEB7299732
S11318200FB6F894DEBF0FBECDBF80917404882339
S113183009F43FC088E691E00E9498178FEF8987EA
S11318400F2EFBE5EF2EF5E0FF2EF02DD12C8E01AF
S1131850075F1F4FBE016F5F7F4FC8010E94EC05F9
S113186099859F3F49F480917404882329F187E581
S113187091E00E94981720C09E3F49F4809174041F
S11318808823D1F08CE491E00E94981715C0FE01E2
S11318903196D70181918D93E017F107D9F7D3944D
S11318A0992351F088E0E80EF11C86E0D812D2CFDB
S11318B003C08FEF8987C4CF8D2D29960FB6F89476
S11318C0DEBF0FBECDBFDF91CF911F910F91FF906F
S11318D0EF90DF9008950E94E7166091720481E012
S11318E00E94FB160E94F61608959091440580917B
S11318F04105981708F047C090913C058091440534
S1131900981708F44DC090918D0580914105981762
S1131910D8F4809104019091050190936D04809313
S11319206C048091720480698093720480917204C3
S11319308F798093720480917404882389F183EBF6
S113194092E00E9498172CC080916C0490916D04D1
S1131950009731F48091720480678093720405C00B
S1131960019790936D0480936C04809172048F7737
S11319708093720480917404882391F082E992E048
S11319800E9498170DC0809172048F708093720426
S113199080917404882321F08BE792E00E949817C9
S11319A08091720484FDBBC00E9B09C00F9B07C0CD
S11319B09091420580912D05981708F092C02091CE
S11319C08B0530918C0580913605909137058217EF
S11319D0930708F486C090914205809143059817B7
S11319E020F00E9B02C00F993FC090918D0580910D
S11319F003019817D8F48091040190910501909304
S1131A006D0480936C0480917204806880937204E6
S1131A10809172048F788093720480917404882377
S1131A2019F18DE492E00E9498171EC080916C0415
S1131A3090916D04009759F4809172048F7680938D
S1131A4072048091720480668093720405C00197C9
S1131A5090936D0480936C0480917404882321F026
S1131A608DE192E00E9498170E990DC08091720446
S1131A7084608093720480917404882321F086E04A
S1131A8092E00E9498170E9B0DC0809172048B7F88
S1131A908093720480917404882321F08DEE91E088
S1131AA00E9498170F990DC08091720488608093EA
S1131AB0720480917404882321F085ED91E00E94E2
S1131AC098170F9B2CC080917204877F80937204B7
S1131AD080917404882319F18BEB91E00E9498178C
S1131AE01EC080916C0490916D04009731F4809134
S1131AF07204837F8093720405C0019790936D04F0
S1131B0080936C04809172048F718093720480912D
S1131B107404882321F08AE791E00E949817809149
S1131B207404823010F40E946B0C089582E090E0FB
S1131B300E94231B8093710489E090E00E94231B80
S1131B408093410588E090E00E94231B80933C052C
S1131B5081E090E00E94231B8093020187E090E0E3
S1131B600E94231B8093030180E090E00E94231BCA
S1131B708093010186E090E00E94231B80932D0551
S1131B8085E090E00E94231B8093430583E090E06E
S1131B900E942B1B90933705809336058EE090E0CE
S1131BA00E94231B809374048DE090E00E94231B09
S1131BB0809306018CE090E00E94231B80937304C1
S1131BC08AE090E00E942B1B90930501809304010E
S1131BD008950E94960D8CE00E94DE0888E593E04B
S1131BE00E941809EBE8F0E0808189608083EAE8CC
S1131BF0F0E080818B60808380E890E090938300A4
S1131C0080938200159A1D9A0E94AA088BE792E09D
S1131C100E94CE0887E690E00E946217E1E6F0E0B9
S1131C2080818E7F8083E2E6F0E080818E7F8083F6
S1131C30A09A82B18F7382B9109272040E946B0CC5
S1131C4061E080E00E9494088FE892E00E94CE0850
S1131C5062E080E00E949408CAE088E70E94AE082F
S1131C602FEF83ED90E3215080409040E1F700C0D6
S1131C700000C15091F70E94AA0883EA92E00E94F2
S1131C80CE080E94CC0761E080E00E9494088FEAAD
S1131C9092E00E94CE080E94C603789489E391E002
S1131CA00E949817A89581B5886181BD81B5876028
S1131CB081BD20E047E350E068E370E086E390E014
S1131CC00E94E3060E94060C80933B0580917404F5
S1131CD0882369F082E391E00E94981780913B0584
S1131CE090E00E94021880E291E00E94981762E05E
S1131CF080E00E9494088EEB92E00E94CE088091CE
S1131D003B0590E00E944C0988EC92E00E94CE08CA
S1131D1063E080E00E9494088EB584608EBD1DBC93
S1131D201CBC84E294EF9BBD8ABD87B7806187BFEA
S1131D3086B18F6C86B90E942E0F80917604813013
S1131D4081F4809176048F5F809376040E94C709A2
S1131D5080917404823010F40E94750CA89510923E
S1131D6076040E94330FE9CFEF92FF920F931F93F3
S1131D70CF93DF930E94AA080E94DB16EC010E9415
S1131D80DE16E0911B01F0911C0196819923A1F0CC
S1131D90A081B1811696AC9187E0A89FD00111244F
S1131DA0A35EBE4F12960D90BC91A02D1796CD91B7
S1131DB0DC91189716968C9124819581291BE82E25
S1131DC0F12C1E141F04A4F530E08901000F111F2B
S1131DD0000F111F000F111F200F311F8E01020F62
S1131DE0131FC0E0D0E06C2F80E00E949408E091C3
S1131DF01B01F0911C01858190E08C179D0721F453
S1131E008EE30E94AE0803C080E20E94AE0880E226
S1131E100E94AE08F801808191810E94CE0821962B
S1131E20CE15DF0529F0075F1F4FC430D105D9F661
S1131E30DF91CF911F910F91FF90EF900895EDE105
S1131E40F1E0F0931C01E0931B01118210821382D4
S1131E501282148215820E94B40E08950E94E01624
S1131E600E941F0F08955F926F927F928F929F92AC
S1131E70AF92BF92CF92DF92EF92FF920F931F9394
S1131E80CF93DF93C7E0D1E00F2EFBE1EF2EF1E01B
S1131E90FF2EF02D88248394912C612C712C5524D1
S1131EA053940F2EF9E3AF2EF1E0BF2EF02D0F2E39
S1131EB0FDE1CF2EF1E0DF2EF02D8E0180B390E016
S1131EC0098002C0959587950A94E2F7282D392D4B
S1131ED080FF02C0262D372DF80182819381880F5F
S1131EE0991F906E822B932B938382838115904F3D
S1131EF009F011C1F80154828DE090E00E94231B87
S1131F0080930601A89AA0911B01B0911C0116961A
S1131F109C911697943009F4DAC0F80180818130DD
S1131F20F9F038F0823009F449C0833009F4A7C0CD
S1131F30B5C014968C911497882309F4B8C01596EB
S1131F409C911597911104C0815014968C93AFC045
S1131F50915015969C931597815014968C93A7C015
S1131F600E94DE16E0911B01F0911C0196819923D9
S1131F7009F4DAC04481242F30E0A081B18116969F
S1131F80AC9187E0A89FD0011124A35EBE4F1296A6
S1131F900D90BC91A02D16968C9190E00197281776
S1131FA039070CF07BC08581833019F44F5F44837B
S1131FB075C08F5F85834F5F448370C00E94DB16BA
S1131FC0A0911B01B0911C0116964C9116974423C5
S1131FD079F0ED91FC911197E68127E0E29FF00101
S1131FE01124E35EFE4F0280F381E02D878190850A
S1131FF014965C911497252F30E0F901EE0FFF1F22
S1132000EE0FFF1FEE0FFF1F2E0F3F1F280F391F6C
S1132010F90182819381892B81F013963C932E934D
S11320201297B0921C01A0921B01F601B58FA48FE8
S1132030378F268F50A311A231C0F9018781908573
S1132040892B61F113963C932E931297842F90E081
S11320500196FC01EE0FFF1FEE0FFF1FEE0FFF1F97
S1132060E81BF90BE35EFE4FF0931C01E0931B01A8
S1132070B183A08313821282148215820FC0992324
S1132080B1F0ED91FC918681F7E08F9FC00111249E
S1132090835E9E4F90931C0180931B01A0911B01B2
S11320A0B0911C0116968C911697843019F00E94F9
S11320B0B40E34C0ED91FC9111970280F381E02DB0
S11320C00280F381E02D14968C91099527C0ED913F
S11320D0FC9111970280F381E02D0480F581E02DBD
S11320E014966C91C80109958823C1F0E0911B01F5
S11320F0F0911C010190F081E02D868127E0829F00
S1132100C0011124835E9E4F90931C0180931B0198
S11321100E94B40E03C0F8011482A8982596CE1527
S1132120DF0509F0CACE0AC04481242F30E090E0D4
S11321300197281739070CF436CFB9CFDF91CF9127
S11321401F910F91FF90EF90DF90CF90BF90AF90D1
S11321509F908F907F906F905F9008950E94AA083F
S113216088E494E00E94830961E080E00E9494087E
S11321708091720484FF05C085E494E00E94830981
S1132180089582E494E00E94830908950E94AA08B5
S113219080E394E00E94830961E080E00E94940857
S11321A08091720482FF05C08DE294E00E9483094D
S11321B008958AE294E00E94830908950E94AA087F
S11321C08BE194E00E94830961E080E00E9494081E
S11321D08091720483FF05C088E194E00E94830922
S11321E0089585E194E00E94830908950E94AA0855
S11321F081E094E00E94830961E080E00E949408F9
S11322008091720485FF05C08AEF93E00E948309E0
S1132210089586EF93E00E94830908950E94AA0816
S113222085EE93E00E94830961E080E00E949408B7
S11322308091720486FF05C082EE93E00E948309B8
S113224008958FED93E00E94830908950E94AA08DF
S113225083ED93E00E94830961E080E00E9494088A
S11322608091720488232CF480ED93E00E9483090A
S113227008958DEC93E00E94830908950E94AA08B2
S11322808CE195E00E94830961E080E00E9494085B
S113229089E495E00E94CE080895FC018081833092
S11322A029F0862F0E943E1180E0089581E0089570
S11322B00E94AA0880E195E00E94830961E080E021
S11322C00E94940885E595E00E94CE080895FC01DB
S11322D08081833029F0862F0E94581180E0089570
S11322E081E008950E94AA0886EF94E00E94830981
S11322F061E080E00E9494088DE395E00E94CE089E
S113230082E792E00E94CE0882E595E00E94CE0822
S113231088E792E00E94CE080895FC018081833012
S113232029F0862F0E94721180E0089581E00895BB
S11323300E94AA088DEB94E00E94830961E080E08A
S11323400E94940885E495E00E94CE0882E792E01A
S11323500E94CE088FE495E00E94CE0888E792E0C0
S11323600E94CE080895FC018081833029F0862FD5
S11323700E94981180E0089581E008950E94AA08BF
S11323808EE894E00E94830961E080E00E94940852
S11323908EE895E00E94CE0882E792E00E94CE0883
S11323A088E395E00E94CE0888E792E00E94CE0878
S11323B00895FC018081833029F0862F0E94BE118C
S11323C080E0089581E00895CF93DF93CDB7DEB721
S11323D02A970FB6F894DEBF0FBECDBF80913605A5
S11323E0909137054AE0BE016F5F7F4F0E94EE1A5D
S11323F00E94AA0882E095E00E94830961E080E0DF
S11324000E949408CE0101960E94CE082A960FB627
S1132410F894DEBF0FBECDBFDF91CF910895CF9367
S1132420DF93CDB7DEB727970FB6F894DEBF0FBEA4
S1132430CDBF809141054AE0BE016F5F7F4F90E0C0
S11324400E94EE1A0E94AA0887EE94E00E94830973
S113245061E080E00E949408CE0101960E94CE08BB
S113246027960FB6F894DEBF0FBECDBFDF91CF9194
S11324700895CF93DF93CDB7DEB72A970FB6F894BC
S1132480DEBF0FBECDBF80913C054AE0BE016F5F49
S11324907F4F90E00E94EE1A0E94AA088BED94E010
S11324A00E94830961E080E00E949408CE010196B5
S11324B00E94CE082A960FB6F894DEBF0FBECDBF99
S11324C0DF91CF910895CF93DF9300D000D0CDB7A3
S11324D0DEB70E94AA088CEC94E00E94830961E0B4
S11324E080E00E949408809171044AE0BE016F5F0D
S11324F07F4F90E00E94EE1ACE0101960E94CE0812
S11325000F900F900F900F90DF91CF910895CF937C
S1132510DF93CDB7DEB72A970FB6F894DEBF0FBEB0
S1132520CDBF809103014AE0BE016F5F7F4F90E011
S11325300E94EE1A0E94AA088FEA94E00E9483097E
S113254061E080E00E949408CE0101960E94CE08CA
S11325502A960FB6F894DEBF0FBECDBFDF91CF91A0
S11325600895CF93DF9300D000D0CDB7DEB70E949B
S1132570AA088DE994E00E94830961E080E00E944A
S11325809408809102014AE0BE016F5F7F4F90E0A2
S11325900E94EE1ACE0101960E94CE080F900F9071
S11325A00F900F90DF91CF910895CF93DF93CDB724
S11325B0DEB72A970FB6F894DEBF0FBECDBF809169
S11325C043054AE0BE016F5F7F4F90E00E94EE1A20
S11325D00E94AA088FE794E00E94830961E080E0EA
S11325E00E949408CE0101960E94CE082A960FB646
S11325F0F894DEBF0FBECDBFDF91CF910895CF9386
S1132600DF93CDB7DEB727970FB6F894DEBF0FBEC2
S1132610CDBF80912D054AE0BE016F5F7F4F90E0F2
S11326200E94EE1A0E94AA088DE694E00E94830993
S113263061E080E00E949408CE0101960E94CE08D9
S113264027960FB6F894DEBF0FBECDBFDF91CF91B2
S11326500895CF93DF9300D000D0CDB7DEB70E94AA
S1132660AA088BE594E00E94830961E080E00E945F
S11326709408809101014AE0BE016F5F7F4F90E0B2
S11326800E94EE1ACE0101960E94CE080F900F9080
S11326900F900F90DF91CF910895CF93DF9300D0E7
S11326A000D0CDB7DEB70E94AA0883EC93E00E9465
S11326B0830961E080E00E949408809174044AE0F8
S11326C0BE016F5F7F4F90E00E94EE1ACE0101962B
S11326D00E94CE080F900F900F900F90DF91CF9132
S11326E00895CF93DF9300D000D0CDB7DEB70E941A
S11326F0AA0881EB93E00E948309809106014AE0D5
S1132700BE016F5F7F4F90E00E94EE1ACE010196EA
S11327100E94CE080F900F900F900F90DF91CF91F1
S11327200895CF93DF9300D000D0CDB7DEB70E94D9
S1132730AA0886EA93E00E94830961E080E00E948F
S11327409408809173044AE0BE016F5F7F4F90E06C
S11327500E94EE1ACE0101960E94CE080F900F90AF
S11327600F900F90DF91CF910895CF93DF9300D016
S113277000D0CDB7DEB70E94AA0882E993E00E9498
S1132780830961E080E00E949408809104019091A3
S113279005014AE0BE016F5F7F4F0E94EE1ACE0131
S11327A001960E94CE080F900F900F900F90DF912A
S11327B0CF910895FC019081913081F028F09230FE
S11327C0B9F0933021F11EC0809136059091370500
S11327D00A96909337058093360514C08091360588
S11327E0909137050A9790933705809336050AC070
S11327F0609136057091370583E090E00E94421B9A
S113280081E00895862F0E94E41180E0089581E01C
S11328100895FC019081913081F028F09230B9F054
S1132820933021F11EC0809104019091050101961D
S1132830909305018093040114C080910401909148
S11328400501019790930501809304010AC06091EA
S11328500401709105018AE090E00E94421B81E02E
S11328600895862F0E94B51380E0089581E00895AD
S1132870FC019081913081F028F09230C9F09330BE
S113288021F11EC0809141058A35D1F08091410526
S11328908F5F8093410514C09091410580913C0560
S11328A0891770F48091410581508093410508C0D7
S11328B06091410589E090E00E94311B81E0089518
S11328C0862F0E940F1280E0089581E00895FC0194
S11328D09081913091F028F09230C9F0933021F139
S11328E01EC090913C05809141059817C0F48091D9
S11328F03C058F5F80933C0512C080913C05863077
S113290070F080913C05815080933C0508C0609133
S11329103C0588E090E00E94311B81E00895862FF9
S11329200E94391280E0089581E00895FC019081AD
S11329309130A1F028F0923001F1933059F125C083
S1132940809171048F5F80937104909171048091E0
S11329503B0598131AC01092710417C0809171043A
S1132960815080937104809171048F3F71F4809140
S11329703B0581508093710408C06091710482E02A
S113298090E00E94311B81E00895862F0E9463121B
S113299080E0089581E00895FC019081913081F0F8
S11329A028F09230B9F0933011F11CC080910301EA
S11329B08A35C1F0809103018F5F8093030112C0B7
S11329C080910301853170F08091030181508093DF
S11329D0030108C06091030187E090E00E94311B6D
S11329E081E00895862F0E94871280E0089581E097
S11329F00895FC0190819130A1F028F0923001F10A
S1132A00933059F125C0809102018F5F80930201B8
S1132A109091020180913B0598131AC01092020113
S1132A2017C08091020181508093020180910201BC
S1132A308F3F71F480913B0581508093020108C05F
S1132A406091020181E090E00E94311B81E00895D1
S1132A50862F0E94B11280E0089581E00895FC0160
S1132A609081913091F028F09230C9F0933021F1A7
S1132A701EC09091430580912D059817C0F4809154
S1132A8043058F5F8093430512C0809143058630D0
S1132A9070F08091430581508093430508C0609194
S1132AA0430585E090E00E94311B81E00895862F64
S1132AB00E94D51280E0089581E00895FC01908180
S1132AC0913081F028F09230C9F0933021F11EC08A
S1132AD080912D058332D0F480912D058F5F8093F2
S1132AE02D0514C090912D0580914305891770F42C
S1132AF080912D05815080932D0508C060912D058E
S1132B0086E090E00E94311B81E00895862F0E94A8
S1132B10FF1280E0089581E00895FC0190819130D6
S1132B20A1F028F0923001F1933059F125C0809141
S1132B3001018F5F809301019091010180913B0518
S1132B4098131AC01092010117C08091010181509D
S1132B5080930101809101018F3F71F480913B05C5
S1132B6081508093010108C06091010180E090E0F0
S1132B700E94311B81E00895862F0E94291380E072
S1132B80089581E00895FC019081913061F028F06E
S1132B90923079F09330D1F014C0809174048F5F37
S1132BA0809374040EC080917404815080937404E3
S1132BB008C0609174048EE090E00E94311B81E0B3
S1132BC00895862F0E944D1380E0089581E00895B2
S1132BD0FC019081913061F028F0923079F09330CB
S1132BE0D1F014C0809106018F5F809306010EC05E
S1132BF08091060181508093060108C0609106010E
S1132C008DE090E00E94311B81E00895862F0E94A0
S1132C10711380E0089581E00895FC019081913062
S1132C2061F028F0923079F0933029F114C080914A
S1132C3073048F5F809373040EC08091730481507A
S1132C408093730408C0609173048CE090E00E9448
S1132C50311B81E0089580917304882339F08091B9
S1132C60730490E09093830080938200862F0E94E7
S1132C70911380E0089581E00895CF93C62FFC015D
S1132C808081823018F0843090F416C080917204F0
S1132C9082FF06C0809172048F7E8093720405C007
S1132CA0809172048061809372040E946B0C8C2F5B
S1132CB00E94AE1080E001C081E0CF910895CF93CF
S1132CC0C62FFC018081823018F0843048F40DC096
S1132CD09091720484E08927809372040E946B0CA3
S1132CE08C2F0E94C61080E001C081E0CF9108952E
S1132CF0CF93C62FFC018081823018F0843048F4D1
S1132D000DC09091720488E08927809372040E9418
S1132D106B0C8C2F0E94DE1080E001C081E0CF910B
S1132D200895CF93C62FFC018081823018F084303F
S1132D3048F40DC09091720480E289278093720454
S1132D400E946B0C8C2F0E94F61080E001C081E081
S1132D50CF910895CF93C62FFC018081823018F063
S1132D60843048F40DC09091720480E489278093E4
S1132D7072040E946B0C8C2F0E940E1180E001C023
S1132D8081E0CF910895CF93C62FFC0180818230DA
S1132D9018F0843040F40CC0809172048058809301
S1132DA072040E946B0C8C2F0E94261180E001C0DB
S1132DB081E0CF91089580E491E0089586E008953C
S1132DC081B38F7081BB82B3806F82BB089587B358
S1132DD0876087BB88B3896088BB8BB38FEF8BBB5D
S1132DE09AB38ABB8DB183658DB908956E9887B304
S1132DF0897F87BB08954BB321E030E0F90102C01D
S1132E00EE0FFF1F8A95E2F7CF012E2F2095422364
S1132E104BBB6FB9779BFECF9BB3892B8BBB8FB119
S1132E2008951F920F920FB60F9211242F938F9330
S1132E309F93EF93FF938BB12CB18C71E091BE04FF
S1132E40EF5FEF719091BD04E91739F0E093BE0490
S1132E50F0E0EF53FB4F208301C082E09091BC046B
S1132E60892B8093BC04FF91EF919F918F912F91B7
S1132E700F900FBE0F901F9018951F920F920FB6D0
S1132E800F9211248F939F93EF93FF939091C0041B
S1132E908091BF04981761F0E091BF04EF5FEF7178
S1132EA0E093BF04F0E0EF51FB4F80818CB901C087
S1132EB05598FF91EF919F918F910F900FBE0F90B6
S1132EC01F9018951092C0041092BF041092BE0473
S1132ED01092BD04992314F422E02BB990789093B6
S1132EE0900089B988E98AB986E0809395000895AD
S1132EF02091C0042F5F2F719091BF042917E1F333
S1132F00E22FF0E0EF51FB4F80832093C004559AE9
S1132F100895CF93DF93EC018881882331F02196C3
S1132F200E94781789918111FBCFDF91CF91089589
S1132F30CF93DF93EC012196FC018491882339F02F
S1132F400E947817FE01849121968111F9CFDF91B7
S1132F50CF9108951F920F920FB60F9211242F93C1
S1132F608F939F93EF93FF9380919B0020919C00FC
S1132F708C71E0917904EF5FEF7190917804E91717
S1132F8039F0E0937904F0E0E458FB4F208301C06A
S1132F9082E090917704892B80937704FF91EF91DD
S1132FA09F918F912F910F900FBE0F901F901895A6
S1132FB01F920F920FB60F9211248F939F93EF934A
S1132FC0FF9390917B0480917A04981769F0E091C3
S1132FD07A04EF5FEF71E0937A04F0E0E456FB4F7C
S1132FE0808180939C0005C0EAE9F0E080818F7DB8
S1132FF08083FF91EF919F918F910F900FBE0F905F
S11330001F901895CF93DF93CDB7DEB761970FB6B6
S1133010F894DEBF0FBECDBF4AE0BE016F5F7F4FA5
S11330200E94EE1A0E94891761960FB6F894DEBFCB
S11330300FBECDBFDF91CF9108952F923F924F9253
S11330405F926F927F928F929F92AF92BF92CF9234
S1133050DF92EF92FF920F931F93CF93DF93CDB73D
S1133060DEB7A4970FB6F894DEBF0FBECDBF8C01B8
S11330706A017B01390184E2EEE4F2E0DE0111969B
S113308001900D928A95E1F7CB01BA010E9485194E
S11330904B015C014AE0B801C4010E94EE1AF80138
S11330A08081882341F0C8010196FC0101962081AA
S11330B02111FBCF01C0F8018EE281931F01660C40
S11330C0771C660C771CFE01E60DF71D6181728189
S11330D0838194810E94BD192B013C01C501B40177
S11330E00E94BD199B01AC01C701B6010E94A6183C
S11330F09B01AC01C301B2010E94491A0E948519C7
S11331009B01772324F422273327261B370B4AE01D
S1133110B101C9010E94EE1AC801A4960FB6F89431
S1133120DEBF0FBECDBFDF91CF911F910F91FF90F6
S1133130EF90DF90CF90BF90AF909F908F907F9053
S11331406F905F904F903F902F9008955058BB27F9
S1133150AA270E94BE180C940F1A0E94011A38F074
S11331600E94081A20F039F49F3F19F426F40C94B5
S1133170FE190EF4E095E7FB0C94F819E92F0E9470
S1133180201A58F3BA17620773078407950720F0CB
S113319079F4A6F50C94421A0EF4E0950B2EBA2F8E
S11331A0A02D0B01B90190010C01CA01A001112449
S11331B0FF27591B99F0593F50F4503E68F11A16F5
S11331C0F040A22F232F342F4427585FF3CF469586
S11331D037952795A795F0405395C9F77EF41F16A8
S11331E0BA0B620B730B840BBAF09150A1F0FF0F72
S11331F0BB1F661F771F881FC2F70EC0BA0F621F5E
S1133200731F841F48F4879577956795B795F7954D
S11332109E3F08F0B0CF9395880F08F09927EE0FE2
S11332209795879508950E9427190C940F1A0E9468
S1133230081A58F00E94011A40F029F45F3F29F05F
S11332400C94F81951110C94431A0C94FE190E9411
S1133250201A68F39923B1F3552391F3951B550B69
S1133260BB27AA2762177307840738F09F5F5F4F55
S1133270220F331F441FAA1FA9F335D00E2E3AF094
S1133280E0E832D091505040E695001CCAF72BD0AC
S1133290FE2F29D0660F771F881FBB1F26173707FD
S11332A04807AB07B0E809F0BB0B802DBF01FF272F
S11332B093585F4F3AF09E3F510578F00C94F819FB
S11332C00C94431A5F3FE4F3983ED4F386957795C4
S11332D06795B795F7959F5FC9F7880F911D9695E8
S11332E0879597F90895E1E0660F771F881FBB1F44
S11332F0621773078407BA0720F0621B730B840BF1
S1133300BA0BEE1F88F7E09508950E948C19689413
S1133310B1110C94431A08950E94281A88F09F57FB
S113332098F0B92F9927B751B0F0E1F0660F771FE5
S1133330881F991F1AF0BA95C9F714C0B13091F0DB
S11333400E94421AB1E008950C94421A672F782F14
S11333508827B85F39F0B93FCCF3869577956795A0
S1133360B395D9F73EF490958095709561957F4F0C
S11333708F4F9F4F0895E89409C097FB3EF49095B2
S11333808095709561957F4F8F4F9F4F9923A9F03A
S1133390F92F96E9BB279395F695879577956795C9
S11333A0B795F111F8CFFAF4BB0F11F460FF1BC00D
S11333B06F5F7F4F8F4F9F4F16C0882311F096E9A0
S11333C011C0772321F09EE8872F762F05C066234E
S11333D071F096E8862F70E060E02AF09A95660F07
S11333E0771F881FDAF7880F9695879597F90895C0
S11333F097F99F6780E870E060E008959FEF80ECA4
S1133400089500240A941616170618060906089546
S113341000240A9412161306140605060895092EAC
S11334200394000C11F4882352F0BB0F40F4BF2B1B
S113343011F460FF04C06F5F7F4F8F4F9F4F08955B
S113344057FD9058440F551F59F05F3F71F0479551
S1133450880F97FB991F61F09F3F79F08795089536
S1133460121613061406551FF2CF4695F1DF08C055
S1133470161617061806991FF1CF86957105610572
S113348008940895E894BB2766277727CB0197F91A
S113349008950E945C1A0C940F1A0E94011A38F0C5
S11334A00E94081A20F0952311F00C94F8190C943A
S11334B0FE1911240C94431A0E94201A70F3959F4C
S11334C0C1F3950F50E0551F629FF001729FBB2717
S11334D0F00DB11D639FAA27F00DB11DAA1F649FB3
S11334E06627B00DA11D661F829F2227B00DA11D66
S11334F0621F739FB00DA11D621F839FA00D611DEC
S1133500221F749F3327A00D611D231F849F600D0C
S1133510211D822F762F6A2F11249F5750409AF035
S1133520F1F088234AF0EE0FFF1FBB1F661F771FC1
S1133530881F91505040A9F79E3F510580F00C948C
S1133540F8190C94431A5F3FE4F3983ED4F386953C
S113355077956795B795F795E7959F5FC1F7FE2B2C
S1133560880F911D9695879597F90895DB018F93A0
S11335709F930E94CC1ABF91AF91A29F800D911D81
S1133580A39F900DB29F900D11240895EE0FFF1F7D
S11335900590F491E02D09940E94DF1AA59F900DE7
S11335A0B49F900DA49F800D911D11240895B7FF21
S11335B00C94CC1A0E94CC1A821B930B0895A29FE0
S11335C0B001B39FC001A39F700D811D1124911DF3
S11335D0B29F700D811D1124911D0895BB274A309F
S11335E031F4992322F4BDE2909581959F4F0C9478
S11335F0FA1ABB27FB015527AA27880F991FAA1F70
S1133600A41710F0A41B83955051B9F7A05DAA33F9
S113361008F0A95DA193009779F7B111B1931192C4
S1133620CB010C94131BDC01FC01672F71917723F0
S1133630E1F7329704C07C916D9370836291AE1769
S1133640BF07C8F30895E199FECF9FBB8EBBE09AF4
S113365099278DB30895A8E1B0E042E050E00C94BE
S11336604A1B262FE199FECF9FBB8EBBE09A0197A0
S11336700DB2021631F02DBB0FB6F894E29AE19A1E
S11336800FBE08950196272F0E94321B0C94311B04
S1133690DC01CB01FC01E199FECF06C0FFBBEEBB10
S11336A0E09A31960DB20D9241505040B8F708950A
S10736B0F894FFCFB8
S11336B40A02011905000A000700000001060000BF
S11336C400020400000003050000001D01000000C6
S11336D400000000000000000000010000000000E1
S11336E400020000000000000300000000000004C9
S11336F4CC0200000000040F02DA02000000000300
S1133704F401EB020000000004D001FD02000000FB
S1133714000333020C0300000000069A01120300A4
S11337240000000476012403B513091400000033D7
S1133734034D13C3150000003D037113E815000085
S1133744004A0391130D160000005503AE103D16F4
S11337540000006203C6105F160000007103DE104F
S113376478160000007D03F61091160000008D0306
S11337740E11AA160000009E032611C316000000B1
S1133784A703BE11D911000000B603D5122F1500EA
S11337940000C503FF125E15000000D70329138D32
S11337A415000000E6039811B311000000F5038727
S11337B412CC140000000304B112F9140000001226
S11337C40472118D110000001E040F12381400003D
S11337D4002D04391267140000003904631296148E
S11337E400000045043E114D110000004F0458111F
S11337F467110000005A04E411DA13000000000009
S113380400000A00000064000000E8030000102720
S11338140000A086010040420F008096980000E159
S1133824F5052E002043200020430046757465737B
S11338342076657A65726C65732076302E38004183
S11338446C6170616C6C61706F74626120616C6C2A
S113385461730049324320696E6469746173004280
S11338644D4532383020696E646974617300445381
S113387431384232303A200020646200484D5620E8
S11338846265616C6C697461730050756666657217
S1133894206265616C6C69746173004B617A616E5A
S11338A468617A207465726D6F737A74004B756CF9
S11338B4736F2065727A656B656C6F0052656C6515
S11338C46B0056657A65726C6F206265616C6C6915
S11338D474617300537A69766174747975207574AC
S11338E4616E005465737A74757A656D004D656E06
S11338F4752069646F7A69746F004C43442068616D
S11339047474657200484D562033206A6172617480
S113391475005A6F6E6120666F6C64737A696E7495
S1133924005A6F6E6120656D656C65740050756630
S11339346665722033206A6172617475005075661D
S113394466657220737A6976617474797500476167
S11339547A2072656C650047657068617A20616BD2
S11339647420686F6D0047657068617A206D696EB4
S113397420686F6D0047657068617A206B697661B1
S11339846E7420686F6D0047657068617A20737A7D
S1133994656E7A6F720042756666657220616B7437
S11339A420686F6D00456C6F72656D656E6F20687D
S11339B46F6D0042756666657220737A656E7A6F00
S11339C47200484D5620616B7420686F6D00484D39
S11339D456206B6976616E7420686F6D00484D568D
S11339E4206D696E20686F6D00484D5620737A65AA
S11339F46E7A6F72004B756C736F20686F6D004B39
S1133A04756C736F2070617261004B756C736F20F9
S10F3A14686F6D2074696C7461730000AD
S9030000FC
