:100000000C946D020C948A020C948A020C948A025D
:100010000C948A020C948A020C948A020C948A0230
:100020000C948A020C948A020C948A020C948A0220
:100030000C949E0C0C948A020C948A020C948A02F2
:100040000C948A020C948A020C9411150C943D15A0
:100050000C948A020C946B090C948A020C948A0208
:100060000C948A020C948A020C948A020C948A02E0
:100070000C948A020C948A020C94AA150C94D8153C
:100080000C948A020C948A020C948A02490956093B
:100090005609560956095609560956094B09560973
:1000A000560956094D095609560956095609560961
:1000B0004F09560951094509560956095609530968
:1000C0005509470956095609560956094909560955
:1000D0005609560956095609560956094B09560933
:1000E000560956094D095609560956095609560921
:1000F0004F09560951094509560956095609530928
:1001000055094709436F756C64206E6F7420636FE7
:100110006E6E65637420746F2073656E736F72000A
:100120000A004D41583A20002044533138423230C1
:100130002073656E736F72730A00466F756E64206C
:1001400000496E7465727275707420656E61626CC0
:1001500065640A00427573206572726F720A004E00
:100160006F2073656E736F7220666F756E640A0020
:10017000427573207363616E6E696E67202E2E2E3A
:100180000A0050756D70616B3A2000537A656C659A
:1001900070656B3A2000484D5620686F6D20004B0B
:1001A000617A616E68617A20686F6D20000A004D87
:1001B0004158313A20000A002E0025200A00424D05
:1001C000453238302048756D69646974793A200089
:1001D00043200A00424D453238302054656D706529
:1001E0007261747572653A20000002040E010F11ED
:1001F0000F0002040E111F100E000204000C040474
:100200000E0002040E1111110E00050A0E1111113B
:100210000E000204001111130D00050A0011111344
:100220000D00FF4C434420686174746572004D6595
:100230006E752069646F7A69746F20286D7029006B
:100240004B696B617063736F6C76610042656B61C3
:100250007063736F6C7661005465737A74757A6538
:100260006D0052656C65206B696B617063736F6CB8
:1002700076610052656C652062656B617063736FB7
:100280006C76610052656C65206B696B617063739D
:100290006F6C76610052656C652062656B6170639E
:1002A000736F6C76610052656C65206B696B617071
:1002B00063736F6C76610052656C652062656B617B
:1002C0007063736F6C76610052656C65206B696B4F
:1002D000617063736F6C76610052656C6520626556
:1002E0006B617063736F6C76610052656C65206B37
:1002F000696B617063736F6C76610052656C652029
:1003000062656B617063736F6C76610033206A6144
:1003100072617475203220616C6C61706F74005270
:10032000656C65206B696B617063736F6C766100DF
:1003300052656C652062656B617063736F6C76618A
:100340000033206A6172617475203120616C6C61C8
:10035000706F740052656C65206B696B61706373BC
:100360006F6C76610052656C652062656B617063CD
:10037000736F6C7661005A6F6E61737A656C65702D
:10038000203220616C6C61706F740052656C652066
:100390006B696B617063736F6C76610052656C653D
:1003A0002062656B617063736F6C7661005A6F6E6B
:1003B00061737A656C6570203120616C6C61706F5F
:1003C000740050574D3A200052656C65206B696B84
:1003D000617063736F6C76610052656C6520626555
:1003E0006B617063736F6C76610050574D0052659E
:1003F0006C650050574D3A200052656C65206B6962
:100400006B617063736F6C76610052656C6520621E
:10041000656B617063736F6C766100484D56207038
:10042000756D706120DF6C6C61706F740050574D9A
:100430000052656C6500484D562070756D706120E6
:10044000746970757300484D5620737A656E7A6FC3
:100450007220494400484D56206D696E20686F6DCA
:1004600000484D56206B6976616E7420686F6D0090
:10047000484D5620616B7420686F6D00424D4532C7
:100480003830206B6976616E7420686F6D00424D64
:1004900045323830206D696E20686F6D00424D45E1
:1004A000323830207061726100424D453238302060
:1004B000686F6D006C656865742076616C746F7A26
:1004C0007461746E690046656C202F206C6520672E
:1004D0006F6D626F6B6B616C000011241FBECFEFFC
:1004E000D0E1DEBFCDBF13E0A0E0B1E0E0EEF2E38B
:1004F00002C005900D92A233B107D9F724E0A2E320
:10050000B3E001C01D92A534B207E1F70E94090DC6
:100510000C946E190C940000CF93DF93C82F8CEECF
:100520000E94A907811111C08C2F0E94CE070E9442
:10053000F6078DEE0E94A90781110AC00E94EB0701
:10054000C82FD0E00E94F60705C0C0E0D0E002C08E
:10055000C0E0D0E0CE01DF91CF910895CF93DF933B
:10056000C82F8CEE0E94A907811118C08C2F0E9401
:10057000CE070E94F6078DEE0E94A907811111C0D7
:100580000E94E007C82FD0E0DC2FCC270E94EB07A9
:10059000C82B0E94F6078C2F9D2F05C080E090E0AD
:1005A00002C080E090E0DF91CF9108950E94AE02FA
:1005B0009827892798270895CF92DF92EF92FF928C
:1005C000F82E8CEE0E94A90781112EC08F2D0E945B
:1005D000CE070E94F6078DEE0E94A90781111BC06D
:1005E0000E94E007C82ED12CE12CF12CFE2CED2C22
:1005F000DC2CCC240E94E007C82AFE2CED2CDC2C3D
:10060000CC240E94EB07C82A0E94F6076C2D7D2D92
:100610008E2D9F2D0DC084E091E00E94981560E022
:1006200070E080E090E004C060E070E080E090E086
:10063000FF90EF90DF90CF9008950F931F93CF938B
:10064000DF9388E80E94D602C0ECD3E099838883C8
:100650008AE80E94D6029B838A838CE80E94D60295
:100660009D838C838EE80E94D6029F838E8380E9CF
:100670000E94D6029987888782E90E94D6029B87CA
:100680008A8784E90E94D6029D878C8786E90E942A
:10069000D6029F878E8788E90E94D602998B888B25
:1006A0008AE90E94D6029B8B8A8B8CE90E94D60233
:1006B0009D8B8C8B8EE90E94D6029F8B8E8B81EA5C
:1006C0000E948C02888F81EE0E94D6029A8F898FB9
:1006D00083EE0E948C028B8F84EE0E948C028C0130
:1006E00085EE0E948C0202951295107F1027007FE4
:1006F00010278F709927802B912B9D8F8C8F86EEE2
:100700000E948C028C0185EE0E948C02029512954B
:10071000107F1027007F1027929582958F70892770
:100720009F708927802B912B9F8F8E8F87EE0E9441
:100730008C0288A3DF91CF911F910F9108958CEEC9
:100740000E94A90781111EC082EF0E94CE0785E09A
:100750000E94CE0784EF0E94CE0787EB0E94CE074F
:1007600080ED0E94CE070E941D030E94F6078DEEC9
:100770000E94A907811106C00E94EB070E9478150C
:100780000E94F60708958F929F92AF92BF92CF92E8
:10079000DF92EF92FF920F931F938AEF0E94DC0289
:1007A000E0ECF3E00081118120E030E0C72ED82E8C
:1007B000E92EFF24E7FCFA94C01AD10AE20AF30AF0
:1007C000DC01CB01689416F8B595A79597958795A8
:1007D0001694D1F7000F111F221F331F4C015D012A
:1007E000801A910AA20AB30AA5019401A281B381D9
:1007F0000E9409194B015C01072E7BE0B594A79478
:10080000979487947A95D1F7702DA7019601C70127
:10081000B6010E94E8189B01AC01012E1CE0559521
:100820004795379527951A95D1F7102DA481B58155
:100830000E940919DC01CB01072E7EE0B595A79532
:10084000979587957A95D1F7702D880D991DAA1DDA
:10085000BB1D8093E1039093E203A093E303B09365
:10086000E4038C019D01000F111F221F331F000F95
:10087000111F221F331F800F911FA21FB31F80580B
:100880009F4FAF4FBF4F692F7A2F8B2F99270E9411
:10089000C41720E030E048EC52E40E941C171F917E
:1008A0000F91FF90EF90DF90CF90BF90AF909F900F
:1008B0008F9008954F925F926F927F928F929F9246
:1008C000AF92BF92CF92DF92EF92FF920E94C3034A
:1008D0008DEF0E94AE028090E1039090E203A09021
:1008E000E303B090E4032CE2921A21E0A20AB108DB
:1008F0006C01E12CF12C0B2EBEE0CC0CDD1CEE1CAF
:10090000FF1CBA95D1F7B02DE0ECF3E0848D958D06
:10091000092E000CAA0BBB0B072E74E1880F991F40
:10092000AA1FBB1F7A95D1F7702DC81AD90AEA0AF7
:10093000FB0AA68DB78DA50194010E940919C61A5C
:10094000D70AE80AF90A30E4D30EE11CF11C0B2E99
:10095000BFE0F594E794D794C794BA95D1F7B02D3A
:10096000A38DB0E0A50194010E94FE182B013C016B
:10097000032E3BE075946794579447943A95D1F7CA
:10098000302D40E8540E611C711CA0A10A2E000CF1
:10099000BB0BA50194010E940919052E5AE09595FB
:1009A0008795779567955A95D1F7502DA3019201B8
:1009B0000E94E818DC01CB01072E7AE0B595A795D7
:1009C000979587957A95D1F7702D9C01AD01405E82
:1009D0005F4FA18DB28D0E940919DC01CB01905EA1
:1009E000AF4FBF4FBC01CD01052E5EE095958795B9
:1009F000779567955A95D1F7502DA70196010E94DA
:100A0000E8186B017C01052E5FE095958795779539
:100A100067955A95D1F7502D9B01AC010E94E818BB
:100A20009B01AC01689416F8559547953795279525
:100A30001694D1F7A08DB0E00E94FE18DC01CB0126
:100A4000689413F8B595A795979587951694D1F75F
:100A5000A7019601281B390B4A0B5B0BDA01C90170
:100A60001AF480E090E0DC0181309105A10539E1C4
:100A7000B30724F080E090E0A0E0B9E1BC01CD0133
:100A8000052E5CE095958795779567955A95D1F7F2
:100A9000502D0E94C61720E030E040E85AE30E9443
:100AA0005718FF90EF90DF90CF90BF90AF909F903E
:100AB0008F907F906F905F904F90089561157105B2
:100AC000A9F0FC01680F791F80E048E1219198E0CE
:100AD000382F322730FF0CC08427869580682695F2
:100AE0009150B1F7E617F70789F7089580E0089568
:100AF0008695F5CF0F931F93CF93DF93DB01EC9196
:100B000011969C911197F0E0F92B803181F4EE7FE2
:100B1000EE0FFF1FEE0FFF1FEE0FFF1F16969C91AB
:100B200016976CE070E0691B7109E60FF71FFF2351
:100B30003CF491E0EA019883F195E195F10902C056
:100B4000EA011882883279F414968C91982F907665
:100B5000903649F086FF02C0EE7F05C085FF02C0D7
:100B6000EC7F01C0E87FCF01929582958F70892735
:100B70009F708927D9018C93EF70E801E88380E0AA
:100B8000DF91CF911F910F9108950F931F93CF93F2
:100B9000DF93EC018B01B80188810E9427078883CD
:100BA00081508D3F30F4F8018081883211F080311E
:100BB00091F7DF91CF911F910F9108950F931F939C
:100BC000CF93C82F8B010E9473060E94570688237B
:100BD00051F0B80184E40E948107C13031F00E94D5
:100BE000600680E003C082E001C080E0CF911F91E9
:100BF0000F9108956F927F928F929F92AF92BF92C2
:100C0000CF92DF92EF92FF920F931F93CF93DF93D8
:100C1000CDB7DEB729970FB6F894DEBF0FBECDBFB4
:100C20006C015B013A0149010E947306B6018EEB2B
:100C30000E9481078E010F5F1F4F7E018AE0E80E40
:100C4000F11C0E942307F80181938F01EE15FF0527
:100C5000C1F769E070E0CE0101960E945E05F82EB2
:100C600081110BC084019301A501BE016F5F7F4F0D
:100C7000F60180810E947A0504C00F2EF3E0FF2E5A
:100C8000F02D8F2D29960FB6F894DEBF0FBECDBF85
:100C9000DF91CF911F910F91FF90EF90DF90CF9058
:100CA000BF90AF909F908F907F906F900895E0914C
:100CB000E803F091E90390818091E7038923089587
:100CC000E091E503F091E60390818091E703892BA1
:100CD0008083E091EA03F091EB0390818091E70338
:100CE000892B80830895E091E503F091E6039081DC
:100CF0008091E703809589238083E091EA03F09156
:100D0000EB0390818091E703892B80838FE897E044
:100D10008115910511F00197F1F72FB7F894E09143
:100D2000EA03F091EB0390818091E703809589239A
:100D3000808389E091E08115910511F00197F1F729
:100D4000E091E803F091E90330818091E7032FBF40
:100D5000E5E8F6E0E115F10511F03197F1F7E091E2
:100D6000E803F091E90320819091E703922311F0C9
:100D70008323089581E008955093EB034093EA03A1
:100D80007093E6036093E5039093E9038093E8038F
:100D900081E001C0880F2A95EAF78093E7030E945B
:100DA000730608953FB7F894E091EA03F091EB03DE
:100DB00020819091E703922B9083E3E0F0E0E1152E
:100DC000F10511F03197F1F7882351F0E091EA0332
:100DD000F091EB0320819091E7039095922390830B
:100DE000E8E3F0E0E115F10511F03197F1F7E0915A
:100DF000E803F091E90320819091E703292309F4A6
:100E000080E0E5EBF0E0E115F10511F03197F1F745
:100E1000E091EA03F091EB03208190959223908377
:100E20003FBF0895CF93DF93C82FD8E08C2F8170F8
:100E30000E94D206C6958111C068D150B9F78C2F97
:100E4000DF91CF9108958FEF0E9412070895DF92EE
:100E5000EF92FF920F931F93CF93DF93D82E8B01C6
:100E60000E94730681112BC080EF0E941207E12CB3
:100E7000C0E40F2EF8EFFF2EF02DFC0E81E00E9453
:100E8000D206D82F81E00E94D206882319F0DD23F4
:100E9000D1F017C0D11124C0CD15E8F0F801808140
:100EA00080FF11C0CD111AC00EC0C150FC12E6CF98
:100EB0000F5F1F4FCF2DF110DCCF8E2D1AC08FEF9B
:100EC00018C08EEF16C080E00E94D206F801908113
:100ED00096959083EACFEC2ED1E002C0EC2ED1E0C3
:100EE0008D2F0E94D206F80190819695906890838C
:100EF000DCCFDF91CF911F910F91FF90EF90DF90AA
:100F00000895FF920F931F93CF93DF93F82EEB0179
:100F10000E947306209769F085E50E9412078E01F2
:100F2000085F1F4F89910E941207C017D107D1F7A0
:100F300003C08CEC0E9412078F2D0E941207DF91D4
:100F4000CF911F910F91FF9008958EE280937000D2
:100F50000895E4E7F0E0108294EA90839081992369
:100F6000ECF790917100987F9830A1F48093730012
:100F700084E880937400E4E7F0E080818823ECF754
:100F800090917100987F983139F081E0903429F484
:100F900080E0089581E0089580E0089580937300D3
:100FA00084E880937400E4E7F0E080818823ECF724
:100FB00090917100987F81E0983209F480E0089563
:100FC00084EC80937400E4E7F0E080818823ECF700
:100FD00080917300089584E880937400E4E7F0E062
:100FE00080818823ECF780917300089584E98093D1
:100FF00074000895AD9A00C000C0AD980895CF93D5
:10100000C82F662311F0AF9A01C0AF98AE98A49A8A
:10101000A39AA29AA19AA998AA98AB98AC98CC2323
:101020000CF4A99AC6FDAA9AC5FDAB9AC4FDAC9A68
:101030000E94FA07A998AA98AB98AC98C3FDA99A00
:10104000C2FDAA9AC1FDAB9AC0FDAC9A0E94FA07F4
:10105000AC9AAB9AAA9AA99ACF910895882311F0D5
:10106000AF9A01C0AF98AE9AA498A398A298A198FD
:10107000AD9A00C000C09C9B02C080E101C080E02E
:101080009B9980629A99806499998068AD9800C014
:1010900000C0AD9A00C000C09C9981609B9982609D
:1010A0009A99846099998860AD98089580E00E942B
:1010B0002E088823DCF388E090E00197F1F780E0C8
:1010C0000E942E080895CF93C82F0E94560860E012
:1010D0008C2F0E94FF07CF910895611104C08058A2
:1010E0000E9463080895613021F480540E946308CF
:1010F0000895623021F48C560E94630808958C5242
:101100000E946308089581E00E9463080895CF93C8
:10111000C82F0E945608CA30A1F4843148F090ECE0
:10112000980F943138F084518C3230F080E005C053
:1011300080E403C084E101C084E580580E94630814
:1011400004C061E08C2F0E94FF07CF910895CF93D8
:10115000DF93EC012196FC018081882329F00E9415
:10116000870889918111FBCFDF91CF910895CF93AB
:10117000DF93EC012196FC018491882339F00E94D1
:101180008708FE01849121968111F9CFDF91CF91DB
:1011900008951F93CF93DF93182FA79AA69AA59A25
:1011A000A49AA39AA29AA19A80E09AEF0197F1F7E4
:1011B000AB9AAC9A0E94FA0780E09EE40197F1F79F
:1011C0000E94FA07C0E0D1E0CE010197F1F70E943A
:1011D000FA07CE010197F1F7AC980E94FA07219720
:1011E000F1F788E20E94630888E00E9463080E9489
:1011F000830886E00E946308812F0E946308DF91C4
:10120000CF911F910895CF93DF93EC01AF98FC012C
:1012100084918770880F880F880F80640E948708E8
:10122000AF9A9E012E5F3F4FFE01319684918F3F12
:1012300041F0E9010E948708FE01849121968F3FC9
:10124000C9F7AF98AF9ADF91CF910895CF93DF930D
:10125000D82FC8E0DD2324F481E30E94870803C06F
:1012600080E30E948708DD0FC150A1F7DF91CF9185
:101270000895482F50E0FA01E15CF109EC33F105E3
:10128000A8F4EA5BFF4F0C94F8188FEE0FC085EFBF
:101290000DC080E00BC081E009C082E007C083E0A0
:1012A00005C084E003C085E001C086E00E94870895
:1012B0000895CF93DF93EC012196FC01849188235C
:1012C00039F00E943909FE01849121968111F9CFEC
:1012D000DF91CF9108951F920F920FB60F921124B4
:1012E0008F939F9384B195B10A9738F48AE090E088
:1012F000909383008093820006C084B195B190934F
:101300008300809382009F918F910F900FBE0F906A
:101310001F9018950F931F93CF93DF9300D000D0A9
:10132000CDB7DEB780913203823009F461C028F472
:10133000882351F0813091F1FAC0833009F482C0E2
:10134000843009F4D2C0F3C00E94C3036093FF034A
:101350007093000480930104909302044091FF0372
:1013600050910004609101047091020422E030E089
:1013700080EF93E00E94261684ED91E00E9498157C
:1013800080EF93E00E94891580ED91E00E9498150E
:10139000809132038F5F80933203CBC00E945A0446
:1013A00060933B0470933C0480933D0490933E040F
:1013B00040913B0450913C0460913D0470913E0487
:1013C00022E030E08FE394E00E9426168EEB91E05D
:1013D0000E9498158FE394E00E9489158AEB91E0B2
:1013E0000E949815809132038F5F80933203A1C0D1
:1013F00020E047E350E068E370E086E390E00E947D
:10140000BC06198299818091EF039817A8F469812D
:1014100070E0660F771F660F771F660F771F665F96
:101420007B4F81E00E94DE0589818F5F89839981EE
:101430008091EF03981758F3809132038F5F809368
:10144000320377C020E047E350E068E370E086E3D2
:1014500090E00E94BC06198299818091EF03981751
:10146000F0F5898190E0880F991F880F991F880FE8
:10147000991F9E012C5F3F4FAE014D5F5F4FBE0134
:101480006E5F7F4F865F9B4F0E94FA05811114C0EB
:101490008A8190E00E940B168B8190E00E940B16CF
:1014A00088EB91E00E9498158C8190E00E940B16C9
:1014B00086EB91E00E9498158B818093FD038091CB
:1014C000FD034AE067EF73E090E00E9420198981F4
:1014D0008F5F898399818091EF03981710F2809133
:1014E00032038F5F8093320324C00E94E71462E0CE
:1014F00087E00E94FB14082F6FEF87E00E94FB1427
:10150000182F0E94F6148FEA91E00E949815802F00
:101510000E940216812F0E9402168DEA91E00E941D
:1015200098151092320381E08093060402C0109255
:1015300032038091080481112FC00E9483088FE933
:1015400091E00E94590980EF93E00E94A70861E0B2
:1015500080E00E946D0886E991E00E94590987EFBA
:1015600093E00E94A70862E080E00E946D088BE88B
:1015700091E00E9459098091ED030E94260963E0E1
:1015800080E00E946D0882E891E00E9459098091F4
:1015900003040E94260905C08091080481508093AD
:1015A000080480913403811101C0369A0F900F9086
:1015B0000F900F90DF91CF911F910F910895DF92BF
:1015C000EF92FF920F931F93CF93DF93CDB7DEB7C8
:1015D00029970FB6F894DEBF0FBECDBF80E791E02C
:1015E0000E9498158FEF89870F2EFAE0EF2EF4E016
:1015F000FF2EF02DD12C8E01075F1F4FBE016F5FB4
:101600007F4FC8010E94C50599859F3F29F48FE54A
:1016100091E00E94981518C09E3F29F484E591E05E
:101620000E94981511C0FE013196D70181918D93CA
:10163000E017F107D9F7D394992331F088E0E80E49
:10164000F11C86E0D812DACF8D2D29960FB6F894CA
:10165000DEBF0FBECDBFDF91CF911F910F91FF90E5
:10166000EF90DF900895089508950E94E714609127
:10167000ED0383E00E94FB140E94F61408950E947B
:10168000E7146091030482E00E94FB140E94F614A8
:101690000895CF92DF92EF92FF929091FD03809197
:1016A00005049817D0F5909104048091FD039817D4
:1016B00030F0909109048091FD03981770F58091A6
:1016C000FE0380FD06C080910304826080930304C2
:1016D0003FC08091EC032091FD0390E0821B9109B3
:1016E0008F31910518F084E183BD32C085319105B9
:1016F00018F08CE383BD2CC08B30910518F086E97F
:1017000083BD26C08630910518F08CED83BD20C0C6
:10171000892BF1F080EF83BD1BC09091FD03809178
:10172000EC03891760F0909104048091FD03891700
:1017300030F0909109048091FD03891748F480915D
:10174000FE0380FD05C0809103048D7F8093030418
:101750009091040480910704891770F59091040416
:101760008091FD03891788F49091040480913A04D4
:10177000981758F480910304846080930304809147
:10178000ED0388608093ED032DC090910404809157
:101790003A04891738F59091090480910404981748
:1017A00008F5809103048460809303048091ED0325
:1017B00080618093ED0316C0809103048B7F80933A
:1017C00003049091FD038091EC03981758F49091D5
:1017D00009048091FD03891728F480910304806235
:1017E000809303048091FE0382FD37C08091EE0355
:1017F0002091FD0390E0821B91098F31910538F013
:1018000084E190E0909387008093860026C0853124
:10181000910538F08CE390E09093870080938600E8
:101820001CC08B30910538F086E990E090938700DA
:101830008093860012C08630910538F08CED90E0E0
:10184000909387008093860008C0892B31F080EF49
:1018500090E090938700809386008091620081FDE4
:101860001AC08091620082FD16C060910001C09094
:10187000FF03D0900004E0900104F090020470E0B7
:1018800080E090E00E94C617A70196010E945218BE
:1018900018160CF040C0909109048091F603981737
:1018A00058F48091030480618093030480910304C1
:1018B000877F809303040AC0809103048F7E809306
:1018C0000304809103048860809303048091620084
:1018D00081FF05C08091ED0382608093ED038091CC
:1018E000620081FD05C08091ED038D7F8093ED0343
:1018F0008091620082FF05C08091ED038460809337
:10190000ED038091620082FD10C08091ED038B7F1A
:101910008093ED030AC080910304877E80930304C3
:101920008091ED03897E8093ED030E943F0B0E941E
:10193000350BFF90EF90DF90CF9008951F920F929C
:101940000FB60F9211242F933F934F935F936F9392
:101950007F938F939F93AF93BF93EF93FF930E94D7
:101960008A0980913503811105C080910604811197
:101970000E94490BA895FF91EF91BF91AF919F9164
:101980008F917F916F915F914F913F912F910F9028
:101990000FBE0F901F90189580E090E00E9455199F
:1019A0008093330384E090E00E9455198093EC0308
:1019B00083E090E00E94551980933A0482E090E021
:1019C0000E9455198093050486E090E00E94551905
:1019D0008093010185E090E00E94551980930001F9
:1019E00081E090E00E9455198093FE0389E090E029
:1019F0000E9455198093350388E090E00E945519A4
:101A00008093020187E090E00E945519809334038F
:101A100008950E94CC0C80910201809308048CE010
:101A20000E94C90889EE91E00E9403090E94290ED4
:101A300087E690E00E946215A1E6B0E08C918E7F6F
:101A40008C93E2E6F0E080818E7F8083A09A8C9177
:101A50008D7F8C938081866080830E94A5070E9481
:101A60009F03789481E491E00E949815A89581B530
:101A7000886181BD81B5876081BD20E047E350E08A
:101A800068E370E086E390E00E94BC060E94DF0AF3
:101A90008093EF038AE391E00E9498158091EF0311
:101AA00090E00E940B1688E291E00E9498150E9437
:101AB000E714D79A60E887E00E94FB1461ED87E0A5
:101AC0000E94FB148FE891E00197F1F700C000003D
:101AD00060E087E00E94FB14D82F6FEF87E00E9440
:101AE000FB14C82FD29A95E09A95F1F7000065E5AE
:101AF00082E00E94FB140E94F61482E291E00E94B0
:101B000098158D2F0E9402168C2F0E94021680E2DB
:101B100091E00E949815EBE8F0E080818960808375
:101B2000EAE8F0E080818B60808380E890E0909329
:101B3000830080938200159A1D9A8EB584608EBDB5
:101B40001DBC1CBC84E294EF9BBD8ABD87B780613D
:101B500087BF86B18F6C86B90E942E0EFDCFEF92A3
:101B6000FF920F931F93CF93DF930E9483080E94ED
:101B7000DB14EC010E94DE14E0911701F0911801D2
:101B800096819923A1F0A081B1811696AC9187E04E
:101B9000A89FD0011124A75EBE4F12960D90BC9154
:101BA000A02D1796CD91DC91189716968C912481D3
:101BB0009581291BE82EF12C1E141F04A4F530E09A
:101BC0008901000F111F000F111F000F111F200F9F
:101BD000311F8E01020F131FC0E0D0E06C2F80E098
:101BE0000E946D08E0911701F0911801858190E045
:101BF0008C179D0721F48EE30E94870803C080E2C2
:101C00000E94870880E20E948708F8018081918104
:101C10000E94A7082196CE15DF0529F0075F1F4F08
:101C2000C430D105D9F6DF91CF911F910F91FF906C
:101C3000EF900895E9E1F1E0F0931801E0931701C6
:101C40001182108213821282148215820E94AF0DBB
:101C500008950E94E0140E941A0E08957F928F92B8
:101C60009F92AF92BF92CF92DF92EF92FF920F932B
:101C70001F93CF93DF93C3E0D1E007E111E0AA24E3
:101C8000A394B12C812C912C772473940F2EF5E31F
:101C9000CF2EF1E0DF2EF02D0F2EF9E1EF2EF1E047
:101CA000FF2EF02DDE0120B330E0098002C0359513
:101CB00027950A94E2F78A2D9B2D20FF02C0882DDC
:101CC000992D12962D913C911397220F331F306E50
:101CD000282B392B13963C932E9312972115304FB6
:101CE00009F009C114967C921497809102018093A7
:101CF0000804A89A4091170150911801FA019681A1
:101D0000943009F4D3C08C918130C1F038F0823026
:101D100009F442C0833009F4A0C0AFC08481882395
:101D200009F4B4C09581911103C081508483AEC081
:101D30009150FA01958381508483A8C00E94DE14DB
:101D4000E0911701F09118019681992309F4DCC004
:101D50004481242F30E0A081B1811696AC9187E0B8
:101D6000A89FD0011124A75EBE4F12960D90BC9182
:101D7000A02D16968C9190E00197281739070CF04A
:101D80007CC08581833019F44F5F448376C08F5FB8
:101D900085834F5F448371C00E94DB14A0911701BB
:101DA000B091180116964C911697442379F0ED9155
:101DB000FC911197E68127E0E29FF0011124E75E94
:101DC000FE4F0280F381E02D8781908514965C910F
:101DD0001497252F30E0F901EE0FFF1FEE0FFF1FC4
:101DE000EE0FFF1F2E0F3F1F280F391FF9018281B1
:101DF0009381892B81F013963C932E931297D09266
:101E00001801C0921701F701B58FA48F378F268F65
:101E100050A311A232C0F90187819085892B69F105
:101E200013963C932E931297842F90E00196FC0119
:101E3000EE0FFF1FEE0FFF1FEE0FFF1FE81BF90B4A
:101E4000E75EFE4FF0931801E0931701B183A08382
:101E5000138212821482158210C09923B9F0019066
:101E6000F081E02D8681B7E08B9FC0011124875E51
:101E70009E4F9093180180931701A0911701B09184
:101E8000180116968C911697843019F00E94AF0DA8
:101E900035C0ED91FC9111970280F381E02D028015
:101EA000F381E02D14968C91099528C0FA01808168
:101EB0009181FC0182819381FC0124813581FA01A9
:101EC0006481CD01F90109958823C1F0E0911701E2
:101ED000F09118010190F081E02D8681F7E08F9F4D
:101EE000C0011124875E9E4F9093180180931701C3
:101EF0000E94AF0D03C014961C92A8982596C01797
:101F0000D10709F0CFCE0AC04481242F30E090E001
:101F10000197281739070CF434CFB8CFDF91CF9150
:101F20001F910F91FF90EF90DF90CF90BF90AF90F7
:101F30009F908F907F9008950E94830886E394E09D
:101F40000E94590961E080E00E946D088091FE03C3
:101F500080FD05C081E394E00E94590908958DE257
:101F600094E00E94B70808950E9483088DEA93E0E8
:101F70000E94590961E080E00E946D088091ED03A4
:101F800081FF05C08CE993E00E94590908958BE810
:101F900093E00E94590908950E94830886E793E020
:101FA0000E94590961E080E00E946D088091ED0374
:101FB00082FF05C085E693E00E945909089584E5F3
:101FC00093E00E94590908950E94830881E493E0F8
:101FD0000E94590961E080E00E946D088091ED0344
:101FE00083FF05C080E393E00E94590908958FE1C3
:101FF00093E00E94590908950E9483088CE093E0C1
:102000000E94590961E080E00E946D088091ED0313
:1020100084FF05C08BEF92E00E94590908958AEE73
:1020200092E00E94590908950E94830888E592E091
:102030000E94590961E080E00E946D08809135039B
:10204000882329F08CE492E00E945909089580E4E5
:1020500092E00E94590908950E94830889EA94E059
:102060000E94590961E080E00E946D0880EF93E0D2
:102070000E94A70808950E9483088DE994E00E94B9
:10208000590961E080E00E946D088FE394E00E94AE
:10209000A7080895CF93DF9300D000D000D0CDB72C
:1020A000DEB70E9483088BE194E00E94590961E049
:1020B00080E00E946D088091FE0380FD0EC080913B
:1020C000030481FF05C08AE094E00E94590911C011
:1020D00089EF93E00E9459090CC083EF93E00E94BE
:1020E000B70883B54AE0BE016F5F7F4F90E00E9462
:1020F000201926960FB6F894DEBF0FBECDBFDF9134
:10210000CF910895CF93DF93CDB7DEB72A970FB65F
:10211000F894DEBF0FBECDBF809101014AE0BE0141
:102120006F5F7F4F90E00E9420190E9483088EE825
:1021300094E00E94590961E080E00E946D08CE01A0
:1021400001960E94A7082A960FB6F894DEBF0FBE2C
:10215000CDBFDF91CF910895CF93DF93CDB7DEB799
:102160002A970FB6F894DEBF0FBECDBF8091000155
:102170004AE0BE016F5F7F4F90E00E9420190E94ED
:1021800083088CE794E00E94590961E080E00E9496
:102190006D08CE0101960E94A7082A960FB6F89402
:1021A000DEBF0FBECDBFDF91CF910895CF93DF93F8
:1021B000CDB7DEB727970FB6F894DEBF0FBECDBF01
:1021C0008091FD034AE0BE016F5F7F4F90E00E9467
:1021D00020190E94830880E794E00E94590961E079
:1021E00080E00E946D08CE0101960E94A708279604
:1021F0000FB6F894DEBF0FBECDBFDF91CF9108952B
:10220000CF93DF93CDB7DEB727970FB6F894DEBF35
:102210000FBECDBF8091EC034AE0BE016F5F7F4FE0
:1022200090E00E9420190E94830881E694E00E94B9
:10223000590961E080E00E946D08CE0101960E947C
:10224000A70827960FB6F894DEBF0FBECDBFDF916B
:10225000CF910895CF93DF93CDB7DEB72A970FB60E
:10226000F894DEBF0FBECDBF809105044AE0BE01E9
:102270006F5F7F4F90E00E9420190E94830885E5E0
:1022800094E00E94590961E080E00E946D08CE014F
:1022900001960E94A7082A960FB6F894DEBF0FBEDB
:1022A000CDBFDF91CF910895CF93DF9300D000D0C1
:1022B000CDB7DEB70E94830886E494E00E945909F6
:1022C00061E080E00E946D08809133034AE0BE0126
:1022D0006F5F7F4F90E00E942019CE0101960E940F
:1022E000A7080F900F900F900F90DF91CF91089556
:1022F000CF93DF9300D000D0CDB7DEB70E94830824
:102300008EE292E00E945909809102014AE0BE01EA
:102310006F5F7F4F90E00E942019CE0101960E94CE
:10232000A7080F900F900F900F90DF91CF91089515
:10233000CF93DF9300D000D0CDB7DEB70E948308E3
:1023400083E292E00E94590961E080E00E946D08FA
:10235000809134034AE0BE016F5F7F4F90E00E949E
:102360002019CE0101960E94A7080F900F900F90A0
:102370000F90DF91CF9108950E94830886EC94E03E
:102380000E94B70861E080E00E946D0884EB94E051
:102390000E94590962E080E00E946D080895CF9381
:1023A000DF9300D000D01F92CDB7DEB7FC01808153
:1023B000813061F028F0823079F0833031F114C03F
:1023C000809101018F5F809301010EC08091010116
:1023D00081508093010108C06091010186E090E086
:1023E0000E945D1981E012C00E94BC118091010120
:1023F0004AE0BE016F5F7F4F90E00E942019CE013E
:1024000001960E94A70880E001C081E00F900F9024
:102410000F900F900F90DF91CF910895CF93DF939E
:1024200000D000D01F92CDB7DEB7FC018081813093
:1024300061F028F0823079F0833031F114C080915E
:1024400000018F5F809300010EC0809100018150D8
:102450008093000108C06091000185E090E00E9437
:102460005D1981E012C00E94BC11809100014AE018
:10247000BE016F5F7F4F90E00E942019CE01019650
:102480000E94A70880E001C081E00F900F900F909C
:102490000F900F90DF91CF910895CF93DF9300D0ED
:1024A00000D01F92CDB7DEB7FC018081813061F092
:1024B00028F0823079F0833031F114C08091EC0340
:1024C0008F5F8093EC030EC08091EC03815080936A
:1024D000EC0308C06091EC0384E090E00E945D1979
:1024E00081E012C00E94BC118091EC034AE0BE0161
:1024F0006F5F7F4F90E00E942019CE0101960E94ED
:10250000A70880E001C081E00F900F900F900F901E
:102510000F90DF91CF910895CF93DF9300D000D03B
:102520001F92CDB7DEB7FC018081813061F028F0C9
:10253000823079F0833031F114C0809105048F5FCF
:10254000809305040EC0809105048150809305049A
:1025500008C06091050482E090E00E945D1981E06E
:1025600012C00E94BC11809105044AE0BE016F5F59
:102570007F4F90E00E942019CE0101960E94A7088B
:1025800080E001C081E00F900F900F900F900F90AE
:10259000DF91CF910895CF93DF9300D000D0CDB7D6
:1025A000DEB7FC018081813071F028F08230A9F023
:1025B000833061F11AC0809133038F5F80933303BE
:1025C0001092330312C08091330381508093330300
:1025D0008091EF038093330308C06091330380E060
:1025E00090E00E945D1981E012C00E94BC118091B0
:1025F00033034AE0BE016F5F7F4F90E00E942019D5
:10260000CE0101960E94A70880E001C081E00F90F2
:102610000F900F900F90DF91CF910895FC01808172
:10262000823059F018F0833011F10FC09091FE0301
:1026300081E089278093FE0308C06091FE0381E05A
:1026400090E00E945D1981E008950E94BC11809184
:10265000FE0380FD06C08EEE93E00E94590980E0E3
:1026600008958AEE93E00E94B70880E0089581E023
:102670000895CF93DF9300D000D000D0CDB7DEB760
:10268000FC018081823018F08430D8F43EC0809103
:10269000FE0380FD0EC08091030480FF04C08D7F87
:1026A0008093030403C08260809303040E943F0B65
:1026B00008C083B58B3018F00E94330B02C00E9413
:1026C000340B0E94BC118091FE0380FD10C08091EC
:1026D000030480FF06C089ED93E00E94590980E061
:1026E00015C088EC93E00E94590980E00FC082EC8D
:1026F00093E00E94B70883B54AE0BE016F5F7F4F49
:1027000090E00E94201980E001C081E026960FB67B
:10271000F894DEBF0FBECDBFDF91CF910895FC01CD
:102720008081823018F0843048F41AC09091ED0313
:1027300082E089278093ED030E94350B0E94BC1133
:102740008091ED0381FF06C089ED92E00E94590956
:1027500080E0089588EC92E00E94590980E0089595
:1027600081E00895FC018081823018F0843048F4C3
:102770001AC09091ED0384E089278093ED030E94B5
:10278000350B0E94BC118091ED0382FF06C087EBE0
:1027900092E00E94590980E0089586EA92E00E9442
:1027A000590980E0089581E00895FC01808182301C
:1027B00018F0843048F41AC09091ED0388E089271E
:1027C0008093ED030E94350B0E94BC118091ED03B4
:1027D00083FF06C085E992E00E94590980E00895D0
:1027E00084E892E00E94590980E0089581E008950C
:1027F000FC018081823018F0843048F41AC0909136
:10280000ED0380E189278093ED030E94350B0E9440
:10281000BC118091ED0384FF06C083E792E00E9423
:10282000590980E0089582E692E00E94590980E00B
:10283000089581E00895CF93DF9300D000D0CDB705
:10284000DEB7FC018081813061F028F0823079F0C0
:10285000833031F114C0809135038F5F809335034D
:102860000EC08091350381508093350308C060917C
:10287000350389E090E00E945D1981E012C00E945A
:10288000BC11809135034AE0BE016F5F7F4F90E03D
:102890000E942019CE0101960E94A70880E001C085
:1028A00081E00F900F900F900F90DF91CF910895DE
:1028B000CF93DF9300D000D0CDB7DEB7FC0180818D
:1028C000813061F028F0823079F0833031F114C02A
:1028D000809102018F5F809302010EC080910201FE
:1028E00081508093020108C06091020188E090E06D
:1028F0000E945D1981E012C00E94BC11809102010A
:102900004AE0BE016F5F7F4F90E00E942019CE0128
:1029100001960E94A70880E001C081E00F900F900F
:102920000F900F90DF91CF910895CF93DF9300D058
:1029300000D0CDB7DEB7FC018081813061F028F096
:10294000823079F0833079F114C0809134038F5F45
:10295000809334030EC080913403815080933403FC
:1029600008C06091340387E090E00E945D1981E027
:102970001BC080913403882329F090E09093870056
:10298000809386000E94BC11809134034AE0BE010E
:102990006F5F7F4F90E00E942019CE0101960E9448
:1029A000A70880E001C081E00F900F900F900F907A
:1029B000DF91CF9108958CE391E0089584E008952C
:1029C00081B38F7081BB82B3806F82BB089587B360
:1029D000876087BB88B3896088BB8BB38FEF8BBB65
:1029E0009AB38ABB8DB183658DB908956E9887B30C
:1029F000897F87BB08954BB321E030E0F90102C025
:102A0000EE0FFF1F8A95E2F7CF012E2F209542236C
:102A10004BBB6FB9779BFECF9BB3892B8BBB8FB121
:102A200008951F920F920FB60F9211242F938F9338
:102A30009F93EF93FF938BB12CB18C71E0917D0349
:102A4000EF5FEF7190917C03E91739F0E0937D031C
:102A5000F0E0E058FC4F208301C082E090917B03BE
:102A6000892B80937B03FF91EF919F918F912F9101
:102A70000F900FBE0F901F9018951F920F920FB6D8
:102A80000F9211248F939F93EF93FF9390917F0365
:102A900080917E03981761F0E0917E03EF5FEF7104
:102AA000E0937E03F0E0E056FC4F80818CB901C0DA
:102AB0005598FF91EF919F918F910F900FBE0F90BE
:102AC0001F90189510927F0310927E0310927D0341
:102AD00010927C03992314F422E02BB99078909300
:102AE000900089B988E98AB986E0809395000895B5
:102AF00020917F032F5F2F7190917E032917E1F3BF
:102B0000E22FF0E0E056FC4F808320937F03559A3C
:102B10000895CF93DF93EC018881882331F02196CB
:102B20000E94781589918111FBCFDF91CF91089593
:102B3000CF93DF93EC012196FC018491882339F037
:102B40000E947815FE01849121968111F9CFDF91C1
:102B5000CF9108951F920F920FB60F9211242F93C9
:102B60008F939F93EF93FF9380919B0020919C0004
:102B70008C71E0913803EF5FEF7190913703E917A3
:102B800039F0E0933803F0E0E55CFC4F208301C0AE
:102B900082E090913603892B80933603FF91EF9169
:102BA0009F918F912F910F900FBE0F901F901895AE
:102BB0001F920F920FB60F9211248F939F93EF9352
:102BC000FF9390913A0380913903981769F0E0914F
:102BD0003903EF5FEF71E0933903F0E0E55AFC4F02
:102BE000808180939C0005C0EAE9F0E080818F7DC0
:102BF0008083FF91EF919F918F910F900FBE0F9067
:102C00001F9018958F708A3010F0895C01C0805D2C
:102C10000E9478150895CF93DF93CDB7DEB7619703
:102C20000FB6F894DEBF0FBECDBF4AE0BE016F5FA6
:102C30007F4F0E9420190E94891561960FB6F89463
:102C4000DEBF0FBECDBFDF91CF9108952F923F928F
:102C50004F925F926F927F928F929F92AF92BF92AC
:102C6000CF92DF92EF92FF920F931F93CF93DF9358
:102C7000CDB7DEB7A4970FB6F894DEBF0FBECDBFB9
:102C80008C016A017B01390184E2E2E0F2E0DE01BD
:102C9000119601900D928A95E1F7CB01BA010E943D
:102CA0008E174B015C014AE0B801C4010E94201953
:102CB000F8018081882341F0C8010196FC0101964A
:102CC00020812111FBCF01C0F8018EE281931F0109
:102CD000660C771C660C771CFE01E60DF71D618102
:102CE0007281838194810E94C6172B013C01C5012A
:102CF000B4010E94C6179B01AC01C701B6010E9436
:102D0000AF169B01AC01C301B2010E9457180E948B
:102D10008E179B01772324F422273327261B370B9A
:102D20004AE0B101C9010E942019C801A4960FB65A
:102D3000F894DEBF0FBECDBFDF91CF911F910F91F1
:102D4000FF90EF90DF90CF90BF90AF909F908F90CB
:102D50007F906F905F904F903F902F9008955058C4
:102D6000BB27AA270E94C7160C9418180E940A189D
:102D700038F00E94111820F039F49F3F19F426F41E
:102D80000C9407180EF4E095E7FB0C940118E92F5A
:102D90000E94291858F3BA1762077307840795072A
:102DA00020F079F4A6F50C944B180EF4E0950B2E58
:102DB000BA2FA02D0B01B90190010C01CA01A0018D
:102DC0001124FF27591B99F0593F50F4503E68F1E8
:102DD0001A16F040A22F232F342F4427585FF3CF29
:102DE000469537952795A795F0405395C9F77EF4FA
:102DF0001F16BA0B620B730B840BBAF09150A1F043
:102E0000FF0FBB1F661F771F881FC2F70EC0BA0FC8
:102E1000621F731F841F48F4879577956795B79550
:102E2000F7959E3F08F0B0CF9395880F08F099274B
:102E3000EE0F9795879508950E9430170C941818F7
:102E40000E94111858F00E940A1840F029F45F3FC0
:102E500029F00C94011851110C944C180C9407187B
:102E60000E94291868F39923B1F3552391F3951B18
:102E7000550BBB27AA2762177307840738F09F5F9B
:102E80005F4F220F331F441FAA1FA9F335D00E2E08
:102E90003AF0E0E832D091505040E695001CCAF775
:102EA0002BD0FE2F29D0660F771F881FBB1F261738
:102EB00037074807AB07B0E809F0BB0B802DBF010F
:102EC000FF2793585F4F3AF09E3F510578F00C94DE
:102ED00001180C944C185F3FE4F3983ED4F38695A8
:102EE00077956795B795F7959F5FC9F7880F911DFF
:102EF0009695879597F90895E1E0660F771F881FEB
:102F0000BB1F621773078407BA0720F0621B730B9D
:102F1000840BBA0BEE1F88F7E09508950E94951771
:102F20006894B1110C944C1808950E94311888F0DF
:102F30009F5798F0B92F9927B751B0F0E1F0660F7D
:102F4000771F881F991F1AF0BA95C9F714C0B130BE
:102F500091F00E944B18B1E008950C944B18672F24
:102F6000782F8827B85F39F0B93FCCF386957795ED
:102F70006795B395D9F73EF49095809570956195D6
:102F80007F4F8F4F9F4F0895E89409C097FB3EF401
:102F900090958095709561957F4F8F4F9F4F9923A6
:102FA000A9F0F92F96E9BB279395F6958795779524
:102FB0006795B795F111F8CFFAF4BB0F11F460FFE4
:102FC0001BC06F5F7F4F8F4F9F4F16C0882311F03C
:102FD00096E911C0772321F09EE8872F762F05C050
:102FE000662371F096E8862F70E060E02AF09A95EB
:102FF000660F771F881FDAF7880F9695879597F9E0
:10300000089597F99F6780E870E060E008959FEF6A
:1030100080EC089500240A9416161706180609066F
:10302000089500240A94121613061406050608953E
:10303000092E0394000C11F4882352F0BB0F40F4C6
:10304000BF2B11F460FF04C06F5F7F4F8F4F9F4F06
:10305000089557FD9058440F551F59F05F3F71F088
:103060004795880F97FB991F61F09F3F79F08795EF
:103070000895121613061406551FF2CF4695F1DF78
:1030800008C0161617061806991FF1CF8695710508
:10309000610508940895E894BB2766277727CB013C
:1030A00097F908950E94C41808F48FEF08950E94BC
:1030B0006A180C9418180E940A1838F00E94111807
:1030C00020F0952311F00C9401180C94071811248A
:1030D0000C944C180E94291870F3959FC1F3950F1A
:1030E00050E0551F629FF001729FBB27F00DB11D8C
:1030F000639FAA27F00DB11DAA1F649F6627B00D1C
:10310000A11D661F829F2227B00DA11D621F739F04
:10311000B00DA11D621F839FA00D611D221F749F12
:103120003327A00D611D231F849F600D211D822F59
:10313000762F6A2F11249F5750409AF0F1F0882380
:103140004AF0EE0FFF1FBB1F661F771F881F9150AD
:103150005040A9F79E3F510580F00C9401180C9443
:103160004C185F3FE4F3983ED4F3869577956795C6
:10317000B795F795E7959F5FC1F7FE2B880F911DD7
:103180009695879597F90895990F0008550FAA0B02
:10319000E0E8FEEF16161706E807F907C0F012166A
:1031A0001306E407F50798F0621B730B840B950B6D
:1031B00039F40A2661F0232B242B252B21F40895C2
:1031C0000A2609F4A140A6958FEF811D811D08955F
:1031D000DB018F939F930E94FE18BF91AF91A29F36
:1031E000800D911DA39F900DB29F900D1124089505
:1031F000EE0FFF1F0590F491E02D09940E94111924
:10320000A59F900DB49F900DA49F800D911D11243A
:103210000895B7FF0C94FE180E94FE18821B930BB2
:103220000895A29FB001B39FC001A39F700D811D9F
:103230001124911DB29F700D811D1124911D0895BF
:10324000BB274A3031F4992322F4BDE29095819551
:103250009F4F0C942C19BB27FB015527AA27880FD9
:10326000991FAA1FA41710F0A41B83955051B9F7FA
:10327000A05DAA3308F0A95DA193009779F7B11179
:10328000B1931192CB010C944519DC01FC01672F1D
:1032900071917723E1F7329704C07C916D9370832D
:1032A0006291AE17BF07C8F30895E199FECF9FBBA7
:1032B0008EBBE09A99278DB30895262FE199FECF12
:1032C0009FBB8EBBE09A01970DB2021631F02DBB69
:1032D0000FB6F894E29AE19A0FBE0895F894FFCFE2
:1032E0000F0A0A00060000000107000000020500A6
:1032F00000000304000000190100000000000000AD
:1033000000000000000001000000000000020000BA
:10331000000000000300000000000004260200007E
:103320000000059F0134020000000004DE01480295
:1033300000000000047B0151020000000003600156
:10334000630214101B140000006D02781158140061
:1033500000007A02981195140000008502B40F8FC6
:10336000130000008C02CC0FB2130000009302E4A3
:103370000FD5130000009E02FC0FF813000000A9F7
:1033800002D6100000000000B50200114D1200002E
:1033900000C4022A118C12000000D0025411CB127A
:1033A000000000DC020000000002CC01E6029C0FDD
:1033B0000E13000000F6024A103913000000060345
:1033C0002C1000000000000E033B10000000000065
:1033D00017038210CF110000002303AC100E12005F
:1033E0000000000000000A00000064000000E80384
:1033F000000010270000A086010040420F008096C8
:10340000980000E1F505484D56206265616C6C69D5
:10341000746173004B617A616E68617A20746572C1
:103420006D6F737A74617400537A656C6570656B47
:103430000056657A65726C6F206265616C6C6974A8
:103440006173005465737A74757A656D004D656EAD
:10345000752069646F7A69746F004C434420686119
:1034600074746572005AA16E612031005AA16E61B8
:1034700020320033206ADF726174FF203100332074
:103480006ADF726174FF203200484D5620616B7410
:1034900020686F6D00484D56206B6976616E742010
:1034A000686F6D00484D56206D696E20686F6D0025
:1034B000484D5620737A656E7A6F7200484D5620DB
:1034C00070756D706100484D562070756D7061208B
:1034D0006265616C6C00484D562070756D7061209E
:1034E0006B6170637300424D4520686F6D00424D03
:1034F00045207061726100424D45206D696E206803
:103500006F6D00424D45206B6976616E7420686F67
:023510006D004C
:00000001FF
