S015000066757465735F76657A65726C6F2E7372656382
S11300000C9406030C9423030C9423030C942303F1
S11300100C9423030C9423030C9423030C942303C4
S11300200C9423030C9423030C9423030C942303B4
S11300300C94420A0C9423030C9423030C9423037E
S11300400C9423030C9423030C947B190C94A7198C
S11300500C9423030C94230A0C9423030C9423037D
S11300600C9423030C9423030C9423030C94230374
S11300700C9423030C9423030C94141A0C94421A26
S11300800C9423030C9423030C942303CF09DC095D
S1130090DC09DC09DC09DC09DC09DC09D109DC093F
S11300A0DC09DC09D309DC09DC09DC09DC09DC092D
S11300B0D509DC09D709CB09DC09DC09DC09D90934
S11300C0DB09CD09DC09DC09DC09DC09CF09DC0921
S11300D0DC09DC09DC09DC09DC09DC09D109DC09FF
S11300E0DC09DC09D309DC09DC09DC09DC09DC09ED
S11300F0D509DC09D709CB09DC09DC09DC09D909F4
S1130100DB09CD09436F756C64206E6F7420636FD7
S11301106E6E65637420746F2073656E736F720006
S113012002040E010F110F0002040E111F100E0025
S11301300204000C04040E0002040E1111110E003E
S1130140050A0E1111110E000204001111130D0005
S1130150050A001111130D00206462004453313864
S11301604232303A20002044533138423230207336
S1130170656E736F72730A00466F756E6420004972
S11301806E7465727275707420656E61626C6564FC
S11301900A00424D4532383020696E64ED74E173D3
S11301A00049324320696E64ED74E17300416C616F
S11301B070E16C6C61706F74626120E16C6CE1736E
S11301C00046FB74E9732076657AE9726CE9732062
S11301D076302E3800427573206572726F720A0091
S11301E04E6F2073656E736F7220666F756E640A4E
S11301F000427573207363616E6E696E67202E2EE4
S11302002E0A0047415320616E64204649525354DC
S11302105F464C4F4F525F56414C56452C20534538
S1130220434F4E445F464C4F4F525F56414C5645E8
S11302302072656C617920646561637469766174A8
S113024065640A005345434F4E4420464C4F4F5279
S11302502064656163746976617465640A0053455A
S1130260434F4E4420464C4F4F522061637469768D
S1130270617465640A00464952535420464C4F4FFA
S1130280522064656163746976617465640A00462A
S11302904952535420464C4F4F522061637469763F
S11302A0617465640A004741532C20444857206414
S11302B0656163746976617465643B2042554646A2
S11302C045522072656C6179206465616374697656
S11302D0617465640A0047415320616374697661FF
S11302E07465643B204255464645522C2044485789
S11302F02072656C617920646561637469766174E8
S113030065640A004448572072656C61792064650D
S11303106163746976617465640A004448572072A5
S1130320656C6179206163746976617465642077B2
S1130330697468206275666665720A0044485720CD
S113034072656C6179206163746976617465642097
S113035077697468206761730A0046F66C642F45F8
S11303606D656C200050756666657220737A2F7017
S1130370200047E17A2072656CE920003A00484D7C
S11303805620737A656C657020002043004BFC6C2A
S113039073F520002043002E0047E97068E17A20BD
S11303A0002043002E0050756666657220003A00F6
S11303B02043002E00484D5620000A002E00252020
S11303C00A00424D453238302048756D69646974BD
S11303D0793A200043200A00424D453238302054F7
S11303E0656D70657261747572653A200002040E61
S11303F0010F110F0002040E111F100E0002040061
S11304000C04040E0002040E1111110E00050A0E54
S11304101111110E000204001111130D00050A0040
S11304201111130D007065726300F3726100537A49
S1130430697661747479FA207574E16E667574E195
S113044073004C43442068E17474E972004D656E96
S1130450FC206964F57AED74F520286D7029005448
S113046065737A74FC7A656D002043002E004E613A
S11304707070616C6920616B742068F56D002043B5
S1130480002E00476172E17A7320616B742068F575
S11304906D004B690042650047E17A20E16C6C61B4
S11304A0706F74004B690042650050756666657232
S11304B020737A697661747479FA0047E17A00509E
S11304C0756666657200507566666572202F2067D2
S11304D0E17A20737A656C6570004B6900426500AF
S11304E0456D656C65746920737A656C6570004B45
S11304F0690042650046F66C64737A696E7469201B
S1130500737A656C6570004B6900426500484D560E
S113051020737A656C657020E16C6C61706F740097
S113052047E97068E17A20737A656E7A6F722049C0
S1130530440047E97068E17A206BED76E16E74203F
S113054068F56D0047E97068E17A206D696E20688E
S1130550F56D002043002E0047E97068E17A2061C0
S11305606B742068F56D0050756666657220737A49
S1130570656E7A6F7220494400456CF572656D654D
S11305806EF52068F56D002043002E0050756666F8
S1130590657220616B742068F56D004D6178206987
S11305A064F5004D696E206964F500484D5620736A
S11305B07A656E7A6F7220494400484D56206D6901
S11305C06E2068F56D00484D56206BED76E16E7433
S11305D02068F56D002043002E00484D5620616BC5
S11305E0742068F56D004BFC6C73F5206D696E200A
S11305F068F56D00424D453238302070E17261007B
S1130600424D453238302068F56D000011241FBE7C
S1130610CFEFD0E1DEBFCDBF14E0A0E0B1E0E8E869
S1130620FBE302C005900D92A839B107D9F725E084
S1130630A8E9B4E001C01D92AE3CB207E1F70E9404
S1130640A50E0C94C21D0C940000CF93DF93C82F09
S11306508CEE0E944208811111C08C2F0E94670801
S11306600E948F088DEE0E94420881110AC00E94E8
S11306708408C82FD0E00E948F0805C0C0E0D0E0F5
S113068002C0C0E0D0E0CE01DF91CF910895CF93B6
S1130690DF93C82F8CEE0E944208811118C08C2F62
S11306A00E9467080E948F088DEE0E944208811103
S11306B011C00E947908C82FD0E0DC2FCC270E94FB
S11306C08408C82B0E948F088C2F9D2F05C080E0C2
S11306D090E002C080E090E0DF91CF9108950E9405
S11306E047039827892798270895CF92DF92EF929E
S11306F0FF92F82E8CEE0E94420881112EC08F2D9D
S11307000E9467080E948F088DEE0E9442088111A2
S11307101BC00E947908C82ED12CE12CF12CFE2C90
S1130720ED2CDC2CCC240E947908C82AFE2CED2C5C
S1130730DC2CCC240E948408C82A0E948F086C2DCB
S11307407D2D8E2D9F2D0DC084E091E00E94021A14
S113075060E070E080E090E004C060E070E080E081
S113076090E0FF90EF90DF90CF9008950F931F9348
S1130770CF93DF9388E80E946F03CEE2D5E099839C
S113078088838AE80E946F039B838A838CE80E9493
S11307906F039D838C838EE80E946F039F838E83F7
S11307A080E90E946F039987888782E90E946F031A
S11307B09B878A8784E90E946F039D878C8786E9DB
S11307C00E946F039F878E8788E90E946F03998B2D
S11307D0888B8AE90E946F039B8B8A8B8CE90E9429
S11307E06F039D8B8C8B8EE90E946F039F8B8E8B86
S11307F081EA0E942503888F81EE0E946F039A8FFD
S1130800898F83EE0E9425038B8F84EE0E9425033B
S11308108C0185EE0E94250302951295107F102706
S1130820007F10278F709927802B912B9D8F8C8FA1
S113083086EE0E9425038C0185EE0E942503029515
S11308401295107F1027007F1027929582958F7044
S113085089279F708927802B912B9F8F8E8F87EEFE
S11308600E94250388A3DF91CF911F910F910895D2
S11308708CEE0E94420881111EC082EF0E9467081C
S113088085E00E94670884EF0E94670887EB0E9456
S1130890670880ED0E9467080E94B6030E948F08D3
S11308A08DEE0E944208811106C00E9484080E94B5
S11308B0E2190E948F0808958F929F92AF92BF927F
S11308C0CF92DF92EF92FF920F931F938AEF0E94D1
S11308D07503EEE2F5E00081118120E030E0C72EDF
S11308E0D82EE92EFF24E7FCFA94C01AD10AE20AB2
S11308F0F30ADC01CB01689416F8B595A795979592
S113090087951694D1F7000F111F221F331F4C0136
S11309105D01801A910AA20AB30AA5019401A28179
S1130920B3810E94411D4B015C01072E7BE0B5940D
S1130930A794979487947A95D1F7702DA70196017F
S1130940C701B6010E94201D9B01AC01012E1CE0D1
S113095055954795379527951A95D1F7102DA4816C
S1130960B5810E94411DDC01CB01072E7EE0B595C7
S1130970A795979587957A95D1F7702D880D991D30
S1130980AA1DBB1D80934F0590935005A09351055C
S1130990B09352058C019D01000F111F221F331FBC
S11309A0000F111F221F331F800F911FA21FB31F9F
S11309B080589F4FAF4FBF4F692F7A2F8B2F9927A6
S11309C00E94251C20E030E048EC52E40E947D1B8C
S11309D01F910F91FF90EF90DF90CF90BF90AF9059
S11309E09F908F9008954F925F926F927F928F9213
S11309F09F92AF92BF92CF92DF92EF92FF920E94AA
S1130A005C048DEF0E94470380904F059090500541
S1130A10A0905105B09052052CE2921A21E0A20A4E
S1130A20B1086C01E12CF12C0B2EBEE0CC0CDD1CCA
S1130A30EE1CFF1CBA95D1F7B02DEEE2F5E0848DE3
S1130A40958D092E000CAA0BBB0B072E74E1880FA1
S1130A50991FAA1FBB1F7A95D1F7702DC81AD90AFE
S1130A60EA0AFB0AA68DB78DA50194010E94411DD7
S1130A70C61AD70AE80AF90A30E4D30EE11CF11CBD
S1130A800B2EBFE0F594E794D794C794BA95D1F7A9
S1130A90B02DA38DB0E0A50194010E94361D2B0159
S1130AA03C01032E3BE075946794579447943A9520
S1130AB0D1F7302D40E8540E611C711CA0A10A2E00
S1130AC0000CBB0BA50194010E94411D052E5AE0A8
S1130AD095958795779567955A95D1F7502DA301EC
S1130AE092010E94201DDC01CB01072E7AE0B5950E
S1130AF0A795979587957A95D1F7702D9C01AD01AF
S1130B00405E5F4FA18DB28D0E94411DDC01CB017F
S1130B10905EAF4FBF4FBC01CD01052E5EE09595B1
S1130B208795779567955A95D1F7502DA70196012A
S1130B300E94201D6B017C01052E5FE09595879531
S1130B40779567955A95D1F7502D9B01AC010E947A
S1130B50201D9B01AC01689416F85595479537956F
S1130B6027951694D1F7A08DB0E00E94361DDC01C4
S1130B70CB01689413F8B595A79597958795169426
S1130B80D1F7A7019601281B390B4A0B5B0BDA013D
S1130B90C9011AF480E090E0DC0181309105A105DF
S1130BA039E1B30724F080E090E0A0E0B9E1BC01B2
S1130BB0CD01052E5CE095958795779567955A95B7
S1130BC0D1F7502D0E94271C20E030E040E85AE382
S1130BD00E94B31CFF90EF90DF90CF90BF90AF9036
S1130BE09F908F907F906F905F904F9008956115C4
S1130BF07105A9F0FC01680F791F80E048E121919B
S1130C0098E0382F322730FF0CC0842786958068FF
S1130C1026959150B1F7E617F70789F7089580E014
S1130C2008958695F5CF0F931F93CF93DF93DB0140
S1130C30EC9111969C911197F0E0F92B803181F49D
S1130C40EE7FEE0FFF1FEE0FFF1FEE0FFF1F169636
S1130C509C9116976CE070E0691B7109E60FF71F11
S1130C60FF233CF491E0EA019883F195E195F109C1
S1130C7002C0EA011882883279F414968C91982F74
S1130C809076903649F086FF02C0EE7F05C085FF5E
S1130C9002C0EC7F01C0E87FCF01929582958F70EE
S1130CA089279F708927D9018C93EF70E801E88325
S1130CB080E0DF91CF911F910F9108950F931F93BF
S1130CC0CF93DF93EC018B01B80188810E94C007A8
S1130CD0888381508D3F30F4F8018081883211F08F
S1130CE0803191F7DF91CF911F910F9108950F9368
S1130CF01F93CF93C82F8B010E940C070E94F0060C
S1130D00882351F0B80184E40E941A08C13031F0FC
S1130D100E94F90680E003C082E001C080E0CF9128
S1130D201F910F9108956F927F928F929F92AF922D
S1130D30BF92CF92DF92EF92FF920F931F93CF93C4
S1130D40DF93CDB7DEB729970FB6F894DEBF0FBE99
S1130D50CDBF6C015B013A0149010E940C07B60149
S1130D608EEB0E941A088E010F5F1F4F7E018AE0EE
S1130D70E80EF11C0E94BC07F80181938F01EE1567
S1130D80FF05C1F769E070E0CE0101960E94F70506
S1130D90F82E81110BC084019301A501BE016F5F80
S1130DA07F4FF60180810E94130604C00F2EF3E0EA
S1130DB0FF2EF02D8F2D29960FB6F894DEBF0FBEAF
S1130DC0CDBFDF91CF911F910F91FF90EF90DF90F6
S1130DD0CF90BF90AF909F908F907F906F90089529
S1130DE0E0915605F091570590818091550589232E
S1130DF00895E0915305F091540590818091550533
S1130E00892B8083E0915805F09159059081809158
S1130E105505892B80830895E0915305F09154057D
S1130E20908180915505809589238083E0915805B0
S1130E30F0915905908180915505892B80838FE825
S1130E4097E08115910511F00197F1F72FB7F89408
S1130E50E0915805F0915905908180915505809550
S1130E608923808389E091E08115910511F0019730
S1130E70F1F7E0915605F0915705308180915505C1
S1130E802FBFE5E8F6E0E115F10511F03197F1F730
S1130E90E0915605F09157052081909155059223D4
S1130EA011F08323089581E00895509359054093E8
S1130EB05805709354056093530590935705809398
S1130EC0560581E001C0880F2A95EAF780935505FD
S1130ED00E940C0708953FB7F894E0915805F091EB
S1130EE05905208190915505922B9083E3E0F0E021
S1130EF0E115F10511F03197F1F7882351F0E091F4
S1130F005805F091590520819091550590959223AB
S1130F109083E8E3F0E0E115F10511F03197F1F782
S1130F20E0915605F09157052081909155052923AC
S1130F3009F480E0E5EBF0E0E115F10511F03197FB
S1130F40F1F7E0915805F09159052081909592238D
S1130F5090833FBF0895CF93DF93C82FD8E08C2FA1
S1130F6081700E946B07C6958111C068D150B9F792
S1130F708C2FDF91CF9108958FEF0E94AB070895D6
S1130F80DF92EF92FF920F931F93CF93DF93D82EAC
S1130F908B010E940C0781112BC080EF0E94AB07CC
S1130FA0E12CC0E40F2EF8EFFF2EF02DFC0E81E0B3
S1130FB00E946B07D82F81E00E946B07882319F0E9
S1130FC0DD23D1F017C0D11124C0CD15E8F0F8010C
S1130FD0808180FF11C0CD111AC00EC0C150FC1217
S1130FE0E6CF0F5F1F4FCF2DF110DCCF8E2D1AC02F
S1130FF08FEF18C08EEF16C080E00E946B07F801D7
S1131000908196959083EACFEC2ED1E002C0EC2E2D
S1131010D1E08D2F0E946B07F8019081969590681E
S11310209083DCCFDF91CF911F910F91FF90EF90D0
S1131030DF900895FF920F931F93CF93DF93F82EC1
S1131040EB010E940C07209769F085E50E94AB072D
S11310508E01085F1F4F89910E94AB07C017D1070B
S1131060D1F703C08CEC0E94AB078F2D0E94AB0715
S1131070DF91CF911F910F91FF9008958EE280939D
S113108070000895E4E7F0E0108294EA9083908180
S11310909923ECF790917100987F9830A1F4809394
S11310A0730084E880937400E4E7F0E0808188238F
S11310B0ECF790917100987F983139F081E0903489
S11310C029F480E0089581E0089580E008958093F4
S11310D0730084E880937400E4E7F0E0808188235F
S11310E0ECF790917100987F81E0983209F480E0E8
S11310F0089584EC80937400E4E7F0E08081882311
S1131100ECF780917300089584E880937400E4E719
S1131110F0E080818823ECF780917300089584E9DE
S1131120809374000895AD9A00C000C0AD980895EE
S1131130CF93C82F662311F0AF9A01C0AF98AE9831
S1131140A49AA39AA29AA19AA998AA98AB98AC989F
S1131150CC230CF4A99AC6FDAA9AC5FDAB9AC4FD8A
S1131160AC9A0E949308A998AA98AB98AC98C3FD2E
S1131170A99AC2FDAA9AC1FDAB9AC0FDAC9A0E947D
S11311809308AC9AAB9AAA9AA99ACF910895882306
S113119011F0AF9A01C0AF98AE9AA498A398A29800
S11311A0A198AD9A00C000C09C9B02C080E101C020
S11311B080E09B9980629A99806499998068AD983F
S11311C000C000C0AD9A00C000C09C9981609B998A
S11311D082609A99846099998860AD98089580E0B6
S11311E00E94C7088823DCF388E090E00197F1F7B8
S11311F080E00E94C7080895CF93C82F0E94EF088B
S113120060E08C2F0E949808CF910895CF93C82F47
S11312100E94EF0861E08C2F0E949808CF910895F6
S1131220611104C080580E94FC080895613021F4C3
S113123080540E94FC080895623021F48C560E9468
S1131240FC0808958C520E94FC08089581E00E94D5
S1131250FC080895CF93C82F0E94EF08CA30A1F468
S1131260843148F090EC980F943138F084518C32EA
S113127030F080E005C080E403C084E101C084E56F
S113128080580E94FC0804C061E08C2F0E949808DA
S1131290CF910895CF93DF93EC012196FC018491C3
S11312A0882339F00E942A09FE0184912196811134
S11312B0F9CFDF91CF9108951F93CF93DF93182F28
S11312C0A79AA69AA59AA49AA39AA29AA19A80E008
S11312D09AEF0197F1F7AB9AAC9A0E94930880E0D9
S11312E09EE40197F1F70E949308C0E0D1E0CE019B
S11312F00197F1F70E949308CE010197F1F7AC989A
S11313000E9493082197F1F788E20E94FC0888E084
S11313100E94FC080E94260986E00E94FC08812F96
S11313200E94FC08DF91CF911F9108950F931F93A2
S1131330CF93DF9380E40E94FC08C0E2D1E009E58A
S113134011E0FE0184910E9406092196C017D1077D
S1131350C1F7DF91CF911F910F9108959FEF960FE1
S1131360662319F086959150E8F780FF04C081E365
S11313700E942A09089580E30E942A090895482FAB
S113138050E0FA01E15CF109EC33F105A8F4EA5B01
S1131390FF4F0C94301D8FEE0FC085EF0DC080E021
S11313A00BC081E009C082E007C083E005C084E08F
S11313B003C085E001C086E00E942A090895CF9306
S11313C0DF93EC012196FC018081882329F00E949F
S11313D0BF0989918111FBCFDF91CF9108950F93BC
S11313E01F93CF93DF9300D000D0CDB7DEB78C012D
S11313F04AE0BE016F5F7F4F0E94581D0A301105FD
S113140018F480E30E942A09CE0101960E94DF09A4
S11314100F900F900F900F90DF91CF911F910F912C
S11314200895CF93DF93EC012196FC0184918823E6
S113143039F00E94BF09FE01849121968111F9CFF0
S1131440DF91CF9108951F920F920FB60F9211243E
S11314508F939F9384B195B10A9738F48AE090E012
S1131460909383008093820006C084B195B19093D9
S11314708300809382009F918F910F900FBE0F90F5
S11314801F9018951F920F920FB60F9211248F93ED
S11314908091A3048091A3048F5F8093A3048F9110
S11314A00F900FBE0F901F9018951F93CF93DF934B
S11314B000D01F92CDB7DEB780919A04813009F431
S11314C044C038F0823009F468C0833009F48BC01A
S11314D038C10E945C04AB01BC0140935F0550938A
S11314E06005609361057093620522E030E080E856
S11314F095E00E94871A20E030E048EC52E46091C5
S11315005F057091600580916105909162050E946C
S1131510B31C0E94F61B7093CC056093CB0580919D
S1131520A204882361F088ED93E00E94021A80E807
S113153095E00E94F31984ED93E00E94021A8091D1
S11315409A048F5F80939A04FEC00E94F304AB0157
S1131550BC014093630550936405609365057093E3
S1131560660522E030E082E995E00E94871A8091C6
S1131570A204882361F082EC93E00E94021A82E9BB
S113158095E00E94F3198EEB93E00E94021A809179
S11315909A048F5F80939A04D6C020E047E350E01A
S11315A068E370E086E390E00E94550780916C0543
S11315B0882399F010E0612F70E0660F771F660FA3
S11315C0771F660F771F68567A4F81E00E9477066F
S11315D01F5F80916C05181770F380919A048F5FD8
S11315E080939A04B0C020E047E350E068E370E0E1
S11315F086E390E00E94550780916C05882309F4E6
S11316009AC010E0812F90E0880F991F880F991FCE
S1131610880F991F9E012D5F3F4FAE014E5F5F4FB4
S1131620BE016F5F7F4F88569A4F0E9493068111C7
S113163018C08091A2048823A1F0898190E00E94BF
S11316406C1A8A8190E00E946C1A8CEB93E00E94E1
S1131650021A8B8190E00E946C1A8AEB93E00E943C
S1131660021A80919F04811310C08A8180937705A8
S11316704AE06FE675E090E00E94581D8B814AE0D5
S11316806FE875E090E00E94581D80910601811377
S113169010C08A818093CD054AE068E775E090E048
S11316A00E94581D8B814AE066E875E090E00E9434
S11316B0581D80910401811310C08A8180936E05A6
S11316C04AE069E675E090E00E94581D8B814AE08B
S11316D062E775E090E00E94581D80910501811336
S11316E010C08A81809376054AE068EC75E090E04A
S11316F00E94581D8B814AE06BE775E090E00E94E0
S1131700581D80910201811310C08A8180935A056B
S11317104AE06CE575E090E00E94581D8B814AE038
S11317206BE875E090E00E94581D1F5F80916C0586
S1131730181708F467CF80919A048F5F80939A04F6
S113174002C010929A0480910A018111C5C00E94BE
S1131750260980910001843008F467C085EB93E08A
S11317600E944A098FE695E00E94DF0983EB93E02B
S11317700E944A098FE895E00E94DF0980EB93E01C
S11317800E944A0960E08FE00E94100980919E0443
S113179090E00E94EF098EEA93E00E944A0980914A
S11317A09D0490E00E94EF0961E080E00E9410092E
S11317B086EA93E00E944A0988E795E00E94DF09DF
S11317C084EA93E00E944A0986E895E00E94DF09D2
S11317D081EA93E00E944A0962E080E00E941009D5
S11317E089E993E00E94110A89E695E00E94DF09E5
S11317F087E993E00E944A0982E795E00E94DF09A5
S113180084E993E00E944A0963E080E00E941009A1
S11318108DE893E00E94110A80E895E00E94DF09B8
S11318208AE893E00E944A094CC08EE793E00E9444
S11318304A0964E08091A0040E94AE0960E08FE050
S11318400E94100980919E0490E00E94EF098CE7A9
S113185093E00E944A0980919D0490E00E94EF0960
S113186061E080E00E94100982E793E00E94110A7F
S113187067E08091A0040E94AE0962E080E00E94CB
S1131880100985E693E00E944A0965E08091A0046E
S11318900E94AE0966E08091A0040E94AE0963E054
S11318A080E00E9410098AE593E00E94110A62E038
S11318B08091A0040E94AE0963E08091A0040E947C
S11318C0AE0980910001815019F08093000107C096
S11318D08AE08093000103C0815080930A018091C3
S11318E0A104811101C0369A0F900F900F90DF91DF
S11318F0CF911F910895DF92EF92FF920F931F9360
S1131900CF93DF93CDB7DEB729970FB6F894DEBF38
S11319100FBECDBF8091A204882309F43FC081EF9C
S113192091E00E94021A8FEF89870F2EF8E9EF2EBB
S1131930F5E0FF2EF02DD12C8E01075F1F4FBE0165
S11319406F5F7F4FC8010E945E0699859F3F49F4EF
S11319508091A204882329F180EE91E00E94021A6A
S113196020C09E3F49F48091A2048823D1F085EDE4
S113197091E00E94021A15C0FE013196D7018191AF
S11319808D93E017F107D9F7D394992351F088E0A8
S1131990E80EF11C86E0D812D2CF03C08FEF8987FE
S11319A0C4CF8D2D29960FB6F894DEBF0FBECDBFE0
S11319B0DF91CF911F910F91FF90EF90DF900895E9
S11319C00E9451196091A00481E00E9465190E944F
S11319D06019089580919B04882329F190917705DB
S11319E0809175059817D8F480919E0420919D04E8
S11319F030E094E6899F200D311D112480918905E2
S1131A0090918A058217930760F081E040917E05EA
S1131A1050917F052417350770F480E00CC080E0F6
S1131A200AC080E008C081E0209177059091750597
S1131A30291708F080E0882309F445C090916D05CA
S1131A4080917705981708F44CC09091CD0580914A
S1131A5075059817C0F4809108019091090190933D
S1131A609904809398048091A0048F79806980936D
S1131A70A0048091A204882309F4EFC08CE393E0CE
S1131A800E94021A2EC080919804909199040097A4
S1131A9031F48091A00480678093A00405C001976D
S1131AA090939904809398048091A0048F778093F5
S1131AB0A0048091A204882309F4CFC08BE193E0B1
S1131AC00E94021A0EC08091A0048F708093A0041B
S1131AD08091A204882309F4C0C084E093E00E94AA
S1131AE0021A8091A00484FDB1C00E9B09C00F9B13
S1131AF007C020916E0590915B05291708F088C0F6
S1131B004091CB055091CC05209167053091680533
S1131B102417350708F47CC020916E0590918E053A
S1131B20291720F00E9B02C00F9935C02091CD05D6
S1131B30909107012917A8F4209108013091090117
S1131B4030939904209398048F7880688093A0043C
S1131B508091A2048823F9F086ED92E00E94021A93
S1131B601AC020919804309199042115310529F463
S1131B708F7680668093A00406C02150310930938B
S1131B809904209398048091A204882321F086EA82
S1131B9092E00E94021A0E990DC08091A004846004
S1131BA08093A0048091A204882321F08FE892E01E
S1131BB00E94021A0E9B0DC08091A0048B7F80931B
S1131BC0A0048091A204882321F086E792E00E9479
S1131BD0021A0F990DC08091A00488608093A0041C
S1131BE08091A2048823F1F18EE592E00E94021A0A
S1131BF00F9B2CC08091A004877F8093A0048091C8
S1131C00A204882339F184E492E00E94021A1EC0DF
S1131C1020919804309199042115310521F4837F92
S1131C208093A00406C02150310930939904209375
S1131C3098048091A0048F718093A0048091A204E1
S1131C40882341F083E092E00E94021A8091A2046A
S1131C50823058F40E94E00C08958091A00484FF1F
S1131C6044CFF8CF0F99C6CFF5CF089582E090E026
S1131C700E948D1D80939F048DE090E00E948D1D35
S1131C80809375058CE090E00E948D1D80936D0516
S1131C908AE090E00E94951D90937F0580937E05D5
S1131CA088E090E00E94951D90938A0580938905B1
S1131CB081E090E00E948D1D8093060187E090E012
S1131CC00E948D1D8093070183E091E00E948D1D89
S1131CD08093040186E090E00E948D1D80935B0553
S1131CE085E090E00E948D1D80938E0580E090E059
S1131CF00E948D1D8093050181E091E00E948D1D5D
S1131D008093020183E090E00E94951D9093680502
S1131D108093670582E190E00E948D1D8093A20468
S1131D2081E190E00E948D1D80930A0180E190E0A2
S1131D300E948D1D8093A1048EE090E00E94951D69
S1131D40909309018093080108950E94360E8CE057
S1131D500E945C098DEE93E00E949609EBE8F0E0A6
S1131D60808189608083EAE8F0E080818B608083F1
S1131D7080E890E09093830080938200159A1D9AE6
S1131D800E94260981EC91E00E94110A87E690E006
S1131D900E94CC19E1E6F0E080818E7F8083E2E648
S1131DA0F0E080818E7F8083A09A82B18F7382B9A4
S1131DB01092A0040E94E00C61E080E00E941009EF
S1131DC08DEA91E00E94110A62E080E00E9410090D
S1131DD0CAE088E70E942A092FEF83ED90E321509F
S1131DE080409040E1F700C00000C15091F70E948C
S1131DF0260981EA91E00E94110A0E943E0861E0EE
S1131E0080E00E94100982E991E00E94110A0E9478
S1131E10380478948FE791E00E94021A20E047E3A7
S1131E2050E068E370E086E390E00E9455070E946A
S1131E307B0C80936C058091A204882369F088E769
S1131E4091E00E94021A80916C0590E00E946C1A45
S1131E5086E691E00E94021A62E080E00E94100986
S1131E608CE591E00E944A0980916C0590E00E9403
S1131E70EF0988E591E00E944A092FEF8BE792E988
S1131E80215080409040E1F700C000008EB58C6086
S1131E908EBD1DBC1CBC84E294EF9BBD8ABD87B77C
S1131EA0806187BF86B18F6C86B9A89581B588613A
S1131EB081BD81B5876081BD0E9408108091A30413
S1131EC0813049F580919C048F5F8C3319F08093A5
S1131ED09C0416C010929C0480919D048F5F8C33E7
S1131EE019F080939D040CC010929D0480919E046F
S1131EF08F5F883119F080939E0402C010929E0473
S1131F000E94550A8091A204823010F40E94EA0CC7
S1131F10A8951092A3040E940D10D0CFEF92FF92C7
S1131F200F931F93CF93DF930E9426090E944519B4
S1131F30EC010E944819E0911F01F0912001968163
S1131F409923A1F0A081B1811696AC9187E0A89F56
S1131F50D0011124AF5DBE4F12960D90BC91A02DFF
S1131F601796CD91DC91189716968C9124819581C2
S1131F70291BE82EF12C1E141F04A4F530E089015E
S1131F80000F111F000F111F000F111F200F311F11
S1131F908E01020F131FC0E0D0E06C2F80E00E947E
S1131FA01009E0911F01F0912001858190E08C17C8
S1131FB09D0721F48EE30E942A0903C080E20E9457
S1131FC02A0980E20E942A09F801808191810E94F5
S1131FD0DF092196CE15DF0529F0075F1F4FC430B6
S1131FE0D105D9F6DF91CF911F910F91FF90EF901A
S1131FF00895E1E2F1E0F0932001E0931F011182E2
S1132000108213821282148215820E948E0F089508
S11320100E944A190E94F90F08955F926F927F926D
S11320208F929F92AF92BF92CF92DF92EF92FF92E4
S11320300F931F93CF93DF93CBE0D1E00F2EFFE1FB
S1132040EF2EF1E0FF2EF02D88248394912C612C47
S1132050712C552453940F2EFDE3AF2EF1E0BF2EC7
S1132060F02D0F2EF1E2CF2EF1E0DF2EF02D8E01B8
S113207080B390E0098002C0959587950A94E2F7B1
S1132080282D392D80FF02C0262D372DF80182819D
S11320909381880F991F906E822B932B9383828355
S11320A08115904F09F011C1F801548281E190E04B
S11320B00E948D1D80930A01A89AA0911F01B091DE
S11320C0200116969C911697943009F4DAC0F80111
S11320D080818130F9F038F0823009F449C08330CE
S11320E009F4A7C0B5C014968C911497882309F4F9
S11320F0B8C015969C911597911104C081501496FF
S11321008C93AFC0915015969C931597815014965B
S11321108C93A7C00E944819E0911F01F0912001FF
S11321209681992309F4DAC04481242F30E0A081F8
S1132130B1811696AC9187E0A89FD0011124AF5DC0
S1132140BE4F12960D90BC91A02D16968C9190E0E6
S11321500197281739070CF07BC08581833019F467
S11321604F5F448375C08F5F85834F5F448370C026
S11321700E944519A0911F01B091200116964C911F
S11321801697442379F0ED91FC911197E68127E0AD
S1132190E29FF0011124EF5DFE4F0280F381E02DF8
S11321A08781908514965C911497252F30E0F9016E
S11321B0EE0FFF1FEE0FFF1FEE0FFF1F2E0F3F1F2F
S11321C0280F391FF90182819381892B81F013969D
S11321D03C932E931297B0922001A0921F01F60116
S11321E0B58FA48F378F268F50A311A231C0F90168
S11321F087819085892B61F113963C932E931297D6
S1132200842F90E00196FC01EE0FFF1FEE0FFF1FDD
S1132210EE0FFF1FE81BF90BEF5DFE4FF09320015B
S1132220E0931F01B183A08313821282148215826A
S11322300FC09923B1F0ED91FC918681F7E08F9F57
S1132240C00111248F5D9E4F9093200180931F0144
S1132250A0911F01B091200116968C91169784309D
S113226019F00E948E0F34C0ED91FC9111970280F9
S1132270F381E02D0280F381E02D14968C91099571
S113228027C0ED91FC9111970280F381E02D048029
S1132290F581E02D14966C91C80109958823C1F04D
S11322A0E0911F01F09120010190F081E02D8681E1
S11322B027E0829FC00111248F5D9E4F90932001DF
S11322C080931F010E948E0F03C0F8011482A89806
S11322D02596CE15DF0509F0CACE0AC04481242F05
S11322E030E090E00197281739070CF436CFB9CFC6
S11322F0DF91CF911F910F91FF90EF90DF90CF90DE
S1132300BF90AF909F908F907F906F905F90089553
S11323100E94260980E096E00E94110A61E080E0B4
S11323200E94100980E895E00E94DF090895FC01ED
S11323308081833029F0862F0E94881180E00895DF
S113234081E008950E94260984EF95E00E94110A15
S113235061E080E00E94100982E995E00E94DF09B3
S11323600895FC018081833029F0862F0E94A211F8
S113237080E0089581E00895CF93DF9300D000D0EA
S11323801F92CDB7DEB70E94260986EE95E00E9423
S1132390110A61E080E00E9410094AE0BE016F5F0B
S11323A07F4F80916705909168050E94581DCE016A
S11323B001960E94DF090F900F900F900F900F90DD
S11323C0DF91CF910895CF93DF9300D000D0CDB7A4
S11323D0DEB7809175054AE0BE016F5F7F4F90E0E4
S11323E00E94581D0E94260986EC95E00E94110A5D
S11323F061E080E00E941009CE0101960E94DF098D
S11324000F900F900F900F90DF91CF910895CF937D
S1132410DF9300D000D0CDB7DEB780916D054AE0E0
S1132420BE016F5F7F4F90E00E94581D0E942609F5
S11324308AEB95E00E94110A61E080E00E94100995
S1132440CE0101960E94DF090F900F900F900F901C
S1132450DF91CF910895CF93DF9300D000D0CDB713
S1132460DEB70E9426098BEA95E00E94110A61E01A
S113247080E00E94100980919F044AE0BE016F5FD2
S11324807F4F90E00E94581DCE0101960E94DF0903
S11324900F900F900F900F90DF91CF910895CF93ED
S11324A0DF9300D000D01F92CDB7DEB70E9426097B
S11324B083EA95E00E94110A61E080E00E9410091D
S11324C04AE0BE016F5F7F4F80917E0590917F054A
S11324D00E94581DCE0101960E94DF090F900F90B3
S11324E00F900F900F90DF91CF910895CF93DF93CA
S11324F000D000D01F92CDB7DEB70E9426098BE929
S113250095E00E94110A61E080E00E9410094AE00F
S1132510BE016F5F7F4F8091890590918A050E946B
S1132520581DCE0101960E94DF090F900F900F9065
S11325300F900F90DF91CF910895CF93DF9300D048
S113254000D0CDB7DEB7809107014AE0BE016F5FCE
S11325507F4F90E00E94581D0E94260989E795E06C
S11325600E94110A61E080E00E941009CE010196E8
S11325700E94DF090F900F900F900F90DF91CF9181
S11325800895CF93DF9300D000D0CDB7DEB70E947B
S1132590260987E695E00E94110A61E080E00E9426
S11325A01009809106014AE0BE016F5F7F4F90E001
S11325B00E94581DCE0101960E94DF090F900F90D2
S11325C00F900F90DF91CF910895CF93DF9300D0B8
S11325D000D0CDB7DEB780918E054AE0BE016F5FB3
S11325E07F4F90E00E94581D0E94260984E495E0E4
S11325F00E94110A61E080E00E941009CE01019658
S11326000E94DF090F900F900F900F90DF91CF91F0
S11326100895CF93DF93CDB7DEB727970FB6F8941D
S1132620DEBF0FBECDBF80915B054AE0BE016F5F88
S11326307F4F90E00E94581D0E94260982E395E096
S11326400E94110A61E080E00E941009CE01019607
S11326500E94DF0927960FB6F894DEBF0FBECDBFE8
S1132660DF91CF910895CF93DF9300D000D0CDB701
S1132670DEB70E94260980E295E00E94110A61E01B
S113268080E00E941009809104014AE0BE016F5F5E
S11326907F4F90E00E94581DCE0101960E94DF09F1
S11326A00F900F900F900F90DF91CF910895CF93DB
S11326B0DF9300D000D0CDB7DEB70E9426098FE5A6
S11326C094E00E94110A61E080E00E941009809168
S11326D0A2044AE0BE016F5F7F4F90E00E94581D44
S11326E0CE0101960E94DF090F900F900F900F907A
S11326F0DF91CF910895CF93DF9300D000D0CDB771
S1132700DEB70E9426098DE494E00E94110A8091AC
S11327100A014AE0BE016F5F7F4F90E00E94581D9E
S1132720CE0101960E94DF090F900F900F900F9039
S1132730DF91CF910895CF93DF9300D000D0CDB730
S1132740DEB70E94260982E494E00E94110A61E047
S113275080E00E9410098091A1044AE0BE016F5FED
S11327607F4F90E00E94581DCE0101960E94DF0920
S11327700F900F900F900F90DF91CF910895CF930A
S1132780DF9300D000D0CDB7DEB70E9426098EE2D9
S113279094E00E94110A61E080E00E9410094AE07E
S11327A0BE016F5F7F4F80910801909109010E94E3
S11327B0581DCE0101960E94DF090F900F900F90D3
S11327C00F90DF91CF910895CF93DF9300D01F92A4
S11327D0CDB7DEB70E9426098AE294E00E94110A6E
S11327E061E080E00E94100980919E044AE0BE01ED
S11327F06F5F7F4F90E00E94581DCE0101960E94AA
S1132800DF090F900F900F90DF91CF910895FC0195
S11328109081913089F028F09230C9F0933001F121
S11328201AC080919E048F5F883119F080939E04B2
S113283012C010929E040FC080919E04815018F023
S113284080939E0408C087E180939E0404C081E0C5
S113285080939B040895862F0E94E41380E00895DA
S113286081E00895FC0190819130D9F028F09230F4
S113287069F19330D1F134C0809167059091680576
S1132880833AFDE09F0738F086E391E09093680572
S11328908093670525C00A96909368058093670521
S11328A01FC08091670590916805873321E09207E6
S11328B030F00A97909368058093670511C08CEAFD
S11328C09DE090936805809367050AC06091670551
S11328D07091680583E090E00E94AC1D81E008954A
S11328E0862F0E94BC1180E0089581E00895FC01C8
S11328F090819130C9F028F0923059F19330C1F1B0
S113290032C080917E0590917F058432F9E09F0763
S113291030F40A9690937F0580937E0524C010922C
S11329207F0510927E051FC080917E0590917F05E2
S1132930863F2FEF920738F08EE299E090937F055F
S113294080937E0510C00A9790937F0580937E053F
S11329500AC060917E0570917F058AE090E00E9434
S1132960AC1D81E00895862F0E944F1280E00895E7
S113297081E00895FC0190819130C9F028F09230F3
S113298059F19330C1F132C08091890590918A0543
S11329908432F9E09F0730F40A9690938A05809375
S11329A0890524C010928A05109289051FC0809160
S11329B0890590918A05863F2FEF920738F08EE2C1
S11329C099E090938A058093890510C00A979093A3
S11329D08A05809389050AC06091890570918A05EA
S11329E088E090E00E94AC1D81E00895862F0E944B
S11329F0761280E0089581E00895FC019081913081
S1132A0081F028F09230B9F0933021F11EC080910A
S1132A10080190910901019690930901809308019E
S1132A2014C08091080190910901019790930901C4
S1132A30809308010AC060910801709109018EE039
S1132A4090E00E94AC1D81E00895862F0E94BF1380
S1132A5080E0089581E008950E9426098AED95E0BA
S1132A600E94110A61E080E00E9410098FE695E05F
S1132A700E94DF0988ED95E00E944A098FE895E0FD
S1132A800E94DF0985ED95E00E944A090895FC0142
S1132A908081833029F0862F0E942C1580E00895D0
S1132AA081E008950E9426098CE895E00E94110AAD
S1132AB061E080E00E94100988E795E00E94DF0948
S1132AC08AE895E00E944A0986E895E00E94DF09B9
S1132AD087E895E00E944A090895FC0180818330CB
S1132AE029F0862F0E94521580E0089581E0089510
S1132AF00E94260988E595E00E94110A61E080E0C1
S1132B000E94100989E695E00E94DF0986E595E0B8
S1132B100E944A0982E795E00E94DF0983E595E077
S1132B200E944A090895FC018081833029F0862F90
S1132B300E94781580E0089581E008950E94260996
S1132B408DE095E00E94110A61E080E00E94100986
S1132B508091A00484FF05C08AE095E00E944A09A0
S1132B60089587E095E00E944A0908950E94260985
S1132B7085EF94E00E94110A61E080E00E94100950
S1132B808091A00482FF05C082EF94E00E944A096C
S1132B9008958FEE94E00E944A0908950E94260940
S1132BA080EE94E00E944A0961E080E00E941009EE
S1132BB08091A00483FF05C08DED94E00E944A0932
S1132BC008958AED94E00E944A0908950E94260916
S1132BD086EC94E00E94110A61E080E00E941009F2
S1132BE08091A00485FF05C08FEB94E00E944A0900
S1132BF008958BEB94E00E94110A08950E9426091F
S1132C008AEA94E00E94110A61E080E00E941009BF
S1132C108091A00486FF05C087EA94E00E944A09D7
S1132C20089584EA94E00E944A0908950E942609BE
S1132C3088E994E00E94110A61E080E00E94100992
S1132C408091A00488232CF485E994E00E944A0929
S1132C50089582E994E00E944A0908950E94260991
S1132C6083E894E00E94110A61E080E00E94100968
S1132C7088EC95E00E94DF0981E894E00E944A090B
S1132C808BE795E00E94DF098EE794E00E944A09F1
S1132C900895FC018081843028F0862F0E942E162E
S1132CA080E0089581E008950E9426098EE694E06C
S1132CB00E94110A61E080E00E9410098CE595E011
S1132CC00E94DF098CE694E00E944A098BE895E0B3
S1132CD00E94DF0989E694E00E944A090895FC01F4
S1132CE08081843028F0862F0E94541680E0089555
S1132CF081E00895CF93DF9300D01F92CDB7DEB764
S1132D000E94260985E294E00E944A0961E080E07D
S1132D100E94100980919D044AE0BE016F5F7F4FBD
S1132D2090E00E94581DCE0101960E94DF090F9089
S1132D300F900F90DF91CF910895FC019081913015
S1132D4089F028F09230C9F0933001F11AC08091D3
S1132D509D048F5F8C3319F080939D0412C01092F0
S1132D609D040FC080919D04815018F080939D04B0
S1132D7008C08BE380939D0404C081E080939B048E
S1132D800895862F0E947A1680E0089581E00895C0
S1132D90FC019081913071F028F09230A9F09330C9
S1132DA001F11AC0809175058A35B1F08F5F809367
S1132DB0750512C08091750590916D05981760F4A2
S1132DC081508093750508C0609175058DE090E091
S1132DD00E949B1D81E00895862F0E94E31180E0EC
S1132DE0089581E00895FC019081913081F028F0EC
S1132DF09230A9F0933001F11AC080916D05909141
S1132E0075058917A0F48F5F80936D0510C08091BC
S1132E106D05863060F0815080936D0508C0609127
S1132E206D058CE090E00E949B1D81E00895862F43
S1132E300E94071280E0089581E00895FC019081CA
S1132E40913091F028F09230E1F0933039F121C0C3
S1132E5080919F048F5F80939F0490916C058913E8
S1132E6018C010929F0415C080919F0481508093D4
S1132E709F048F3F71F480916C05815080939F046F
S1132E8008C060919F0482E090E00E949B1D81E055
S1132E900895862F0E942B1280E0089581E0089502
S1132EA0FC019081913071F028F0923099F09330C8
S1132EB0F1F018C0809107018A35A1F08F5F8093EB
S1132EC0070110C080910701853160F08150809323
S1132ED0070108C06091070187E090E00E949B1DF4
S1132EE081E00895862F0E949D1280E0089581E07C
S1132EF00895FC019081913091F028F09230E1F036
S1132F00933039F121C0809106018F5F80930601CF
S1132F1090916C05891318C01092060115C0809118
S1132F2006018150809306018F3F71F480916C05F6
S1132F3081508093060108C06091060181E090E011
S1132F400E949B1D81E00895862F0E94C11280E09B
S1132F50089581E00895FC019081913081F028F07A
S1132F609230A9F0933001F11AC080918E059091AE
S1132F705B058917A0F48F5F80938E0510C0809144
S1132F808E05863060F0815080938E0508C0609174
S1132F908E0585E090E00E949B1D81E00895862FB8
S1132FA00E94E51280E0089581E00895FC0190817B
S1132FB0913071F028F09230A9F0933001F11AC0E9
S1132FC080915B058332B0F48F5F80935B0512C000
S1132FD080915B0590918E05981760F481508093E1
S1132FE05B0508C060915B0586E090E00E949B1D34
S1132FF081E00895862F0E94091380E0089581E0FE
S11330000895FC019081913091F028F09230E1F024
S1133010933039F121C0809104018F5F80930401C2
S113302090916C05891318C01092040115C0809109
S113303004018150809304018F3F71F480916C05E9
S113304081508093040108C06091040183E091E001
S11330500E949B1D81E00895862F0E94331380E017
S1133060089581E00895FC019081913061F028F089
S1133070923079F09330D1F014C08091A2048F5F24
S11330808093A2040EC08091A20481508093A20474
S113309008C06091A20482E190E00E949B1D81E03F
S11330A00895862F0E94571380E0089581E00895C3
S11330B0FC019081913061F028F0923079F09330E6
S11330C0D1F014C080910A018F5F80930A010EC071
S11330D080910A01815080930A0108C060910A011D
S11330E081E190E00E949B1D81E00895862F0E945B
S11330F07B1380E0089581E00895FC019081913074
S113310061F028F0923079F0933019F114C0809175
S1133110A1048F5F8093A1040EC08091A10481500B
S11331208093A10408C06091A10480E190E00E9412
S11331309B1D81E008952091A104222329F030E011
S11331403093830020938200862F0E949B1380E09B
S1133150089581E00895CF93C62FFC0180818230C9
S113316018F0843070F412C08091A00482FF04C06F
S11331708F7E8093A00403C080618093A0040E948A
S1133180E00C8C2F0E949E1580E001C081E0CF915D
S11331900895CF93C62FFC018081823018F08430CB
S11331A048F40DC09091A00484E089278093A00482
S11331B00E94E00C8C2F0E94B61580E001C081E0D3
S11331C0CF910895CF93C62FFC018081823018F0EF
S11331D0843048F40DC09091A00488E0892780933E
S11331E0A0040E94E00C8C2F0E94CE1580E001C048
S11331F081E0CF910895CF93C62FFC018081823066
S113320018F0843048F40DC09091A00480E289271E
S11332108093A0040E94E00C8C2F0E94E61580E0AD
S113322001C081E0CF910895CF93C62FFC01808126
S1133230823018F0843048F40DC09091A00480E4EA
S113324089278093A0040E94E00C8C2F0E94FE1515
S113325080E001C081E0CF910895CF93C62FFC0197
S11332608081823018F0843040F40CC08091A00436
S113327080588093A0040E94E00C8C2F0E941616A4
S113328080E001C081E0CF91089584E491E0089545
S113329087E0089581B38F7081BB82B3806F82BB56
S11332A0089587B3876087BB88B3896088BB8BB375
S11332B08FEF8BBB9AB38ABB8DB183658DB90895AB
S11332C06E9887B3897F87BB08954BB321E030E0C4
S11332D0F90102C0EE0FFF1F8A95E2F7CF012E2FEE
S11332E0209542234BBB6FB9779BFECF9BB3892BB1
S11332F08BBB8FB108951F920F920FB60F921124BA
S11333002F938F939F93EF93FF938BB12CB18C7179
S1133310E091EB04EF5FEF719091EA04E91739F063
S1133320E093EB04F0E0E251FB4F208301C082E024
S11333309091E904892B8093E904FF91EF919F9187
S11333408F912F910F900FBE0F901F9018951F9281
S11333500F920FB60F9211248F939F93EF93FF93C5
S11333609091ED048091EC04981761F0E091EC04E5
S1133370EF5FEF71E093EC04F0E0E25FFA4F8081DD
S11333808CB901C05598FF91EF919F918F910F9047
S11333900FBE0F901F9018951092ED041092EC043C
S11333A01092EB041092EA04992314F422E02BB94E
S11333B090789093900089B988E98AB986E08093DF
S11333C0950008952091ED042F5F2F719091EC04E6
S11333D02917E1F3E22FF0E0E25FFA4F80832093B4
S11333E0ED04559A0895CF93DF93EC0188818823E7
S11333F031F021960E94E21989918111FBCFDF916E
S1133400CF910895CF93DF93EC012196FC01849131
S1133410882339F00E94E219FE01849121968111DA
S1133420F9CFDF91CF9108951F920F920FB60F92AB
S113343011242F938F939F93EF93FF9380919B007D
S113344020919C008C71E091A604EF5FEF71909144
S1133450A504E91739F0E093A604F0E0E755FB4F23
S1133460208301C082E09091A404892B8093A4045A
S1133470FF91EF919F918F912F910F900FBE0F901D
S11334801F9018951F920F920FB60F9211248F93CD
S11334909F93EF93FF939091A8048091A7049817AA
S11334A069F0E091A704EF5FEF71E093A704F0E007
S11334B0E753FB4F808180939C0005C0EAE9F0E06C
S11334C080818F7D8083FF91EF919F918F910F90E9
S11334D00FBE0F901F901895CF93DF93CDB7DEB733
S11334E061970FB6F894DEBF0FBECDBF4AE0BE01B0
S11334F06F5F7F4F0E94581D0E94F31961960FB6AB
S1133500F894DEBF0FBECDBFDF91CF9108952F9207
S11335103F924F925F926F927F928F929F92AF925F
S1133520BF92CF92DF92EF92FF920F931F93CF93AC
S1133530DF93CDB7DEB7A4970FB6F894DEBF0FBE06
S1133540CDBF8C016A017B01390184E2E3EAF2E038
S1133550DE01119601900D928A95E1F7CB01BA0133
S11335600E94EF1B4B015C014AE0B801C4010E94B8
S1133570581DF8018081882341F0C8010196FC019F
S1133580019620812111FBCF01C0F8018EE28193C5
S11335901F01660C771C660C771CFE01E60DF71DF7
S11335A061817281838194810E94271C2B013C01DB
S11335B0C501B4010E94271C9B01AC01C701B601DF
S11335C00E94101B9B01AC01C301B2010E94B31CF9
S11335D00E94EF1B9B01772324F422273327261B09
S11335E0370B4AE0B101C9010E94581DC801A496D5
S11335F00FB6F894DEBF0FBECDBFDF91CF911F9100
S11336000F91FF90EF90DF90CF90BF90AF909F907D
S11336108F907F906F905F904F903F902F90089580
S11336205058BB27AA270E94281B0C94791C0E947F
S11336306B1C38F00E94721C20F039F49F3F19F47F
S113364026F40C94681C0EF4E095E7FB0C94621CC1
S1133650E92F0E948A1C58F3BA176207730784077C
S1133660950720F079F4A6F50C94AC1C0EF4E095C3
S11336700B2EBA2FA02D0B01B90190010C01CA0128
S1133680A0011124FF27591B99F0593F50F4503ED3
S113369068F11A16F040A22F232F342F4427585FC5
S11336A0F3CF469537952795A795F0405395C9F7DD
S11336B07EF41F16BA0B620B730B840BBAF0915095
S11336C0A1F0FF0FBB1F661F771F881FC2F70EC034
S11336D0BA0F621F731F841F48F487957795679507
S11336E0B795F7959E3F08F0B0CF9395880F08F0F3
S11336F09927EE0F9795879508950E94911B0C9436
S1133700791C0E94721C58F00E946B1C40F029F432
S11337105F3F29F00C94621C51110C94AD1C0C9465
S1133720681C0E948A1C68F39923B1F3552391F312
S1133730951B550BBB27AA2762177307840738F01C
S11337409F5F5F4F220F331F441FAA1FA9F335D079
S11337500E2E3AF0E0E832D091505040E695001C2D
S1133760CAF72BD0FE2F29D0660F771F881FBB1FE7
S1133770261737074807AB07B0E809F0BB0B802DC5
S1133780BF01FF2793585F4F3AF09E3F510578F0F1
S11337900C94621C0C94AD1C5F3FE4F3983ED4F38C
S11337A0869577956795B795F7959F5FC9F7880FC5
S11337B0911D9695879597F90895E1E0660F771F17
S11337C0881FBB1F621773078407BA0720F0621BA8
S11337D0730B840BBA0BEE1F88F7E09508950E94D3
S11337E0F61B6894B1110C94AD1C08950E94921CB0
S11337F088F09F5798F0B92F9927B751B0F0E1F0AE
S1133800660F771F881F991F1AF0BA95C9F714C05D
S1133810B13091F00E94AC1CB1E008950C94AC1C42
S1133820672F782F8827B85F39F0B93FCCF3869596
S113383077956795B395D9F73EF4909580957095F3
S113384061957F4F8F4F9F4F0895E89409C097FB70
S11338503EF490958095709561957F4F8F4F9F4F63
S11338609923A9F0F92F96E9BB279395F6958795A7
S113387077956795B795F111F8CFFAF4BB0F11F46A
S113388060FF1BC06F5F7F4F8F4F9F4F16C0882311
S113389011F096E911C0772321F09EE8872F762F47
S11338A005C0662371F096E8862F70E060E02AF088
S11338B09A95660F771F881FDAF7880F9695879574
S11338C097F9089597F99F6780E870E060E008959C
S11338D09FEF80EC089500240A9416161706180624
S11338E00906089500240A94121613061406050600
S11338F00895092E0394000C11F4882352F0BB0F91
S113390040F4BF2B11F460FF04C06F5F7F4F8F4FF3
S11339109F4F089557FD9058440F551F59F05F3F2E
S113392071F04795880F97FB991F61F09F3F79F0DD
S113393087950895121613061406551FF2CF46955F
S1133940F1DF08C0161617061806991FF1CF8695E1
S11339507105610508940895E894BB2766277727C5
S1133960CB0197F908950E94C61C0C94791C0E94FF
S11339706B1C38F00E94721C20F0952311F00C94FB
S1133980621C0C94681C11240C94AD1C0E948A1CAB
S113399070F3959FC1F3950F50E0551F629FF0019E
S11339A0729FBB27F00DB11D639FAA27F00DB11DB7
S11339B0AA1F649F6627B00DA11D661F829F222740
S11339C0B00DA11D621F739FB00DA11D621F839FC7
S11339D0A00D611D221F749F3327A00D611D231F9D
S11339E0849F600D211D822F762F6A2F11249F57EB
S11339F050409AF0F1F088234AF0EE0FFF1FBB1FEE
S1133A00661F771F881F91505040A9F79E3F5105AC
S1133A1080F00C94621C0C94AD1C5F3FE4F3983E60
S1133A20D4F3869577956795B795F795E7959F5F56
S1133A30C1F7FE2B880F911D9695879597F90895E8
S1133A40DB018F939F930E94361DBF91AF91A29F7C
S1133A50800D911DA39F900DB29F900D1124089588
S1133A60EE0FFF1F0590F491E02D09940E94491D6B
S1133A70A59F900DB49F900DA49F800D911D1124BE
S1133A800895B7FF0C94361D0E94361D821B930BBC
S1133A900895A29FB001B39FC001A39F700D811D23
S1133AA01124911DB29F700D811D1124911D089543
S1133AB0BB274A3031F4992322F4BDE290958195D5
S1133AC09F4F0C94641DBB27FB015527AA27880F21
S1133AD0991FAA1FA41710F0A41B83955051B9F77E
S1133AE0A05DAA3308F0A95DA193009779F7B111FD
S1133AF0B1931192CB010C947D1DDC01FC01672F65
S1133B0071917723E1F7329704C07C916D937083B0
S1133B106291AE17BF07C8F30895E199FECF9FBB2A
S1133B208EBBE09A99278DB30895A8E1B0E042E0F6
S1133B3050E00C94B41D262FE199FECF9FBB8EBBA1
S1133B40E09A01970DB2021631F02DBB0FB6F8942E
S1133B50E29AE19A0FBE08950196272F0E949C1DB8
S1133B600C949B1DDC01CB01FC01E199FECF06C046
S1133B70FFBBEEBBE09A31960DB20D92415050401E
S10B3B80B8F70895F894FFCF93
S1133B880A0404030302011905000A0007000000DF
S1133B9801060000000204000000030500000021E3
S1133BA80100000000000000000000000000010007
S1133BB800000000000200000000000003000000F4
S1133BC800000004C70200000000054902D50200F5
S1133BD8000000032E02E60200000000040A02F8B6
S1133BE8020000000003880207030000000006D456
S1133BF8010D030000000002C2011C0300000000C4
S1133C080583012E03BF13FD140000003D030000CB
S1133C18000002B0014103571333180000004B039E
S1133C287B13581800000058039B137D18000000EC
S1133C383D03E413071400000063037A169D16007D
S1133C48000068032E164916000000720354166F0C
S1133C58160000007D039E15AB180000008A03B609
S1133C6815C9180000009903CE15E218000000A534
S1133C7803E615FB18000000B503FE15141900002F
S1133C8800C60316162D19000000CF0378159315E6
S1133C98000000DE03E512AB17000000ED03091372
S1133CA8D617000000FF03331301180000000E04A8
S1133CB852156D150000001D049D125017000000D8
S1133CC82B04C11279170000003A042C154715007B
S1133CD800004604E311C81600000055040712F357
S1133CE8160000006104000000000276026A042B3A
S1133CF8121E1700000076044F1277140000007E8D
S1133D08047612BA140000006803881197110000A1
S1133D18007203A211B1110000008604BC11321410
S1133D28000000000000000A00000064000000E831
S1133D3803000010270000A086010040420F008005
S1133D4896980000E1F505484D56206265E16C6CD3
S1133D58ED74E17300507566666572206265E16C06
S1133D686CED74E173004B617AE16E68E17A20745A
S1133D7865726D6F737A74004BFC6C73F520E9728D
S1133D887AE96B656CF50052656CE96B00456779F7
S1133D98E96220E9727AE96B656CF50056657AE99F
S1133DA8726CF5206265E16C6CED74E17300537A12
S1133DB8697661747479FA207574E16E00F372613E
S1133DC8005465737A74FC7A656D004D656EFC2049
S1133DD86964F57AED74F5004C43442068E1747421
S1133DE8E9720070657263004BFC6C73F52068F52A
S1133DF86D004BFC6C73F52070E1726100484D5600
S1133E082033206AE1726174FA005AF36E61206605
S1133E18F66C64737A696E74005AF36E6120656D8A
S1133E28656C6574005075666665722033206AE1B6
S1133E38726174FA0050756666657220737A6976E1
S1133E4861747479FA0047E17A2072656CE9004775
S1133E58E97068E17A20616B742068F56D0047E9C0
S1133E687068E17A206D696E2068F56D0047E97025
S1133E7868E17A206BED76E16E742068F56D004791
S1133E88E97068E17A20737A656E7A6F7200427518
S1133E986666657220616B742068F56D00456CF583
S1133EA872656D656EF52068F56D0050756666651A
S1133EB87220737A656E7A6F7200484D5620616B72
S1133EC8742068F56D00484D56206BED76E16E74EC
S1133ED82068F56D00484D56206D696E2068F56DB3
S1133EE800484D5620F372E16B00484D5620737A12
S1133EF8656E7A6F72004D696E206964F5004D61D4
S1133F0878206964F5004BFC6C73F52068F56D2026
S10B3F1874696C74E17300008C
S9030000FC
