:100000000C94F1020C940E030C940E030C940E034A
:100010000C940E030C940E030C940E030C940E031C
:100020000C940E030C940E030C940E030C940E030C
:100030000C942D0A0C940E030C940E030C940E03D6
:100040000C940E030C940E030C94C1180C94ED1830
:100050000C940E030C940E0A0C940E030C940E03D5
:100060000C940E030C940E030C940E030C940E03CC
:100070000C940E030C940E030C945A190C948819CA
:100080000C940E030C940E030C940E03BA09C709CA
:10009000C709C709C709C709C709C709BC09C709EB
:1000A000C709C709BE09C709C709C709C709C709D9
:1000B000C009C709C209B609C709C709C709C409E0
:1000C000C609B809C709C709C709C709BA09C709CD
:1000D000C709C709C709C709C709C709BC09C709AB
:1000E000C709C709BE09C709C709C709C709C70999
:1000F000C009C709C209B609C709C709C709C409A0
:10010000C609B809436F756C64206E6F7420636F05
:100110006E6E65637420746F2073656E736F72000A
:1001200002040E010F110F0002040E111F100E0029
:100130000204000C04040E0002040E1111110E0042
:10014000050A0E1111110E000204001111130D0009
:10015000050A001111130D00206462004453313868
:100160004232303A2000204453313842323020733A
:10017000656E736F72730A00466F756E6420004976
:100180006E7465727275707420656E61626C656400
:100190000A00424D4532383020696E64ED74E173D7
:1001A0000049324320696E64ED74E17300416C6173
:1001B00070E16C6C61706F74626120E16C6CE17372
:1001C0000046FB74E9732076657AE9726CE9732066
:1001D00076302E3800427573206572726F720A0095
:1001E0004E6F2073656E736F7220666F756E640A52
:1001F00000427573207363616E6E696E67202E2EE8
:100200002E0A0047415320616E64204649525354E0
:100210005F464C4F4F525F56414C56452C2053453C
:10022000434F4E445F464C4F4F525F56414C5645EC
:100230002072656C617920646561637469766174AC
:1002400065640A005345434F4E4420464C4F4F527D
:100250002064656163746976617465640A0053455E
:10026000434F4E4420464C4F4F5220616374697691
:10027000617465640A00464952535420464C4F4FFE
:10028000522064656163746976617465640A00462E
:100290004952535420464C4F4F5220616374697643
:1002A000617465640A004741532C20444857206418
:1002B000656163746976617465643B2042554646A6
:1002C00045522072656C617920646561637469765A
:1002D000617465640A004741532061637469766103
:1002E0007465643B204255464645522C204448578D
:1002F0002072656C617920646561637469766174EC
:1003000065640A004448572072656C617920646511
:100310006163746976617465640A004448572072A9
:10032000656C6179206163746976617465642077B6
:10033000697468206275666665720A0044485720D1
:1003400072656C617920616374697661746564209B
:1003500077697468206761730A0046F66C642F45FC
:100360006D656C200050756666657220737A2F701B
:10037000200047E17A2072656CE920003A00484D80
:100380005620737A656C657020002043004BFC6C2E
:1003900073F520002043002E0047E97068E17A20C1
:1003A000002043002E0050756666657220003A00FA
:1003B0002043002E00484D5620000A002E00252024
:1003C0000A00424D453238302048756D69646974C1
:1003D000793A200043200A00424D453238302054FB
:1003E000656D70657261747572653A200002040E65
:1003F000010F110F0002040E111F100E0002040065
:100400000C04040E0002040E1111110E00050A0E58
:100410001111110E000204001111130D00050A0044
:100420001111130D007065726300F3726100537A4D
:10043000697661747479FA207574E16E667574E199
:1004400073004C43442068E17474E972004D656E9A
:10045000FC206964F57AED74F520286D702900544C
:1004600065737A74FC7A656D004B690042650047DC
:10047000E17A20E16C6C61706F74004B6900426539
:100480000050756666657220737A69766174747956
:10049000FA0047E17A00507566666572005075662D
:1004A000666572202F2067E17A20737A656C65702B
:1004B000004B6900426500456D656C657469207389
:1004C0007A656C6570004B690042650046F66C64A5
:1004D000737A696E746920737A656C6570004B6914
:1004E00000426500484D5620737A656C657020E1C6
:1004F0006C6C61706F740047E97068E17A20737A00
:10050000656E7A6F722049440047E97068E17A208D
:100510006BED76E16E742068F56D0047E97068E177
:100520007A206D696E2068F56D002043002E00472B
:10053000E97068E17A20616B742068F56D00507590
:100540006666657220737A656E7A6F722049440020
:10055000456CF572656D656EF52068F56D0020439C
:10056000002E0050756666657220616B742068F518
:100570006D004D6178206964F5004D696E206964F5
:10058000F500484D5620737A656E7A6F72204944A3
:1005900000484D56206D696E2068F56D00484D5637
:1005A000206BED76E16E742068F56D002043002E1F
:1005B00000484D5620616B742068F56D004BFC6C53
:1005C00073F5206D696E2068F56D00424D45323837
:1005D000302070E1726100424D453238302068F5BC
:1005E0006D0011241FBECFEFD0E1DEBFCDBF14E000
:1005F000A0E0B1E0E4E1FAE302C005900D92AA3672
:10060000B107D9F725E0AAE6B4E001C01D92A139EF
:10061000B207E1F70E94450E0C94081D0C940000EF
:10062000CF93DF93C82F8CEE0E942D08811111C04B
:100630008C2F0E9452080E947A088DEE0E942D088D
:1006400081110AC00E946F08C82FD0E00E947A086A
:1006500005C0C0E0D0E002C0C0E0D0E0CE01DF9134
:10066000CF910895CF93DF93C82F8CEE0E942D0871
:10067000811118C08C2F0E9452080E947A088DEEBA
:100680000E942D08811111C00E946408C82FD0E07B
:10069000DC2FCC270E946F08C82B0E947A088C2F71
:1006A0009D2F05C080E090E002C080E090E0DF91E7
:1006B000CF9108950E94320398278927982708959B
:1006C000CF92DF92EF92FF92F82E8CEE0E942D08CF
:1006D00081112EC08F2D0E9452080E947A088DEE43
:1006E0000E942D0881111BC00E946408C82ED12CC5
:1006F000E12CF12CFE2CED2CDC2CCC240E94640887
:10070000C82AFE2CED2CDC2CCC240E946F08C82AB1
:100710000E947A086C2D7D2D8E2D9F2D0DC084E0BA
:1007200091E00E94481960E070E080E090E004C031
:1007300060E070E080E090E0FF90EF90DF90CF907D
:1007400008950F931F93CF93DF9388E80E945A0375
:10075000CFEFD4E0998388838AE80E945A039B8371
:100760008A838CE80E945A039D838C838EE80E94C2
:100770005A039F838E8380E90E945A039987888752
:1007800082E90E945A039B878A8784E90E945A0360
:100790009D878C8786E90E945A039F878E8788E908
:1007A0000E945A03998B888B8AE90E945A039B8B7B
:1007B0008A8B8CE90E945A039D8B8C8B8EE90E9458
:1007C0005A039F8B8E8B81EA0E941003888F81EEE3
:1007D0000E945A039A8F898F83EE0E9410038B8F99
:1007E00084EE0E9410038C0185EE0E941003029596
:1007F0001295107F1027007F10278F709927802B6C
:10080000912B9D8F8C8F86EE0E9410038C0185EEBC
:100810000E94100302951295107F1027007F102769
:10082000929582958F7089279F708927802B912BB5
:100830009F8F8E8F87EE0E94100388A3DF91CF9148
:100840001F910F9108958CEE0E942D0881111EC0FA
:1008500082EF0E94520885E00E94520884EF0E94B5
:10086000520887EB0E94520880ED0E9452080E94B5
:10087000A1030E947A088DEE0E942D08811106C006
:100880000E946F080E9428190E947A0808958F928A
:100890009F92AF92BF92CF92DF92EF92FF920F930F
:1008A0001F938AEF0E946003EFEFF4E00081118153
:1008B00020E030E0C72ED82EE92EFF24E7FCFA9482
:1008C000C01AD10AE20AF30ADC01CB01689416F8D7
:1008D000B595A795979587951694D1F7000F111F99
:1008E000221F331F4C015D01801A910AA20AB30A2C
:1008F000A5019401A281B3810E94871C4B015C0178
:10090000072E7BE0B594A794979487947A95D1F7B6
:10091000702DA7019601C701B6010E94661C9B01BC
:10092000AC01012E1CE055954795379527951A95F2
:10093000D1F7102DA481B5810E94871CDC01CB0169
:10094000072E7EE0B595A795979587957A95D1F76F
:10095000702D880D991DAA1DBB1D809320059093B5
:100960002105A0932205B09323058C019D01000F62
:10097000111F221F331F000F111F221F331F800F53
:10098000911FA21FB31F80589F4FAF4FBF4F692FBA
:100990007A2F8B2F99270E946B1B20E030E048ECC8
:1009A00052E40E94C31A1F910F91FF90EF90DF90C5
:1009B000CF90BF90AF909F908F9008954F925F928D
:1009C0006F927F928F929F92AF92BF92CF92DF925F
:1009D000EF92FF920E9447048DEF0E9432038090B5
:1009E000200590902105A0902205B09023052CE2CF
:1009F000921A21E0A20AB1086C01E12CF12C0B2E15
:100A0000BEE0CC0CDD1CEE1CFF1CBA95D1F7B02D5E
:100A1000EFEFF4E0848D958D092E000CAA0BBB0B33
:100A2000072E74E1880F991FAA1FBB1F7A95D1F773
:100A3000702DC81AD90AEA0AFB0AA68DB78DA5013E
:100A400094010E94871CC61AD70AE80AF90A30E402
:100A5000D30EE11CF11C0B2EBFE0F594E794D79464
:100A6000C794BA95D1F7B02DA38DB0E0A50194013C
:100A70000E947C1C2B013C01032E3BE07594679483
:100A8000579447943A95D1F7302D40E8540E611CA5
:100A9000711CA0A10A2E000CBB0BA50194010E94A1
:100AA000871C052E5AE095958795779567955A95F9
:100AB000D1F7502DA30192010E94661CDC01CB01ED
:100AC000072E7AE0B595A795979587957A95D1F7F2
:100AD000702D9C01AD01405E5F4FA18DB28D0E94D3
:100AE000871CDC01CB01905EAF4FBF4FBC01CD0135
:100AF000052E5EE095958795779567955A95D1F780
:100B0000502DA70196010E94661C6B017C01052EE9
:100B10005FE095958795779567955A95D1F7502D14
:100B20009B01AC010E94661C9B01AC01689416F805
:100B300055954795379527951694D1F7A08DB0E038
:100B40000E947C1CDC01CB01689413F8B595A79535
:100B5000979587951694D1F7A7019601281B390B15
:100B60004A0B5B0BDA01C9011AF480E090E0DC016A
:100B700081309105A10539E1B30724F080E090E0D0
:100B8000A0E0B9E1BC01CD01052E5CE0959587950B
:100B9000779567955A95D1F7502D0E946D1B20E0EF
:100BA00030E040E85AE30E94F91BFF90EF90DF909D
:100BB000CF90BF90AF909F908F907F906F905F90FD
:100BC0004F90089561157105A9F0FC01680F791F18
:100BD00080E048E1219198E0382F322730FF0CC0A7
:100BE00084278695806826959150B1F7E617F70718
:100BF00089F7089580E008958695F5CF0F931F93A8
:100C0000CF93DF93DB01EC9111969C911197F0E06B
:100C1000F92B803181F4EE7FEE0FFF1FEE0FFF1FE7
:100C2000EE0FFF1F16969C9116976CE070E0691B03
:100C30007109E60FF71FFF233CF491E0EA01988366
:100C4000F195E195F10902C0EA011882883279F440
:100C500014968C91982F9076903649F086FF02C0BA
:100C6000EE7F05C085FF02C0EC7F01C0E87FCF01A9
:100C7000929582958F7089279F708927D9018C93CF
:100C8000EF70E801E88380E0DF91CF911F910F9131
:100C900008950F931F93CF93DF93EC018B01B8015D
:100CA00088810E94AB07888381508D3F30F4F80122
:100CB0008081883211F0803191F7DF91CF911F91BF
:100CC0000F9108950F931F93CF93C82F8B010E940C
:100CD000F7060E94DB06882351F0B80184E40E94E5
:100CE0000508C13031F00E94E40680E003C082E0D4
:100CF00001C080E0CF911F910F9108956F927F9274
:100D00008F929F92AF92BF92CF92DF92EF92FF921B
:100D10000F931F93CF93DF93CDB7DEB729970FB60D
:100D2000F894DEBF0FBECDBF6C015B013A014901F3
:100D30000E94F706B6018EEB0E9405088E010F5F38
:100D40001F4F7E018AE0E80EF11C0E94A707F80100
:100D500081938F01EE15FF05C1F769E070E0CE01C8
:100D600001960E94E205F82E81110BC084019301C7
:100D7000A501BE016F5F7F4FF60180810E94FE05D5
:100D800004C00F2EF3E0FF2EF02D8F2D29960FB605
:100D9000F894DEBF0FBECDBFDF91CF911F910F91B1
:100DA000FF90EF90DF90CF90BF90AF909F908F908B
:100DB0007F906F900895E0912705F091280590812C
:100DC0008091260589230895E0912405F091250559
:100DD000908180912605892B8083E0912905F091EF
:100DE0002A05908180912605892B80830895E091C2
:100DF0002405F09125059081809126058095892311
:100E00008083E0912905F0912A0590818091260543
:100E1000892B80838FE897E08115910511F0019768
:100E2000F1F72FB7F894E0912905F0912A05908108
:100E30008091260580958923808389E091E0811542
:100E4000910511F00197F1F7E0912705F091280540
:100E50003081809126052FBFE5E8F6E0E115F10528
:100E600011F03197F1F7E0912705F09128052081E5
:100E700090912605922311F08323089581E008952F
:100E800050932A0540932905709325056093240506
:100E9000909328058093270581E001C0880F2A954B
:100EA000EAF7809326050E94F70608953FB7F89465
:100EB000E0912905F0912A05208190912605922B39
:100EC0009083E3E0F0E0E115F10511F03197F1F7DF
:100ED000882351F0E0912905F0912A052081909115
:100EE0002605909592239083E8E3F0E0E115F10563
:100EF00011F03197F1F7E0912705F0912805208155
:100F000090912605292309F480E0E5EBF0E0E11556
:100F1000F10511F03197F1F7E0912905F0912A05DB
:100F200020819095922390833FBF0895CF93DF93C4
:100F3000C82FD8E08C2F81700E945607C69581116A
:100F4000C068D150B9F78C2FDF91CF9108958FEF02
:100F50000E9496070895DF92EF92FF920F931F93DE
:100F6000CF93DF93D82E8B010E94F70681112BC0FF
:100F700080EF0E949607E12CC0E40F2EF8EFFF2EC1
:100F8000F02DFC0E81E00E945607D82F81E00E94D0
:100F90005607882319F0DD23D1F017C0D11124C0E2
:100FA000CD15E8F0F801808180FF11C0CD111AC085
:100FB0000EC0C150FC12E6CF0F5F1F4FCF2DF110B6
:100FC000DCCF8E2D1AC08FEF18C08EEF16C080E0D8
:100FD0000E945607F801908196959083EACFEC2EF7
:100FE000D1E002C0EC2ED1E08D2F0E945607F8010F
:100FF0009081969590689083DCCFDF91CF911F917F
:101000000F91FF90EF90DF900895FF920F931F9341
:10101000CF93DF93F82EEB010E94F706209769F03B
:1010200085E50E9496078E01085F1F4F89910E94F7
:101030009607C017D107D1F703C08CEC0E94960722
:101040008F2D0E949607DF91CF911F910F91FF90F6
:1010500008958EE2809370000895E4E7F0E0108236
:1010600094EA908390819923ECF790917100987F96
:101070009830A1F48093730084E880937400E4E7CF
:10108000F0E080818823ECF790917100987F98318F
:1010900039F081E0903429F480E0089581E00895EA
:1010A00080E008958093730084E880937400E4E7FF
:1010B000F0E080818823ECF790917100987F81E0C7
:1010C000983209F480E0089584EC80937400E4E79A
:1010D000F0E080818823ECF780917300089584E824
:1010E00080937400E4E7F0E080818823ECF780913E
:1010F0007300089584E9809374000895AD9A00C048
:1011000000C0AD980895CF93C82F662311F0AF9A11
:1011100001C0AF98AE98A49AA39AA29AA19AA9984E
:10112000AA98AB98AC98CC230CF4A99AC6FDAA9ABD
:10113000C5FDAB9AC4FDAC9A0E947E08A998AA98F6
:10114000AB98AC98C3FDA99AC2FDAA9AC1FDAB9A0F
:10115000C0FDAC9A0E947E08AC9AAB9AAA9AA99A52
:10116000CF910895882311F0AF9A01C0AF98AE9A3D
:10117000A498A398A298A198AD9A00C000C09C9B87
:1011800002C080E101C080E09B9980629A998064EE
:1011900099998068AD9800C000C0AD9A00C000C0A9
:1011A0009C9981609B9982609A99846099998860E2
:1011B000AD98089580E00E94B2088823DCF388E0AF
:1011C00090E00197F1F780E00E94B2080895CF9374
:1011D000C82F0E94DA0860E08C2F0E948308CF910C
:1011E0000895CF93C82F0E94DA0861E08C2F0E94E7
:1011F0008308CF910895611104C080580E94E708C8
:101200000895613021F480540E94E7080895623007
:1012100021F48C560E94E70808958C520E94E7083A
:10122000089581E00E94E7080895CF93C82F0E9497
:10123000DA08CA30A1F4843148F090EC980F943168
:1012400038F084518C3230F080E005C080E403C077
:1012500084E101C084E580580E94E70804C061E091
:101260008C2F0E948308CF910895CF93DF93EC01D8
:101270002196FC018491882339F00E941509FE0112
:10128000849121968111F9CFDF91CF9108951F9319
:10129000CF93DF93182FA79AA69AA59AA49AA39AF8
:1012A000A29AA19A80E09AEF0197F1F7AB9AAC9AD3
:1012B0000E947E0880E09EE40197F1F70E947E087C
:1012C000C0E0D1E0CE010197F1F70E947E08CE0187
:1012D0000197F1F7AC980E947E082197F1F788E218
:1012E0000E94E70888E00E94E7080E94110986E052
:1012F0000E94E708812F0E94E708DF91CF911F919C
:1013000008950F931F93CF93DF9380E40E94E70823
:10131000C0E2D1E009E511E0FE0184910E94F108EC
:101320002196C017D107C1F7DF91CF911F910F917F
:1013300008959FEF960F662319F086959150E8F770
:1013400080FF04C081E30E941509089580E30E9494
:1013500015090895482F50E0FA01E15CF109EC33DA
:10136000F105A8F4EA5BFF4F0C94761C8FEE0FC0DA
:1013700085EF0DC080E00BC081E009C082E007C0AE
:1013800083E005C084E003C085E001C086E00E94E0
:1013900015090895CF93DF93EC012196FC0180811C
:1013A000882329F00E94AA0989918111FBCFDF913E
:1013B000CF9108950F931F93CF93DF9300D000D068
:1013C000CDB7DEB78C014AE0BE016F5F7F4F0E9450
:1013D0009E1C0A30110518F480E30E941509CE0105
:1013E00001960E94CA090F900F900F900F90DF9105
:1013F000CF911F910F910895CF93DF93EC01219628
:10140000FC018491882339F00E94AA09FE0184918D
:1014100021968111F9CFDF91CF9108951F920F92FC
:101420000FB60F9211248F939F9384B195B10A97B1
:1014300038F48AE090E0909383008093820006C0A5
:1014400084B195B190938300809382009F918F9196
:101450000F900FBE0F901F9018951F920F920FB60E
:101460000F9211248F9380917404809174048F5F84
:10147000809374048F910F900FBE0F901F9018955A
:101480001F93CF93DF9300D01F92CDB7DEB780912B
:101490006C04813009F444C038F0823009F468C02B
:1014A000833009F48BC010C10E944704AB01BC011A
:1014B00040932C0550932D0560932E0570932F05B6
:1014C00022E030E087E495E00E94CD1920E030E092
:1014D00048EC52E460912C0570912D0580912E0509
:1014E00090912F050E94F91B0E943C1B70938C0564
:1014F00060938B0580917304882361F088ED93E0FD
:101500000E94481987E495E00E94391984ED93E020
:101510000E94481980916C048F5F80936C04D6C040
:101520000E94DE04AB01BC014093300550933105AD
:10153000609332057093330522E030E085E595E055
:101540000E94CD1980917304882361F082EC93E0AE
:101550000E94481985E595E00E9439198EEB93E0C9
:101560000E94481980916C048F5F80936C04AEC018
:1015700020E047E350E068E370E086E390E00E94FB
:10158000400780913905882399F010E0612F70E0C1
:10159000660F771F660F771F660F771F655A7A4FA2
:1015A00081E00E9462061F5F80913905181770F371
:1015B00080916C048F5F80936C0488C020E047E3C7
:1015C00050E068E370E086E390E00E94400780917D
:1015D0003905882309F472C010E0812F90E0880F4C
:1015E000991F880F991F880F991F9E012D5F3F4FEC
:1015F000AE014E5F5F4FBE016F5F7F4F855A9A4FBE
:101600000E947E06811118C0809173048823A1F086
:10161000898190E00E94B2198A8190E00E94B219FB
:101620008CEB93E00E9448198B8190E00E94B219E4
:101630008AEB93E00E94481980917004811310C0D6
:101640008A81809341054AE06BE375E090E00E9457
:101650009E1C8B814AE062E575E090E00E949E1C32
:1016600080910201811310C08A8180938D054AE028
:1016700062E475E090E00E949E1C8B814AE06DE47C
:1016800075E090E00E949E1C80910101811310C0C2
:101690008A8180933F054AE06EE875E090E00E9401
:1016A0009E1C8B814AE066E375E090E00E949E1CE0
:1016B0001F5F80913905181708F48FCF80916C0453
:1016C0008F5F80936C0402C010926C0480910601BD
:1016D0008111C5C00E94110980910001863008F473
:1016E00067C085EB93E00E9435098BE395E00E948B
:1016F000CA0983EB93E00E94350982E595E00E94D8
:10170000CA0980EB93E00E94350960E08FE00E94F7
:10171000FB0880916F0490E00E94DA098EEA93E062
:101720000E94350980916E0490E00E94DA0961E020
:1017300080E00E94FB0886EA93E00E94350982E47B
:1017400095E00E94CA0984EA93E00E9435098DE47D
:1017500095E00E94CA0981EA93E00E94350962E09F
:1017600080E00E94FB0889E993E00E94FC098EE872
:1017700095E00E94CA0987E993E00E94350986E353
:1017800095E00E94CA0984E993E00E94350963E06C
:1017900080E00E94FB088DE893E00E94FC0987E44A
:1017A00095E00E94CA098AE893E00E9435094CC07E
:1017B0008EE793E00E94350964E0809171040E94F5
:1017C000990960E08FE00E94FB0880916F0490E02F
:1017D0000E94DA098CE793E00E94350980916E043B
:1017E00090E00E94DA0961E080E00E94FB0882E755
:1017F00093E00E94FC0967E0809171040E949909BE
:1018000062E080E00E94FB0885E693E00E943509D3
:1018100065E0809171040E94990966E080917104ED
:101820000E94990963E080E00E94FB088AE593E04A
:101830000E94FC0962E0809171040E94990963E0B2
:10184000809171040E94990980910001815019F0E2
:101850008093000107C08AE08093000103C081509B
:101860008093060180917204811101C0369A0F9015
:101870000F900F90DF91CF911F910895DF92EF921B
:10188000FF920F931F93CF93DF93CDB7DEB72997C6
:101890000FB6F894DEBF0FBECDBF809173048823CE
:1018A00009F43FC081EF91E00E9448198FEF8987CA
:1018B0000F2EFBE5EF2EF5E0FF2EF02DD12C8E0143
:1018C000075F1F4FBE016F5F7F4FC8010E9449062F
:1018D00099859F3F49F480917304882329F180EE14
:1018E00091E00E94481920C09E3F49F48091730402
:1018F0008823D1F085ED91E00E94481915C0FE01C2
:101900003196D70181918D93E017F107D9F7D394E0
:10191000992351F088E0E80EF11C86E0D812D2CF6E
:1019200003C08FEF8987C4CF8D2D29960FB6F89409
:10193000DEBF0FBECDBFDF91CF911F910F91FF9002
:10194000EF90DF9008950E9497186091710481E0F4
:101950000E94AB180E94A61808952091410530916D
:101960003E05231708F05BC040916F0480916E0420
:1019700090E054E6459F800D911D11244091500543
:10198000509151054817590708F449C04091450541
:10199000509146058417950708F441C080913A0597
:1019A000821708F44AC080918D058317C0F4809196
:1019B00004019091050190936B0480936A048091D7
:1019C00071048F79806980937104809173048823F6
:1019D00009F4EFC08CE393E00E9448192EC0809177
:1019E0006A0490916B04009731F4809171048067D0
:1019F0008093710405C0019790936B0480936A04EF
:101A0000809171048F77809371048091730488238F
:101A100009F4CFC08BE193E00E9448190EC0809179
:101A200071048F708093710480917304882309F48A
:101A3000C0C084E093E00E9448198091710484FD45
:101A4000B1C00E9B09C00F9B07C020913F0590912C
:101A50002B05291708F088C040918B0550918C0503
:101A600020913405309135052417350708F47CC0E2
:101A700020913F0590914005291720F00E9B02C050
:101A80000F9935C020918D05909103012917A8F475
:101A9000209104013091050130936B0420936A0476
:101AA0008F78806880937104809173048823F9F0A3
:101AB00086ED92E00E9448191AC020916A04309184
:101AC0006B042115310529F48F76806680937104AB
:101AD00006C02150310930936B0420936A04809131
:101AE0007304882321F086EA92E00E9448190E9937
:101AF0000DC080917104846080937104809173049F
:101B0000882321F08FE892E00E9448190E9B0DC0B7
:101B1000809171048B7F809371048091730488237A
:101B200021F086E792E00E9448190F990DC080913C
:101B30007104886080937104809173048823F1F1AB
:101B40008EE592E00E9448190F9B2CC08091710491
:101B5000877F8093710480917304882339F184E432
:101B600092E00E9448191EC020916A0430916B04D3
:101B70002115310521F4837F8093710406C0215023
:101B8000310930936B0420936A04809171048F7142
:101B90008093710480917304882341F083E092E084
:101BA0000E94481980917304823058F40E94A30C5B
:101BB00008958091710484FF44CFF8CF0F99C6CF68
:101BC000F5CF089582E090E00E94D31C80937004CA
:101BD0008DE090E00E94D31C80933E058CE090E065
:101BE0000E94D31C80933A058AE090E00E94DB1C9F
:101BF000909346058093450588E090E00E94DB1CA9
:101C0000909351058093500581E090E00E94D31C91
:101C10008093020187E090E00E94D31C809303012F
:101C200080E090E00E94D31C8093010186E090E068
:101C30000E94D31C80932B0585E090E00E94D31C6A
:101C40008093400583E090E00E94DB1C9093350573
:101C50008093340582E190E00E94D31C809373044A
:101C600081E190E00E94D31C8093060180E190E026
:101C70000E94D31C809372048EE090E00E94DB1CD3
:101C8000909305018093040108950E94E20D8CE079
:101C90000E9447098DEE93E00E948109EBE8F0E095
:101CA000808189608083EAE8F0E080818B608083B6
:101CB00080E890E09093830080938200159A1D9AAB
:101CC0000E94110981EC91E00E94FC0987E690E0F6
:101CD0000E941219E1E6F0E080818E7F8083E2E6C7
:101CE000F0E080818E7F8083A09A82B18F7382B969
:101CF000109271040E94A30C61E080E00E94FB0836
:101D00008DEA91E00E94FC0962E080E00E94FB08FD
:101D1000CAE088E70E9415092FEF83ED90E3215078
:101D200080409040E1F700C00000C15091F70E9450
:101D3000110981EA91E00E94FC090E94290861E0F2
:101D400080E00E94FB0882E991E00E94FC090E9469
:101D5000230478948FE791E00E94481920E047E33C
:101D600050E068E370E086E390E00E9440070E9444
:101D70003E0C8093390580917304882369F088E7CD
:101D800091E00E9448198091390590E00E94B219B3
:101D900086E691E00E94481962E080E00E94FB081C
:101DA0008CE591E00E9435098091390590E00E9410
:101DB000DA0988E591E00E9435092FEF8BE792E977
:101DC000215080409040E1F700C000008EB58C604B
:101DD0008EBD1DBC1CBC84E294EF9BBD8ABD87B741
:101DE000806187BF86B18F6C86B9A89581B58861FF
:101DF00081BD81B5876081BD0E94A80F8091740468
:101E0000813049F580916D048F5F8C3319F0809398
:101E10006D0416C010926D0480916E048F5F8C3338
:101E200019F080936E040CC010926E0480916F04C0
:101E30008F5F883119F080936F0402C010926F0495
:101E40000E94400A80917304823010F40E94AD0C0D
:101E5000A895109274040E94AD0FD0CFEF92FF921C
:101E60000F931F93CF93DF930E9411090E948B1849
:101E7000EC010E948E18E0911B01F0911C019681EB
:101E80009923A1F0A081B1811696AC9187E0A89F1B
:101E9000D0011124A35EBE4F12960D90BC91A02DCF
:101EA0001796CD91DC91189716968C912481958187
:101EB000291BE82EF12C1E141F04A4F530E0890123
:101EC000000F111F000F111F000F111F200F311FD6
:101ED0008E01020F131FC0E0D0E06C2F80E00E9443
:101EE000FB08E0911B01F0911C01858190E08C17AB
:101EF0009D0721F48EE30E94150903C080E20E9431
:101F0000150980E20E941509F801808191810E94E3
:101F1000CA092196CE15DF0529F0075F1F4FC4308F
:101F2000D105D9F6DF91CF911F910F91FF90EF90DE
:101F30000895EDE1F1E0F0931C01E0931B011182A3
:101F4000108213821282148215820E942E0F08952D
:101F50000E9490180E94990F08955F926F927F924D
:101F60008F929F92AF92BF92CF92DF92EF92FF92A9
:101F70000F931F93CF93DF93C7E0D1E00F2EFBE1C8
:101F8000EF2EF1E0FF2EF02D88248394912C612C0C
:101F9000712C552453940F2EF9E3AF2EF1E0BF2E90
:101FA000F02D0F2EFDE1CF2EF1E0DF2EF02D8E0172
:101FB00080B390E0098002C0959587950A94E2F776
:101FC000282D392D80FF02C0262D372DF801828162
:101FD0009381880F991F906E822B932B938382831A
:101FE0008115904F09F011C1F801548281E190E010
:101FF0000E94D31C80930601A89AA0911B01B09166
:102000001C0116969C911697943009F4DAC0F801D9
:1020100080818130F9F038F0823009F449C0833092
:1020200009F4A7C0B5C014968C911497882309F4BD
:10203000B8C015969C911597911104C081501496C3
:102040008C93AFC0915015969C9315978150149620
:102050008C93A7C00E948E18E0911B01F0911C0187
:102060009681992309F4DAC04481242F30E0A081BD
:10207000B1811696AC9187E0A89FD0011124A35E90
:10208000BE4F12960D90BC91A02D16968C9190E0AB
:102090000197281739070CF07BC08581833019F42C
:1020A0004F5F448375C08F5F85834F5F448370C0EB
:1020B0000E948B18A0911B01B0911C0116964C91A7
:1020C0001697442379F0ED91FC911197E68127E072
:1020D000E29FF0011124E35EFE4F0280F381E02DC8
:1020E0008781908514965C911497252F30E0F90133
:1020F000EE0FFF1FEE0FFF1FEE0FFF1F2E0F3F1FF4
:10210000280F391FF90182819381892B81F0139661
:102110003C932E931297B0921C01A0921B01F601E2
:10212000B58FA48F378F268F50A311A231C0F9012C
:1021300087819085892B61F113963C932E9312979A
:10214000842F90E00196FC01EE0FFF1FEE0FFF1FA2
:10215000EE0FFF1FE81BF90BE35EFE4FF0931C012F
:10216000E0931B01B183A083138212821482158233
:102170000FC09923B1F0ED91FC918681F7E08F9F1C
:10218000C0011124835E9E4F90931C0180931B011C
:10219000A0911B01B0911C0116968C91169784306A
:1021A00019F00E942E0F34C0ED91FC91119702801E
:1021B000F381E02D0280F381E02D14968C91099536
:1021C00027C0ED91FC9111970280F381E02D0480EE
:1021D000F581E02D14966C91C80109958823C1F012
:1021E000E0911B01F0911C010190F081E02D8681AE
:1021F00027E0829FC0011124835E9E4F90931C01B3
:1022000080931B010E942E0F03C0F8011482A8982E
:102210002596CE15DF0509F0CACE0AC04481242FC9
:1022200030E090E00197281739070CF436CFB9CF8A
:10223000DF91CF911F910F91FF90EF90DF90CF90A2
:10224000BF90AF909F908F907F906F905F90089518
:102250000E94110987ED95E00E94FC0961E080E091
:102260000E94FB0887E495E00E94CA090895FC01DA
:102270008081833029F0862F0E94281180E0089504
:1022800081E008950E9411098BEC95E00E94FC0901
:1022900061E080E00E94FB0885E595E00E94CA09A4
:1022A0000895FC018081833029F0862F0E9442111D
:1022B00080E0089581E00895CF93DF9300D000D0AF
:1022C0001F92CDB7DEB70E9411098DEB95E00E94F9
:1022D000FC0961E080E00E94FB084AE0BE016F5FFC
:1022E0007F4F80913405909135050E949E1CCE0150
:1022F00001960E94CA090F900F900F900F900F90B7
:10230000DF91CF910895CF93DF9300D000D0CDB768
:10231000DEB780913E054AE0BE016F5F7F4F90E0DF
:102320000E949E1C0E9411098DE995E00E94FC0903
:1023300061E080E00E94FB08CE0101960E94CA097C
:102340000F900F900F900F90DF91CF910895CF9342
:10235000DF9300D000D0CDB7DEB780913A054AE0D8
:10236000BE016F5F7F4F90E00E949E1C0E9411098A
:1023700081E995E00E94FC0961E080E00E94FB0891
:10238000CE0101960E94CA090F900F900F900F90F6
:10239000DF91CF910895CF93DF9300D000D0CDB7D8
:1023A000DEB70E94110982E895E00E94FC0961E015
:1023B00080E00E94FB08809170044AE0BE016F5FDC
:1023C0007F4F90E00E949E1CCE0101960E94CA0998
:1023D0000F900F900F900F90DF91CF910895CF93B2
:1023E000DF9300D000D01F92CDB7DEB70E94110955
:1023F0008AE795E00E94FC0961E080E00E94FB080A
:102400004AE0BE016F5F7F4F809145059091460580
:102410000E949E1CCE0101960E94CA090F900F9047
:102420000F900F900F90DF91CF910895CF93DF938E
:1024300000D000D01F92CDB7DEB70E94110982E70D
:1024400095E00E94FC0961E080E00E94FB084AE000
:10245000BE016F5F7F4F80915005909151050E94A2
:102460009E1CCE0101960E94CA090F900F900F90FA
:102470000F900F90DF91CF910895CF93DF9300D00D
:1024800000D0CDB7DEB7809103014AE0BE016F5F97
:102490007F4F90E00E949E1C0E94110980E595E00C
:1024A0000E94FC0961E080E00E94FB08CE010196D9
:1024B0000E94CA090F900F900F900F90DF91CF915B
:1024C0000895CF93DF9300D000D0CDB7DEB70E9440
:1024D00011098EE395E00E94FC0961E080E00E9412
:1024E000FB08809102014AE0BE016F5F7F4F90E0E0
:1024F0000E949E1CCE0101960E94CA090F900F9067
:102500000F900F90DF91CF910895CF93DF9300D07C
:1025100000D0CDB7DEB7809140054AE0BE016F5FC5
:102520007F4F90E00E949E1C0E9411098BE195E074
:102530000E94FC0961E080E00E94FB08CE01019648
:102540000E94CA090F900F900F900F90DF91CF91CA
:102550000895CF93DF93CDB7DEB727970FB6F894E2
:10256000DEBF0FBECDBF80912B054AE0BE016F5F7D
:102570007F4F90E00E949E1C0E94110989E095E027
:102580000E94FC0961E080E00E94FB08CE010196F8
:102590000E94CA0927960FB6F894DEBF0FBECDBFC2
:1025A000DF91CF910895CF93DF9300D000D0CDB7C6
:1025B000DEB70E94110987EF94E00E94FC0961E0F8
:1025C00080E00E94FB08809101014AE0BE016F5F3C
:1025D0007F4F90E00E949E1CCE0101960E94CA0986
:1025E0000F900F900F900F90DF91CF910895CF93A0
:1025F000DF9300D000D0CDB7DEB70E9411098FE580
:1026000094E00E94FC0961E080E00E94FB08809158
:1026100073044AE0BE016F5F7F4F90E00E949E1CF2
:10262000CE0101960E94CA090F900F900F900F9053
:10263000DF91CF910895CF93DF9300D000D0CDB735
:10264000DEB70E9411098DE494E00E94FC0980919C
:1026500006014AE0BE016F5F7F4F90E00E949E1C22
:10266000CE0101960E94CA090F900F900F900F9013
:10267000DF91CF910895CF93DF9300D000D0CDB7F5
:10268000DEB70E94110982E494E00E94FC0961E037
:1026900080E00E94FB08809172044AE0BE016F5FF7
:1026A0007F4F90E00E949E1CCE0101960E94CA09B5
:1026B0000F900F900F900F90DF91CF910895CF93CF
:1026C000DF9300D000D0CDB7DEB70E9411098EE2B3
:1026D00094E00E94FC0961E080E00E94FB084AE06F
:1026E000BE016F5F7F4F80910401909105010E94B0
:1026F0009E1CCE0101960E94CA090F900F900F9068
:102700000F90DF91CF910895CF93DF9300D01F9268
:10271000CDB7DEB70E9411098AE294E00E94FC095D
:1027200061E080E00E94FB0880916F044AE0BE01F6
:102730006F5F7F4F90E00E949E1CCE0101960E9429
:10274000CA090F900F900F90DF91CF910895FC016F
:102750008081813079F018F08430B0F41AC0809113
:102760006F048F5F883119F080936F040DC0109251
:102770006F040AC080916F04815018F080936F0439
:1027800003C087E180936F04862F0E94841380E04A
:10279000089581E00895FC0190819130D9F028F0EE
:1027A000923069F19330D1F134C080913405909129
:1027B0003505833AFDE09F0738F086E391E090937A
:1027C00035058093340525C00A969093350580938E
:1027D00034051FC08091340590913505873321E081
:1027E000920730F00A97909335058093340511C015
:1027F0008CEA9DE090933505809334050AC0609182
:1028000034057091350583E090E00E94F21C81E070
:102810000895862F0E945C1180E0089581E008955C
:10282000FC0190819130C9F028F0923059F1933039
:10283000C1F132C080914505909146058432F9E09E
:102840009F0730F40A96909346058093450524C06F
:1028500010924605109245051FC080914505909144
:102860004605863F2FEF920738F08EE299E090936D
:1028700046058093450510C00A97909346058093BE
:1028800045050AC060914505709146058AE090E0D3
:102890000E94F21C81E00895862F0E94EF1180E0D3
:1028A000089581E00895FC0190819130C9F028F0ED
:1028B000923059F19330C1F132C08091500590911E
:1028C00051058432F9E09F0730F40A969093510540
:1028D0008093500524C010925105109250051FC0DE
:1028E0008091500590915105863F2FEF920738F067
:1028F0008EE299E0909351058093500510C00A979D
:1029000090935105809350050AC0609150057091D5
:10291000510588E090E00E94F21C81E00895862F26
:102920000E94161280E0089581E00895FC019081D4
:10293000913081F028F09230B9F0933021F11EC02F
:102940008091040190910501019690930501809377
:10295000040114C0809104019091050101979093A6
:102960000501809304010AC0609104017091050182
:102970008EE090E00E94F21C81E00895862F0E9474
:102980005F1380E0089581E008950E94110981EBB2
:1029900095E00E94FC0961E080E00E94FB088BE367
:1029A00095E00E94CA098FEA95E00E94350982E508
:1029B00095E00E94CA098CEA95E00E9435090895C5
:1029C000FC018081833029F0862F0E94C51480E0AD
:1029D000089581E008950E94110983E695E00E9420
:1029E000FC0961E080E00E94FB0882E495E00E941F
:1029F000CA0981E695E00E9435098DE495E00E94C0
:102A0000CA098EE595E00E9435090895FC01808190
:102A1000833029F0862F0E94EB1480E0089581E036
:102A200008950E9411098FE295E00E94FC0961E07F
:102A300080E00E94FB088EE895E00E94CA098DE2C2
:102A400095E00E94350986E395E00E94CA098AE272
:102A500095E00E9435090895FC018081833029F0BA
:102A6000862F0E94111580E0089581E008950E944C
:102A7000110984EE94E00E94FC0961E080E00E946C
:102A8000FB088091710484FF05C081EE94E00E94F0
:102A9000350908958EED94E00E94350908950E944D
:102AA00011098CEC94E00E94FC0961E080E00E9436
:102AB000FB088091710482FF05C089EC94E00E94BC
:102AC0003509089586EC94E00E94350908950E9426
:102AD000110987EB94E00E94350961E080E00E94D3
:102AE000FB088091710483FF05C084EB94E00E9491
:102AF0003509089581EB94E00E94350908950E94FC
:102B000011098DE994E00E94FC0961E080E00E94D7
:102B1000FB088091710485FF05C086E994E00E945E
:102B20003509089582E994E00E94FC0908950E9405
:102B3000110981E894E00E94FC0961E080E00E94B4
:102B4000FB088091710486FF05C08EE794E00E9427
:102B5000350908958BE794E00E94350908950E9495
:102B600011098FE694E00E94FC0961E080E00E9478
:102B7000FB088091710488232CF48CE694E00E9479
:102B80003509089589E694E00E9435090895CF93A8
:102B9000DF9300D01F92CDB7DEB70E94110985E206
:102BA00094E00E94350961E080E00E94FB0880917A
:102BB0006E044AE0BE016F5F7F4F90E00E949E1C52
:102BC000CE0101960E94CA090F900F900F90DF91DD
:102BD000CF910895FC018081813079F018F0843024
:102BE000B0F41AC080916E048F5F8C3319F080931B
:102BF0006E040DC010926E040AC080916E04815064
:102C000018F080936E0403C08BE380936E04862FCC
:102C10000E94C71580E0089581E00895FC0190812D
:102C2000913071F028F09230A9F0933001F11AC080
:102C300080913E058A35B1F08F5F80933E0512C0CA
:102C400080913E0590913A05981760F481508093E9
:102C50003E0508C060913E058DE090E00E94E11CB9
:102C600081E00895862F0E94831180E0089581E01D
:102C70000895FC019081913081F028F09230A9F004
:102C8000933001F11AC080913A0590913E05891761
:102C9000A0F48F5F80933A0510C080913A0586308A
:102CA00060F0815080933A0508C060913A058CE04D
:102CB00090E00E94E11C81E00895862F0E94A711F8
:102CC00080E0089581E00895FC019081913091F0B9
:102CD00028F09230E1F0933039F121C080917004F6
:102CE0008F5F8093700490913905891318C01092FA
:102CF000700415C0809170048150809370048F3FE0
:102D000071F48091390581508093700408C06091FE
:102D1000700482E090E00E94E11C81E00895862F1B
:102D20000E94CB1180E0089581E00895FC0190811C
:102D3000913071F028F0923099F09330F1F018C092
:102D4000809103018A35A1F08F5F8093030110C049
:102D500080910301853160F081508093030108C0A8
:102D60006091030187E090E00E94E11C81E00895FA
:102D7000862F0E943D1280E0089581E00895FC01B5
:102D80009081913091F028F09230E1F0933039F158
:102D900021C0809102018F5F8093020190913905DB
:102DA000891318C01092020115C080910201815050
:102DB000809302018F3F71F4809139058150809397
:102DC000020108C06091020181E090E00E94E11CD4
:102DD00081E00895862F0E94611280E0089581E0CD
:102DE0000895FC019081913081F028F09230A9F093
:102DF000933001F11AC08091400590912B058917FD
:102E0000A0F48F5F8093400510C08091400586300C
:102E100060F081508093400508C06091400585E0D6
:102E200090E00E94E11C81E00895862F0E948512A7
:102E300080E0089581E00895FC019081913071F067
:102E400028F09230A9F0933001F11AC080912B053F
:102E50008332B0F48F5F80932B0512C080912B05D5
:102E600090914005981760F4815080932B0508C01D
:102E700060912B0586E090E00E94E11C81E00895BE
:102E8000862F0E94A91280E0089581E00895FC0138
:102E90009081913091F028F09230E1F0933039F147
:102EA00021C0809101018F5F8093010190913905CC
:102EB000891318C01092010115C080910101815041
:102EC000809301018F3F71F4809139058150809387
:102ED000010108C06091010180E090E00E94E11CC6
:102EE00081E00895862F0E94D31280E0089581E04A
:102EF0000895FC019081913061F028F0923079F0D2
:102F00009330D1F014C0809173048F5F8093730469
:102F10000EC08091730481508093730408C0609147
:102F2000730482E190E00E94E11C81E00895862F05
:102F30000E94F71280E0089581E00895FC019081DD
:102F4000913061F028F0923079F09330D1F014C0D4
:102F5000809106018F5F809306010EC0809106016B
:102F600081508093060108C06091060181E190E0E4
:102F70000E94E11C81E00895862F0E941B1380E0CF
:102F8000089581E00895FC019081913061F028F06E
:102F9000923079F0933019F114C0809172048F5FF0
:102FA000809372040EC080917204815080937204E9
:102FB00008C06091720480E190E00E94E11C81E011
:102FC000089520917204222329F030E03093830089
:102FD00020938200862F0E943B1380E0089581E0B9
:102FE0000895CF93C62FFC018081823018F0843081
:102FF00070F412C08091710482FF04C08F7E8093B0
:10300000710403C08061809371040E94A30C8C2F13
:103010000E94371580E001C081E0CF910895CF93E1
:10302000C62FFC018081823018F0843048F40DC036
:103030009091710484E08927809371040E94A30C0D
:103040008C2F0E944F1580E001C081E0CF91089540
:10305000CF93C62FFC018081823018F0843048F471
:103060000DC09091710488E08927809371040E94BB
:10307000A30C8C2F0E94671580E001C081E0CF91E6
:103080000895CF93C62FFC018081823018F08430E0
:1030900048F40DC09091710480E2892780937104F7
:1030A0000E94A30C8C2F0E947F1580E001C081E05C
:1030B000CF910895CF93C62FFC018081823018F004
:1030C000843048F40DC09091710480E48927809386
:1030D00071040E94A30C8C2F0E94971580E001C000
:1030E00081E0CF910895CF93C62FFC01808182307B
:1030F00018F0843040F40CC08091710480588093A3
:1031000071040E94A30C8C2F0E94AF1580E001C0B7
:1031100081E0CF91089580E491E0089586E00895DC
:1031200081B38F7081BB82B3806F82BB089587B3F8
:10313000876087BB88B3896088BB8BB38FEF8BBBFD
:103140009AB38ABB8DB183658DB908956E9887B3A4
:10315000897F87BB08954BB321E030E0F90102C0BD
:10316000EE0FFF1F8A95E2F7CF012E2F2095422305
:103170004BBB6FB9779BFECF9BB3892B8BBB8FB1BA
:1031800008951F920F920FB60F9211242F938F93D1
:103190009F93EF93FF938BB12CB18C71E091BC04A2
:1031A000EF5FEF719091BB04E91739F0E093BC0435
:1031B000F0E0E154FB4F208301C082E09091BA041B
:1031C000892B8093BA04FF91EF919F918F912F915A
:1031D0000F900FBE0F901F9018951F920F920FB671
:1031E0000F9211248F939F93EF93FF939091BE04BE
:1031F0008091BD04981761F0E091BD04EF5FEF711D
:10320000E093BD04F0E0E152FB4F80818CB901C036
:103210005598FF91EF919F918F910F900FBE0F9056
:103220001F9018951092BE041092BD041092BC0419
:103230001092BB04992314F422E02BB99078909358
:10324000900089B988E98AB986E08093950008954D
:103250002091BE042F5F2F719091BD042917E1F3D7
:10326000E22FF0E0E152FB4F80832093BE04559A99
:103270000895CF93DF93EC018881882331F0219664
:103280000E94281989918111FBCFDF91CF91089578
:10329000CF93DF93EC012196FC018491882339F0D0
:1032A0000E942819FE01849121968111F9CFDF91A6
:1032B000CF9108951F920F920FB60F9211242F9362
:1032C0008F939F93EF93FF9380919B0020919C009D
:1032D0008C71E0917704EF5FEF7190917604E917BC
:1032E00039F0E0937704F0E0E658FB4F208301C00B
:1032F00082E090917504892B80937504FF91EF9182
:103300009F918F912F910F900FBE0F901F90189546
:103310001F920F920FB60F9211248F939F93EF93EA
:10332000FF939091790480917804981769F0E09167
:103330007804EF5FEF71E0937804F0E0E656FB4F1E
:10334000808180939C0005C0EAE9F0E080818F7D58
:103350008083FF91EF919F918F910F900FBE0F90FF
:103360001F901895CF93DF93CDB7DEB761970FB657
:10337000F894DEBF0FBECDBF4AE0BE016F5F7F4F46
:103380000E949E1C0E94391961960FB6F894DEBF08
:103390000FBECDBFDF91CF9108952F923F924F92F4
:1033A0005F926F927F928F929F92AF92BF92CF92D5
:1033B000DF92EF92FF920F931F93CF93DF93CDB7DE
:1033C000DEB7A4970FB6F894DEBF0FBECDBF8C0159
:1033D0006A017B01390184E2E4E8F2E0DE01119642
:1033E00001900D928A95E1F7CB01BA010E94351B3D
:1033F0004B015C014AE0B801C4010E949E1CF80127
:103400008081882341F0C8010196FC01019620814A
:103410002111FBCF01C0F8018EE281931F01660CE0
:10342000771C660C771CFE01E60DF71D6181728129
:10343000838194810E946D1B2B013C01C501B40165
:103440000E946D1B9B01AC01C701B6010E94561A78
:103450009B01AC01C301B2010E94F91B0E94351B04
:103460009B01772324F422273327261B370B4AE0BE
:10347000B101C9010E949E1CC801A4960FB6F89420
:10348000DEBF0FBECDBFDF91CF911F910F91FF9097
:10349000EF90DF90CF90BF90AF909F908F907F90F4
:1034A0006F905F904F903F902F9008955058BB279A
:1034B000AA270E946E1A0C94BF1B0E94B11B38F001
:1034C0000E94B81B20F039F49F3F19F426F40C94A5
:1034D000AE1B0EF4E095E7FB0C94A81BE92F0E94AD
:1034E000D01B58F3BA17620773078407950720F0BB
:1034F00079F4A6F50C94F21B0EF4E0950B2EBA2F7E
:10350000A02D0B01B90190010C01CA01A0011124E9
:10351000FF27591B99F0593F50F4503E68F11A1695
:10352000F040A22F232F342F4427585FF3CF469526
:1035300037952795A795F0405395C9F77EF41F1648
:10354000BA0B620B730B840BBAF09150A1F0FF0F12
:10355000BB1F661F771F881FC2F70EC0BA0F621FFE
:10356000731F841F48F4879577956795B795F795EE
:103570009E3F08F0B0CF9395880F08F09927EE0F83
:103580009795879508950E94D71A0C94BF1B0E94A7
:10359000B81B58F00E94B11B40F029F45F3F29F09E
:1035A0000C94A81B51110C94F31B0C94AE1B0E949D
:1035B000D01B68F39923B1F3552391F3951B550B59
:1035C000BB27AA2762177307840738F09F5F5F4FF6
:1035D000220F331F441FAA1FA9F335D00E2E3AF035
:1035E000E0E832D091505040E695001CCAF72BD04D
:1035F000FE2F29D0660F771F881FBB1F261737079E
:103600004807AB07B0E809F0BB0B802DBF01FF27CF
:1036100093585F4F3AF09E3F510578F00C94A81BE9
:103620000C94F31B5F3FE4F3983ED4F386957795B3
:103630006795B795F7959F5FC9F7880F911D969588
:10364000879597F90895E1E0660F771F881FBB1FE4
:10365000621773078407BA0720F0621B730B840B91
:10366000BA0BEE1F88F7E09508950E943C1B689402
:10367000B1110C94F31B08950E94D81B88F09F573A
:1036800098F0B92F9927B751B0F0E1F0660F771F86
:10369000881F991F1AF0BA95C9F714C0B13091F07C
:1036A0000E94F21BB1E008950C94F21B672F782F53
:1036B0008827B85F39F0B93FCCF386957795679541
:1036C000B395D9F73EF490958095709561957F4FAD
:1036D0008F4F9F4F0895E89409C097FB3EF4909553
:1036E0008095709561957F4F8F4F9F4F9923A9F0DB
:1036F000F92F96E9BB279395F6958795779567956A
:10370000B795F111F8CFFAF4BB0F11F460FF1BC0AD
:103710006F5F7F4F8F4F9F4F16C0882311F096E940
:1037200011C0772321F09EE8872F762F05C06623EE
:1037300071F096E8862F70E060E02AF09A95660FA7
:10374000771F881FDAF7880F9695879597F9089560
:1037500097F99F6780E870E060E008959FEF80EC44
:10376000089500240A9416161706180609060895E7
:1037700000240A9412161306140605060895092E4D
:103780000394000C11F4882352F0BB0F40F4BF2BBC
:1037900011F460FF04C06F5F7F4F8F4F9F4F0895FC
:1037A00057FD9058440F551F59F05F3F71F04795F2
:1037B000880F97FB991F61F09F3F79F087950895D7
:1037C000121613061406551FF2CF4695F1DF08C0F6
:1037D000161617061806991FF1CF86957105610513
:1037E00008940895E894BB2766277727CB0197F9BB
:1037F00008950E940C1C0C94BF1B0E94B11B38F052
:103800000E94B81B20F0952311F00C94A81B0C9477
:10381000AE1B11240C94F31B0E94D01B70F3959FD8
:10382000C1F3950F50E0551F629FF001729FBB27B7
:10383000F00DB11D639FAA27F00DB11DAA1F649F53
:103840006627B00DA11D661F829F2227B00DA11D06
:10385000621F739FB00DA11D621F839FA00D611D8C
:10386000221F749F3327A00D611D231F849F600DAD
:10387000211D822F762F6A2F11249F5750409AF0D6
:10388000F1F088234AF0EE0FFF1FBB1F661F771F62
:10389000881F91505040A9F79E3F510580F00C942D
:1038A000A81B0C94F31B5F3FE4F3983ED4F386957A
:1038B00077956795B795F795E7959F5FC1F7FE2BCD
:1038C000880F911D9695879597F90895DB018F9341
:1038D0009F930E947C1CBF91AF91A29F800D911D70
:1038E000A39F900DB29F900D11240895EE0FFF1F1E
:1038F0000590F491E02D09940E948F1CA59F900DD6
:10390000B49F900DA49F800D911D11240895B7FFC1
:103910000C947C1C0E947C1C821B930B0895A29F1C
:10392000B001B39FC001A39F700D811D1124911D93
:10393000B29F700D811D1124911D0895BB274A303F
:1039400031F4992322F4BDE2909581959F4F0C9418
:10395000AA1CBB27FB015527AA27880F991FAA1F5E
:10396000A41710F0A41B83955051B9F7A05DAA339A
:1039700008F0A95DA193009779F7B111B193119265
:10398000CB010C94C31CDC01FC01672F71917723E0
:10399000E1F7329704C07C916D9370836291AE170A
:1039A000BF07C8F30895E199FECF9FBB8EBBE09A95
:1039B00099278DB30895A8E1B0E042E050E00C945F
:1039C000FA1C262FE199FECF9FBB8EBBE09A019790
:1039D0000DB2021631F02DBB0FB6F894E29AE19ABF
:1039E0000FBE08950196272F0E94E21C0C94E11C43
:1039F000DC01CB01FC01E199FECF06C0FFBBEEBBB1
:103A0000E09A31960DB20D9241505040B8F70895AA
:043A1000F894FFCF58
:103A14000A02011905000A0007000000010600005F
:103A240000020400000003050000001D0100000066
:103A34000000000000000000000001000000000081
:103A44000002000000000000030000000000000469
:103A5400A80200000000052A02B6020000000003CC
:103A64000F02C7020000000004EB01D902000000AD
:103A740000036902E8020000000006B501EE02003E
:103A840000000005760100035F1396140000000F88
:103A9400030000000002A3011303F71279170000CA
:103AA400001D031B139E170000002A033B13C317BA
:103AB4000000000F038413A7130000003503C7158B
:103AC400EA150000003A033715F117000000470318
:103AD4004F150F1800000056036715281800000042
:103AE40062037F154118000000720397155A1800ED
:103AF40000008303AF1573180000008C0311152C0C
:103B0400150000009B038512F116000000AA03A90A
:103B1400121C17000000BC03D3124717000000CB8F
:103B240003EB140615000000DA033D12961600009C
:103B340000E8036112BF16000000F703C514E01487
:103B4400000000030483110E160000001204A711E4
:103B540039160000001E040000000002570227046A
:103B6400CB1164160000003304EF111014000000A0
:103B74003B041612531400000043042811371100AB
:103B840000004D044211511100000058045C11CB97
:103B940013000000000000000A00000064000000A0
:103BA400E803000010270000A086010040420F0037
:103BB4008096980000E1F505484D56206265E16C59
:103BC4006CED74E17300507566666572206265E1A0
:103BD4006C6CED74E173004B617AE16E68E17A20FC
:103BE4007465726D6F737A74004BFC6C73F520E925
:103BF400727AE96B656CF50052656CE96B00566589
:103C04007AE9726CF5206265E16C6CED74E1730025
:103C1400537A697661747479FA207574E16E00F3ED
:103C24007261005465737A74FC7A656D004D656E3B
:103C3400FC206964F57AED74F5004C43442068E196
:103C44007474E972007065726300484D5620332025
:103C54006AE1726174FA005AF36E612066F66C646C
:103C6400737A696E74005AF36E6120656D656C65D4
:103C740074005075666665722033206AE17261745F
:103C8400FA0050756666657220737A697661747499
:103C940079FA0047E17A2072656CE90047E97068B7
:103CA400E17A20616B742068F56D0047E97068E182
:103CB4007A206D696E2068F56D0047E97068E17AD5
:103CC400206BED76E16E742068F56D0047E970684D
:103CD400E17A20737A656E7A6F7200427566666562
:103CE4007220616B742068F56D00456CF572656D2A
:103CF400656EF52068F56D00507566666572207313
:103D04007A656E7A6F7200484D5620616B74206834
:103D1400F56D00484D56206BED76E16E742068F524
:103D24006D00484D56206D696E2068F56D00484D54
:103D34005620F372E16B00484D5620737A656E7A13
:103D44006F72004D696E206964F5004D61782069D9
:103D540064F5004BFC6C73F52068F56D004BFC6C4E
:103D640073F52070E17261004BFC6C73F52068F50B
:0A3D74006D2074696C74E1730000A7
:00000001FF
